:020000040800F2
:1000000000000320F1430008353E0008373E000899
:10001000393E00083B3E00083D3E0008000000005D
:100020000000000000000000000000003F3E00084B
:10003000413E000800000000433E0008453E000825
:10004000414400084144000841440008414400087C
:10005000414400084144000841440008414400086C
:10006000414400084144000841440008414400085C
:10007000414400084144000841440008414400084C
:10008000414400084144000841440008414400083C
:10009000513E0008613E0008414400084144000808
:1000A000414400084144000841440008414400081C
:1000B000414400084144000841440008414400080C
:1000C00041440008414400084144000841440008FC
:1000D00041440008713E00084144000841440008C2
:1000E00041440008414400084144000841440008DC
:1000F00041440008414400084144000841440008CC
:1001000041440008414400084144000841440008BB
:100110004144000841440008813E00084144000871
:10012000414400084144000841440008414400089B
:10013000414400084144000841440008414400088B
:10014000913E0008A13E00084144000841440008D7
:10015000414400084144000841440008B13E000801
:10016000414400084144000841440008414400085B
:1001700041440008414400084144000800000000D8
:10018000414400084144000841440008C13E0008C1
:10019000414400084144000841440008414400082B
:0C01A000000000000000000041440008C6
:1001B00010B5054C237833B9044B13B10448AFF3A1
:1001C00000800123237010BD0C00002000000000FF
:1001D0008C44000808B5034B1BB103490348AFF337
:1001E000008008BD00000000100000208C440008C2
:1001F00081F0004102E000BF83F0004330B54FEAD8
:1002000041044FEA430594EA050F08BF90EA020F44
:100210001FBF54EA000C55EA020C7FEA645C7FEAD7
:10022000655C00F0E2804FEA5454D4EB5555B8BFFA
:100230006D420CDD2C4480EA020281EA030382EA6B
:10024000000083EA010180EA020281EA0303362DFD
:1002500088BF30BD11F0004F4FEA01314FF4801CD0
:100260004CEA113102D0404261EB410113F0004FE2
:100270004FEA03334CEA133302D0524263EB430399
:1002800094EA050F00F0A780A4F10104D5F1200E37
:100290000DDB02FA0EFC22FA05F2801841F1000192
:1002A00003FA0EF2801843FA05F359410EE0A5F166
:1002B00020050EF1200E012A03FA0EFC28BF4CF097
:1002C000020C43FA05F3C01851EBE37101F000454D
:1002D00007D54FF0000EDCF1000C7EEB00006EEB5A
:1002E0000101B1F5801F1BD3B1F5001F0CD34908E4
:1002F0005FEA30004FEA3C0C04F101044FEA44523B
:1003000012F5800F80F09A80BCF1004F08BF5FEAC1
:10031000500C50F1000041EB045141EA050130BDA1
:100320005FEA4C0C404141EB010111F4801FA4F144
:100330000104E9D191F0000F04BF01460020B1FA99
:1003400081F308BF2033A3F10B03B3F120020CDAD1
:100350000C3208DD02F1140CC2F10C0201FA0CF0AF
:1003600021FA02F10CE002F11402D8BFC2F1200C14
:1003700001FA02F120FA0CFCDCBF41EA0C019040CA
:10038000E41AA2BF01EB0451294330BD6FEA040413
:100390001F3C1CDA0C340EDC04F11404C4F12002FE
:1003A00020FA04F001FA02F340EA030021FA04F310
:1003B00045EA030130BDC4F10C04C4F1200220FA67
:1003C00002F001FA04F340EA0300294630BD21FAA5
:1003D00004F0294630BD94F0000F83F4801306BF6B
:1003E00081F480110134013D4EE77FEA645C18BF5F
:1003F0007FEA655C29D094EA050F08BF90EA020FF6
:1004000005D054EA000C04BF1946104630BD91EAED
:10041000030F1EBF0021002030BD5FEA545C05D1F0
:100420004000494128BF41F0004130BD14F580042F
:100430003CBF01F5801130BD01F0004545F0FE41A3
:1004400041F470014FF0000030BD7FEA645C1ABFD8
:10045000194610467FEA655C1CBF0B46024650EA0F
:10046000013406BF52EA033591EA030F41F400213B
:1004700030BD00BF90F0000F04BF0021704730B5C1
:100480004FF4806404F132044FF000054FF0000196
:1004900050E700BF90F0000F04BF0021704730B557
:1004A0004FF4806404F1320410F0004548BF40422C
:1004B0004FF000013EE700BF42004FEAE2014FEA81
:1004C00031014FEA02701FBF12F07F4393F07F4F5C
:1004D00081F06051704732F07F4208BF704793F05F
:1004E0007F4F04BF41F40021704730B54FF4607472
:1004F00001F0004521F000411CE700BF50EA010275
:1005000008BF704730B54FF000050AE050EA01021D
:1005100008BF704730B511F0004502D5404261EB8D
:1005200041014FF4806404F132045FEA915C3FF4CE
:10053000D8AE4FF003025FEADC0C18BF03325FEA6B
:10054000DC0C18BF033202EBDC02C2F1200300FA1C
:1005500003FC20FA02F001FA03FE40EA0E0021FA41
:1005600002F11444BDE600BF70B54FF0FF0C4CF42F
:10057000E06C1CEA11541DBF1CEA135594EA0C0FE1
:1005800095EA0C0F00F0DEF82C4481EA030621EA1C
:100590004C5123EA4C5350EA013518BF52EA033557
:1005A00041F4801143F4801338D0A0FB02CE4FF009
:1005B0000005E1FB02E506F00042E0FB03E54FF039
:1005C0000006E1FB03569CF0000F18BF4EF0010E31
:1005D000A4F1FF04B6F5007F64F5407404D25FEA2D
:1005E0004E0E6D4146EB060642EAC62141EA5551E0
:1005F0004FEAC52040EA5E504FEACE2EB4F1FD0C22
:1006000088BFBCF5E06F1ED8BEF1004F08BF5FEA9F
:10061000500E50F1000041EB045170BD06F0004651
:1006200046EA010140EA020081EA0301B4EB5C04FE
:10063000C2BFD4EB0C0541EA045170BD41F48011F6
:100640004FF0000E013C00F3AB8014F1360FDEBF1B
:10065000002001F0004170BDC4F10004203C35DAF7
:100660000C341BDC04F11404C4F1200500FA05F37A
:1006700020FA04F001FA05F240EA020001F000421B
:1006800021F0004110EBD37021FA04F642EB060191
:100690005EEA430E08BF20EAD37070BDC4F10C04BB
:1006A000C4F1200500FA04F320FA05F001FA04F27F
:1006B00040EA020001F0004110EBD37041F100016B
:1006C0005EEA430E08BF20EAD37070BDC4F1200576
:1006D00000FA05F24EEA020E20FA04F301FA05F2DE
:1006E00043EA020321FA04F001F0004121FA04F286
:1006F00020EA020000EBD3705EEA430E08BF20EA56
:10070000D37070BD94F0000F0FD101F0004640008F
:1007100041EB010111F4801F08BF013CF7D041EA11
:10072000060195F0000F18BF704703F00046520015
:1007300043EB030313F4801F08BF013DF7D043EAE6
:100740000603704794EA0C0F0CEA135518BF95EA9C
:100750000C0F0CD050EA410618BF52EA4306D1D123
:1007600081EA030101F000414FF0000070BD50EA42
:10077000410606BF1046194652EA430619D094EACC
:100780000C0F02D150EA013613D195EA0C0F05D1B6
:1007900052EA03361CBF104619460AD181EA03010A
:1007A00001F0004141F0FE4141F470014FF00000C2
:1007B00070BD41F0FE4141F4780170BD70B54FF05D
:1007C000FF0C4CF4E06C1CEA11541DBF1CEA1355DD
:1007D00094EA0C0F95EA0C0F00F0A7F8A4EB0504BF
:1007E00081EA030E52EA03354FEA013100F08880B6
:1007F0004FEA03334FF0805545EA131343EA12637F
:100800004FEA022245EA111545EA10654FEA002633
:100810000EF000419D4208BF964244F1FD0404F5EC
:10082000407402D25B084FEA3202B61A65EB030548
:100830005B084FEA32024FF480104FF4002CB6EB05
:10084000020E75EB030E22BFB61A754640EA0C0085
:100850005B084FEA3202B6EB020E75EB030E22BFC5
:10086000B61A754640EA5C005B084FEA3202B6EB06
:10087000020E75EB030E22BFB61A754640EA9C00C5
:100880005B084FEA3202B6EB020E75EB030E22BF95
:10089000B61A754640EADC0055EA060E18D04FEA53
:1008A000051545EA16754FEA06164FEAC30343EAF3
:1008B00052734FEAC2025FEA1C1CC0D111F4801FC0
:1008C0000BD141EA00014FF000004FF0004CB6E7B9
:1008D00011F4801F04BF01430020B4F1FD0C88BF58
:1008E000BCF5E06F3FF6AFAEB5EB030C04BFB6EB63
:1008F000020C5FEA500C50F1000041EB045170BD56
:100900000EF0004E4EEA113114EB5C04C2BFD4EB82
:100910000C0541EA045170BD41F480114FF0000E06
:10092000013C90E645EA060E8DE60CEA135594EA82
:100930000C0F08BF95EA0C0F3FF43BAF94EA0C0F85
:100940000AD150EA01347FF434AF95EA0C0F7FF4FA
:1009500025AF104619462CE795EA0C0F06D152EA4E
:1009600003353FF4FDAE1046194622E750EA410632
:1009700018BF52EA43067FF4C5AE50EA41047FF443
:100980000DAF52EA43057FF4EBAE12E74FF0FF3CA8
:1009900006E000BF4FF0010C02E000BF4FF0010C79
:1009A0004DF804CD4FEA410C7FEA6C5C4FEA430CF2
:1009B00018BF7FEA6C5C1BD001B050EA410C0CBF41
:1009C00052EA430C91EA030F02BF90EA020F0020A3
:1009D000704710F1000F91EA030F58BF994208BF0A
:1009E00090422CBFD8176FEAE37040F001007047C7
:1009F0004FEA410C7FEA6C5C02D150EA013C07D11E
:100A00004FEA430C7FEA6C5CD6D152EA033CD3D068
:100A10005DF8040B704700BF8446104662468C4662
:100A20001946634600E000BF01B5FFF7B7FF002895
:100A300048BF10F1000F01BD4DF808EDFFF7F4FFBE
:100A40000CBF012000205DF808FB00BF4DF808ED49
:100A5000FFF7EAFF34BF012000205DF808FB00BF6C
:100A60004DF808EDFFF7E0FF94BF012000205DF88E
:100A700008FB00BF4DF808EDFFF7CEFF94BF012043
:100A800000205DF808FB00BF4DF808EDFFF7C4FF3C
:100A900034BF012000205DF808FB00BF4A0011D2DE
:100AA00012F5001211D20DD56FF47873B3EB6252C8
:100AB0000ED44FEAC12343F0004343EA505323FAD4
:100AC00002F070474FF00000704750EA013002D149
:100AD0004FF0FF3070474FF0000070474FEA41027F
:100AE000B2F1E04324BFB3F5001CDCF1FE5C0DD98C
:100AF00001F0004C4FEAC0024CEA5070B2F1004FD6
:100B000040EB830008BF20F00100704711F0804FD8
:100B100021D113F13872BCBF01F00040704741F49D
:100B200080114FEA5252C2F11802C2F1200C10FAA1
:100B30000CF320FA02F018BF40F001004FEAC12385
:100B40004FEAD32303FA0CFC40EA0C0023FA02F329
:100B50004FEA4303CCE77FEA625307D150EA0133FF
:100B60001EBF4FF0FE4040F44000704701F00040CF
:100B700040F0FE4040F40000704700BF53B94AB94E
:100B8000002908BF00281CBF4FF0FF314FF0FF3095
:100B900000F072B9ADF1080C6DE904CE00F006F872
:100BA000DDF804E0DDE9022304B070472DE9F047E9
:100BB000089E04468846002B4BD18A42154667D9C9
:100BC000B2FA82F24AB1C2F1200701FA02F320FA26
:100BD00007F7954047EA030894404FEA154E230C67
:100BE000B8FBFEF71FFA85FC0EFB178843EA0843A3
:100BF00007FB0CF1994209D9EB1807F1FF3080F09F
:100C00001B81994240F21881023F2B445B1AA4B227
:100C1000B3FBFEF00EFB103344EA034400FB0CFC74
:100C2000A44509D92C1900F1FF3380F00781A445B0
:100C300040F2048102382C4440EA0740A4EB0C0443
:100C400000271EB1D4400023C6E900433946BDE861
:100C5000F0878B4209D9002E00F0EB800027C6E90F
:100C6000000138463946BDE8F087B3FA83F7002F14
:100C700047D18B4202D3824200F2FA80841A61EBA0
:100C8000030301209846002EE0D0C6E90048DDE7C6
:100C900002B9FFDEB2FA82F2002A40F08F80491BCF
:100CA0004FEA154E1FFA85F80127B1FBFEFC230C15
:100CB0000EFB1C1143EA014308FB0CF1994207D9D2
:100CC000EB180CF1FF3002D2994200F2CD8084463D
:100CD000591AA3B2B1FBFEF00EFB101443EA044410
:100CE00008FB00F8A04507D92C1900F1FF3302D208
:100CF000A04500F2B6801846A4EB080440EA0C4078
:100D00009FE7C7F1200CBB4022FA0CFE4EEA030E0F
:100D100001FA07F420FA0CF521FA0CF34FEA1E4809
:100D20002543B3FBF8F92C0C08FB19331FFA8EFA94
:100D300044EA034309FB0AF49C4202FA07F200FA70
:100D400007F10BD91EEB030309F1FF3080F0878018
:100D50009C4240F28480A9F1020973441B1BADB28E
:100D6000B3FBF8F008FB103345EA034400FB0AFA32
:100D7000A24508D91EEB040400F1FF336BD2A24553
:100D800069D90238744440EA0940A0FB0289A4EB07
:100D90000A044C45C2464B4654D351D0002E69D06C
:100DA000B1EB0A0564EB030404FA0CFCFD40FC40C3
:100DB0004CEA0505C6E90054002747E7C2F12003C5
:100DC00020FA03F7954001FA02F021FA03F34FEA03
:100DD000154E3843010CB3FBFEF71FFA85F80EFBE6
:100DE000173341EA034107FB08F38B4204FA02F48C
:100DF00007D9691807F1FF3C2FD28B422DD9023F4A
:100E00002944CB1A81B2B3FBFEF00EFB103341EA4A
:100E1000034100FB08F38B4207D9691800F1FF3C3E
:100E200017D28B4215D902382944C91A40EA07471C
:100E30003BE73746304609E70746E7E61846FBE654
:100E40004145ABD2B8EB020A69EB0E0201381346FA
:100E5000A4E76046E9E7184695E76746D1E781468B
:100E60007CE702382C4447E7ACF1020C2B442FE717
:100E7000384608E73746E9E6704700BF10B5044634
:100E80000E4B18784FF47A73B3FBF0F30C4A1068EA
:100E9000B0FBF3F000F07CFC68B90F2C01D9012005
:100EA0000AE0002221464FF0FF3000F031FC034BF6
:100EB0005C60002000E0012010BD00BF00000020A9
:100EC0000800002008B50B4B1A6842F400721A6043
:100ED0001A6842F480621A601A6842F480721A60DA
:100EE000032000F003FC0020FFF7C8FF02F058FFCA
:100EF000002008BD003C0240034A1168034B1B78E8
:100F00000B441360704700BF340000200000002035
:100F1000014B1868704700BF3400002038B5044604
:100F2000FFF7F6FF0546B4F1FF3F02D0044B1B78F4
:100F30001C44FFF7EDFF401BA042FAD338BD00BFB1
:100F400000000020002800F0A18038B5044690F889
:100F50002030D3B12268136823F002031360FFF737
:100F6000D7FF054623685A6812F0020F10D0FFF72A
:100F7000CFFF401B0A28F5D9636A43F4003363624C
:100F8000052384F82030012038BD01F087FFE1E718
:100F90001A6842F001021A60FFF7BAFF054623689B
:100FA0005A6812F0010F0DD1FFF7B2FF401B0A285B
:100FB000F5D9636A43F400336362052384F8203073
:100FC0000120E1E7227E012A3DD01A6822F080024A
:100FD0001A60637E012B3BD02268136823F0400324
:100FE0001360A37E012B39D02268136823F02003FD
:100FF0001360E37E012B37D02268136843F010039F
:101000001360237F012B35D02268136823F0080377
:101010001360637F012B33D02268136823F004032D
:101020001360A368E26813432269134362691343A0
:101030006268013A21681343CB610020606201239A
:1010400084F82030A0E71A6842F080021A60C0E7F6
:101050002268136843F040031360C2E722681368F4
:1010600043F020031360C4E72268136823F01003E1
:101070001360C6E72268136843F008031360C8E7EB
:101080002268136843F004031360CAE70120704725
:1010900090F82030DBB2012B0AD090F82030DBB280
:1010A000022B05D0436A43F480234362012070473A
:1010B00070B4424BD3F8002242F00102C3F8002280
:1010C000D3F8002222F47C52C3F80022D3F8002285
:1010D000486A42EA0022C3F800224A69012000FA65
:1010E00002F2D3F81C42D0430440C3F81C42CB693F
:1010F000B3B9324BD3F80C420440C3F80C42CE686B
:101100008D884C6945EA0645483443F834508E686A
:101110000C884D6944EA0644483503EBC5035C601E
:10112000CB69012B1DD08B69002B32D1234CD4F815
:1011300004320340C4F804320B698BBB1F4BD3F855
:1011400014422040C3F814020B6A012B2FD01B4A13
:10115000D2F8003223F00103C2F80032002070BC44
:101160007047164BD3F80C421443C3F80C420E6878
:101170008D884C6945EA0645483443F834508E68FA
:101180008C894D6944EA0644483503EBC5035C602D
:10119000C9E70A4CD4F804321343C4F80432CBE74D
:1011A0000648D0F814321343C0F81432CCE7034990
:1011B000D1F81C321A43C1F81C22C8E70064004071
:1011C00038B590F82030DBB2012B05D0436A43F4E8
:1011D00000234362012038BD0446022380F82030FA
:1011E0000268136823F001031360FFF791FE0546C0
:1011F00023685B6813F0010F0DD0FFF789FE401BD9
:101200000A28F5D9636A43F400336362052384F83E
:1012100020300120DFE700206062DCE770B490F846
:101220002040E4B2012C0AD090F82040E4B2022C15
:1012300005D0436A43F48023436201204DE00468F3
:10124000A56815F0806F07D1A56815F0006F03D170
:10125000A56815F0805F55D0A468C4F3016401252A
:10126000A5401D608B68002B39D10E68CB680568DE
:1012700043EA465604F118031B01EE5003680D695A
:1012800004F1180603EB06135D600B7D012B31D0D2
:10129000D17993791B0443EA0163517943EA01232D
:1012A000157901682B4325012944C1F88C31D17887
:1012B00093781B0443EA0163517843EA01231178D0
:1012C00002680B432A44C2F88831026818342401AA
:1012D000135943F001031351002070BC70474D684F
:1012E00043EAC503CD6806682B4304F118052D01B8
:1012F0007351C3E7036803EB0613596841F4807127
:101300005960C5E7436A43F4001343620120E4E7F0
:1013100030B490F82040E4B2012C0BD090F820407B
:10132000E4B2022C06D0436A43F4802343620120D6
:1013300030BC704751B90468E46814F0030F07D15A
:10134000436A43F4001343620120F1E701295DD0B1
:10135000056801F11B0424012C5904F00404946075
:10136000002C5ED1056801F11B0424012C59640D89
:101370001460056801F11B0424012D59C5F34005D3
:10138000D560056825446D6805F00F051561056891
:1013900025446D68C5F30725956105682C4464688C
:1013A000240C546104680A011444D4F8B8411C7038
:1013B00004681444D4F8B841240A5C7004681444E6
:1013C000D4F8B841240C9C7004681444D4F8B84193
:1013D000240EDC7004681444D4F8BC411C71046809
:1013E0001444D4F8BC41240A5C7104681444D4F851
:1013F000BC41240C9C7104682244D2F8BC21120E1A
:10140000DA71B1B101291BD0002091E70468246989
:1014100014F0030F9CD1436A43F40013436201208C
:1014200086E7056801F11B0424012C59E408546087
:101430009FE70268D36843F02003D360002077E77A
:101440000268136943F020031361002070E790F8ED
:101450002030DBB2012B0AD090F82030DBB2022B17
:1014600005D0436A43F48023436201207047026839
:1014700053691943516100207047704770477047A6
:1014800070477047704770477047704770477047A4
:1014900070472DE9F84F054603685C695F689E68F0
:1014A000D3F80C90D3F81080D3F818A014F0010FE3
:1014B0005AD016F0010F17D001229A6016F0020FD1
:1014C00008D116F0040F30D116F0080F07D04FF4F2
:1014D000805B0BE0FFF7D1FF4FF0000B06E0FFF75A
:1014E000CFFF4FF0000B01E04FF0000B16F4807FB0
:1014F0000BD02B684FF480729A6016F4007F17D1DE
:1015000016F4806F18D04BF4005B16F4803F2DD09A
:101510002B684FF480329A6016F4003F16D116F40F
:10152000802F17D04BF4004B20E04FF4006BDDE729
:101530002846FFF7A3FFE8E716F4006F02D04BF44C
:10154000804BE2E72846FFF79CFFDEE72846FFF7DF
:1015500096FF0BE016F4002F02D04BF4803B05E021
:101560002846FFF78FFF01E04FF0000B14F0080F43
:1015700007D019F0100F04D04BF4007B2B68102219
:10158000DA6014F0040F02D019F0080F60D114F0E3
:10159000020F04D02B68DB6813F0030F5FD114F047
:1015A000400F07D018F0100F04D04BF4806B2B685D
:1015B00010221A6114F0200F02D018F0080F52D137
:1015C00014F0100F04D02B681B6913F0030F51D1D6
:1015D00014F4003F02D017F0100F4FD114F4803FE5
:1015E00002D017F0080F50D114F4004F67D017F055
:1015F000040F61D014F4807F04D01AF0010F01D0E1
:101600004BF0010B14F4007F04D01AF0020F01D04C
:101610004BF0020B14F4806F04D01AF0040F01D0C9
:101620004BF0040B14F4006F46D01AF0700A43D04C
:10163000BAF1300F48D02FD9BAF1500F47D0BAF1D4
:10164000600F47D0BAF1400F31D14BF0400B2EE084
:101650002B680822DA602846FFF715FF97E728462F
:1016600001F08EFE9BE72B6808221A612846FFF7DF
:101670000CFFA5E72846FFF707FFA9E72B68102214
:101680005A602846FFF702FFA8E72B6808225A6035
:101690002846FFF7FCFEA7E7BAF1100F05D0BAF114
:1016A000200F04D14BF0100B01E04BF0080B2A681F
:1016B000936923F0700393612B6804225A60BBF195
:1016C000000F0AD1BDE8F88F4BF0200BEFE74BF08D
:1016D000800BECE74BF4807BE9E76B6A43EA0B0392
:1016E0006B622846FFF7D4FEECE70000074AD36898
:1016F00023F4E0631B041B0C000200F4E0601843B9
:1017000040F0BF6040F40030D060704700ED00E072
:1017100030B4174BDB68C3F30223C3F10704042C76
:1017200028BF04241D1D062D18D9033B4FF0FF359B
:1017300005FA04F421EA0401994005FA03F322EAC8
:101740000303194300280BDB0901C9B200F1604013
:1017500000F5614080F8001330BC70470023E5E7D6
:1017600000F00F000901C9B2024B1954F4E700BFA1
:1017700000ED00E014ED00E000F01F02400901233D
:101780009340024A42F82030704700BF00E100E079
:101790000138B0F1807F0AD2064B5860064AF0212A
:1017A00082F823100020986007221A6070470120F9
:1017B000704700BF10E000E000ED00E0042805D015
:1017C000054A136823F0040313607047024A136844
:1017D00043F004031360704710E000E0704708B561
:1017E000FFF7FCFF08BD90F83530DBB2022B03D0C9
:1017F0008023436501207047052380F83530026857
:10180000136823F0010313600020704700230F2B9F
:1018100000F2E380F0B482B039E0092200E0002257
:10182000B2403A4302346D4E46F824206C4A1468A4
:10183000EA4302EA04064F6817F4803F01D045EA04
:101840000406674C2660646802EA04064F6817F4D1
:10185000003F01D045EA0406614C6660A46802EAD4
:1018600004064F6817F4801F01D045EA04065C4C5B
:10187000A660E46822404E6816F4001F01D045EAD5
:101880000402574CE26001330F2B00F2A3800122C7
:101890009A400C6804EA0205AA42F4D14C68022C72
:1018A00001D0122C10D1DE08083650F826C003F003
:1018B0000704A7000F24BC402CEA040C0C69BC40B0
:1018C00044EA0C0440F8264004685F000326BE404A
:1018D000F64306EA040C4C6804F00304BC4044EAF6
:1018E0000C0404604C6804F1FF3CBCF1010F03D907
:1018F000112C01D0122C10D1846806EA040CCC689B
:10190000BC4044EA0C048460446824EA02024C6847
:10191000C4F300149C4014434460C26816408A68B3
:10192000BA403243C2604A6812F0805FABD00022F6
:1019300001922C4A546C44F480445464526C02F476
:1019400080420192019A9C08A61C244A52F82670F3
:1019500003F0030296000F22B24027EA0207224A50
:1019600090423FF45CAF02F58062904222D002F5D3
:101970008062904220D002F5806290421ED002F533
:10198000806290421CD002F5806290421AD002F52B
:101990008062904218D002F58062904216D002F523
:1019A0008062904214D002F5806290423FF435AFDD
:1019B0000A2235E7012233E7022231E703222FE72B
:1019C00004222DE705222BE7062229E7072227E735
:1019D000082225E702B0F0BC70477047003801408C
:1019E000003C0140003802400000024012B90904E6
:1019F0008161704781617047436959404161704717
:101A0000002800F0BB8170B582B00446036813F073
:101A1000010F3BD0A74B9B6803F00C03042B2CD089
:101A2000A44B9B6803F00C03082B21D06368B3F52B
:101A3000803F4FD0B3F5A02F52D09E4B1A6822F4AE
:101A400080321A601A6822F480221A606368002BC0
:101A500050D0FFF75DFA0546964B1B6813F4003F24
:101A600014D1FFF755FA401B6428F5D903208AE109
:101A7000904B5B6813F4800FD8D08E4B1B6813F427
:101A8000003F03D06368002B00F07A81236813F0D5
:101A9000020F55D0874B9B6813F00C0F3ED0854B3F
:101AA0009B6803F00C03082B33D0E368002B68D04D
:101AB000814B01221A60FFF72BFA05467D4B1B680C
:101AC00013F0020F54D1FFF723FA401B0228F5D977
:101AD000032058E1774A136843F480331360B5E775
:101AE000744B1A6842F480221A601A6842F48032F9
:101AF0001A60ABE7FFF70CFA05466E4B1B6813F450
:101B0000003FC3D0FFF704FA401B6428F5D9032037
:101B100039E1684B5B6813F4800FC6D1654B1B68D5
:101B200013F0020F04D0E368012B01D001202AE159
:101B3000604A136823F0F803216943EAC103136084
:101B4000236813F0080F40D0636963B35B4B012235
:101B50001A60FFF7DDF90546564B5B6F13F0020F75
:101B600033D1FFF7D5F9401B0228F5D903200AE14C
:101B7000504A136823F0F803216943EAC103136054
:101B8000DEE74D4B00221A60FFF7C2F90546494BCC
:101B90001B6813F0020FD3D0FFF7BAF9401B0228DD
:101BA000F5D90320EFE0454B00221A60FFF7B0F9AA
:101BB0000546404B5B6F13F0020F06D0FFF7A8F904
:101BC000401B0228F5D90320DDE0236813F0040F41
:101BD00079D0384B1B6C13F0805F33D10023019315
:101BE000344B1A6C42F080521A641B6C03F0805321
:101BF0000193019B0125324B1B6813F4807F23D096
:101C0000A368012B34D0052B38D02A4B1A6F22F051
:101C100001021A671A6F22F004021A67A368002BE8
:101C200036D0FFF775F90646224B1B6F13F0020FF3
:101C300048D1FFF76DF9801B41F288339842F3D900
:101C40000320A0E00025D6E71D4A136843F4807303
:101C50001360FFF75DF90646194B1B6813F4807F8C
:101C6000CED1FFF755F9801B0228F5D903208AE071
:101C7000104A136F43F001031367CFE70D4B1A6F40
:101C800042F004021A671A6F42F001021A67C5E7B0
:101C9000FFF73EF90646074B1B6F13F0020F11D0FA
:101CA000FFF736F9801B41F288339842F3D90320BD
:101CB00069E000BF0038024000004742800E474202
:101CC00000700040E5B9A369002B5BD0304A9268F0
:101CD00002F00C02082A58D0022B17D02D4B0022FC
:101CE0001A60FFF715F90446294B1B6813F0007FB3
:101CF00042D0FFF70DF9001B0228F5D9032042E07E
:101D0000234A136C23F080531364DCE7214B002239
:101D10001A60FFF7FDF805461D4B1B6813F0007FA6
:101D200006D0FFF7F5F8401B0228F5D903202AE07A
:101D3000E369226A1343626A43EA8213A26A520881
:101D4000013A43EA0243E26A43EA0263104A5360FB
:101D5000104B01221A60FFF7DBF804460C4B1B689E
:101D600013F0007F06D1FFF7D3F8001B0228F5D946
:101D7000032008E0002006E0002004E00120704776
:101D8000012000E0002002B070BD0120FBE700BF91
:101D90000038024060004742264B9B6803F00C036A
:101DA000042B44D0082B01D0234870472DE9F04B79
:101DB000204B5A6802F03F025B6813F4800F13D087
:101DC0001C4B5968C1F3881100231C48A1FB00017A
:101DD000FEF7D4FE174B5B68C3F3014301335B008E
:101DE000B0FBF3F0BDE8F08B124B5B68C3F38813D4
:101DF0001E4600275C010025E41A65EB0705A901D2
:101E000041EA9461A001001B61EB0501CB0043EAAC
:101E10005073C400A01943EB07018B0243EA9053AF
:101E20008402204619460023FEF7A8FED2E70348A5
:101E3000704700BF003802400024F400001BB700C8
:101E4000002800F09D8070B504464F4B1B6803F0DE
:101E50000F038B4209D2CBB24B4A1370136803F0C5
:101E60000F038B4201D0012070BD236813F0020FD5
:101E700017D013F0040F04D0444A936843F4E0539E
:101E80009360236813F0080F04D0404A936843F42A
:101E9000604393603D4A936823F0F003A0680343D6
:101EA00093600D46236813F0010F32D06368012B55
:101EB00021D09A1E012A25D9344A126812F0020F45
:101EC00060D032498A6822F0030213438B60FFF727
:101ED0001FF806462D4B9B6803F00C036268B3EBBA
:101EE000820F16D0FFF714F8801B41F28833984216
:101EF000F0D90320B8E7254A126812F4003FE0D178
:101F00000120B1E7214A126812F0007FD9D10120E7
:101F1000AAE71D4B1B6803F00F03AB4209D9EAB2D5
:101F2000194B1A701B6803F00F03AB4201D001205C
:101F30009AE7236813F0040F06D0144A936823F439
:101F4000E053E1680B439360236813F0080F07D058
:101F50000E4A936823F46043216943EAC103936006
:101F6000FFF71AFF094B9B68C3F30313084AD35CBE
:101F7000D840084B18600020FEF780FF002073E770
:101F80000120704701206FE7003C0240003802400A
:101F9000A444000808000020014B1868704700BFE7
:101FA0000800002008B5FFF7F7FF044B9B68C3F358
:101FB0008223034AD35CD84008BD00BF00380240EA
:101FC000B444000808B5FFF7E7FF044B9B68C3F370
:101FD0004233034AD35CD84008BD00BF00380240FA
:101FE000B444000800283BD010B5044600238362A7
:101FF00090F85130002B2ED0022384F85130226803
:10200000136823F0400313606368A2681343E26817
:1020100013432269134362691343A26902F40072F5
:102020001343E2691343226A1343A16A22680B43F4
:102030001360638B03F00403616A22680B435360EF
:102040002268D36923F40063D36100206065012313
:1020500084F8513010BD80F8503001F077FECBE7A6
:102060000120704770B4036A23F001030362036A1E
:102070004268846924F073040D6845EA040623F07D
:1020800002048B6823430C4DA84202D00B4CA042A3
:102090000BD123F00803CD682B4323F0040322F473
:1020A00040724D6915438A692A43426086614A68D5
:1020B0004263036270BC70470000014000040140AD
:1020C00030B4036A23F480730362036A4268C4690C
:1020D00024F073040D682C4323F400738D6843EAE5
:1020E00005230E4DA84203D005F58065A8420ED108
:1020F00023F40063CD6843EA052323F4806322F4CC
:1021000040524D6942EA05128D6942EA0512426069
:10211000C4614A68C263036230BC7047000001407A
:1021200030B4036A23F480530362036A4468C269CB
:1021300022F4E6420D6842EA052223F400538D683A
:1021400043EA0533094DA84203D005F58065A8424E
:1021500004D124F480444D6944EA85144460C2618A
:102160004A680264036230BC704700BF000001404F
:102170000268D36843F00103D3600268136843F038
:102180000103136000207047704770477047704725
:1021900010B5044603681A6912F0020F11D0DA680C
:1021A00012F0020F0DD06FF002021A6101230376C4
:1021B00003689B6913F0030F70D0FFF7E6FF00235D
:1021C000237623681A6912F0040F12D0DA6812F02D
:1021D000040F0ED06FF004021A61022323762368E5
:1021E0009B6913F4407F5FD02046FFF7CEFF0023AA
:1021F000237623681A6912F0080F12D0DA6812F0F9
:10220000080F0ED06FF008021A61042323762368AA
:10221000DB6913F0030F4ED02046FFF7B6FF002313
:10222000237623681A6912F0100F12D0DA6812F0C0
:10223000100F0ED06FF010021A6108232376236866
:10224000DB6913F4407F3DD02046FFF79EFF00235B
:10225000237623681A6912F0010F03D0DA6812F0AE
:10226000010F36D123681A6912F0800F03D0DA68A3
:1022700012F0800F34D123681A6912F0400F03D096
:10228000DA6812F0400F32D123681A6912F0200F79
:1022900003D0DA6812F0200F30D110BDFFF774FFC1
:1022A0002046FFF773FF8AE72046FFF76DFF2046C1
:1022B000FFF76CFF9BE72046FFF766FF2046FFF71E
:1022C00065FFACE72046FFF75FFF2046FFF75EFFA4
:1022D000BDE76FF001021A61204601F0ABF9C1E7DA
:1022E0006FF080021A61204600F0C4F9C3E76FF076
:1022F00040021A612046FFF74AFFC5E76FF020024F
:102300001A61204600F0B5F9C7E7000003682E4ABD
:10231000904212D0B0F1804F0FD0A2F57C42904293
:102320000BD002F58062904207D002F580629042A5
:1023300003D002F57842904203D123F070034A683B
:102340001343214A90422AD0B0F1804F27D0A2F502
:102350007C42904223D002F5806290421FD002F569
:10236000806290421BD002F57842904217D002F56D
:102370007052904213D002F5806290420FD002F565
:10238000806290420BD0A2F59832904207D002F5BD
:102390008062904203D002F58062904203D123F420
:1023A0004073CA68134303608B68C3620B6883621F
:1023B000054B984203D003F58063984201D10B6925
:1023C000036301234361704700000140A8B110B5C9
:1023D000044690F839305BB1022384F83930211D6E
:1023E0002068FFF793FF012384F83930002010BDE7
:1023F00080F8383001F0E6FDEEE701207047A8B123
:1024000010B5044690F839305BB1022384F83930B6
:10241000211D2068FFF77AFF012384F8393000205E
:1024200010BD80F8383001F0A3FDEEE701207047C1
:1024300030B4036A23F010030362036A44688269BC
:1024400022F4E6420D6842EA052223F020038D685B
:1024500043EA05130E4DA84203D005F58065A84256
:102460000ED123F08003CD6843EA051323F0400327
:1024700024F440644D6944EA85048D6944EA850486
:10248000446082614A688263036230BC704700BF67
:102490000000014038B590F83830012B66D00D4669
:1024A0000446012380F83830022380F839300C2AA2
:1024B0001AD8DFE802F00719191920191919341967
:1024C000191947000068FFF7CDFD2268936943F0B2
:1024D000080393612268936923F0040393612268DF
:1024E000936929690B439361012384F839300020F3
:1024F00084F8380038BD0068FFF79AFF22689369B6
:1025000043F4006393612268936923F480639361C9
:1025100022689369296943EA01239361E4E700682B
:10252000FFF7CEFD2268D36943F00803D361226828
:10253000D36923F00403D3612268D36929690B436B
:10254000D361D1E70068FFF7EBFD2268D36943F45C
:102550000063D3612268D36923F48063D361226866
:10256000D369296943EA0123D361BDE70220C1E7AA
:1025700010B4012303FA01F4036A23EA040303629B
:10258000036A8A40134303625DF8044B70470000FE
:1025900010B5044601220068FFF7EAFF2368094AE4
:1025A000934203D002F58062934203D15A6C42F405
:1025B00000425A642268136843F00103136000204C
:1025C00010BD00BF0000014090F83830012B22D030
:1025D00030B4012280F83820022380F839300468B2
:1025E000636823F070036360046863680D682B43BD
:1025F00063600468A36823F08003A3600468A36891
:1026000049680B43A36080F83920002380F83830F4
:10261000184630BC70470220704790F83830012BC4
:1026200025D0012380F83830CB6823F440738A68C2
:10263000134323F480634A68134323F400630A6856
:10264000134323F480530A69134323F400534A6964
:10265000134323F480438A69134323F40043134351
:1026600002685364002380F838301846704702200F
:102670007047704770470268D36823F49073D36043
:102680000268536923F001035361202380F83A3034
:10269000704790F83930DBB2212B2AD18368B3F52B
:1026A000805F16D0036A5A1C02621A7803685A6067
:1026B000C38C013B9BB2C384EBB90268D36823F09F
:1026C0008003D3600268D36843F04003D3600020E6
:1026D0007047036A1B880268C3F3080353600369E9
:1026E0001BB9036A02330362E2E7036A0133036240
:1026F000DEE7022070470020704700002DE9F84314
:10270000044601680A6922F44052C36813430B610E
:102710000168CA6822F4164222F00C02836800693C
:10272000034360690343E06903431343CB602168BB
:102730004A6922F44072A36913434B61E369B3F51C
:10274000004F60D02368B84A934200F0148102F52C
:102750008062934200F00F81FFF724FC00EB8000C1
:1027600000EB80006568AD00B0FBF5F5AF4FA7FB4F
:1027700005356D092E01FFF715FC00EB800000EB1D
:1027800080006568AD00B0FBF5F9FFF70BFC00EBCE
:10279000800000EB80006568AD00B0FBF5F5A7FB9D
:1027A00005356D094FF0640808FB15952D0132358C
:1027B000A7FB05356D0905F0F0053544FFF7F2FB81
:1027C00000EB800000EB80006668B600B0FBF6F618
:1027D000FFF7E8FB00EB800000EB800063689B00E4
:1027E000B0FBF3F0A7FB0030400908FB10684FEA8C
:1027F000081808F13208A7FB0837C7F34317236806
:102800002F449F600DE12368874A93425BD002F515
:102810008062934257D0FFF7C5FB00EB800000EBCE
:10282000800065686D00B0FBF5F5804FA7FB0535AE
:102830006D092E01FFF7B6FB00EB800000EB800076
:1028400065686D00B0FBF5F9FFF7ACFB00EB8000AD
:1028500000EB800065686D00B0FBF5F5A7FB053562
:102860006D094FF0640808FB1595ED003235A7FBA4
:1028700005356D096D0005F4F8753544FFF792FBD9
:1028800000EB800000EB800066687600B0FBF6F697
:10289000FFF788FB00EB800000EB800063685B00C3
:1028A000B0FBF3F3A7FB03235B0908FB13684FEAB4
:1028B000C80808F13208A7FB0837C7F34217236896
:1028C0002F449F60ADE0FFF77DFB00EB800000EB45
:1028D000800065686D00B0FBF5F5544FA7FB05352A
:1028E0006D092E01FFF76EFB00EB800000EB80000E
:1028F00065686D00B0FBF5F9FFF764FB00EB800045
:1029000000EB800065686D00B0FBF5F5A7FB0535B1
:102910006D094FF0640808FB1595ED003235A7FBF3
:1029200005356D096D0005F4F8753544FFF74AFB70
:1029300000EB800000EB800066687600B0FBF6F6E6
:10294000FFF740FB00EB800000EB800063685B005A
:10295000B0FBF3F3A7FB03235B0908FB13684FEA03
:10296000C80808F13208A7FB0837C7F342172368E5
:102970002F449F6055E0FFF725FB00EB800000EB44
:1029800080006568AD00B0FBF5F5284FA7FB053565
:102990006D092E01FFF716FB00EB800000EB8000B5
:1029A0006568AD00B0FBF5F9FFF70CFB00EB8000AC
:1029B00000EB80006568AD00B0FBF5F5A7FB0535C1
:1029C0006D094FF0640808FB15952D013235A7FB02
:1029D00005356D0905F0F0053544FFF7F3FA00EB16
:1029E000800000EB80006668B600B0FBF6F6FFF7EB
:1029F000E9FA00EB800000EB800063689B00B0FB0D
:102A0000F3F0A7FB0030400908FB10684FEA0818F4
:102A100008F13208A7FB0837C7F3431723682F4490
:102A20009F60BDE8F88300BF001001401F85EB5197
:102A30002DE9F04105460F4616469846069C2B6840
:102A40001B6837EA03030CBF01230023B3421DD1E7
:102A5000B4F1FF3FF3D02CB1FEF75AFAA0EB080017
:102A6000A042ECD92A68D36823F4D073D3602A68D3
:102A7000536923F001035361202385F8393085F829
:102A80003A30002385F83830032000E00020BDE80C
:102A9000F08158B310B5044690F839300BB32423B5
:102AA00084F839302268D36823F40053D360204679
:102AB000FFF724FE2268136923F490431361226810
:102AC000536923F02A0353612268D36843F4005307
:102AD000D3600020E063202384F8393084F83A3052
:102AE00010BD80F8383001F0DDFBD8E701207047D9
:102AF0002DE9F04182B01E4690F83930DBB2202B30
:102B000055D104460D469046002955D0002A55D08F
:102B100090F83830012B53D0012380F8383000234F
:102B2000C363212380F83930FEF7F2F90746A4F891
:102B30002480A4F8268010E000963B4600228021E5
:102B40002046FFF775FF00283CD12B882268C3F38D
:102B5000080353602369C3B90235E38C9BB2B3B158
:102B6000E38C013B9BB2E384A368B3F5805FE3D0C1
:102B700000963B46002280212046FFF759FF18BBF4
:102B80002A7823685A600135E7E70135E5E70096C2
:102B90003B46002240212046FFF74AFF0346A8B9E2
:102BA000202284F83920002284F8382000E0022313
:102BB000184602B0BDE8F0810123F9E70123F7E7E9
:102BC0000223F5E70323F3E70323F1E70323EFE70A
:102BD00090F83A30DBB2202B1BD1E1B1EAB190F88A
:102BE0003830012B1BD081628285C2850023C363EC
:102BF000222280F83A2080F8383001684A6942F091
:102C000001024A610168CA6842F49072CA601846BB
:102C10007047022070470120704701207047022052
:102C20007047704708B50168CB6823F04003CB605C
:102C3000202380F83930FFF7F4FF002008BD08B5E5
:102C400090F83A30DBB2222B40D18368B3F5805F35
:102C50000ED0036903BB03685A68836A591C8162FA
:102C60001A70C38D013B9BB2C385F3B100202EE0E7
:102C7000826A036943B903685B68C3F3080313807E
:102C8000836A02338362ECE703685B68DBB213801C
:102C9000836A01338362E4E703685B68826A511CDC
:102CA000816203F07F031370DBE70268D36823F4CB
:102CB0009073D3600268536923F0010353612023AA
:102CC00080F83A3000F018FB002000E0022008BD38
:102CD0007047000010B5044602681368D168526955
:102CE00013F00F0005D113F0200F02D011F0200FC8
:102CF00053D1002867D012F0010202D111F4907F65
:102D000061D013F0010F06D011F4807F03D0E06B87
:102D100040F00100E06313F0040F04D01AB1E06B3F
:102D200040F00200E06313F0020F04D01AB1E06B30
:102D300040F00400E06313F0080F04D01AB1E26B16
:102D400042F00802E263E26B002A48D013F0200F41
:102D500002D011F0200F24D123685B6903F04003F7
:102D6000E26B12F0080F00D13BB32046FFF783FC63
:102D700023685A6912F0400F1BD05A6922F04002B2
:102D80005A61636B8BB11A4A1A65606BFEF72BFDB3
:102D900028B3606B036D984721E02046FFF74FFF93
:102DA0001DE02046FFF74BFFD6E72046FFF790FFD8
:102DB00015E02046FFF78CFF11E02046FFF788FF63
:102DC0000023E3630BE013F0800F02D011F0800FBB
:102DD00006D113F0400F02D011F0400F04D110BD06
:102DE0002046FFF756FCFAE72046FFF71BFFF6E701
:102DF000F52D000808B5806B0023C385C384FFF759
:102E000067FF08BD08B50F480F4B036007234360F9
:102E100000238360C3604FF4803202614FF40012DC
:102E200042610376437683760122C2760377427746
:102E3000FEF788F800B908BD4621044800F09CFC64
:102E4000F9E700BF6000002000640040BC440008B7
:102E500008B50F480F4B03600723436000238360CE
:102E6000C3604FF4803202614FF400124261037676
:102E7000437683760122C27603774277FEF762F8C3
:102E800000B908BD5C21044800F076FCF9E700BFFA
:102E90003800002000680040BC44000810B588B02D
:102EA00003683C4A934204D03B4A934232D008B074
:102EB00010BD3A4A136801331360012B1DD0032360
:102EC0000393022204920024059406930923079396
:102ED00003A93348FEF79AFC224621461420FEF748
:102EE00017FC1420FEF748FC224621461520FEF769
:102EF0000FFC1520FEF740FCD9E700230093294B77
:102F00001A6C42F000721A641B6C03F00073009399
:102F1000009BD4E700230193224B1A6C42F080629D
:102F20001A641B6C03F080630193019B1B4A1368B6
:102F300001331360012B1FD04FF44053039302233E
:102F4000049300240594032306930923079303A9FC
:102F50001548FEF75BFC224621464020FEF7D8FBD1
:102F60004020FEF709FC224621464120FEF7D0FB17
:102F70004120FEF701FC9AE700230293094B1A6CEB
:102F800042F000721A641B6C03F000730293029B00
:102F9000D2E700BF00640040006800402800002025
:102FA000000C0240003802400004024010B58AB014
:102FB000002405940694012307930094019402943D
:102FC000039404940893099469460548FEF760F851
:102FD0000994059469460348FEF75AF80AB010BDF3
:102FE00060000020380000202DE9F0418CB0002462
:102FF00000943E4B1A6B42F010021A631A6B02F0F7
:1030000010020092009A01941A6B42F040021A6377
:103010001A6B02F040020192019A02941A6B42F07C
:1030200001021A631A6B02F001020292029A0394DF
:103030001A6B42F002021A631A6B02F00202039248
:10304000039A04941A6B42F008021A631A6B02F096
:1030500008020492049A05941A6B42F080021A63E3
:103060001A6B02F080020592059A06941A6B42F0E0
:1030700020021A631B6B03F020030693069BDFF804
:10308000788022463C214046FEF7B0FC184F0122D2
:1030900044F240013846FEF7A9FC164E01224FF4D7
:1030A00000613046FEF7A2FC3C23079301250895FA
:1030B00009940A9407A94046FEF7A8FB44F240038E
:1030C0000793089509940A9407A93846FEF79EFBD2
:1030D0004FF400630793089509940A9407A93046B2
:1030E000FEF794FB0CB0BDE8F08100BF0038024051
:1030F0000014024000100240001C0240014B186006
:10310000704700BF7402002000B583B002A901F827
:10311000010D4FF6FF73012203480068FFF7E8FC3A
:1031200003B05DF804FB00BF7402002010B5044634
:10313000092808D804F13000C0B2FFF7E5FF0120EC
:10314000FDF7ECFE10BD3F20FFF7DEFFF2E708B50C
:103150000D20FFF7D9FF08BD10B504462020FFF76A
:10316000D3FF02E0FFF7D0FF013420780028F9D127
:1031700010BD0000000000002DE9F04755EC104B99
:10318000824657A3D3E9002310EE100A2946FDF723
:103190007BFC002840F0908053A3D3E90023204615
:1031A0002946FDF753FC002840F08980BAF10F0F43
:1031B00000F388802020FFF7A7FF0022002320468D
:1031C0002946FDF743FCF0B949A7D7E90067324625
:1031D0003B4620462946FDF7F1FA00223E4BFDF71B
:1031E00035FC002850D000223B4B30463946FDF7D5
:1031F00023FC78B90022394B30463946FDF7DEFA18
:1032000006460F46E3E72D20FFF77EFF05F100435A
:103210001D46D9E74FF0000827E032463B462046DE
:103220002946FDF7CBFAFDF739FC5FFA80F94846ED
:10323000FDF730F932463B46FDF796F902460B465C
:1032400020462946FCF7D8FF04460D464846FFF7BE
:103250006DFF0022214B30463946FDF7AFFA064696
:103260000F4608F101085FFA88F8D0451ADA18A36A
:10327000D3E9002330463946FDF7DEFB0028CCD0E9
:103280002E20FFF741FFC8E74FF00008EDE70020D0
:10329000FFF74CFF0022114B30463946FDF78EFAFE
:1032A00006460F4600220C4B30463946FDF7E2FB3E
:1032B0000028ECD1BDE8F0874FF0FF30FAE74FF07F
:1032C000FF30F7E74FF0FF30F4E700BFAFF30080C7
:1032D0009A9999999999B93F0000F03F00002440CC
:1032E00000000000006AF84000000000006AF8C01A
:1032F000000000000088C34038B502681C4B1B6802
:103300009A4200D038BD1B4C122221461848FFF7C4
:103310005FFC6078030203F4E063227813431649EC
:10332000A3F580630B80A5786A0102F4FC6242EA8F
:10333000D002A2F580624A802079830203F4806380
:10334000E27843EA820343EA9513A3F580638B8016
:103350006279D30103F4F06343EA5003A3F5806379
:10336000CB80C2F301130B7292094A72CAE700BF05
:103370001C040020900200208800002000000000B3
:103380002DE9F04104460268434B1B689A4206D07F
:103390002268424B1B689A4237D0BDE8F081404D0D
:1033A000404E2B4632460021FDF7B2FF3768A7F2A8
:1033B00001282B78697801EB03213B4E4FEA48073F
:1033C00007EB08039A00B318B152AA78E87800EB2B
:1033D000022000B2588029796A7902EB01229A8092
:1033E000AA79DA80FDF756F827A3D3E90023FDF781
:1033F000BBF827A3D3E90023FDF7E0F9FDF76EFB47
:103400004744BB001E44B060C2E7264D244B2A4609
:1034100000212046FDF77CFF2B6840F206229342F4
:103420002BD040F20722934229D040F2052293424A
:1034300027D000241A4B19785A7802EB01222280F7
:103440009A78D87800EB022000B2608019795A7916
:1034500002EB0122A2809B79E380FDF71BF80AA30F
:10346000D3E90023FDF780F809A3D3E90023FDF792
:10347000A5F9FDF733FBA0608FE70C4CDAE70C4CA5
:10348000D8E70C4CD6E700BFEA2E4454FB21194084
:103490000000000000D091403800002060000020B3
:1034A0000002002058020020A0000020840200201A
:1034B000780200209400002030B583B0314BB3F97E
:1034C000062007EE902AF8EEE77ADFED2F6A87EE06
:1034D000A67A9FED2E6A27EE067A2D4880ED057AB2
:1034E000B3F9042007EE902AF8EEE77AF1EE677A56
:1034F00087EEA67A67EE067AC0ED067AB3F9003059
:1035000007EE903AF8EEE77AF1EE677A87EEA67A60
:10351000DFED207A67EE277AC0ED077A00F030FA07
:10352000002428E004F11002194B03EB820393ED11
:10353000007A65002B199A00174B1344B3F9023037
:1035400007EE903AF8EEE77A77EE677AFDEEE77AE3
:10355000124B2C2000FB0430F8EEE77AC0ED0A7A1B
:1035600000F068FBBDEEC00A02AB1D4410EE103A3D
:1035700025F8083C0134032CD4DD684600F0EAFA53
:1035800003B030BD880000200000254400404E45B7
:103590000802002000009643A000002050010020F7
:1035A00010B582B0FFF788FF1B4B5B7A012B2FD041
:1035B000DFED1A7AF8EEE77A9FED197A27EE877A2F
:1035C000184BB3F9023007EE903AF8EEE77A77EE4F
:1035D000677A1548C0ED0A7A144CC4ED017A0023CD
:1035E000ADF80030ADF8023000F024FBBDEEC00AAB
:1035F00010EE103A1BB2ADF8043007EE903AB8EE78
:10360000E70A84ED030A684600F0DCFA02B010BD58
:10361000DFED077ACEE700BF880000200000000041
:10362000000061C478020020A4020020D000002025
:103630000100000008B50E4A1368013313600268E8
:103640000C4B1B689A4200D008BDFFF7A9FF084A3F
:10365000536801335360B3F5FA7FF5DB4FF48041D3
:103660000548FEF7C9F9024B00225A60ECE700BF9B
:103670002C0000202803002000140240002213E048
:103680000B492C2303FB02134FF0804119600949B9
:103690005960094999600021D960084919610849B0
:1036A0005961084999610132032AE9DD704700BF79
:1036B000500100200000D0400000484200606A46EF
:1036C0000000FA436666663F054B064A1A60064AE2
:1036D0005A60064A9A600022DA601A61704700BF99
:1036E000080200200000EF430000C5430080CF43E4
:1036F00010B5104C236840F2DC525A631A6440F64D
:10370000B830FDF70BFC236840F2C4445C631C64D2
:1037100041F28830FDF702FC07E0064B1B685C6352
:103720001C641E20FDF7FAFB0134B4F5AF6FF4DB27
:1037300010BD00BF64030020084B4FF080421A60A8
:10374000074A5A60074A9A60074ADA60074A1A61CC
:10375000074A5A61074A9A61704700BFA4020020D5
:103760000000204100004842295C8F3D0060EA468D
:1037700000401C466666663FFEE7000000B595B057
:10378000002101912B4B1A6C42F080521A641B6C81
:1037900003F080530193019B0291274B1A6842F476
:1037A00040421A601B6803F440430293029B0123CA
:1037B00008934FF48033099302230E934FF4800251
:1037C0000F9206221092A8221192129304231393AF
:1037D00008A8FEF715F920BB0F23039302230493D7
:1037E000002305934FF4A05306934FF4805307939F
:1037F000052103A8FEF724FBB8B9FEF7CDFB0F4B5C
:10380000A3FB00308009FDF7C3FF0420FDF7D6FFBE
:10381000002211464FF0FF30FDF77AFF15B05DF83A
:1038200004FBD8210648FFF7A7FFE6210448FFF76D
:10383000A3FF00BF0038024000700040D34D62106B
:10384000CC44000838B5FDF73DFBFFF797FFFFF7C5
:10385000CBFB00F063FB00F053FAFFF7F9FAFFF738
:10386000D1FA00F073FC00F00BFC00F0DDFC00F07E
:103870009FFC00F0BBFC00F0F7FC354C002120461B
:10388000FEF786FE0C212046FEF782FEFFF730FF92
:10389000FFF7F4FEFFF750FFFFF788FBFFF714FF79
:1038A00012222C492C48FFF793F92C48FEF760FCB4
:1038B0002B48FFF723FC2B4D2846FDF781FC2A4CB3
:1038C0002046FDF77DFC02212846FDF7C0FD0221C0
:1038D0002046FDF7BCFD254C012204212046FEF7C1
:1038E00085F8012208212046FEF780F801221021E8
:1038F0002046FEF77BF8012220212046FEF776F8CD
:1039000012E01B4B03EB84031868FCF7D5FD41EC78
:10391000100B0520FFF730FC1648FFF71DFC0134A3
:10392000032CEEDDFFF713FC134B5B7A07EE903AA6
:103930000F4BF8EE677AC3ED007A104AB2F9022015
:1039400007EE902AF8EEE77AC3ED027A0024E7E763
:1039500064030020900200201C04002028030020A3
:10396000DC0300206000002038000020001C024022
:10397000D0000020DC4400088800002078020020ED
:1039800070B485B00446D0ED027A90ED017A77EEFE
:10399000877AB6EE007A67EE877A90ED037A37EE93
:1039A000C76AD0ED046A76EE265A9FED615A85EE1D
:1039B000853A36EE666AC6EE053A77EE877A37EED6
:1039C000E67A87EE054A76EEA76AC6EE854AD0ED1E
:1039D000007A9FED587A67EE877A9FED577AC7EEA7
:1039E000276AD0ED057A9FED557AF4EEC77AF1EEAD
:1039F00010FA4BD884ED057AD4ED067A9FED4F7A14
:103A0000F4EEC77AF1EE10FA4AD884ED067AD4EDD6
:103A1000077A9FED4B7AF4EEC77AF1EE10FA49D8A7
:103A200084ED077A94ED055AB1EE457AD4ED067A25
:103A300037EE677AD4ED075A23EE256A37EE467AD9
:103A400026EE877A8DED007A35EE676A23EEA57A49
:103A500036EE476A26EE866A8DED016A35EE277AE4
:103A600024EE256A37EE467A26EE877A8DED027AC5
:103A700077EEC57A64EEA55A77EEE57A66EEA77A18
:103A8000CDED037A00239FED2F7A1FE09FED2E7A74
:103A9000F4EEC77AF1EE10FAAEDB84ED057AABE70F
:103AA0009FED297AF4EEC77AF1EE10FAAFDB84EDE0
:103AB000067AACE79FED257AF4EEC77AF1EE10FABC
:103AC000B0DB84ED077AADE70133DBB2032B0ED810
:103AD00004AA02EB830252ED047AF0EEE77AF4EEE8
:103AE000C77AF1EE10FAEFDDB0EE677AECE7DFEDC2
:103AF000187AB4EEE77AF1EE10FA10DDC7EE876AB5
:103B000000230AE004AA02EB830252ED047A67EE76
:103B1000A67A42ED047A0133DBB2032BF2D96D466B
:103B20000FCD20646164A264E36405B070BC70478B
:103B3000333365423694573D0000704200404EC515
:103B4000000096C30000000000404E450000964370
:103B500000D0044630B58BB00023029303934FF49A
:103B600000720492079306930822089212E012F55D
:103B7000F05F02DA4EF201224252415E5A000AAC74
:103B800014440D1204F8205C01320AAC224402F8FD
:103B9000201C0133032B0ADC590030F91320B2F545
:103BA000F05FE4DD41F6FF5220F81320E5E701ABBA
:103BB00002AA04A90248FDF731FB0BB030BD00BFDB
:103BC0003800002030B58BB000230293039340F2FD
:103BD000FF120492079306930822089212E012F54E
:103BE000F05F02DA4EF201224252415E5A000AAC04
:103BF00014440D1204F8205C01320AAC224402F88D
:103C0000201C0133022B0ADC590030F91320B2F5D5
:103C1000F05FE4DD41F6FF5220F81320E5E701AB49
:103C200002AA04A90248FDF7F9FA0BB030BD00BFA3
:103C300060000020D0ED027AD0ED0A6A67EEA67A25
:103C400090ED006ADFED2D5A86EE257A67EE877AD1
:103C500090ED077A77EE877AC0ED077A90ED057AD6
:103C6000F4EEC77AF1EE10FA3ADD80ED077AD0ED86
:103C7000097A90ED065A67EE857A90ED037AD0EDD9
:103C8000085A76EEE55A27EE257ADFED1C4AC4EE97
:103C9000865A27EE257AB7EE006A36EE456A27EE99
:103CA000067A77EE877AC0ED097A90ED017A26EEF2
:103CB000877A90ED076A37EE067A77EE877A90ED8D
:103CC000040AB4EEE70AF1EE10FA06D4B1EE400AA7
:103CD000B4EEE70AF1EE10FA0CDDC0ED086A7047A9
:103CE000B1EE477AF4EEC77AF1EE10FABFD580ED67
:103CF000077ABCE7B0EE670AEFE700BF00007A443E
:103D000008B50F480F4B03604FF4827343600023E4
:103D10008360C360036143614FF4007282613022AB
:103D2000C2610362436283620A23C362FEF75AF9E7
:103D300000B908BD45210448FFF71EFDF9E700BFA3
:103D4000D002002000500140E04400080268124BFD
:103D50009A4200D0704700B587B00021009103F56A
:103D600068435A6C42F480125A645B6C03F480130B
:103D70000093009B4FF4607301930223029303911D
:103D8000032304930523059301A90448FDF73EFD91
:103D900007B05DF804FB00BF005001400014024072
:103DA00010B582B000240094214B5A6C42F480423A
:103DB0005A645A6C02F480420092009A01941A6C80
:103DC00042F080521A641B6C03F080530193019BF4
:103DD0000320FDF78BFC224621466FF00B00FDF718
:103DE00097FC224621466FF00A00FDF791FC22461F
:103DF00021466FF00900FDF78BFC224621466FF04B
:103E00000400FDF785FC224621466FF00300FDF714
:103E10007FFC224621466FF00100FDF779FC224627
:103E200021464FF0FF30FDF773FC02B010BD00BF1C
:103E3000003802407047FEE7FEE7FEE7FEE7704706
:103E40007047704708B5FDF757F8FDF7C8FC08BD87
:103E500008B50248FDF71DFB08BD00BF600000204B
:103E600008B50248FDF715FB08BD00BF6000002043
:103E700008B50248FEF72EFF08BD00BF1C04002055
:103E800008B50248FEF784F908BD00BF28030020EA
:103E900008B50248FDF7FDFA08BD00BF3800002054
:103EA00008B50248FDF7F5FA08BD00BF380000204C
:103EB00008B50248FEF70EFF08BD00BF9C040020B5
:103EC00008B50248FEF706FF08BD00BF5C040020ED
:103ED0000F49D1F8883043F47003C1F888300D4B96
:103EE0001A6842F001021A60002098601A6822F0F5
:103EF000847222F480321A60074A5A601A6822F4E7
:103F000080221A60D8604FF000638B60704700BF5A
:103F100000ED00E0003802401030002400B583B00E
:103F20001048114B0360092343600023836044F26F
:103F3000A013C360FEF74AFA50B90023009301931F
:103F400069460848FEF740FB38B903B05DF804FB4A
:103F500077210648FFF710FCEFE77E210348FFF7C3
:103F60000BFCF2E72803002000100040F04400089A
:103F700082B00368104A934204D0104A93420ED094
:103F800002B07047002300930D4B5A6C42F00102BF
:103F90005A645B6C03F001030093009BF0E700237D
:103FA0000193074B1A6C42F040021A641B6C03F039
:103FB00040030193019BE3E700000140001800402B
:103FC0000038024002680E4B9A4200D0704700B59C
:103FD00083B00022019203F50A33196C41F01001FD
:103FE00019641B6C03F010030193019B012136201F
:103FF000FDF78EFB3620FDF7BFFB03B05DF804FB39
:104000000010004070B586B00368184A934204D08F
:10401000174A93421BD006B070BD4FF480730193D2
:10402000022602960024039404940125059501A913
:104030001048FDF7EBFB4FF4804301930296039485
:104040000494059501A90C48FDF7E0FBE3E7402344
:1040500001930223029300230393049309230593FE
:1040600001A90648FDF7D2FBD5E700BF00000140DB
:10407000001800400000024000100240001C0240F6
:1040800000B591B02E482F4B0360A7234360002357
:10409000836044F61F62C26003614361FEF7AFF9BB
:1040A000002833D100230E930F930EA92448FEF766
:1040B0008BFA00282FD1602307934FF47A7308936B
:1040C000002209920A920B920C920D9207A91C48A9
:1040D000FEF7E0F920BB0C2207A91948FEF7DAF930
:1040E00018BB0023009301930293039304934FF4AE
:1040F00000520592069369461148FEF78EFAC8B938
:104100000F48FFF77FFF11B05DF804FB42210E4816
:10411000FFF732FBC6E749210B48FFF72DFBCAE743
:1041200055210948FFF728FBD5E75A210648FFF734
:1041300023FBD6E766210448FFF71EFBE0E700BF3C
:104140006403002000000140F044000800B589B07D
:104150001448154B0360532343600023836044F6E7
:104160001F62C2600361FEF74AF980B960230193C0
:10417000002202920392059201A90A48FEF78AF9E9
:1041800050B90848FFF73EFF09B05DF804FB8E21E7
:104190000648FFF7F1FAE9E797210448FFF7ECFA40
:1041A000EFE700BFA003002000180040F044000823
:1041B00008B50B480B4B03604FF4E1334360002319
:1041C0008360C36003610C2242618361C361FEF7B7
:1041D00060FC00B908BD44210348FFF7CDFAF9E7B8
:1041E000DC030020007800400045000808B50B48BB
:1041F0000B4B03604FF4E133436000238360C360E3
:1042000003610C2242618361C361FEF742FC00B985
:1042100008BD56210348FFF7AFFAF9E75C04002018
:10422000007C00400045000808B50B480B4B0360BC
:104230000B4B436000238360C36003610C22426127
:104240008361C361FEF725FC00B908BD69210548FB
:10425000FFF792FAF9E700BF1C04002000100140AC
:10426000A08601000045000808B50B480B4B036011
:104270004FF4E133436000238360C36003610C2289
:1042800042618361C361FEF704FC00B908BD7C2173
:104290000348FFF771FAF9E79C040020001401407D
:1042A0000045000810B58AB00368494A93420AD015
:1042B000484A934223D0484A934242D0474A9342C5
:1042C00062D00AB010BD00230193454B1A6C42F036
:1042D00080421A641B6C03F080430193019B4FF4EE
:1042E000C0730593022306930123079303230893C6
:1042F0000823099305A93B48FDF788FAE1E7002464
:104300000294374B1A6C42F000421A641B6C03F0A3
:1043100000430293029B032305930222069201228B
:10432000079208930823099305A92E48FDF76EFA12
:10433000224621465320FDF7EBF95320FDF71CFAE6
:10434000BFE700240394264B5A6C42F010025A64D3
:104350005B6C03F010030393039BC02305930223BC
:10436000069301230793032308930723099305A9C1
:104370001D48FDF74BFA224621462520FDF7C8F9D6
:104380002520FDF7F9F99CE700240494144B5A6C9E
:1043900042F020025A645B6C03F020030493049BF8
:1043A0004FF48443059302230693012307930323C9
:1043B00008930823099305A90C48FDF727FA22461C
:1043C00021464720FDF7A4F94720FDF7D5F978E706
:1043D00000780040007C00400010014000140140C3
:1043E0000038024000100240000402400018024061
:1043F000DFF834D0002103E00C4B5B58435004310C
:104400000B480C4B42189A42F6D30B4A02E00023A9
:1044100042F8043B094B9A42F9D3FFF759FD00F0EB
:1044200011F8FFF70FFA704700000320204500083D
:10443000000000200C0000200C000020DC04002004
:10444000FEE7000070B50D4E0D4CA41BA410002516
:10445000A54209D10B4E0C4C00F018F8A41BA41077
:104460000025A54205D170BD56F825309847013585
:10447000EEE756F8253098470135F2E71845000871
:1044800018450008184500081C450008F8B500BF8D
:10449000F8BC08BC9E467047F8B500BFF8BC08BC25
:0444A0009E4670477D
:1044A40000000000000000000102030406070809E0
:1044B40000000000010203042E2E2F5372632F63A9
:1044C400616E2E63000000002E2E2F5372632F6D39
:1044D40061696E2E630000002C0000002E2E2F5305
:1044E40072632F7370692E63000000002E2E2F5309
:1044F40072632F74696D2E63000000002E2E2F53FB
:0C45040072632F75736172742E630000E7
:084510009CC6FF7F01000000C2
:04451800D5010008C1
:04451C00B1010008E1
:0C45200001000000100000000024F40066
:04000005080043F1BB
:00000001FF
