:020000040800F2
:100000000000032041440008FD3D0008FF3D0008BA
:10001000013E0008033E0008053E00080000000005
:10002000000000000000000000000000073E000883
:10003000093E0008000000000B3E00080D3E0008CD
:10004000914400089144000891440008914400083C
:10005000914400089144000891440008914400082C
:10006000914400089144000891440008914400081C
:10007000914400089144000891440008914400080C
:1000800091440008914400089144000891440008FC
:10009000193E0008293E00089144000891440008D8
:1000A00091440008914400089144000891440008DC
:1000B00091440008914400089144000891440008CC
:1000C00091440008914400089144000891440008BC
:1000D00091440008393E000891440008914400080A
:1000E000914400089144000891440008914400089C
:1000F000914400089144000891440008914400088C
:10010000914400089144000891440008914400087B
:100110009144000891440008493E000891440008B9
:10012000914400089144000891440008914400085B
:10013000914400089144000891440008914400084B
:10014000593E0008693E00089144000891440008A7
:10015000914400089144000891440008793E000849
:10016000914400089144000891440008914400081B
:1001700091440008914400089144000800000000E8
:10018000914400089144000891440008893E000809
:1001900091440008914400089144000891440008EB
:0C01A00000000000000000009144000876
:1001B00010B5054C237833B9044B13B10448AFF3A1
:1001C00000800123237010BDDC010020000000002E
:1001D000BC65000808B5034B1BB103490348AFF3E6
:1001E000008008BD00000000E0010020BC650008A0
:1001F000034613F8012B002AFBD1181A0138704767
:1002000081F0004102E000BF83F0004330B54FEAC7
:1002100041044FEA430594EA050F08BF90EA020F34
:100220001FBF54EA000C55EA020C7FEA645C7FEAC7
:10023000655C00F0E2804FEA5454D4EB5555B8BFEA
:100240006D420CDD2C4480EA020281EA030382EA5B
:10025000000083EA010180EA020281EA0303362DED
:1002600088BF30BD11F0004F4FEA01314FF4801CC0
:100270004CEA113102D0404261EB410113F0004FD2
:100280004FEA03334CEA133302D0524263EB430389
:1002900094EA050F00F0A780A4F10104D5F1200E27
:1002A0000DDB02FA0EFC22FA05F2801841F1000182
:1002B00003FA0EF2801843FA05F359410EE0A5F156
:1002C00020050EF1200E012A03FA0EFC28BF4CF087
:1002D000020C43FA05F3C01851EBE37101F000453D
:1002E00007D54FF0000EDCF1000C7EEB00006EEB4A
:1002F0000101B1F5801F1BD3B1F5001F0CD34908D4
:100300005FEA30004FEA3C0C04F101044FEA44522A
:1003100012F5800F80F09A80BCF1004F08BF5FEAB1
:10032000500C50F1000041EB045141EA050130BD91
:100330005FEA4C0C404141EB010111F4801FA4F134
:100340000104E9D191F0000F04BF01460020B1FA89
:1003500081F308BF2033A3F10B03B3F120020CDAC1
:100360000C3208DD02F1140CC2F10C0201FA0CF09F
:1003700021FA02F10CE002F11402D8BFC2F1200C04
:1003800001FA02F120FA0CFCDCBF41EA0C019040BA
:10039000E41AA2BF01EB0451294330BD6FEA040403
:1003A0001F3C1CDA0C340EDC04F11404C4F12002EE
:1003B00020FA04F001FA02F340EA030021FA04F300
:1003C00045EA030130BDC4F10C04C4F1200220FA57
:1003D00002F001FA04F340EA0300294630BD21FA95
:1003E00004F0294630BD94F0000F83F4801306BF5B
:1003F00081F480110134013D4EE77FEA645C18BF4F
:100400007FEA655C29D094EA050F08BF90EA020FE5
:1004100005D054EA000C04BF1946104630BD91EADD
:10042000030F1EBF0021002030BD5FEA545C05D1E0
:100430004000494128BF41F0004130BD14F580041F
:100440003CBF01F5801130BD01F0004545F0FE4193
:1004500041F470014FF0000030BD7FEA645C1ABFC8
:10046000194610467FEA655C1CBF0B46024650EAFF
:10047000013406BF52EA033591EA030F41F400212B
:1004800030BD00BF90F0000F04BF0021704730B5B1
:100490004FF4806404F132044FF000054FF0000186
:1004A00050E700BF90F0000F04BF0021704730B547
:1004B0004FF4806404F1320410F0004548BF40421C
:1004C0004FF000013EE700BF42004FEAE2014FEA71
:1004D00031014FEA02701FBF12F07F4393F07F4F4C
:1004E00081F06051704732F07F4208BF704793F04F
:1004F0007F4F04BF41F40021704730B54FF4607462
:1005000001F0004521F000411CE700BF50EA010264
:1005100008BF704730B54FF000050AE050EA01020D
:1005200008BF704730B511F0004502D5404261EB7D
:1005300041014FF4806404F132045FEA915C3FF4BE
:10054000D8AE4FF003025FEADC0C18BF03325FEA5B
:10055000DC0C18BF033202EBDC02C2F1200300FA0C
:1005600003FC20FA02F001FA03FE40EA0E0021FA31
:1005700002F11444BDE600BF70B54FF0FF0C4CF41F
:10058000E06C1CEA11541DBF1CEA135594EA0C0FD1
:1005900095EA0C0F00F0DEF82C4481EA030621EA0C
:1005A0004C5123EA4C5350EA013518BF52EA033547
:1005B00041F4801143F4801338D0A0FB02CE4FF0F9
:1005C0000005E1FB02E506F00042E0FB03E54FF029
:1005D0000006E1FB03569CF0000F18BF4EF0010E21
:1005E000A4F1FF04B6F5007F64F5407404D25FEA1D
:1005F0004E0E6D4146EB060642EAC62141EA5551D0
:100600004FEAC52040EA5E504FEACE2EB4F1FD0C11
:1006100088BFBCF5E06F1ED8BEF1004F08BF5FEA8F
:10062000500E50F1000041EB045170BD06F0004641
:1006300046EA010140EA020081EA0301B4EB5C04EE
:10064000C2BFD4EB0C0541EA045170BD41F48011E6
:100650004FF0000E013C00F3AB8014F1360FDEBF0B
:10066000002001F0004170BDC4F10004203C35DAE7
:100670000C341BDC04F11404C4F1200500FA05F36A
:1006800020FA04F001FA05F240EA020001F000420B
:1006900021F0004110EBD37021FA04F642EB060181
:1006A0005EEA430E08BF20EAD37070BDC4F10C04AB
:1006B000C4F1200500FA04F320FA05F001FA04F26F
:1006C00040EA020001F0004110EBD37041F100015B
:1006D0005EEA430E08BF20EAD37070BDC4F1200566
:1006E00000FA05F24EEA020E20FA04F301FA05F2CE
:1006F00043EA020321FA04F001F0004121FA04F276
:1007000020EA020000EBD3705EEA430E08BF20EA45
:10071000D37070BD94F0000F0FD101F0004640007F
:1007200041EB010111F4801F08BF013CF7D041EA01
:10073000060195F0000F18BF704703F00046520005
:1007400043EB030313F4801F08BF013DF7D043EAD6
:100750000603704794EA0C0F0CEA135518BF95EA8C
:100760000C0F0CD050EA410618BF52EA4306D1D113
:1007700081EA030101F000414FF0000070BD50EA32
:10078000410606BF1046194652EA430619D094EABC
:100790000C0F02D150EA013613D195EA0C0F05D1A6
:1007A00052EA03361CBF104619460AD181EA0301FA
:1007B00001F0004141F0FE4141F470014FF00000B2
:1007C00070BD41F0FE4141F4780170BD70B54FF04D
:1007D000FF0C4CF4E06C1CEA11541DBF1CEA1355CD
:1007E00094EA0C0F95EA0C0F00F0A7F8A4EB0504AF
:1007F00081EA030E52EA03354FEA013100F08880A6
:100800004FEA03334FF0805545EA131343EA12636E
:100810004FEA022245EA111545EA10654FEA002623
:100820000EF000419D4208BF964244F1FD0404F5DC
:10083000407402D25B084FEA3202B61A65EB030538
:100840005B084FEA32024FF480104FF4002CB6EBF5
:10085000020E75EB030E22BFB61A754640EA0C0075
:100860005B084FEA3202B6EB020E75EB030E22BFB5
:10087000B61A754640EA5C005B084FEA3202B6EBF6
:10088000020E75EB030E22BFB61A754640EA9C00B5
:100890005B084FEA3202B6EB020E75EB030E22BF85
:1008A000B61A754640EADC0055EA060E18D04FEA43
:1008B000051545EA16754FEA06164FEAC30343EAE3
:1008C00052734FEAC2025FEA1C1CC0D111F4801FB0
:1008D0000BD141EA00014FF000004FF0004CB6E7A9
:1008E00011F4801F04BF01430020B4F1FD0C88BF48
:1008F000BCF5E06F3FF6AFAEB5EB030C04BFB6EB53
:10090000020C5FEA500C50F1000041EB045170BD45
:100910000EF0004E4EEA113114EB5C04C2BFD4EB72
:100920000C0541EA045170BD41F480114FF0000EF6
:10093000013C90E645EA060E8DE60CEA135594EA72
:100940000C0F08BF95EA0C0F3FF43BAF94EA0C0F75
:100950000AD150EA01347FF434AF95EA0C0F7FF4EA
:1009600025AF104619462CE795EA0C0F06D152EA3E
:1009700003353FF4FDAE1046194622E750EA410622
:1009800018BF52EA43067FF4C5AE50EA41047FF433
:100990000DAF52EA43057FF4EBAE12E74FF0FF3C98
:1009A00006E000BF4FF0010C02E000BF4FF0010C69
:1009B0004DF804CD4FEA410C7FEA6C5C4FEA430CE2
:1009C00018BF7FEA6C5C1BD001B050EA410C0CBF31
:1009D00052EA430C91EA030F02BF90EA020F002093
:1009E000704710F1000F91EA030F58BF994208BFFA
:1009F00090422CBFD8176FEAE37040F001007047B7
:100A00004FEA410C7FEA6C5C02D150EA013C07D10D
:100A10004FEA430C7FEA6C5CD6D152EA033CD3D058
:100A20005DF8040B704700BF8446104662468C4652
:100A30001946634600E000BF01B5FFF7B7FF002885
:100A400048BF10F1000F01BD4DF808EDFFF7F4FFAE
:100A50000CBF012000205DF808FB00BF4DF808ED39
:100A6000FFF7EAFF34BF012000205DF808FB00BF5C
:100A70004DF808EDFFF7E0FF94BF012000205DF87E
:100A800008FB00BF4DF808EDFFF7CEFF94BF012033
:100A900000205DF808FB00BF4DF808EDFFF7C4FF2C
:100AA00034BF012000205DF808FB00BF4FEA410C75
:100AB0007FEA6C5C02D150EA013C0AD14FEA430C58
:100AC0007FEA6C5C02D152EA033C02D14FF0000095
:100AD00070474FF0010070474FEA410212F50012D3
:100AE00015D211D56FF47873B3EB625212D94FEA75
:100AF000C12343F0004343EA505311F0004F23FA5F
:100B000002F018BF404270474FF00000704750EAB3
:100B1000013005D111F0004008BF6FF00040704770
:100B20004FF00000704700BF4FEA4102B2F1E043CE
:100B300024BFB3F5001CDCF1FE5C0DD901F0004CC4
:100B40004FEAC0024CEA5070B2F1004F40EB830014
:100B500008BF20F00100704711F0804F21D113F140
:100B60003872BCBF01F00040704741F480114FEA79
:100B70005252C2F11802C2F1200C10FA0CF320FA02
:100B800002F018BF40F001004FEAC1234FEAD3231F
:100B900003FA0CFC40EA0C0023FA02F34FEA430389
:100BA000CCE77FEA625307D150EA01331EBF4FF012
:100BB000FE4040F44000704701F0004040F0FE402D
:100BC00040F40000704700BF53B94AB9002908BF7C
:100BD00000281CBF4FF0FF314FF0FF3000F072B91A
:100BE000ADF1080C6DE904CE00F006F8DDF804E084
:100BF000DDE9022304B070472DE9F047089E044662
:100C00008846002B4BD18A42154667D9B2FA82F248
:100C10004AB1C2F1200701FA02F320FA07F7954022
:100C200047EA030894404FEA154E230CB8FBFEF741
:100C30001FFA85FC0EFB178843EA084307FB0CF1FB
:100C4000994209D9EB1807F1FF3080F01B819942D6
:100C500040F21881023F2B445B1AA4B2B3FBFEF0B2
:100C60000EFB103344EA034400FB0CFCA44509D9F5
:100C70002C1900F1FF3380F00781A44540F2048174
:100C800002382C4440EA0740A4EB0C0400271EB1B4
:100C9000D4400023C6E900433946BDE8F0878B42C3
:100CA00009D9002E00F0EB800027C6E90001384684
:100CB0003946BDE8F087B3FA83F7002F47D18B425E
:100CC00002D3824200F2FA80841A61EB030301200E
:100CD0009846002EE0D0C6E90048DDE702B9FFDE05
:100CE000B2FA82F2002A40F08F80491B4FEA154E7B
:100CF0001FFA85F80127B1FBFEFC230C0EFB1C112B
:100D000043EA014308FB0CF1994207D9EB180CF1B7
:100D1000FF3002D2994200F2CD808446591AA3B224
:100D2000B1FBFEF00EFB101443EA044408FB00F88C
:100D3000A04507D92C1900F1FF3302D2A04500F2DB
:100D4000B6801846A4EB080440EA0C409FE7C7F1C0
:100D5000200CBB4022FA0CFE4EEA030E01FA07F407
:100D600020FA0CF521FA0CF34FEA1E482543B3FB99
:100D7000F8F92C0C08FB19331FFA8EFA44EA0343E6
:100D800009FB0AF49C4202FA07F200FA07F10BD9B8
:100D90001EEB030309F1FF3080F087809C4240F294
:100DA0008480A9F1020973441B1BADB2B3FBF8F0B8
:100DB00008FB103345EA034400FB0AFAA24508D9B0
:100DC0001EEB040400F1FF336BD2A24569D902384F
:100DD000744440EA0940A0FB0289A4EB0A044C4594
:100DE000C2464B4654D351D0002E69D0B1EB0A0510
:100DF00064EB030404FA0CFCFD40FC404CEA0505DE
:100E0000C6E90054002747E7C2F1200320FA03F7A0
:100E1000954001FA02F021FA03F34FEA154E3843E8
:100E2000010CB3FBFEF71FFA85F80EFB173341EAFE
:100E3000034107FB08F38B4204FA02F407D969184F
:100E400007F1FF3C2FD28B422DD9023F2944CB1A08
:100E500081B2B3FBFEF00EFB103341EA034100FB0D
:100E600008F38B4207D9691800F1FF3C17D28B4277
:100E700015D902382944C91A40EA07473BE73746E3
:100E8000304609E70746E7E61846FBE64145ABD2A0
:100E9000B8EB020A69EB0E0201381346A4E760467C
:100EA000E9E7184695E76746D1E781467CE70238CF
:100EB0002C4447E7ACF1020C2B442FE7384608E7F7
:100EC0003746E9E6704700BF10B504460E4B187868
:100ED0004FF47A73B3FBF0F30C4A1068B0FBF3F0F5
:100EE00000F07CFC68B90F2C01D901200AE0002237
:100EF00021464FF0FF3000F031FC034B5C600020D6
:100F000000E0012010BD00BF00000020080000200C
:100F100008B50B4B1A6842F400721A601A6842F462
:100F200080621A601A6842F480721A60032000F02E
:100F300003FC0020FFF7C8FF02F016FF002008BDE9
:100F4000003C0240034A1168034B1B780B441360BA
:100F5000704700BF1002002000000020014B1868FD
:100F6000704700BF1002002038B50446FFF7F6FFB7
:100F70000546B4F1FF3F02D0044B1B781C44FFF739
:100F8000EDFF401BA042FAD338BD00BF0000002097
:100F9000002800F0A18038B5044690F82030D3B185
:100FA0002268136823F002031360FFF7D7FF05469A
:100FB00023685A6812F0020F10D0FFF7CFFF401BD2
:100FC0000A28F5D9636A43F400336362052384F881
:100FD0002030012038BD01F087FFE1E71A6842F0B8
:100FE00001021A60FFF7BAFF054623685A6812F03B
:100FF000010F0DD1FFF7B2FF401B0A28F5D9636A34
:1010000043F400336362052384F820300120E1E7D4
:10101000227E012A3DD01A6822F080021A60637E87
:10102000012B3BD02268136823F040031360A37E9A
:10103000012B39D02268136823F020031360E37E6C
:10104000012B37D02268136843F010031360237F0D
:10105000012B35D02268136823F008031360637FE7
:10106000012B33D02268136823F004031360A368B4
:10107000E268134322691343626913436268013AC9
:1010800021681343CB6100206062012384F8203083
:10109000A0E71A6842F080021A60C0E7226813686D
:1010A00043F040031360C2E72268136843F0200353
:1010B0001360C4E72268136823F010031360C6E7C7
:1010C0002268136843F008031360C8E722681368B6
:1010D00043F004031360CAE70120704790F8203002
:1010E000DBB2012B0AD090F82030DBB2022B05D006
:1010F000436A43F4802343620120704770B4424B3B
:10110000D3F8002242F00102C3F80022D3F80022F3
:1011100022F47C52C3F80022D3F80022486A42EA43
:101120000022C3F800224A69012000FA02F2D3F833
:101130001C42D0430440C3F81C42CB69B3B9324BC4
:10114000D3F80C420440C3F80C42CE688D884C6939
:1011500045EA0645483443F834508E680C884D699A
:1011600044EA0644483503EBC5035C60CB69012BB8
:101170001DD08B69002B32D1234CD4F804320340AC
:10118000C4F804320B698BBB1F4BD3F814422040C8
:10119000C3F814020B6A012B2FD01B4AD2F800327D
:1011A00023F00103C2F80032002070BC7047164BD8
:1011B000D3F80C421443C3F80C420E688D884C6976
:1011C00045EA0645483443F834508E688C894D69A9
:1011D00044EA0644483503EBC5035C60C9E70A4CA2
:1011E000D4F804321343C4F80432CBE70648D0F8ED
:1011F00014321343C0F81432CCE70349D1F81C323F
:101200001A43C1F81C22C8E70064004038B590F8C2
:101210002030DBB2012B05D0436A43F40023436244
:10122000012038BD0446022380F82030026813688C
:1012300023F001031360FFF791FE054623685B6806
:1012400013F0010F0DD0FFF789FE401B0A28F5D9D6
:10125000636A43F400336362052384F8203001207D
:10126000DFE700206062DCE770B490F82040E4B271
:10127000012C0AD090F82040E4B2022C05D0436A39
:1012800043F48023436201204DE00468A56815F013
:10129000806F07D1A56815F0006F03D1A56815F020
:1012A000805F55D0A468C4F301640125A5401D608A
:1012B0008B68002B39D10E68CB68056843EA465627
:1012C00004F118031B01EE5003680D6904F11806C0
:1012D00003EB06135D600B7D012B31D0D17993793F
:1012E0001B0443EA0163517943EA0123157901683C
:1012F0002B4325012944C1F88C31D17893781B0404
:1013000043EA0163517843EA0123117802680B43F1
:101310002A44C2F88831026818342401135943F072
:1013200001031351002070BC70474D6843EAC503A8
:10133000CD6806682B4304F118052D017351C3E7EE
:10134000036803EB0613596841F480715960C5E7DF
:10135000436A43F4001343620120E4E730B490F899
:101360002040E4B2012C0BD090F82040E4B2022CD3
:1013700006D0436A43F480234362012030BC7047A7
:1013800051B90468E46814F0030F07D1436A43F4C9
:10139000001343620120F1E701295DD0056801F1E6
:1013A0001B0424012C5904F004049460002C5ED129
:1013B000056801F11B0424012C59640D14600568B3
:1013C00001F11B0424012D59C5F34005D5600568C2
:1013D00025446D6805F00F051561056825446D68A5
:1013E000C5F30725956105682C446468240C546195
:1013F00004680A011444D4F8B8411C700468144409
:10140000D4F8B841240A5C7004681444D4F8B84194
:10141000240C9C7004681444D4F8B841240EDC7089
:1014200004681444D4F8BC411C7104681444D4F812
:10143000BC41240A5C7104681444D4F8BC41240CF7
:101440009C7104682244D2F8BC21120EDA71B1B149
:1014500001291BD0002091E70468246914F0030FD0
:101460009CD1436A43F400134362012086E7056878
:1014700001F11B0424012C59E40854609FE7026821
:10148000D36843F02003D360002077E70268136934
:1014900043F020031361002070E790F82030DBB2A6
:1014A000012B0AD090F82030DBB2022B05D0436A22
:1014B00043F4802343620120704702685369194353
:1014C0005161002070477047704770477047704700
:1014D00070477047704770477047704770472DE9F5
:1014E000F84F054603685C695F689E68D3F80C9006
:1014F000D3F81080D3F818A014F0010F5AD016F0CA
:10150000010F17D001229A6016F0020F08D116F0D1
:10151000040F30D116F0080F07D04FF4805B0BE0BA
:10152000FFF7D1FF4FF0000B06E0FFF7CFFF4FF0C2
:10153000000B01E04FF0000B16F4807F0BD02B68FE
:101540004FF480729A6016F4007F17D116F4806F02
:1015500018D04BF4005B16F4803F2DD02B684FF46D
:1015600080329A6016F4003F16D116F4802F17D0FF
:101570004BF4004B20E04FF4006BDDE72846FFF70B
:10158000A3FFE8E716F4006F02D04BF4804BE2E7CC
:101590002846FFF79CFFDEE72846FFF796FF0BE0A3
:1015A00016F4002F02D04BF4803B05E02846FFF7ED
:1015B0008FFF01E04FF0000B14F0080F07D019F077
:1015C000100F04D04BF4007B2B681022DA6014F06B
:1015D000040F02D019F0080F60D114F0020F04D0EC
:1015E0002B68DB6813F0030F5FD114F0400F07D0B6
:1015F00018F0100F04D04BF4806B2B6810221A6186
:1016000014F0200F02D018F0080F52D114F0100F70
:1016100004D02B681B6913F0030F51D114F4003F61
:1016200002D017F0100F4FD114F4803F02D017F002
:10163000080F50D114F4004F67D017F0040F61D099
:1016400014F4807F04D01AF0010F01D04BF0010B8D
:1016500014F4007F04D01AF0020F01D04BF0020BFB
:1016600014F4806F04D01AF0040F01D04BF0040B77
:1016700014F4006F46D01AF0700A43D0BAF1300F5C
:1016800048D02FD9BAF1500F47D0BAF1600F47D0E8
:10169000BAF1400F31D14BF0400B2EE02B680822FD
:1016A000DA602846FFF715FF97E7284601F0ACFD02
:1016B0009BE72B6808221A612846FFF70CFFA5E775
:1016C0002846FFF707FFA9E72B6810225A60284633
:1016D000FFF702FFA8E72B6808225A602846FFF7A9
:1016E000FCFEA7E7BAF1100F05D0BAF1200F04D124
:1016F0004BF0100B01E04BF0080B2A68936923F0C4
:10170000700393612B6804225A60BBF1000F0AD169
:10171000BDE8F88F4BF0200BEFE74BF0800BECE7C8
:101720004BF4807BE9E76B6A43EA0B036B62284664
:10173000FFF7D4FEECE70000074AD36823F4E06328
:101740001B041B0C000200F4E060184340F0BF6073
:1017500040F40030D060704700ED00E030B4174B2B
:10176000DB68C3F30223C3F10704042C28BF04245D
:101770001D1D062D18D9033B4FF0FF3505FA04F463
:1017800021EA0401994005FA03F322EA030319430D
:1017900000280BDB0901C9B200F1604000F561408F
:1017A00080F8001330BC70470023E5E700F00F001D
:1017B0000901C9B2024B1954F4E700BF00ED00E083
:1017C00014ED00E000F01F02400901239340024A9B
:1017D00042F82030704700BF00E100E00138B0F16E
:1017E000807F0AD2064B5860064AF02182F8231007
:1017F0000020986007221A6070470120704700BFE0
:1018000010E000E000ED00E0042805D0054A136870
:1018100023F0040313607047024A136843F0040383
:101820001360704710E000E0704708B5FFF7FCFF59
:1018300008BD90F83530DBB2022B03D0802343651E
:1018400001207047052380F835300268136823F0C3
:10185000010313600020704700230F2B00F2E38088
:10186000F0B482B039E0092200E00022B2403A43ED
:1018700002346D4E46F824206C4A1468EA4302EAAA
:1018800004064F6817F4803F01D045EA0406674C10
:101890002660646802EA04064F6817F4003F01D02E
:1018A00045EA0406614C6660A46802EA04064F68D3
:1018B00017F4801F01D045EA04065C4CA660E4687A
:1018C00022404E6816F4001F01D045EA0402574C2E
:1018D000E26001330F2B00F2A38001229A400C68D2
:1018E00004EA0205AA42F4D14C68022C01D0122C61
:1018F00010D1DE08083650F826C003F00704A70010
:101900000F24BC402CEA040C0C69BC4044EA0C04D3
:1019100040F8264004685F000326BE40F64306EA0E
:10192000040C4C6804F00304BC4044EA0C0404605A
:101930004C6804F1FF3CBCF1010F03D9112C01D01C
:10194000122C10D1846806EA040CCC68BC4044EA2E
:101950000C048460446824EA02024C68C4F3001456
:101960009C4014434460C26816408A68BA403243BF
:10197000C2604A6812F0805FABD0002201922C4A0C
:10198000546C44F480445464526C02F480420192DA
:10199000019A9C08A61C244A52F8267003F0030200
:1019A00096000F22B24027EA0207224A90423FF4F3
:1019B0005CAF02F58062904222D002F580629042D4
:1019C00020D002F5806290421ED002F580629042E3
:1019D0001CD002F5806290421AD002F580629042DB
:1019E00018D002F58062904216D002F580629042D3
:1019F00014D002F5806290423FF435AF0A2235E7F9
:101A0000012233E7022231E703222FE704222DE7E8
:101A100005222BE7062229E7072227E7082225E7E8
:101A200002B0F0BC7047704700380140003C0140F4
:101A3000003802400000024012B909048161704779
:101A4000816170474369594041617047002800F047
:101A5000BB8170B582B00446036813F0010F3BD020
:101A6000A74B9B6803F00C03042B2CD0A44B9B6862
:101A700003F00C03082B21D06368B3F5803F4FD0EF
:101A8000B3F5A02F52D09E4B1A6822F480321A6010
:101A90001A6822F480221A606368002B50D0FFF786
:101AA0005DFA0546964B1B6813F4003F14D1FFF70F
:101AB00055FA401B6428F5D903208AE1904B5B68F6
:101AC00013F4800FD8D08E4B1B6813F4003F03D063
:101AD0006368002B00F07A81236813F0020F55D061
:101AE000874B9B6813F00C0F3ED0854B9B6803F02F
:101AF0000C03082B33D0E368002B68D0814B012204
:101B00001A60FFF72BFA05467D4B1B6813F0020F96
:101B100054D1FFF723FA401B0228F5D9032058E1DE
:101B2000774A136843F480331360B5E7744B1A683F
:101B300042F480221A601A6842F480321A60ABE7DD
:101B4000FFF70CFA05466E4B1B6813F4003FC3D039
:101B5000FFF704FA401B6428F5D9032039E1684BEC
:101B60005B6813F4800FC6D1654B1B6813F0020F3E
:101B700004D0E368012B01D001202AE1604A1368F8
:101B800023F0F803216943EAC1031360236813F0CB
:101B9000080F40D0636963B35B4B01221A60FFF703
:101BA000DDF90546564B5B6F13F0020F33D1FFF79B
:101BB000D5F9401B0228F5D903200AE1504A1368E1
:101BC00023F0F803216943EAC1031360DEE74D4BBC
:101BD00000221A60FFF7C2F90546494B1B6813F053
:101BE000020FD3D0FFF7BAF9401B0228F5D9032022
:101BF000EFE0454B00221A60FFF7B0F90546404B75
:101C00005B6F13F0020F06D0FFF7A8F9401B022804
:101C1000F5D90320DDE0236813F0040F79D0384BA9
:101C20001B6C13F0805F33D100230193344B1A6C8B
:101C300042F080521A641B6C03F080530193019BA5
:101C40000125324B1B6813F4807F23D0A368012B3E
:101C500034D0052B38D02A4B1A6F22F001021A67B4
:101C60001A6F22F004021A67A368002B36D0FFF720
:101C700075F90646224B1B6F13F0020F48D1FFF790
:101C80006DF9801B41F288339842F3D90320A0E01C
:101C90000025D6E71D4A136843F480731360FFF7ED
:101CA0005DF90646194B1B6813F4807FCED1FFF710
:101CB00055F9801B0228F5D903208AE0104A136FDA
:101CC00043F001031367CFE70D4B1A6F42F0040294
:101CD0001A671A6F42F001021A67C5E7FFF73EF96B
:101CE0000646074B1B6F13F0020F11D0FFF736F9B2
:101CF000801B41F288339842F3D9032069E000BF8A
:101D00000038024000004742800E47420070004009
:101D1000E5B9A369002B5BD0304A926802F00C024F
:101D2000082A58D0022B17D02D4B00221A60FFF73B
:101D300015F90446294B1B6813F0007F42D0FFF7CA
:101D40000DF9001B0228F5D9032042E0234A136C49
:101D500023F080531364DCE7214B00221A60FFF765
:101D6000FDF805461D4B1B6813F0007F06D0FFF7FA
:101D7000F5F8401B0228F5D903202AE0E369226A1E
:101D80001343626A43EA8213A26A5208013A43EAA1
:101D90000243E26A43EA0263104A5360104B012295
:101DA0001A60FFF7DBF804460C4B1B6813F0007F4A
:101DB00006D1FFF7D3F8001B0228F5D9032008E06D
:101DC000002006E0002004E001207047012000E030
:101DD000002002B070BD0120FBE700BF00380240C8
:101DE00060004742264B9B6803F00C03042B44D051
:101DF000082B01D0234870472DE9F04B204B5A683F
:101E000002F03F025B6813F4800F13D01C4B59683B
:101E1000C1F3881100231C48A1FB0001FEF7D4FE8A
:101E2000174B5B68C3F3014301335B00B0FBF3F076
:101E3000BDE8F08B124B5B68C3F388131E46002786
:101E40005C010025E41A65EB0705A90141EA9461EC
:101E5000A001001B61EB0501CB0043EA5073C400F5
:101E6000A01943EB07018B0243EA905384022046FA
:101E700019460023FEF7A8FED2E70348704700BFCB
:101E8000003802400024F400001BB700002800F0D6
:101E90009D8070B504464F4B1B6803F00F038B42C7
:101EA00009D2CBB24B4A1370136803F00F038B4275
:101EB00001D0012070BD236813F0020F17D013F07A
:101EC000040F04D0444A936843F4E05393602368BA
:101ED00013F0080F04D0404A936843F460439360C2
:101EE0003D4A936823F0F003A068034393600D46D6
:101EF000236813F0010F32D06368012B21D09A1EA2
:101F0000012A25D9344A126812F0020F60D03249F2
:101F10008A6822F0030213438B60FFF71FF806461E
:101F20002D4B9B6803F00C036268B3EB820F16D055
:101F3000FFF714F8801B41F288339842F0D9032050
:101F4000B8E7254A126812F4003FE0D10120B1E75A
:101F5000214A126812F0007FD9D10120AAE71D4B57
:101F60001B6803F00F03AB4209D9EAB2194B1A7090
:101F70001B6803F00F03AB4201D001209AE72368EE
:101F800013F0040F06D0144A936823F4E053E16879
:101F90000B439360236813F0080F07D00E4A936831
:101FA00023F46043216943EAC1039360FFF71AFFFA
:101FB000094B9B68C3F30313084AD35CD840084B12
:101FC00018600020FEF780FF002073E701207047B3
:101FD00001206FE7003C024000380240D86500084D
:101FE00008000020014B1868704700BF080000205F
:101FF00008B5FFF7F7FF044B9B68C3F38223034A3E
:10200000D35CD84008BD00BF00380240E865000836
:1020100008B5FFF7E7FF044B9B68C3F34233034A5D
:10202000D35CD84008BD00BF00380240E865000816
:1020300000283BD010B504460023836290F851304D
:10204000002B2ED0022384F851302268136823F02D
:10205000400313606368A2681343E2681343226974
:10206000134362691343A26902F400721343E269E5
:102070001343226A1343A16A22680B431360638BE4
:1020800003F00403616A22680B4353602268D3693A
:1020900023F40063D36100206065012384F851308C
:1020A00010BD80F8503001F035FECBE701207047BD
:1020B00070B4036A23F001030362036A426884690F
:1020C00024F073040D6845EA040623F002048B68CB
:1020D00023430C4DA84202D00B4CA0420BD123F05D
:1020E0000803CD682B4323F0040322F440724D69AA
:1020F00015438A692A43426086614A6842630362E3
:1021000070BC7047000001400004014030B4036A15
:1021100023F480730362036A4268C46924F0730481
:102120000D682C4323F400738D6843EA05230E4D9C
:10213000A84203D005F58065A8420ED123F40063C0
:10214000CD6843EA052323F4806322F440524D69AD
:1021500042EA05128D6942EA05124260C4614A688A
:10216000C263036230BC70470000014030B4036AB0
:1021700023F480530362036A4468C26922F4E6428E
:102180000D6842EA052223F400538D6843EA0533C3
:10219000094DA84203D005F58065A84204D124F476
:1021A00080444D6944EA85144460C2614A6802640F
:1021B000036230BC704700BF000001400268D36872
:1021C00043F00103D3600268136843F00103136016
:1021D00000207047704770477047704710B504463D
:1021E00003681A6912F0020F11D0DA6812F0020FB8
:1021F0000DD06FF002021A610123037603689B6918
:1022000013F0030F70D0FFF7E6FF00232376236857
:102210001A6912F0040F12D0DA6812F0040F0ED00F
:102220006FF004021A610223237623689B6913F47A
:10223000407F5FD02046FFF7CEFF00232376236840
:102240001A6912F0080F12D0DA6812F0080F0ED0D7
:102250006FF008021A61042323762368DB6913F008
:10226000030F4ED02046FFF7B6FF002323762368E6
:102270001A6912F0100F12D0DA6812F0100F0ED097
:102280006FF010021A61082323762368DB6913F4C8
:10229000407F3DD02046FFF79EFF00232376236832
:1022A0001A6912F0010F03D0DA6812F0010F36D16B
:1022B00023681A6912F0800F03D0DA6812F0800FD9
:1022C00034D123681A6912F0400F03D0DA6812F093
:1022D000400F32D123681A6912F0200F03D0DA6858
:1022E00012F0200F30D110BDFFF774FF2046FFF72A
:1022F00073FF8AE72046FFF76DFF2046FFF76CFF6C
:102300009BE72046FFF766FF2046FFF765FFACE737
:102310002046FFF75FFF2046FFF75EFFBDE76FF047
:1023200001021A61204601F00BFAC1E76FF080024A
:102330001A61204600F0C4F9C3E76FF040021A6149
:102340002046FFF74AFFC5E76FF020021A612046DA
:1023500000F0B5F9C7E7000003682E4A904212D09A
:10236000B0F1804F0FD0A2F57C4290420BD002F525
:102370008062904207D002F58062904203D002F55D
:102380007842904203D123F070034A681343214AF4
:1023900090422AD0B0F1804F27D0A2F57C429042E3
:1023A00023D002F5806290421FD002F580629042F5
:1023B0001BD002F57842904217D002F5705290423D
:1023C00013D002F5806290420FD002F580629042F5
:1023D0000BD0A2F59832904207D002F5806290426D
:1023E00003D002F58062904203D123F44073CA689F
:1023F000134303608B68C3620B688362054B98428A
:1024000003D003F58063984201D10B690363012374
:102410004361704700000140A8B110B5044690F830
:1024200039305BB1022384F83930211D2068FFF771
:1024300093FF012384F83930002010BD80F8383034
:1024400001F0E8FDEEE701207047A8B110B50446A1
:1024500090F839305BB1022384F83930211D2068AF
:10246000FFF77AFF012384F83930002010BD80F88F
:10247000383001F0A5FDEEE70120704730B4036A63
:1024800023F010030362036A4468826922F4E6427F
:102490000D6842EA052223F020038D6843EA051304
:1024A0000E4DA84203D005F58065A8420ED123F059
:1024B0008003CD6843EA051323F0400324F440640D
:1024C0004D6944EA85048D6944EA8504446082616B
:1024D0004A688263036230BC704700BF000001405D
:1024E00038B590F83830012B66D00D4604460123EC
:1024F00080F83830022380F839300C2A1AD8DFE807
:1025000002F0071919192019191934191919470056
:102510000068FFF7CDFD2268936943F008039361DB
:102520002268936923F004039361226893692969FF
:102530000B439361012384F83930002084F838007C
:1025400038BD0068FFF79AFF2268936943F400637F
:1025500093612268936923F480639361226893698D
:10256000296943EA01239361E4E70068FFF7CEFDA0
:102570002268D36943F00803D3612268D36923F04A
:102580000403D3612268D36929690B43D361D1E77E
:102590000068FFF7EBFD2268D36943F40063D36161
:1025A0002268D36923F48063D3612268D3692969DF
:1025B00043EA0123D361BDE70220C1E710B4012340
:1025C00003FA01F4036A23EA04030362036A8A40FC
:1025D000134303625DF8044B7047000010B50446D6
:1025E00001220068FFF7EAFF2368094A934203D0FB
:1025F00002F58062934203D15A6C42F400425A645D
:102600002268136843F001031360002010BD00BF6F
:102610000000014090F83830012B22D030B4012264
:1026200080F83820022380F839300468636823F08A
:1026300070036360046863680D682B43636004681B
:10264000A36823F08003A3600468A36849680B4370
:10265000A36080F83920002380F83830184630BC59
:1026600070470220704790F83830012B25D00123A5
:1026700080F83830CB6823F440738A68134323F41E
:1026800080634A68134323F400630A68134323F406
:1026900080530A69134323F400534A69134323F414
:1026A00080438A69134323F400431343026853644D
:1026B000002380F838301846704702207047704772
:1026C00070470268D36823F49073D360026853693B
:1026D00023F001035361202380F83A30704790F8CB
:1026E0003930DBB2212B2AD18368B3F5805F16D055
:1026F000036A5A1C02621A7803685A60C38C013B51
:102700009BB2C384EBB90268D36823F08003D36023
:102710000268D36843F04003D36000207047036A27
:102720001B880268C3F30803536003691BB9036A7B
:1027300002330362E2E7036A01330362DEE7022049
:1027400070470020704700002DE9F84304460168F7
:102750000A6922F44052C36813430B610168CA68D6
:1027600022F4164222F00C02836800690343606978
:102770000343E06903431343CB6021684A6922F4B1
:102780004072A36913434B61E369B3F5004F60D016
:102790002368B84A934200F0148102F580629342A4
:1027A00000F00F81FFF724FC00EB800000EB8000BD
:1027B0006568AD00B0FBF5F5AF4FA7FB05356D09BA
:1027C0002E01FFF715FC00EB800000EB8000656830
:1027D000AD00B0FBF5F9FFF70BFC00EB800000EB60
:1027E00080006568AD00B0FBF5F5A7FB05356D0908
:1027F0004FF0640808FB15952D013235A7FB053510
:102800006D0905F0F0053544FFF7F2FB00EB8000A1
:1028100000EB80006668B600B0FBF6F6FFF7E8FB59
:1028200000EB800000EB800063689B00B0FBF3F0DE
:10283000A7FB0030400908FB10684FEA081808F1B0
:102840003208A7FB0837C7F3431723682F449F605C
:102850000DE12368874A93425BD002F58062934280
:1028600057D0FFF7C5FB00EB800000EB80006568E8
:102870006D00B0FBF5F5804FA7FB05356D092E0106
:10288000FFF7B6FB00EB800000EB800065686D0091
:10289000B0FBF5F9FFF7ACFB00EB800000EB80002C
:1028A00065686D00B0FBF5F5A7FB05356D094FF0C8
:1028B000640808FB1595ED003235A7FB05356D0959
:1028C0006D0005F4F8753544FFF792FB00EB8000CE
:1028D00000EB800066687600B0FBF6F6FFF788FB39
:1028E00000EB800000EB800063685B00B0FBF3F35B
:1028F000A7FB03235B0908FB13684FEAC80808F12C
:102900003208A7FB0837C7F3421723682F449F609C
:10291000ADE0FFF77DFB00EB800000EB8000656819
:102920006D00B0FBF5F5544FA7FB05356D092E0181
:10293000FFF76EFB00EB800000EB800065686D0028
:10294000B0FBF5F9FFF764FB00EB800000EB8000C3
:1029500065686D00B0FBF5F5A7FB05356D094FF017
:10296000640808FB1595ED003235A7FB05356D09A8
:102970006D0005F4F8753544FFF74AFB00EB800065
:1029800000EB800066687600B0FBF6F6FFF740FBD0
:1029900000EB800000EB800063685B00B0FBF3F3AA
:1029A000A7FB03235B0908FB13684FEAC80808F17B
:1029B0003208A7FB0837C7F3421723682F449F60EC
:1029C00055E0FFF725FB00EB800000EB8000656819
:1029D000AD00B0FBF5F5284FA7FB05356D092E01BD
:1029E000FFF716FB00EB800000EB80006568AD0090
:1029F000B0FBF5F9FFF70CFB00EB800000EB80006B
:102A00006568AD00B0FBF5F5A7FB05356D094FF026
:102A1000640808FB15952D013235A7FB05356D09B6
:102A200005F0F0053544FFF7F3FA00EB800000EB0A
:102A300080006668B600B0FBF6F6FFF7E9FA00EB37
:102A4000800000EB800063689B00B0FBF3F0A7FB05
:102A50000030400908FB10684FEA081808F13208F6
:102A6000A7FB0837C7F3431723682F449F60BDE8CF
:102A7000F88300BF001001401F85EB512DE9F041A4
:102A800005460F4616469846069C2B681B6837EA93
:102A900003030CBF01230023B3421DD1B4F1FF3F58
:102AA000F3D02CB1FEF75AFAA0EB0800A042ECD903
:102AB0002A68D36823F4D073D3602A68536923F05B
:102AC00001035361202385F8393085F83A3000231B
:102AD00085F83830032000E00020BDE8F08158B3CD
:102AE00010B5044690F839300BB3242384F83930FC
:102AF0002268D36823F40053D3602046FFF724FEF6
:102B00002268136923F4904313612268536923F008
:102B10002A0353612268D36843F40053D360002032
:102B2000E063202384F8393084F83A3010BD80F80F
:102B3000383001F0DFFBD8E7012070472DE9F04184
:102B400082B01E4690F83930DBB2202B55D10446B6
:102B50000D469046002955D0002A55D090F83830BF
:102B6000012B53D0012380F838300023C363212385
:102B700080F83930FEF7F2F90746A4F82480A4F86B
:102B8000268010E000963B46002280212046FFF779
:102B900075FF00283CD12B882268C3F308035360DB
:102BA0002369C3B90235E38C9BB2B3B1E38C013B1B
:102BB0009BB2E384A368B3F5805FE3D000963B4605
:102BC000002280212046FFF759FF18BB2A7823688E
:102BD0005A600135E7E70135E5E700963B460022FC
:102BE00040212046FFF74AFF0346A8B9202284F877
:102BF0003920002284F8382000E00223184602B071
:102C0000BDE8F0810123F9E70123F7E70223F5E7A7
:102C10000323F3E70323F1E70323EFE790F83A30C8
:102C2000DBB2202B1BD1E1B1EAB190F83830012B97
:102C30001BD081628285C2850023C363222280F873
:102C40003A2080F8383001684A6942F001024A614E
:102C50000168CA6842F49072CA6018467047022040
:102C6000704701207047012070470220704770476D
:102C700008B50168CB6823F04003CB60202380F8BF
:102C80003930FFF7F4FF002008BD08B590F83A305E
:102C9000DBB2222B40D18368B3F5805F0ED003698D
:102CA00003BB03685A68836A591C81621A70C38D1A
:102CB000013B9BB2C385F3B100202EE0826A036919
:102CC00043B903685B68C3F308031380836A023364
:102CD0008362ECE703685B68DBB21380836A0133CD
:102CE0008362E4E703685B68826A511C816203F0D7
:102CF0007F031370DBE70268D36823F49073D3601B
:102D00000268536923F001035361202380F83A30AD
:102D100000F038FA002000E0022008BD70470000F3
:102D200010B5044602681368D168526913F00F00A9
:102D300005D113F0200F02D011F0200F53D100283D
:102D400067D012F0010202D111F4907F61D013F02C
:102D5000010F06D011F4807F03D0E06B40F001003A
:102D6000E06313F0040F04D01AB1E06B40F00200EE
:102D7000E06313F0020F04D01AB1E06B40F00400DE
:102D8000E06313F0080F04D01AB1E26B42F00802BE
:102D9000E263E26B002A48D013F0200F02D011F05A
:102DA000200F24D123685B6903F04003E26B12F02B
:102DB000080F00D13BB32046FFF783FC23685A6914
:102DC00012F0400F1BD05A6922F040025A61636B27
:102DD0008BB11A4A1A65606BFEF72BFD28B3606B46
:102DE000036D984721E02046FFF74FFF1DE0204686
:102DF000FFF74BFFD6E72046FFF790FF15E0204690
:102E0000FFF78CFF11E02046FFF788FF0023E36304
:102E10000BE013F0800F02D011F0800F06D113F0F9
:102E2000400F02D011F0400F04D110BD2046FFF733
:102E300056FCFAE72046FFF71BFFF6E7412E000895
:102E400008B5806B0023C385C384FFF767FF08BD07
:102E500008B50F480F4B03600723436000238360CE
:102E6000C3604FF4803202614FF400124261037676
:102E7000437683760122C27603774277FEF788F89D
:102E800000B908BD4621044800F074FCF9E700BF12
:102E90003C02002000640040F065000808B50F48BF
:102EA0000F4B03600723436000238360C3604FF42C
:102EB000803202614FF400124261037643768376DA
:102EC0000122C27603774277FEF762F800B908BDA7
:102ED0005C21044800F04EFCF9E700BF140200201A
:102EE00000680040F065000810B588B003683C4AEF
:102EF000934204D03B4A934232D008B010BD3A4AC4
:102F0000136801331360012B1DD0032303930222A6
:102F100004920024059406930923079303A93348D8
:102F2000FEF79AFC224621461420FEF717FC1420D7
:102F3000FEF748FC224621461520FEF70FFC15201F
:102F4000FEF740FCD9E700230093294B1A6C42F0AE
:102F500000721A641B6C03F000730093009BD4E7AB
:102F600000230193224B1A6C42F080621A641B6C9E
:102F700003F080630193019B1B4A136801331360C4
:102F8000012B1FD04FF440530393022304930024DA
:102F90000594032306930923079303A91548FEF715
:102FA0005BFC224621464020FEF7D8FB4020FEF77E
:102FB00009FC224621464120FEF7D0FB4120FEF7C6
:102FC00001FC9AE700230293094B1A6C42F000724D
:102FD0001A641B6C03F000730293029BD2E700BFDC
:102FE0000064004000680040F8010020000C02402E
:102FF000003802400004024010B58AB00024059455
:10300000069401230793009401940294039404947A
:103010000893099469460548FEF760F809940594F9
:1030200069460348FEF75AF80AB010BD3C0200207A
:10303000140200202DE9F0418CB0002400943E4B96
:103040001A6B42F010021A631A6B02F0100200921F
:10305000009A01941A6B42F040021A631A6B02F054
:1030600040020192019A02941A6B42F001021A6323
:103070001A6B02F001020292029A03941A6B42F058
:1030800002021A631A6B02F002020392039A04947A
:103090001A6B42F008021A631A6B02F008020492DB
:1030A000049A05941A6B42F080021A631A6B02F0BC
:1030B00080020592059A06941A6B42F020021A6368
:1030C0001B6B03F020030693069BDFF878802246F3
:1030D0003C214046FEF7B0FC184F012244F240016B
:1030E0003846FEF7A9FC164E01224FF40061304627
:1030F000FEF7A2FC3C2307930125089509940A9446
:1031000007A94046FEF7A8FB44F240030793089541
:1031100009940A9407A93846FEF79EFB4FF4006312
:103120000793089509940A9407A93046FEF794FB83
:103130000CB0BDE8F08100BF00380240001402402E
:1031400000100240001C024000B583B002A901F843
:10315000010D01231A460348FFF7F0FC03B05DF8A8
:1031600004FB00BFC005002010B4401A019CE41A03
:1031700004FB00F0521A90FBF2F018445DF8044B87
:103180007047000038B502681C4B1B689A4200D09B
:1031900038BD1B4C122221461848FFF73FFD6078CE
:1031A000030203F4E063227813431649A3F5806316
:1031B0000B80A5786A0102F4FC6242EAD002A2F513
:1031C00080624A802079830203F48063E27843EAD4
:1031D000820343EA9513A3F580638B806279D30160
:1031E00003F4F06343EA5003A3F58063CB80C2F39A
:1031F00001130B7292094A72CAE700BF0006002051
:1032000074040020640200202DE9F04104460268A5
:10321000434B1B689A4206D02268424B1B689A4275
:1032200037D0BDE8F081404D404E2B46324600215C
:10323000FEF794F83768A7F201282B78697801EB3C
:1032400003213B4E4FEA480707EB08039A00B318E7
:10325000B152AA78E87800EB022000B258802979B0
:103260006A7902EB01229A80AA79DA80FDF71AF9CD
:1032700027A3D3E90023FDF77FF927A3D3E9002390
:10328000FDF7A4FAFDF750FC4744BB001E44B060B4
:10329000C2E7264D244B2A4600212046FEF75EF861
:1032A0002B6840F2062293422BD040F20722934231
:1032B00029D040F20522934227D000241A4B1978D6
:1032C0005A7802EB012222809A78D87800EB02200B
:1032D00000B2608019795A7902EB0122A2809B79B1
:1032E000E380FDF7DFF80AA3D3E90023FDF744F9F3
:1032F00009A3D3E90023FDF769FAFDF715FCA060E7
:103300008FE70C4CDAE70C4CD8E70C4CD6E700BF43
:10331000EA2E4454FB2119400000000000D09140E7
:10332000140200203C020020E40300203C040020A2
:103330007C02002064040020580400207002002059
:1033400030B583B0314BB3F9062007EE902AF8EE82
:10335000E77ADFED2F6A87EEA67A9FED2E6A27EED9
:10336000067A2D4880ED057AB3F9042007EE902AFD
:10337000F8EEE77AF1EE677A87EEA67A67EE067ADC
:10338000C0ED067AB3F9003007EE903AF8EEE77A2E
:10339000F1EE677A87EEA67ADFED207A67EE277A7C
:1033A000C0ED077A00F0CEFA002428E004F1100204
:1033B000194B03EB820393ED007A65002B199A00F9
:1033C000174B1344B3F9023007EE903AF8EEE77A60
:1033D00077EE677AFDEEE77A124B2C2000FB043083
:1033E000F8EEE77AC0ED0A7A00F008FCBDEEC00AFC
:1033F00002AB1D4410EE103A25F8083C0134032CB2
:10340000D4DD684600F088FB03B030BD64020020C4
:103410000000254400404E45EC0300200000964388
:103420007C02002034030020002213E00B492C23EF
:1034300003FB02134FF080411960094959600949A3
:1034400099600021D9600849196108495961084902
:1034500099610132032AE9DD704700BF340300207F
:103460000000D0400000484200606A460000FA4375
:103470006666663F054B064A1A60064A5A60064A67
:103480009A600022DA601A61704700BFEC030020E6
:103490000000EF430000C5430080CF4310B5104C3F
:1034A000236840F2DC525A631A6440F6B830FDF7E4
:1034B0005BFD236840F2C4445C631C6441F28830C5
:1034C000FDF752FD07E0064B1B685C631C641E2081
:1034D000FDF74AFD0134B4F5AF6FF4DB10BD00BF5A
:1034E00048050020084B4FF080421A60074A5A6096
:1034F000074A9A60074ADA60074A1A61074A5A611E
:10350000074A9A61704700BF8804002000002041EC
:1035100000004842295C8F3D0060EA4600401C469E
:103520006666663F0000000010B584B0704B5B7AA1
:10353000012B00F0C280DFED6F7AF8EEE77A9FEDA5
:103540006E7A27EE877A6D4BB3F9023007EE903A28
:10355000F8EEE77A77EE677A6948C0ED0A7A694C47
:10356000C4ED017A00F04AFBBDEEC00A10EE103A3D
:103570001BB2ADF80C3007EE903AB8EEE70A84EDD6
:10358000030A5B4BB3F9003007EE103AB8EEC77A86
:10359000DFED5D6AC7EE267A9FED5C7A67EE877A8B
:1035A000FDEEE77A17EE903A1CB2594B1C80594B4E
:1035B000B3F90000FCF776FF0022574BFCF724FE1E
:1035C00049A3D3E90023FDF701F90022534BFCF78F
:1035D000D3FFFDF7A9FA07EE900AFDEEE77A17EEA2
:1035E000903A1BB2E41A2046FCF75CFF02460B46F9
:1035F000104623F0004100224FF08043FDF74CFAC3
:1036000000285DD047F230530093454BB4226FF051
:10361000B3012046FFF7A8FDADF80800344BB3F91D
:10362000023007EE103AB8EEC77ADFED376AC7EE20
:10363000267ABBEE0E7A67EE877AFDEEE77A17EE12
:10364000903A1CB2374B1C80374BB3F90000FCF7A3
:1036500029FF0022304BFCF7D7FD23A3D3E9002339
:10366000FDF7B4F800222D4BFCF786FFFDF75CFA5E
:10367000F3EE087A07EE100A77EE277AFDEEE77A86
:1036800017EE903A1BB2E41A2046FCF70BFF0246F5
:103690000B46104623F0004100224FF08043FDF717
:1036A000FBF988B90023ADF80A300023ADF80E30DD
:1036B00002A800F069FA04B010BDDFED1C7A3CE707
:1036C0000023ADF80830A9E741F658330093184BB2
:1036D0000F226FF018012046FFF746FDADF80A00F3
:1036E000E3E700BFAFF300800000000000FFBF4031
:1036F0006402002000000000000061C458040020A3
:1037000088040020B40200200000254400008C4200
:1037100070040020700200200000B040008076405D
:10372000D08AFFFFAC0200206404002001000000EA
:10373000A8E4FFFF08B5FFF703FEFFF7F5FE08BD9D
:1037400008B5094A1368013313600268074B1B6808
:103750009A4200D008BDFFF7EDFF4FF480410448C6
:10376000FEF770F9F6E700BFFC0100200C05002011
:1037700000140240FEE7000000B595B00021019161
:103780002B4B1A6C42F080521A641B6C03F080536E
:103790000193019B0291274B1A6842F440421A6040
:1037A0001B6803F440430293029B012308934FF4E8
:1037B0008033099302230E934FF480020F92062266
:1037C0001092A822119212930423139308A8FEF7D3
:1037D0003DF920BB0F230393022304930023059399
:1037E0004FF4A05306934FF480530793052103A889
:1037F000FEF74CFBB8B9FEF7F5FB0F4BA3FB00300F
:103800008009FDF7EBFF0420FDF7FEFF00221146C3
:103810004FF0FF30FDF7A2FF15B05DF804FBE1218A
:103820000648FFF7A7FFEF210448FFF7A3FF00BFFB
:103830000038024000700040D34D6210006600085E
:1038400008B5FDF765FBFFF797FFFFF7F3FB00F007
:103850008DFB00F039FAFFF721FBFFF7F9FA00F0D2
:103860009DFC00F035FC00F007FD00F0C9FC00F005
:10387000E5FC00F021FD2A4D00224FF400612846AE
:10388000FEF7DAF8274C00212046FEF7A7FE0C21B0
:103890002046FEF7A3FEFFF701FEFFF7C5FDFFF789
:1038A00021FEFFF7A9FBFFF7E5FD12221E491F4885
:1038B000FFF7B4F91E48FEF781FC1E4B1B68002180
:1038C000986801F062F91C4E3046FDF79FFC1B4CD6
:1038D0002046FDF79BFC02213046FDF7DEFD02216C
:1038E0002046FDF7DAFD164C012204212046FEF7A2
:1038F000A3F8012208212046FEF79EF8012210219C
:103900002046FEF799F8012220212046FEF794F880
:1039100001224FF400612846FEF78EF8FEE700BF53
:10392000001002404805002074040020000600201A
:103930000C0500200C0000203C0200201402002096
:10394000001C024070B485B00446D0ED027A90EDC0
:10395000017A77EE877AB6EE007A67EE877A90ED95
:10396000037A37EEC76AD0ED046A76EE265A9FEDE9
:10397000615A85EE853A36EE666AC6EE053A77EE0E
:10398000877A37EEE67A87EE054A76EEA76AC6EEC4
:10399000854AD0ED007A9FED587A67EE877A9FEDE1
:1039A000577AC7EE276AD0ED057A9FED557AF4EE87
:1039B000C77AF1EE10FA4BD884ED057AD4ED067A89
:1039C0009FED4F7AF4EEC77AF1EE10FA4AD884ED03
:1039D000067AD4ED077A9FED4B7AF4EEC77AF1EED2
:1039E00010FA49D884ED077A94ED055AB1EE457A7C
:1039F000D4ED067A37EE677AD4ED075A23EE256ABE
:103A000037EE467A26EE877A8DED007A35EE676AD4
:103A100023EEA57A36EE476A26EE866A8DED016AB8
:103A200035EE277A24EE256A37EE467A26EE877A37
:103A30008DED027A77EEC57A64EEA55A77EEE57AD7
:103A400066EEA77ACDED037A00239FED2F7A1FE073
:103A50009FED2E7AF4EEC77AF1EE10FAAEDB84ED2C
:103A6000057AABE79FED297AF4EEC77AF1EE10FA0A
:103A7000AFDB84ED067AACE79FED257AF4EEC77AEA
:103A8000F1EE10FAB0DB84ED077AADE70133DBB27B
:103A9000032B0ED804AA02EB830252ED047AF0EE57
:103AA000E77AF4EEC77AF1EE10FAEFDDB0EE677A5E
:103AB000ECE7DFED187AB4EEE77AF1EE10FA10DDFC
:103AC000C7EE876A00230AE004AA02EB830252EDE4
:103AD000047A67EEA67A42ED047A0133DBB2032B57
:103AE000F2D96D460FCD20646164A264E36405B031
:103AF00070BC7047333365423694573D00007042C6
:103B000000404EC5000096C30000000000404E4536
:103B10000000964300D0044630B58BB000230293DA
:103B200003934FF4007204920793069308220892BD
:103B300012E012F5F05F02DA4EF201224252415ECB
:103B40005A000AAC14440D1204F8205C01320AAC8D
:103B5000224402F8201C0133032B0ADC590030F9FF
:103B60001320B2F5F05FE4DD41F6FF5220F8132098
:103B7000E5E701AB02AA04A90248FDF775FB0BB00B
:103B800030BD00BF1402002030B58BB0002302937B
:103B9000039340F2FF1204920793069308220892BF
:103BA00013E012F5F05F02DA4EF2012242525A009F
:103BB00030F913100AAC14440D1204F8205C0132E1
:103BC0000AAC224402F8201C0133032B0CDC022B2C
:103BD000EDD1590030F91320B2F5F05FE1DD41F687
:103BE000FF5220F81320E2E701AB02AA04A9024821
:103BF000FDF73AFB0BB030BD3C020020D0ED027A5D
:103C0000D0ED0A6A67EEA67A90ED006ADFED2D5AD4
:103C100086EE257A67EE877A90ED077A77EE877AD7
:103C2000C0ED077A90ED057AF4EEC77AF1EE10FA5E
:103C30003ADD80ED077AD0ED097A90ED065A67EE0D
:103C4000857A90ED037AD0ED085A76EEE55A27EEA4
:103C5000257ADFED1C4AC4EE865A27EE257AB7EEA8
:103C6000006A36EE456A27EE067A77EE877AC0ED6F
:103C7000097A90ED017A26EE877A90ED076A37EEA1
:103C8000067A77EE877A90ED040AB4EEE70AF1EE51
:103C900010FA06D4B1EE400AB4EEE70AF1EE10FADB
:103CA0000CDDC0ED086A7047B1EE477AF4EEC77AD2
:103CB000F1EE10FABFD580ED077ABCE7B0EE670AE7
:103CC000EFE700BF00007A4408B50F480F4B0360D0
:103CD0004FF48273436000238360C36003614361D8
:103CE0004FF4007282613022C261036243628362D8
:103CF0000A23C362FEF79CF900B908BD45210448B8
:103D0000FFF738FDF9E700BFB40400200050014080
:103D1000106600080268124B9A4200D0704700B546
:103D200087B00021009103F568435A6C42F4801279
:103D30005A645B6C03F480130093009B4FF4607330
:103D40000193022302930391032304930523059314
:103D500001A90448FDF780FD07B05DF804FB00BF32
:103D6000005001400014024010B582B000240094BD
:103D7000214B5A6C42F480425A645A6C02F48042DD
:103D80000092009A01941A6C42F080521A641B6CE3
:103D900003F080530193019B0320FDF7CDFC2246E5
:103DA00021466FF00B00FDF7D9FC224621466FF04B
:103DB0000A00FDF7D3FC224621466FF00900FDF70B
:103DC000CDFC224621466FF00400FDF7C7FC2246D9
:103DD00021466FF00300FDF7C1FC224621466FF03B
:103DE0000100FDF7BBFC224621464FF0FF30FDF7F6
:103DF000B5FC02B010BD00BF003802407047FEE7BE
:103E0000FEE7FEE7FEE770477047704708B5FDF72D
:103E100099F8FDF70AFD08BD08B50248FDF75FFBFC
:103E200008BD00BF3C02002008B50248FDF757FB63
:103E300008BD00BF3C02002008B50248FEF770FF35
:103E400008BD00BF0006002008B50248FEF7C6F90D
:103E500008BD00BF0C05002008B50248FDF73FFB78
:103E600008BD00BF1402002008B50248FDF737FB6B
:103E700008BD00BF1402002008B50248FEF750FF3D
:103E800008BD00BF8006002008B50248FEF748FFC5
:103E900008BD00BF4006002070B50D461646002440
:103EA00004E0AFF30080287001340135B442F8DB40
:103EB000304670BD70B51646002405E04D1C0878EC
:103EC000FFF742F901342946B442F7DB304670BDB2
:103ED00008B503460B4A126842B10A4A1068034407
:103EE0006A46934206D8074A136008BD054A064948
:103EF0001160F2E700F0CEFA0C2303604FF0FF30C0
:103F0000F3E700BF00020020C80600204FF0FF309A
:103F100070474FF400534B600020704700207047FB
:103F20000F49D1F8883043F47003C1F888300D4B45
:103F30001A6842F001021A60002098601A6822F0A4
:103F4000847222F480321A60074A5A601A6822F496
:103F500080221A60D8604FF000638B60704700BF0A
:103F600000ED00E0003802401030002400B583B0BE
:103F70001048114B0360092343600023836044F21F
:103F8000A013C360FEF748FA50B9002300930193D1
:103F900069460848FEF73EFB38B903B05DF804FBFC
:103FA00077210648FFF7E6FBEFE77E210348FFF79E
:103FB000E1FBF2E70C05002000100040206600083D
:103FC00082B00368104A934204D0104A93420ED044
:103FD00002B07047002300930D4B5A6C42F001026F
:103FE0005A645B6C03F001030093009BF0E700232D
:103FF0000193074B1A6C42F040021A641B6C03F0E9
:1040000040030193019BE3E70000014000180040DA
:104010000038024002680E4B9A4200D0704700B54B
:1040200083B00022019203F50A33196C41F01001AC
:1040300019641B6C03F010030193019B01213620CE
:10404000FDF78CFB3620FDF7BDFB03B05DF804FBEC
:104050000010004070B586B00368184A934204D03F
:10406000174A93421BD006B070BD4FF48073019382
:10407000022602960024039404940125059501A9C3
:104080001048FDF7E9FB4FF4804301930296039437
:104090000494059501A90C48FDF7DEFBE3E74023F6
:1040A00001930223029300230393049309230593AE
:1040B00001A90648FDF7D0FBD5E700BF000001408D
:1040C000001800400000024000100240001C0240A6
:1040D00000B591B02E482F4B0360A7234360002307
:1040E000836044F61F62C26003614361FEF7ADF96D
:1040F000002833D100230E930F930EA92448FEF716
:1041000089FA00282FD1602307934FF47A7308931C
:10411000002209920A920B920C920D9207A91C4858
:10412000FEF7DEF920BB0C2207A91948FEF7D8F9E3
:1041300018BB0023009301930293039304934FF45D
:1041400000520592069369461148FEF78CFAC8B9E9
:104150000F48FFF77FFF11B05DF804FB42210E48C6
:10416000FFF708FBC6E749210B48FFF703FBCAE747
:1041700055210948FFF7FEFAD5E75A210648FFF70F
:10418000F9FAD6E766210448FFF7F4FAE0E700BF42
:1041900048050020000001402066000800B589B0F5
:1041A0001448154B0360532343600023836044F697
:1041B0001F62C2600361FEF748F980B96023019372
:1041C000002202920392059201A90A48FEF788F99B
:1041D00050B90848FFF73EFF09B05DF804FB8E2197
:1041E0000648FFF7C7FAE9E797210448FFF7C2FA44
:1041F000EFE700BF8405002000180040206600089B
:1042000008B50B480B4B03604FF4E13343600023C8
:104210008360C36003610C2242618361C361FEF766
:104220005EFC00B908BD44210348FFF7A3FAF9E793
:10423000C0050020007800403066000808B50B4833
:104240000B4B03604FF4E133436000238360C36092
:1042500003610C2242618361C361FEF740FC00B937
:1042600008BD56210348FFF785FAF9E7400600200C
:10427000007C00403066000808B50B480B4B03601B
:104280000B4B436000238360C36003610C224261D7
:104290008361C361FEF723FC00B908BD69210548AD
:1042A000FFF768FAF9E700BF0006002000100140A0
:1042B000A08601003066000808B50B480B4B036070
:1042C0004FF4E133436000238360C36003610C2239
:1042D00042618361C361FEF702FC00B908BD7C2125
:1042E0000348FFF747FAF9E7800600200014014071
:1042F0003066000810B58AB00368494A93420AD074
:10430000484A934223D0484A934242D0474A934274
:1043100062D00AB010BD00230193454B1A6C42F0E5
:1043200080421A641B6C03F080430193019B4FF49D
:10433000C073059302230693012307930323089375
:104340000823099305A93B48FDF786FAE1E7002415
:104350000294374B1A6C42F000421A641B6C03F053
:1043600000430293029B032305930222069201223B
:10437000079208930823099305A92E48FDF76CFAC4
:10438000224621465320FDF7E9F95320FDF71AFA9A
:10439000BFE700240394264B5A6C42F010025A6483
:1043A0005B6C03F010030393039BC023059302236C
:1043B000069301230793032308930723099305A971
:1043C0001D48FDF749FA224621462520FDF7C6F98A
:1043D0002520FDF7F7F99CE700240494144B5A6C50
:1043E00042F020025A645B6C03F020030493049BA8
:1043F0004FF4844305930223069301230793032379
:1044000008930823099305A90C48FDF725FA2246CD
:1044100021464720FDF7A2F94720FDF7D3F978E7B9
:1044200000780040007C0040001001400014014072
:104430000038024000100240000402400018024010
:10444000DFF834D0002103E00C4B5B5843500431BB
:104450000B480C4B42189A42F6D30B4A02E0002359
:1044600042F8043B094B9A42F9D3FFF759FD00F09B
:1044700017F8FFF7E5F9704700000320E06800082F
:1044800000000020DC010020DC010020C406002028
:10449000FEE70000014B1868704700BF0C000020C9
:1044A00070B50D4E0D4CA41BA4100025A54209D1DA
:1044B0000B4E0C4C02F082F8A41BA4100025A54260
:1044C00005D170BD56F8253098470135EEE756F80E
:1044D000253098470135F2E7D8680008D868000809
:1044E000D8680008DC68000802440346934200D103
:1044F000704703F8011BF9E72DE9FF4755EC104B16
:104500000D9FDDF830A0002D0E4691461946B8BF2C
:1045100022462B4627F02007BBBF05F100431D466E
:1045200000232D23B8BF1446462F0B7004D0452F0F
:1045300000D10136022100E0032103AB019302AB5D
:1045400000933246534645EC104B00F061FC472F78
:10455000804602D119F0010F26D0462F08EB06093C
:1045600011D198F80030302B0AD1002200232046C8
:104570002946FCF769FA18B9C6F10106CAF80060C5
:10458000DAF8003099440022002320462946FCF73F
:104590005BFA38B93022039B4B4505D2591C039175
:1045A0001A70F8E7CDF80C90039B0E9AA3EB080362
:1045B0004046136004B0BDE8F087F7B50029044613
:1045C000BABF49422D232B23092904F8022B43703B
:1045D00020DD0DF107031F460A2691FBF6F506FBC9
:1045E00015113031092D03F8011C03F1FF32294662
:1045F00009DC3031023B02F8011CBB42224604D3E5
:10460000101A03B0F0BD1346E7E713F8012B04F8C6
:10461000012BF2E7302319448370021DC170EFE7CC
:104620002DE9F04F8DB00C46DDF8588016461F4638
:10463000054601F01FFB036804931846FBF7D8FDFD
:1046400000230A93D8F800300590073323F00703BE
:1046500003F1080294F818A0D4F800B0C8F80020BC
:10466000D3E90023C4E91223D4E9128929F00043D5
:104670000793CDF818804FF0FF32A74BDDE9060114
:10468000FCF714FA70BB4FF0FF32A34BDDE90601D3
:10469000FCF7EEF930BB0022002340464946FCF708
:1046A000DDF910B12D2384F843309C4A9C4BBAF1BC
:1046B000470F8CBF9046984603232BF004022361DA
:1046C00022604FF00009009733460BAA2146284686
:1046D00000F0E6F9013040F08D804FF0FF300DB072
:1046E000BDE8F08F42464B4640464946FCF7DEF9AE
:1046F00010B18C4A8C4BDAE761684B1C4BF480623A
:104700000AA83ED1062363600023CDE9020309AB6A
:10471000009349EC108B0DF123032260CDF804A027
:1047200061682846FFF7E8FE0AF0DF03472B804662
:1047300009D1099BD81C02DB6268934247DDAAF1CC
:10474000020A5FFA8AFABAF1650F099924D8013989
:10475000524604F150000991FFF72FFF0A9A1318EF
:10476000012A8146236102DC2268D10701D5013389
:1047700023619DF82330002BA5D02D2384F84330EE
:10478000A1E7BAF1670F00F07781BAF1470FBBD10B
:104790000029B9D10123B6E7BAF1660F19D1002972
:1047A00063680CDD216113B92268D20702D5013399
:1047B0000B442361099BA3654FF00009D9E713B9A6
:1047C0002268D00701D50233F3E70123F1E74FF068
:1047D000670ADDE90932934205DB22682361D107CC
:1047E000E8D50133E5E7002BD4BFC3F10203012371
:1047F0001344DEE723685A0507D42369424631464D
:104800002846B84701302BD167E7BAF1650F40F26F
:10481000DC8000220023D4E91201FCF715F90028FE
:1048200033D00123414A31462846B84701303FF48E
:1048300054AFDDE909239A4202DB2368D8070FD57C
:10484000DDE9042331462846B84701303FF445AF3F
:104850004FF0000804F11A090A9B013B434509DCAB
:1048600023689B0700F10381E0680B9B9842B8BF67
:10487000184634E701234A4631462846B8470130F6
:104880003FF42BAF08F10108E6E7099B002B2BDC76
:104890000123264A31462846B84701303FF41DAF70
:1048A000099B23B90A9B13B92368D907D8D5DDE939
:1048B000042331462846B84701303FF40EAF4FF08D
:1048C000000904F11A0A099B5B424B4501DC0A9B73
:1048D00094E70123524631462846B84701303FF459
:1048E000FCAE09F10109EEE70A9AA36D9A42A8BF4E
:1048F0001A46002A914607DD1346314642462846AD
:10490000B84701303FF4E9AE04F11A034FF0000B51
:1049100029EAE979069315E0FFFFEF7F4866000872
:1049200044660008506600084C660008546600089B
:104930000123069A31462846B84701303FF4CDAEF0
:104940000BF1010BD4F858A0AAEB09035B45EFDC8F
:10495000DDE909239A42D04415DB2368DA0712D433
:104960000A9B0999A3EB0A02A3EB010A9245A8BF8F
:104970009246BAF1000F0EDC4FF000082AEAEA7AFC
:1049800004F11A0919E0DDE9042331462846B84745
:104990000130E5D1A1E65346424631462846B847A4
:1049A0000130E9D199E601234A4631462846B84705
:1049B00001303FF492AE08F10108DDE909239B1AAA
:1049C000A3EB0A034345EEDC4AE70A9A012A01DC1D
:1049D000DB073AD50123424631462846B847013025
:1049E0003FF47BAEDDE9042331462846B847013069
:1049F00008F101083FF471AE0A9B002203F1FF3A6F
:104A0000D4E912010023FCF71FF8C8B95346424607
:104A100031462846B84701300ED15EE601235246A2
:104A200031462846B84701303FF457AE08F1010837
:104A30000A9B013B4345F1DC4B4604F15002DEE6A4
:104A40004FF0000804F11A0AF2E70123DFE701231F
:104A50004A4631462846B84701303FF43EAE08F199
:104A60000108E3680B9A9B1A4345F0DCFCE64FF023
:104A7000000804F11909F4E700293FF48BAE002384
:104A8000CDE9020309AB009349EC108B2260CDF80D
:104A900004A00DF123032846FFF72EFD804648E6CB
:104AA0002DE9F04791461F468A680B69DDF82080A2
:104AB0009342B8BF1346C9F8003091F84320064628
:104AC0000C4612B10133C9F800302368990642BF81
:104AD000D9F800300233C9F80030256815F0060512
:104AE00007D104F1190AE368D9F800209B1AAB42F8
:104AF00028DC94F843302268003318BF0123920663
:104B00002DD404F1430239463046C047013020D04D
:104B10002368E568D9F8002003F00603042B08BFDA
:104B2000AD1AA36822690CBF25EAE57500259342FA
:104B3000C4BF9B1AED184FF000091A344D451AD125
:104B4000002008E00123524639463046C047013074
:104B500003D14FF0FF30BDE8F0870135C3E7E1181E
:104B60005A1C302081F84300224494F8451082F802
:104B700043100233C5E70123224639463046C04779
:104B80000130E6D009F10109D8E700294FF480632C
:104B90000CBF0222002200F001B800002DE9F7430B
:104BA0001D46514B1E6804460F46904626B1B36918
:104BB00013B9304600F0D4FF4C4B9C4252D174687C
:104BC000B8F1020F06D0B8F1010F00F28980002D74
:104BD000C0F286802146304600F058FF616B41B13B
:104BE00004F14403994202D0304601F071FB0023E6
:104BF00063630023A3616360A3891B0603D5216956
:104C0000304601F065FBA38923F44A6323F00303D4
:104C1000B8F1020FA3815DD001AB6A462146304650
:104C200001F036F8A3891843A0812DBB009D2846CA
:104C300001F052F8074600284ED1DDF80090A94552
:104C40003CD14FF0FF30A38943F00203A38100233E
:104C5000A36004F14703236023610123636103B070
:104C6000BDE8F083224B9C4201D1B468A8E7214BF8
:104C70009C4208BFF468A3E7002FD8D0B36913B9EA
:104C8000304600F06DFFB8F1010F08BFA38927601F
:104C900004BF43F00103A381A38913F00800C4E912
:104CA00004751BD013F0010018BF6D424FF00003D4
:104CB0001DBFA360A5611846A560D0E7484601F076
:104CC0000BF807460028BCD0A38943F08003A381DA
:104CD0004D46D3E70020B6E7A946F5E7A060BEE75A
:104CE0004FF0FF30BBE700BF0C00002084660008D7
:104CF000A4660008646600082DE9F74F03690C6993
:104D0000A3428046C0F28280013C01F114074FEAC1
:104D1000840C00F1140657F8245056F8240006EBD2
:104D20000C03013507EB0C090193B0FBF5F595B3C6
:104D30004FF0000A3846B646D34650F8042B93B2DB
:104D400005FB03A34FEA134A9BB2ABEB0303120C20
:104D5000DEF800B005FB02A213FA8BF34FEA124A09
:104D60001FFA82FBDEF80020CBEB124202EB23425B
:104D70009BB243EA024381454FEA224B4EF8043B83
:104D8000DBD256F80C3033B9019B043B9E421A46E5
:104D900030D3C8F81040404601F0C6F9002825DBA2
:104DA000013530464FF0000C57F8042BD0F800E0E6
:104DB00093B2ACEB0303120C13FA8EF3C2EB1E4258
:104DC00002EB23429BB243EA0243B9454FEA224C2D
:104DD00040F8043BE8D256F8242006EB84032AB9B5
:104DE000043B9E421A460BD3C8F81040284603B035
:104DF000BDE8F08F1268043B002ACAD1013CC5E728
:104E00001268043B002AEFD1013CEAE70020EEE7FC
:104E10002DE9F04F57EC106B97B0456A06910446A8
:104E20000B921293DDF88080CDE900673DB9102028
:104E300000F052FF6062C0E901550560C560636A19
:104E4000196851B15A684A60012393408B6020462B
:104E500000F089FF636A00221A603B1EBBBF23F08B
:104E60000043019300230122ACBFC8F80030C8F80A
:104E70000020AF4BDDF8048033EA080314D1129A06
:104E800042F20F731360009B23B9C8F3130000288C
:104E900000F04285219BDFF8ACB2002B00F0448586
:104EA0000BF1030300F03EBDDDE9006700220023A3
:104EB00030463946FBF7C8FD814668B1129A012396
:104EC0001360219B002B00F024859A4B219A03F15B
:104ED000FF3B136000F028BD14AA15A947EC106B26
:104EE000204601F098F9C8F30A550490002D7CD0B3
:104EF000C7F3130343F07F5BB2464BF4401BA5F2AC
:104F0000FF35CDF84C9000228B4B50465946FBF7AD
:104F10007BF981A3D3E90023FBF72EFB80A3D3E920
:104F20000023FBF773F9064628460F46FBF7BAFA4B
:104F30007DA3D3E90023FBF71FFB02460B46304657
:104F40003946FBF763F906460F46FBF7C5FD00221D
:104F50008246002330463946FBF780FD48B1504673
:104F6000FBF7A0FA32463B46FBF76EFD08B90AF1A3
:104F7000FF3ABAF1160F59D8704901EBCA01DDE9C1
:104F80000023D1E90001FBF787FD002850D00AF18A
:104F9000FF3A00230F93149B5D1BB5F1010849BF35
:104FA000C5F10103002305934FF0000858BF059396
:104FB000BAF1000F3EDB0023D044CDF838A00793B0
:104FC000069B092B00F29080052BC4BF043B06937F
:104FD000069BA3F10203CCBF00250125032B00F2A1
:104FE0008F80DFE803F07D7F3171DDE914531D44CC
:104FF00005F23240202813DDC0F14000009B08FA82
:1050000000F805F2124023FA00F048EA0000FBF72E
:1050100039FA01238246A1F1F87B013D139372E72F
:10502000009BC0F1200003FA00F0F0E70123B1E794
:105030000F90B0E7059BA3EB0A030593CAF10003A9
:10504000079300230E93BBE701230A930B9B002BCE
:1050500059DD02939946666A00227260042202F1C9
:1050600014009842716853D9204600F048FE636AE4
:105070003060B9F10E0FD3F800B000F2E680002DD9
:1050800000F0E3809DED007BBAF1000F8DED107B09
:1050900074DD2A4A0AF00F0302EBC30393ED007B91
:1050A0004FEA2A16F0068DED087B65D5244BDDE925
:1050B0001001D3E90823FBF789FBCDE9000106F0D5
:1050C0000F0603251E4F4CE001230A930B9B53440C
:1050D00003F1010902934B46012BB8BF0123BAE744
:1050E0000023B2E70023F0E70125002306930A9589
:1050F0004FF0FF3302939946002212230B92AAE746
:1051000001230A93F4E70123029399461A46F5E72F
:10511000013171605200A2E761436F63A787D23FFC
:10512000B3C8608B288AC63FFB799F501344D33F96
:105130000000F07F556600080000F83FF0660008A8
:10514000C86600085F660008F10708D5DDE90801B8
:10515000D7E90023FBF710FACDE9080101357610F5
:105160000837002EF0D1DDE90823DDE90001FBF767
:105170002DFBCDE900011AE00225A3E700F0A08095
:10518000CAF100069F4BA04F06F00F0203EBC203CB
:10519000D3E90023DDE91001FBF7EEF9CDE90001C9
:1051A000361100230225002E7FD1002BE1D10F9B69
:1051B000002B00F08780DDE900670022934B30462A
:1051C0003946FBF74BFC00287CD0B9F1000F79D0B1
:1051D000029B002B35DD0AF1FF330893394600228C
:1051E0008B4B3046FBF7C8F9CDE90001029F013532
:1051F0002846FBF757F9DDE90023FBF7BDF900224C
:10520000844BFBF703F80546A1F15076002F5DD1E2
:105210000022814BDDE90001FAF7F6FF2A4633460A
:10522000CDE90001FBF738FC002840F088822A46CF
:1052300006F10043DDE90001FBF710FC002840F017
:105240007C82DDE91023CDE90023159B002BC0F201
:105250005081BAF10E0F00F34C816A4B03EBCA0385
:1052600093ED007B0B9B002B8DED027B80F2D880B1
:10527000B9F1000F00F3D48040F05E820022664B4B
:1052800051EC170BFBF778F9DDE90023FBF7FAFB8C
:105290004F464E46002840F0348231230BF1010581
:1052A0008BF800300AF1010A2FE2F20705D5D7E9A1
:1052B0000023FBF761F9013501237610083772E707
:1052C000022574E7CDF820A04F4691E74D4B03EB44
:1052D000C70353E902010A9B002B47D002460B4645
:1052E00000204E49FBF772FA2A463346FAF78CFF44
:1052F000CDE90C015D46DDE90001FBF7EDFB06465B
:10530000FBF7D0F802460B46DDE90001FAF77CFF17
:10531000303605F8016BDDE90C23CDE90001FBF720
:105320009DFB002863D1DDE9002300203749FAF70F
:105330006BFFDDE90C23FBF791FB002840F0B78001
:10534000A5EB0B039F427FF77CAF0022304BDDE9DA
:105350000C01FBF711F90022CDE90C012C4BDDE922
:105360000001FBF709F9CDE90001C4E72A463346FD
:10537000FBF702F9CDE90C010BEB07055E46DDE911
:105380000001FBF7A9FB0746FBF78CF83037024614
:105390000B46DDE90001FAF737FF06F8017BAE4264
:1053A000CDE900014FF0000226D11C4BDDE90C01D4
:1053B000FAF72CFF02460B46DDE90001FBF76CFB18
:1053C000002874D1DDE90C2300201449FAF71CFFF2
:1053D00002460B46DDE90001FBF740FB00283FF4E5
:1053E00030AF15F8013C302B05F1FF3202D0DDF86B
:1053F00020A04AE01546F4E7054BFBF7BDF8CDE9E0
:105400000001BCE7F0660008C86600080000F03F35
:105410000000244000001C40000014400000E03F59
:10542000DDE900675D46DDE9022330463946FBF7DA
:10543000CDF9FBF751FB8046FBF734F8DDE9022399
:10544000FBF79AF802460B463046394608F130061B
:10545000FAF7DAFE05F8016BA5EB0B06B14502463B
:105460000B4639D1FAF7D2FEDDE9022306460F4694
:10547000FBF712FBC8B9DDE9022330463946FBF7DA
:10548000E3FA10B118F0010F0FD10499204600F093
:105490006AFC0023129A2B700AF101031360219B0E
:1054A000002B00F041821D603EE2CDF820A015F8EF
:1054B000012C392A05F1FF3308D19B450AD1089BFD
:1054C0000133089330238BF800305B461A780132A1
:1054D0001A708CE71D46EAE700229B4BFBF74CF85D
:1054E0000022002306460F46FBF7AEFA00289AD0AA
:1054F000CBE70A9A002A00F08B80069A012A6EDC1C
:10550000139A002A67D003F23343079F059D059A3B
:1055100001211A4420460592984400F0C4FC064636
:10552000002D0CDDB8F1000F09DD4545059A2B462D
:10553000A8BF4346D21A0592ED1AA8EB0308079BB1
:10554000EBB10A9B002B67D08FB131463A4620461B
:1055500000F048FD049A01460646204600F0ACFCE7
:1055600004990890204600F0FEFB089B0493079BDB
:10557000DA1B04D00499204600F034FD0490012188
:10558000204600F090FC0E9B0746002B00F0D081D7
:105590001A460146204600F025FD069B012B0746D2
:1055A00040DC009B002B39D1019BC3F31303002B7C
:1055B00036D1019B23F000431B0D1B052BB1059B2E
:1055C0000133059308F10108012307930E9B002B7B
:1055D0002AD1012030E0149BC3F1360395E7079BE5
:1055E00009F1FF37BB42BFBF079B0797FA1A0E9B13
:1055F000BBBF9B180E93DF1B0027B9F1000FB5BF8F
:10560000059B059DA3EB09054B46B8BF00237EE72C
:10561000079F059D0A9E83E7079AABE70023D4E71F
:10562000009BD2E7002307933B6907EB83031869CC
:1056300000F0EBFBC0F12000404410F01F0047D009
:10564000C0F12003042B3BDD059BC0F11C0003448B
:10565000059305448044059B002B05DD1A460499FB
:10566000204600F00DFD0490B8F1000F05DD39462D
:105670004246204600F004FD07460F9B53B33946CF
:10568000049800F051FD002824DA00230A2204992E
:10569000204600F07FFB0A9B04900AF1FF3A002BA2
:1056A00000F04D81002331460A22204600F072FBB3
:1056B000029B002B06464FDC069B022B4CDD11E0C3
:1056C000C9D0059A1C331A4405921D449844C2E778
:1056D0000346F6E7B9F1000F38DC069B022B35DDF7
:1056E000CDF80890029B63B939460522204600F0A8
:1056F00051FB01460746049800F016FD00283FF7CD
:10570000CCAD0B9B5D466FEA030A4FF000093946AA
:10571000204600F028FB002E3FF4B7AEB9F1000F91
:1057200005D0B14503D04946204600F01CFB314668
:10573000204600F018FBA8E600273E46E1E7DDF82A
:1057400020A03E46A9E500BF000024400A9BCDF8FA
:105750000890002B00F0FA80002D05DD31462A4626
:10576000204600F08DFC0646079B002B4CD071684C
:10577000204600F0C4FA326902320546920006F172
:105780000C010C3000F0B0FA01222946204600F04E
:1057900077FC009BCDF814B003F00103B1460793EA
:1057A000064639460498FFF7A7FA4946054600F130
:1057B0003008049800F0B8FC324600903946204684
:1057C00000F0CCFCC368024603BB01460890049875
:1057D00000F0AAFC089A034611462046089300F000
:1057E000C2FA089BA3B9069A92B9079A82B9B8F18E
:1057F000390F29D0009B002B01DD05F13108059BF5
:105800005D1C83F8008082E73046C2E70123E3E7AE
:10581000009A002A04DB25D1069A1ABB079A0ABB14
:10582000002BECDD01220499204600F029FC3946CA
:10583000049000F079FC002803DCE0D118F0010F9F
:10584000DDD0B8F1390FD8D1059B059A5D1C3923FD
:10585000137015F8013C392B05F1FF324FD001339D
:10586000137054E7059A002B02F1010506DDB8F12B
:10587000390FE9D008F10108059BC2E7029A05F843
:10588000018CA5EB0B03934221D000230A2204993B
:10589000204600F07FFAB14504904FF000034FF02E
:1058A0000A024946204605D100F074FA81460646B0
:1058B000059576E700F06EFA3146814600230A220C
:1058C000204600F067FA0646F2E74FF00009012291
:1058D0000499204600F0D4FB3946049000F024FCE3
:1058E0000028B6DC02D118F0010FB2D115F8013C46
:1058F000302B05F1FF327FF40AAF1546F6E79345EA
:1059000005D131230AF1010A8BF80030FFE6154674
:105910009FE7DFF864B007E0219BDFF860B01BB1C0
:105920000BF10803219A1360584617B0BDE8F08FB9
:10593000069B012B7FF735AE0E9B079349E6029B32
:10594000002B03DC069B022B3FF7CCAE5D463946AD
:105950000498FFF7D1F900F1300805F8018B029A9D
:10596000A5EB0B039A42B0DD00230A2204992046DE
:1059700000F010FA0490EAE7546600085666000842
:105980008A892DE9F041054610070C4658D44B682A
:10599000002B05DC0B6C002B02DC0020BDE8F08145
:1059A000E66A002EF9D0002312F480522F68216A93
:1059B0002B6032D0606DA3895A0705D56368C01A81
:1059C000636B0BB1236CC01A00230246E66A216A9E
:1059D0002846B047431CA38906D129681D2948D809
:1059E000294ACA40D60744D500226260D9042269F8
:1059F000226004D5421C01D12B6803B96065616B3C
:105A00002F600029C9D004F14403994202D02846EE
:105A100000F05EFC00206063C0E701232846B04729
:105A2000411CC8D12B68002BC5D01D2B01D0162BD3
:105A300001D12F60B1E7A38943F04003A381ADE713
:105A40000F69002FA9D093070E6808BF4B690F603C
:105A500018BF0023A6EB07088B60B8F1000F9CDD90
:105A600043463A46216AA66A2846B047002806DC23
:105A7000A38943F04003A3814FF0FF308EE7074432
:105A8000A8EB0008E9E700BF0100402038B50B692A
:105A900005460C46DBB118B183690BB900F060F81C
:105AA0000C4B9C4209D16C68B4F90C307BB1214697
:105AB0002846BDE83840FFF763BF074B9C4201D141
:105AC000AC68F1E7054B9C4208BFEC68ECE70020AE
:105AD00038BD00BF84660008A4660008646600083C
