:020000040800F2
:10000000000003205D7400083568000839680008A6
:100010003D680008416800084568000800000000CD
:100020000000000000000000000000004968000817
:100030004D6800080000000051680008556800087D
:10004000AD740008AD740008AD740008AD7400080C
:10005000AD740008AD740008AD740008AD740008FC
:10006000AD740008AD740008AD740008AD740008EC
:10007000AD740008AD740008AD740008AD740008DC
:10008000AD740008AD740008AD740008AD740008CC
:100090005968000865680008AD740008AD74000870
:1000A000AD740008AD740008AD740008AD740008AC
:1000B000AD740008AD740008AD740008AD7400089C
:1000C000AD740008AD740008AD740008AD7400088C
:1000D000AD74000871680008AD740008AD740008C4
:1000E000AD740008AD740008AD740008AD7400086C
:1000F000AD740008AD740008AD740008AD7400085C
:10010000AD740008AD740008AD740008AD7400084B
:10011000AD740008AD7400087D680008AD74000877
:10012000AD740008AD740008AD740008AD7400082B
:10013000AD740008AD740008AD740008AD7400081B
:100140008968000895680008AD740008AD7400085F
:10015000AD740008AD740008AD740008A168000813
:10016000AD740008AD740008AD740008AD740008EB
:10017000AD740008AD740008AD7400080000000004
:10018000AD740008AD740008AD740008AD740008CB
:10019000AD740008AD740008AD740008AD740008BB
:0C01A0000000000000000000AD7400082A
:1001B00010B5054C237833B9044B13B10448AFF3A1
:1001C00000800123237010BDFC010020000000000E
:1001D00004BE000808B5034B1BB103490348AFF345
:1001E000008008BD000000000002002004BE0008DE
:1001F000034613F8012B002AFBD1181A0138704767
:1002000001F0FF01102A2BDB10F0070F08D010F8C7
:10021000013B013A8B422DD010F0070F42B3F6D1CB
:10022000F0B441EA012141EA014122F007047FF0E4
:1002300000070023F0E80256083C85EA010586EA3B
:10024000010685FA47F5A3FA87F586FA47F6A5FA77
:1002500087F68EB9EED1F0BC01F0FF0102F0070283
:1002600032B110F8013B013A83EA010313B1F8D12E
:100270000020704701387047002D06BF354603380F
:10028000073815F0010F07D1013015F4807F02BF48
:10029000013015F4C03F0130F0BC0138704700BF99
:1002A00081F0004102E000BF83F0004330B54FEA27
:1002B00041044FEA430594EA050F08BF90EA020F94
:1002C0001FBF54EA000C55EA020C7FEA645C7FEA27
:1002D000655C00F0E2804FEA5454D4EB5555B8BF4A
:1002E0006D420CDD2C4480EA020281EA030382EABB
:1002F000000083EA010180EA020281EA0303362D4D
:1003000088BF30BD11F0004F4FEA01314FF4801C1F
:100310004CEA113102D0404261EB410113F0004F31
:100320004FEA03334CEA133302D0524263EB4303E8
:1003300094EA050F00F0A780A4F10104D5F1200E86
:100340000DDB02FA0EFC22FA05F2801841F10001E1
:1003500003FA0EF2801843FA05F359410EE0A5F1B5
:1003600020050EF1200E012A03FA0EFC28BF4CF0E6
:10037000020C43FA05F3C01851EBE37101F000459C
:1003800007D54FF0000EDCF1000C7EEB00006EEBA9
:100390000101B1F5801F1BD3B1F5001F0CD3490833
:1003A0005FEA30004FEA3C0C04F101044FEA44528A
:1003B00012F5800F80F09A80BCF1004F08BF5FEA11
:1003C000500C50F1000041EB045141EA050130BDF1
:1003D0005FEA4C0C404141EB010111F4801FA4F194
:1003E0000104E9D191F0000F04BF01460020B1FAE9
:1003F00081F308BF2033A3F10B03B3F120020CDA21
:100400000C3208DD02F1140CC2F10C0201FA0CF0FE
:1004100021FA02F10CE002F11402D8BFC2F1200C63
:1004200001FA02F120FA0CFCDCBF41EA0C01904019
:10043000E41AA2BF01EB0451294330BD6FEA040462
:100440001F3C1CDA0C340EDC04F11404C4F120024D
:1004500020FA04F001FA02F340EA030021FA04F35F
:1004600045EA030130BDC4F10C04C4F1200220FAB6
:1004700002F001FA04F340EA0300294630BD21FAF4
:1004800004F0294630BD94F0000F83F4801306BFBA
:1004900081F480110134013D4EE77FEA645C18BFAE
:1004A0007FEA655C29D094EA050F08BF90EA020F45
:1004B00005D054EA000C04BF1946104630BD91EA3D
:1004C000030F1EBF0021002030BD5FEA545C05D140
:1004D0004000494128BF41F0004130BD14F580047F
:1004E0003CBF01F5801130BD01F0004545F0FE41F3
:1004F00041F470014FF0000030BD7FEA645C1ABF28
:10050000194610467FEA655C1CBF0B46024650EA5E
:10051000013406BF52EA033591EA030F41F400218A
:1005200030BD00BF90F0000F04BF0021704730B510
:100530004FF4806404F132044FF000054FF00001E5
:1005400050E700BF90F0000F04BF0021704730B5A6
:100550004FF4806404F1320410F0004548BF40427B
:100560004FF000013EE700BF42004FEAE2014FEAD0
:1005700031014FEA02701FBF12F07F4393F07F4FAB
:1005800081F06051704732F07F4208BF704793F0AE
:100590007F4F04BF41F40021704730B54FF46074C1
:1005A00001F0004521F000411CE700BF50EA0102C4
:1005B00008BF704730B54FF000050AE050EA01026D
:1005C00008BF704730B511F0004502D5404261EBDD
:1005D00041014FF4806404F132045FEA915C3FF41E
:1005E000D8AE4FF003025FEADC0C18BF03325FEABB
:1005F000DC0C18BF033202EBDC02C2F1200300FA6C
:1006000003FC20FA02F001FA03FE40EA0E0021FA90
:1006100002F11444BDE600BF70B54FF0FF0C4CF47E
:10062000E06C1CEA11541DBF1CEA135594EA0C0F30
:1006300095EA0C0F00F0DEF82C4481EA030621EA6B
:100640004C5123EA4C5350EA013518BF52EA0335A6
:1006500041F4801143F4801338D0A0FB02CE4FF058
:100660000005E1FB02E506F00042E0FB03E54FF088
:100670000006E1FB03569CF0000F18BF4EF0010E80
:10068000A4F1FF04B6F5007F64F5407404D25FEA7C
:100690004E0E6D4146EB060642EAC62141EA55512F
:1006A0004FEAC52040EA5E504FEACE2EB4F1FD0C71
:1006B00088BFBCF5E06F1ED8BEF1004F08BF5FEAEF
:1006C000500E50F1000041EB045170BD06F00046A1
:1006D00046EA010140EA020081EA0301B4EB5C044E
:1006E000C2BFD4EB0C0541EA045170BD41F4801146
:1006F0004FF0000E013C00F3AB8014F1360FDEBF6B
:10070000002001F0004170BDC4F10004203C35DA46
:100710000C341BDC04F11404C4F1200500FA05F3C9
:1007200020FA04F001FA05F240EA020001F000426A
:1007300021F0004110EBD37021FA04F642EB0601E0
:100740005EEA430E08BF20EAD37070BDC4F10C040A
:10075000C4F1200500FA04F320FA05F001FA04F2CE
:1007600040EA020001F0004110EBD37041F10001BA
:100770005EEA430E08BF20EAD37070BDC4F12005C5
:1007800000FA05F24EEA020E20FA04F301FA05F22D
:1007900043EA020321FA04F001F0004121FA04F2D5
:1007A00020EA020000EBD3705EEA430E08BF20EAA5
:1007B000D37070BD94F0000F0FD101F000464000DF
:1007C00041EB010111F4801F08BF013CF7D041EA61
:1007D000060195F0000F18BF704703F00046520065
:1007E00043EB030313F4801F08BF013DF7D043EA36
:1007F0000603704794EA0C0F0CEA135518BF95EAEC
:100800000C0F0CD050EA410618BF52EA4306D1D172
:1008100081EA030101F000414FF0000070BD50EA91
:10082000410606BF1046194652EA430619D094EA1B
:100830000C0F02D150EA013613D195EA0C0F05D105
:1008400052EA03361CBF104619460AD181EA030159
:1008500001F0004141F0FE4141F470014FF0000011
:1008600070BD41F0FE4141F4780170BD70B54FF0AC
:10087000FF0C4CF4E06C1CEA11541DBF1CEA13552C
:1008800094EA0C0F95EA0C0F00F0A7F8A4EB05040E
:1008900081EA030E52EA03354FEA013100F0888005
:1008A0004FEA03334FF0805545EA131343EA1263CE
:1008B0004FEA022245EA111545EA10654FEA002683
:1008C0000EF000419D4208BF964244F1FD0404F53C
:1008D000407402D25B084FEA3202B61A65EB030598
:1008E0005B084FEA32024FF480104FF4002CB6EB55
:1008F000020E75EB030E22BFB61A754640EA0C00D5
:100900005B084FEA3202B6EB020E75EB030E22BF14
:10091000B61A754640EA5C005B084FEA3202B6EB55
:10092000020E75EB030E22BFB61A754640EA9C0014
:100930005B084FEA3202B6EB020E75EB030E22BFE4
:10094000B61A754640EADC0055EA060E18D04FEAA2
:10095000051545EA16754FEA06164FEAC30343EA42
:1009600052734FEAC2025FEA1C1CC0D111F4801F0F
:100970000BD141EA00014FF000004FF0004CB6E708
:1009800011F4801F04BF01430020B4F1FD0C88BFA7
:10099000BCF5E06F3FF6AFAEB5EB030C04BFB6EBB2
:1009A000020C5FEA500C50F1000041EB045170BDA5
:1009B0000EF0004E4EEA113114EB5C04C2BFD4EBD2
:1009C0000C0541EA045170BD41F480114FF0000E56
:1009D000013C90E645EA060E8DE60CEA135594EAD2
:1009E0000C0F08BF95EA0C0F3FF43BAF94EA0C0FD5
:1009F0000AD150EA01347FF434AF95EA0C0F7FF44A
:100A000025AF104619462CE795EA0C0F06D152EA9D
:100A100003353FF4FDAE1046194622E750EA410681
:100A200018BF52EA43067FF4C5AE50EA41047FF492
:100A30000DAF52EA43057FF4EBAE12E74FF0FF3CF7
:100A400006E000BF4FF0010C02E000BF4FF0010CC8
:100A50004DF804CD4FEA410C7FEA6C5C4FEA430C41
:100A600018BF7FEA6C5C1BD001B050EA410C0CBF90
:100A700052EA430C91EA030F02BF90EA020F0020F2
:100A8000704710F1000F91EA030F58BF994208BF59
:100A900090422CBFD8176FEAE37040F00100704716
:100AA0004FEA410C7FEA6C5C02D150EA013C07D16D
:100AB0004FEA430C7FEA6C5CD6D152EA033CD3D0B8
:100AC0005DF8040B704700BF8446104662468C46B2
:100AD0001946634600E000BF01B5FFF7B7FF0028E5
:100AE00048BF10F1000F01BD4DF808EDFFF7F4FF0E
:100AF0000CBF012000205DF808FB00BF4DF808ED99
:100B0000FFF7EAFF34BF012000205DF808FB00BFBB
:100B10004DF808EDFFF7E0FF94BF012000205DF8DD
:100B200008FB00BF4DF808EDFFF7CEFF94BF012092
:100B300000205DF808FB00BF4DF808EDFFF7C4FF8B
:100B400034BF012000205DF808FB00BF4FEA410CD4
:100B50007FEA6C5C02D150EA013C0AD14FEA430CB7
:100B60007FEA6C5C02D152EA033C02D14FF00000F4
:100B700070474FF0010070474FEA410212F5001232
:100B800015D211D56FF47873B3EB625212D94FEAD4
:100B9000C12343F0004343EA505311F0004F23FABE
:100BA00002F018BF404270474FF00000704750EA13
:100BB000013005D111F0004008BF6FF000407047D0
:100BC0004FF00000704700BF4FEA4102B2F1E0432E
:100BD00024BFB3F5001CDCF1FE5C0DD901F0004C24
:100BE0004FEAC0024CEA5070B2F1004F40EB830074
:100BF00008BF20F00100704711F0804F21D113F1A0
:100C00003872BCBF01F00040704741F480114FEAD8
:100C10005252C2F11802C2F1200C10FA0CF320FA61
:100C200002F018BF40F001004FEAC1234FEAD3237E
:100C300003FA0CFC40EA0C0023FA02F34FEA4303E8
:100C4000CCE77FEA625307D150EA01331EBF4FF071
:100C5000FE4040F44000704701F0004040F0FE408C
:100C600040F40000704700BF53B94AB9002908BFDB
:100C700000281CBF4FF0FF314FF0FF3000F072B979
:100C8000ADF1080C6DE904CE00F006F8DDF804E0E3
:100C9000DDE9022304B070472DE9F047089E0446C1
:100CA0008846002B4BD18A42154667D9B2FA82F2A8
:100CB0004AB1C2F1200701FA02F320FA07F7954082
:100CC00047EA030894404FEA154E230CB8FBFEF7A1
:100CD0001FFA85FC0EFB178843EA084307FB0CF15B
:100CE000994209D9EB1807F1FF3080F01B81994236
:100CF00040F21881023F2B445B1AA4B2B3FBFEF012
:100D00000EFB103344EA034400FB0CFCA44509D954
:100D10002C1900F1FF3380F00781A44540F20481D3
:100D200002382C4440EA0740A4EB0C0400271EB113
:100D3000D4400023C6E900433946BDE8F0878B4222
:100D400009D9002E00F0EB800027C6E900013846E3
:100D50003946BDE8F087B3FA83F7002F47D18B42BD
:100D600002D3824200F2FA80841A61EB030301206D
:100D70009846002EE0D0C6E90048DDE702B9FFDE64
:100D8000B2FA82F2002A40F08F80491B4FEA154EDA
:100D90001FFA85F80127B1FBFEFC230C0EFB1C118A
:100DA00043EA014308FB0CF1994207D9EB180CF117
:100DB000FF3002D2994200F2CD808446591AA3B284
:100DC000B1FBFEF00EFB101443EA044408FB00F8EC
:100DD000A04507D92C1900F1FF3302D2A04500F23B
:100DE000B6801846A4EB080440EA0C409FE7C7F120
:100DF000200CBB4022FA0CFE4EEA030E01FA07F467
:100E000020FA0CF521FA0CF34FEA1E482543B3FBF8
:100E1000F8F92C0C08FB19331FFA8EFA44EA034345
:100E200009FB0AF49C4202FA07F200FA07F10BD917
:100E30001EEB030309F1FF3080F087809C4240F2F3
:100E40008480A9F1020973441B1BADB2B3FBF8F017
:100E500008FB103345EA034400FB0AFAA24508D90F
:100E60001EEB040400F1FF336BD2A24569D90238AE
:100E7000744440EA0940A0FB0289A4EB0A044C45F3
:100E8000C2464B4654D351D0002E69D0B1EB0A056F
:100E900064EB030404FA0CFCFD40FC404CEA05053D
:100EA000C6E90054002747E7C2F1200320FA03F700
:100EB000954001FA02F021FA03F34FEA154E384348
:100EC000010CB3FBFEF71FFA85F80EFB173341EA5E
:100ED000034107FB08F38B4204FA02F407D96918AF
:100EE00007F1FF3C2FD28B422DD9023F2944CB1A68
:100EF00081B2B3FBFEF00EFB103341EA034100FB6D
:100F000008F38B4207D9691800F1FF3C17D28B42D6
:100F100015D902382944C91A40EA07473BE7374642
:100F2000304609E70746E7E61846FBE64145ABD2FF
:100F3000B8EB020A69EB0E0201381346A4E76046DB
:100F4000E9E7184695E76746D1E781467CE702382E
:100F50002C4447E7ACF1020C2B442FE7384608E756
:100F60003746E9E6704700BF38B50E4A0E4B127897
:100F70001B6805464FF47A70B0FBF2F0B3FBF0F05B
:100F800000F00AFC08B90F2D01D9012038BD044634
:100F9000024629464FF0FF3000F0BAFB034B2046D3
:100FA0001D6038BD00000020240000200400002047
:100FB00008B50B4B1A6842F400721A601A6842F4C2
:100FC00080621A601A6842F480721A60032000F08E
:100FD0008DFB0020FFF7C8FF05F010FC002008BDC6
:100FE000003C0240034A044B11681B780B44136019
:100FF000704700BFD402002000000020014B186899
:10100000704700BFD402002038B50446FFF7F6FF52
:10101000631C054602D0044B1B781C44FFF7EEFF0F
:10102000401BA042FAD338BD0000002000287CD02D
:1010300038B590F820300446002B73D0226813682E
:1010400023F002031360FFF7D9FF054604E0FFF722
:10105000D5FF401B0A285CD823685A689107F6D44C
:101060001A6842F001021A60FFF7C8FF054604E063
:10107000FFF7C4FF401B0A284BD823685A68D207E1
:10108000F6D5227E012A1A680CBF42F0800222F0B7
:1010900080021A60627E012A1A680CBF42F0400288
:1010A00022F040021A60A27E012A1A680CBF42F0A8
:1010B000200222F020021A60E27E012A1A680CBF88
:1010C00022F0100242F010021A60227F012A1A68F0
:1010D0000CBF42F0080222F008021A60627F012A67
:1010E0001A680CBF42F0040222F004021A60D4E92C
:1010F0000221D4E904500A4361682A4302430139BA
:101100000A4301250021DA610846616284F8205013
:1011100038BD636A052243F400336362012084F81A
:10112000202038BD03F0F2F888E70120704700BFA7
:1011300090F82030013B012B05D9436A43F480230A
:101140004362012070473C4BD3F8002242F0010279
:10115000F0B4C3F80022D3F8002222F47C52C3F882
:101160000022D3F80022486A42EA0022C3F8002293
:101170004A69D3F81C52012402F01F0004FA00F05F
:10118000C4432540C3F81C52CD69002D3AD0012D2F
:1011900015D1D3F80C520543C3F80C52D2000F6896
:1011A0008D888E688B8902F1804202F5C84245EA3B
:1011B000074543EA0643C2F84052C2F844328B69FD
:1011C0001D4A9BBBD2F804322340C2F804320B699B
:1011D0002BBB194BD3F814221440C3F814420B6AEA
:1011E000012B05D1144AD2F81C321843C2F81C0254
:1011F000114AD2F8003223F001030020C2F8003275
:10120000F0BC7047D3F80C522540C3F80C52D20002
:1012100002F18042CF688D888E680B88C5E7064A48
:10122000D2F814320343C2F81432D8E7D2F80432A9
:101230000343C2F80432CAE70064004038B590F8AE
:101240002030012B05D0436A43F400234362012080
:1012500038BD0268022380F82030136823F00103B0
:1012600013600446FFF7CAFE054604E0FFF7C6FE1A
:10127000401B0A2807D823685B6813F00103F5D1E7
:101280006362184638BD636A052243F40033636223
:10129000012084F8202038BD70B490F82040056803
:1012A000013C012CAE6806D9436A43F480234362B3
:1012B000012070BC704716F0E05F2ED0C6F30166C7
:1012C000032E31D00120B04018608B6893BB0C68AE
:1012D000C86806F118031B0140EA4450E850087D35
:1012E00009693601AB190128C3F8841105D1D3F877
:1012F000841141F48071C3F8841135445168C5F8F4
:101300008C111268C5F88821D3F8802142F00102BF
:101310000020C3F8802170BC7047436A43F4001377
:10132000436270BC01207047436A43F40003436288
:101330000120BEE7C8684C68034306F118000001AD
:1013400043EAC4032B50CAE72DE9F04190F820404E
:10135000013C012C06D9436A43F4802343620120F7
:10136000BDE8F0810568002958D02C69A40758D041
:101370000C012E19D6F8B07107F004079760002F02
:101380005CD1D6F8B0717F0D1760D6F8B0E1D6F811
:10139000B4C1D6F8B471D6F8B4612544CEF3400E8A
:1013A000D5F8B881C7F307270CF00F05360CC2E952
:1013B00003E5C2E9056783F8008002682244D2F899
:1013C000B821120A5A7002682244D2F8B821120CCD
:1013D0009A7002682244D2F8B821120EDA700268BC
:1013E0002244D2F8BC211A7102682244D2F8BC21EE
:1013F000120A5A7102682244D2F8BC21120C9A7166
:1014000002681444D4F8BC21120EDA71026879B96A
:10141000D36843F020030846D360A1E7EC68A60731
:10142000A6D1436A43F4001343620120BDE8F08172
:10143000136943F020031361002091E7D6F8B071DF
:10144000FF085760A1E700BF90F82030013B012B57
:1014500005D9436A43F48023436201207047026840
:101460005369194351610020704700BF704700BFA6
:10147000704700BF704700BF704700BF704700BF94
:10148000704700BF704700BF704700BF704700BF84
:10149000704700BF704700BF704700BF2DE9F84F8D
:1014A00003685C69D3F804809F68D3F80CB0D3F864
:1014B0001090D3F818A014F00106054625D017F0B7
:1014C000010640F09C804FF400524FF48041F80533
:1014D0000DD52B684FF480709860BB0500F1C78074
:1014E000780500F1D7803A0540F1E8800E46FB030D
:1014F0000BD52B684FF48032B8039A6000F1B380AB
:10150000790340F1C98046F40046230702D51BF059
:10151000100F6ED1670702D51BF0080F7FD1A0070F
:1015200004D52B68DB68990740F08E80620602D5EF
:1015300019F0100F57D1A30603D519F0080F40F08A
:101540008780E70604D52B681B69980740F08780E1
:10155000A10302D518F0100F68D1E20302D518F0EC
:10156000080F6AD1230435D518F0040F2B682FD04B
:10157000E70504D51AF0010F18BF46F00106A005D3
:1015800004D51AF0020F18BF46F00206610504D513
:101590001AF0040F18BF46F00406220518D51AF0F9
:1015A000700A15D0BAF1300F00F0968079D9BAF1EF
:1015B000500F00F08E80BAF1600F00F09080BAF109
:1015C000400F01D146F040069A6922F070029A61FC
:1015D00004225A602EB16B6A1E436E622846FFF7E2
:1015E0005BFFBDE8F88F2B68102246F480661A6115
:1015F000A1E72B68102246F40076DA608AE7012220
:101600009A60BB0737D47E073DD417F0080659D03F
:101610004FF440524FF4A0414FF4805657E72B68E7
:101620000822DA602846FFF72DFF78E72B681022A2
:101630005A602846FFF72CFF8FE72B6808225A6074
:101640002846FFF727FF8DE7284603F005FC6DE7E6
:101650002B6808221A612846FFF718FF71E7284611
:10166000FFF712FF74E72846FFF704FF4DE728460F
:10167000FFF7FEFE3BE7FFF7F9FE00264FF40052AE
:101680004FF4804123E74FF420524FF490414FF440
:1016900000661CE716462AE73A030BD546F4803667
:1016A00033E7BAF1100F1DD0BAF1200F8CD146F0FC
:1016B000100689E72846FFF7E3FE26E72846FFF7EE
:1016C000DDFE14E7FFF7D8FE4FF400524FF48041DF
:1016D000FDE646F0800677E746F0200674E746F41C
:1016E000807671E746F008066EE700BF074AD368C8
:1016F0004FF6FF010B40000243F0BF6300F4E060CF
:1017000043F400330343D360704700BF00ED00E0B3
:10171000184BDB68C3F3022330B4C3F10705042D73
:1017200003F1040428BF0425062C19D9033B4FF00C
:10173000FF349C4022EA04044FF0FF32AA4021EA21
:10174000020101FA03F2224312010028D2B20ADB9D
:1017500000F1604000F5614080F8002330BC704724
:1017600000242346E8E7044B00F00F0003441A76F8
:1017700030BC704700ED00E0FCEC00E0002807DB27
:1017800000F01F0101234009024A8B4042F820303B
:10179000704700BF00E100E00138B0F1807F0ED259
:1017A000084B10B4084C5860F02084F82300002245
:1017B000072110469A6019605DF8044B70470120BC
:1017C000704700BF10E000E000ED00E090F8353019
:1017D000022B03D080234365012070470268052354
:1017E00080F83530136823F0010313600020704740
:1017F0002DE9F04FDFF860C2DFF86082D1F800E039
:1018000083B0002503E00135102D00F0A4800123F2
:10181000AB400EEA0304A342F5D14E6826F0100A4D
:10182000BAF1020F00F09A804FEA45090322D0F87E
:1018300000B002FA09F2D24306F0030702EA0B0BEA
:1018400007FA09F70AF1FF3A47EA0B07BAF1010F65
:10185000076040F2A980C7688B683A4003FA09F331
:101860001343C360F300CED500230193D8F844306E
:1018700043F48043C8F84430D8F8443025F00302DC
:1018800002F1804203F4804302F59C32019305F09B
:101890000307019BD2F80890BF000F23BB4029EA41
:1018A000030A674B98422ED003F58063984200F0FC
:1018B0008E80644B984200F09180634B984200F018
:1018C0009480624B984200F09780614B984200F000
:1018D000A180604B984200F0A480DFF884914845D5
:1018E00000F09180DFF87C91484500F0A180DFF89E
:1018F000789148450CBF4FF009094FF00A0909FAE1
:1019000007F74AEA070AC2F808A0DCF80030E24309
:10191000F70354BF13402343CCF80030DCF8043005
:10192000B70354BF13402343CCF80430DCF808302D
:10193000F70254BF13402343CCF80830DCF80C30D6
:10194000B60205F1010554BF13402343102DCCF816
:101950000C307FF45CAF03B0BDE8F08F4FEAD509DF
:1019600000EB890905F00707D9F82020BF004FF0E8
:101970000F0B0BFA07FB22EA0B0A0A69BA4042EA8C
:101980000A02C9F820204FEA45090322D0F800A036
:1019900002FA09F2D24306F0030702EA0A0A07FA3A
:1019A00009F747EA0A070760876807EA020ACF686B
:1019B00007FA09F747EA0A078760D0F804A0C6F3D8
:1019C00000172AEA0303AF401F43476043E74FF085
:1019D000010909FA07F74AEA070A94E74FF00209F2
:1019E00009FA07F74AEA070A8DE74FF0030909FAEF
:1019F00007F74AEA070A86E74FF0040909FA07F7EA
:101A00004AEA070A7FE74FF0070909FA07F74AEAA7
:101A1000070A78E74FF0050909FA07F74AEA070AC3
:101A200071E74FF0060909FA07F74AEA070A6AE779
:101A30004FF0080909FA07F74AEA070A63E700BF07
:101A40000000024000080240000C0240001002406A
:101A50000014024000180240003C014000380240DF
:101A6000001C024000200240002402400369194289
:101A700014BF01200020704702B90904816170473A
:101A8000436931EA030308BF09048161704700BF5D
:101A9000002800F032812DE9F0410368DD0782B0B3
:101AA00004462FD5AC498A6802F00C02042A00F0E3
:101AB000EA808A6802F00C02082A00F0E08063687D
:101AC000B3F5803F00F0E980B3F5A02F00F054811A
:101AD000A14D2A6822F480322A602A6822F48022EA
:101AE0002A60002B40F0DE80FFF788FA064605E00A
:101AF000FFF784FA801B642800F2F2802B689B03B6
:101B0000F6D423689F0775D41A0715D56369002B8F
:101B100000F0A580914B904D01221A60FFF76EFAFC
:101B2000064605E0FFF76AFA801B022800F2D8801B
:101B30006B6F9B07F6D5236858073BD5864A136C15
:101B400013F0805340F0DB800193136C43F080531B
:101B50001364136C03F080530193019B0126804DA5
:101B60002A68D10540F1AC80A368012B00F0C98040
:101B7000052B00F00B81784D2A6F22F001022A67B5
:101B80002A6F22F004022A67002B40F0BF80FFF783
:101B900035FA41F28837804606E0FFF72FFAA0EBCE
:101BA0000800B84200F29C802B6F9807F5D4002EF5
:101BB00040F0DC80A269CAB1674DA96801F00C0150
:101BC000082948D0022A674A4FF00001116000F04E
:101BD000E780FFF713FA2C46054604E0FFF70EFAFC
:101BE000401B02287CD823689B01F7D4002002B058
:101BF000BDE8F081584A916811F00C0F24D091682B
:101C000001F00C0108291CD0E368002B00F0928041
:101C1000554B514D01221A60FFF7F0F9064604E0DA
:101C2000FFF7ECF9801B02285AD82B689807F7D5E4
:101C30002B68226923F0F80343EAC2032B60236870
:101C400062E752685602DFD4434A126895074BD5C3
:101C5000E268012A48D0012002B0BDE8F0813F4A85
:101C60003D4D1360FFF7CAF9064604E0FFF7C6F9D9
:101C7000801B022834D86B6F9F07F7D45BE74A6854
:101C800050027FF51CAF344A126891037FF53AAFDA
:101C90006268002A7FF436AFDDE72F4A136843F409
:101CA00080331360FFF7AAF92B4D064604E0FFF7D7
:101CB000A5F9801B642813D82B689A03F7D520E771
:101CC0002A6842F480722A60FFF798F907462B6869
:101CD000DA053FF549AFFFF791F9C01B0228F6D9A5
:101CE000032002B0BDE8F0811B4920690A6822F098
:101CF000F80242EAC0020A6006E7012070470026A7
:101D00002DE7154A136F43F001031367FFF776F9C8
:101D1000114D804641F2883705E0FFF76FF9A0EBDF
:101D20000800B842DCD82B6F9B07F6D5002E3FF495
:101D300041AF1BE00C4A084D1360FFF75FF9064600
:101D400004E0FFF75BF9801B0228C9D82B689907CC
:101D5000F7D42368D8E600BF00380240800E47421F
:101D6000007000406000474200004742234A136C65
:101D700023F0805313641DE7204B1A6842F480223D
:101D80001A601A6842F480321A608BE71B4B1A6F94
:101D900042F004021A671A6F42F001021A67B5E7AF
:101DA000FFF72CF9064604E0FFF728F9801B02280C
:101DB00096D82B689901F7D4D4E90736D4E90902FB
:101DC000E16A0E4C334343EA8013520843EA01634D
:101DD000013A0B4943EA024301226B600A60FFF7B4
:101DE0000DF9054605E0FFF709F9401B02283FF60B
:101DF00077AF23689A01F6D5F8E600BF00380240B5
:101E000060004742174908B58B6803F00C03042BA8
:101E10001BD0082B17D14A684B6813F4800302F0DB
:101E20003F0214D149681048C1F38811A1FB000199
:101E3000FEF71AFF0B4B5B68C3F3014301335B00F2
:101E4000B0FBF3F008BD084808BD084808BD4B6862
:101E50000648C3F38813A3FB00010023FEF704FF29
:101E6000E8E700BF003802400024F400001BB70080
:101E700060B1484A136803F00F038B4208D2CBB21B
:101E80001370136803F00F038B4201D001207047D9
:101E900003682DE9F0419D0714D55C0704D53E4C3D
:101EA000A26842F4E052A2601A0704D53A4CA26834
:101EB00042F46042A260384C8568A26822F0F002C9
:101EC0002A43A260DF0704460D4622D54268012A54
:101ED00056D0931E012B304B1B6858D9990725D536
:101EE0002D4EB36823F003031343B360FFF786F866
:101EF00041F28837804605E0FFF780F8A0EB080044
:101F0000B84242D8B368626803F00C03B3EB820FA7
:101F1000F2D1204A136803F00F03AB4209D9EBB2A8
:101F20001370136803F00F03AB4202D00120BDE829
:101F3000F08123685A0706D51749E0688A6822F4B9
:101F4000E05202438A601B0711D4FFF75BFF124B7C
:101F500012499B68124AC3F30313CB5C20FA03F3C4
:101F600000201360FFF700F80020BDE8F0810A4A66
:101F70002169936823F4604343EAC1039360E4E773
:101F8000054B1B689E03ABD4D0E70320EDE7980117
:101F9000A6D4CBE7003C02400038024060C00008F5
:101FA00024000020044B054A9B680549C3F38223A3
:101FB0000868D35CD84070470038024070C0000801
:101FC00024000020044B054A9B680549C3F34233B3
:101FD0000868D35CD84070470038024070C00008E1
:101FE0002400002000283BD090F85120002370B539
:101FF00002F0FF010446836262B31846D4E901355A
:10200000D4E903212B4313436269E569266A0B4334
:102010001343A26921682B43022584F851503343AE
:1020200002F400750E682B43120C656A02F004027C
:1020300003432A4326F040060E600B604A60CB69DA
:10204000002223F400630125CB611046626584F809
:10205000515070BD80F8501004F098FBA06ACDE795
:10206000012070472DE9F04190F85040012C82B0DA
:1020700000F0AA801E46012380F85030044617461F
:102080000D46FEF7BBFF804694F851006368C0B26E
:10209000012811D0B3F5827F09D00220012200234C
:1020A00084F8512084F8503002B0BDE8F081A26875
:1020B000002AF2D10428F0D1002D00F08980002FF1
:1020C00000F08680002E00F0838094F85120206874
:1020D000A763042A1CBF052284F8512000226265F0
:1020E000E687E6860168A687C4E910224A062563CA
:1020F000A68603D4026842F040020260E268B2F5AC
:10210000006F00F09D80002B00F00281012E00F096
:10211000FF80089B01334FF0010527D05AE0236868
:102120009A6892070FD5E28E92B262B15DB1226BCE
:1021300012781A73E28E216B2368013A92B2013150
:10214000E286216300259A68D7070DD5E28F92B207
:1021500052B1A26BDB681370E38FA26B013B9BB2A1
:102160000132E387A2630125FEF748FFE38E9BB2AD
:10217000002BD4D1E38F9BB2002BD0D1904B914A4E
:102180001B686168A2FB03235B0D4FF47A7202FBAC
:1021900003F3B1F5827F019307D1CEE0019B226862
:1021A000013B019393681B0602D5019B002BF5D1DF
:1021B000A068002840F0BF8023680090DA68009291
:1021C0009B680093009B69E7022002B0BDE8F081A4
:1021D000012063E7E38E9BB223B9E38F9BB2002B10
:1021E00000F0B08023689A6896070FD5E28E92B20D
:1021F00062B15DB1226B12781A73E28E216B236893
:10220000013A92B20131E286216300259A68D00733
:102210000DD5E28F92B252B1A26BDB681370E38FDF
:10222000A26B013B9BB20132E387A2630125FEF75B
:10223000E5FE089BA0EB08008342CBD803202DE7E6
:10224000002B6FD0012E6DD0089B01334FF001059C
:1022500024D02CE023689A6897070DD5E28E92B2BD
:1022600052B14DB1216B31F8022BDA60E28E21635D
:10227000013A92B2E28600259A68D6070CD5E28F21
:1022800092B24AB1A26BDB6822F8023BE38FA263F1
:10229000013B9BB2E3870125FEF7B0FEE38E9BB2C4
:1022A000002BD7D1E38F9BB2002BD3D166E7E38E0F
:1022B0009BB21BB9E38F9BB2002B43D023689A6873
:1022C00090070DD5E28E92B252B14DB1216B31F82B
:1022D000022BDA60E28E2163013A92B2E286002597
:1022E0009A68D1070CD5E28F92B24AB1A26BDB6833
:1022F00022F8023BE38FA263013B9BB2E3870125F7
:10230000FEF77CFE089BA0EB08008342CFD895E740
:102310002B780373E38E226B013B9BB20132E38681
:102320002263F6E635F8023BC360E38E2563013B8A
:102330009BB2E38688E70020B0E62268936819061E
:10234000FCD435E71E4B1F4A1B686168A2FB0323C0
:102350005B0D4FF47A7202FB03F3B1F5827F0193B8
:102360007FF423AF089B06E0FEF748FE089BA0EB36
:102370000800834206D901332268DFD093681A0629
:10238000F2D415E7D4E900315A68B1F5827F22F022
:10239000E0025A6018D0A26AB2F5005F07D11A684D
:1023A00022F400521A601A6842F400521A600120A6
:1023B00084F85100636D20221343636562656DE606
:1023C00024000020819F5E16A268B2F5004F02D063
:1023D000B2F5806FDFD11A6822F040021A60DAE7A6
:1023E00000285CD0F8B590F83D30044603F0FF02B9
:1023F000BBB322683A4EA569E0686168022384F89D
:102400003D30B24213684CD0B2F1804F58D0A6F59F
:102410007C46B2422AD006F58066B24226D006F546
:102420008066B24222D006F57846B2421ED006F54A
:102430007056B24213D006F58066B2420FD006F550
:102440008066B2420BD0A6F59836B24207D006F5A8
:102450008066B24203D006F58066B24238D1266962
:1024600033E080F83C2004F09BFEC2E7A6681D4FD5
:1024700023F070033343266923F44073334323F07E
:1024800080032B43BA421360D062916201D1636929
:10249000136301235361002084F83D30F8BD01200F
:1024A0007047A768266923F070033B4323F4407309
:1024B000334323F080032B431360D0629162E6E73D
:1024C000A768266923F070033B4323F4407333432A
:1024D00023F080032B431360D0629162D9E700BFE1
:1024E00000000140000401400368DA6842F0010284
:1024F000DA609A6802F00702062A03D01A6842F0EE
:1025000001021A600020704700285CD0F8B590F8EE
:102510003D30044603F0FF02BBB322683A4EA56982
:10252000E0686168022384F83D30B24213684CD001
:10253000B2F1804F58D0A6F57C46B2422AD006F5BB
:102540008066B24226D006F58066B24222D006F5F9
:102550007846B2421ED006F57056B24213D006F548
:102560008066B2420FD006F58066B2420BD0A6F567
:102570009836B24207D006F58066B24203D006F51F
:102580008066B24238D1266933E080F83C2004F0FE
:10259000B7FDC2E7A6681D4F23F0700333432669D9
:1025A00023F44073334323F080032B43BA42136078
:1025B000D062916201D163691363012353610020EA
:1025C00084F83D30F8BD01207047A768266923F0E4
:1025D00070033B4323F44073334323F080032B43C6
:1025E0001360D0629162E6E7A768266923F0700362
:1025F0003B4323F44073334323F080032B431360A6
:10260000D0629162D9E700BF0000014000040140A0
:1026100003680122186A01F01F0102FA01F120EAA1
:10262000010010B418621A6A0C4C1143A3421962DB
:102630000FD00B4A93420CD09A6802F00702062A88
:1026400003D01A6842F001021A6000205DF8044BC2
:1026500070475A6C42F400425A64EDE700000140B2
:102660000004014090F83C30012B00F0CC80F0B425
:102670000223012480F83C4080F83D300C2A35D8F4
:10268000DFE802F0073434346A34343496343434B6
:102690003D000368D1F808C01D6A0F68744E25F02C
:1026A00001051D621A6A5D689C6922F0020224F02D
:1026B0007304B34242EA0C0244EA070400F0BB8010
:1026C00006F58066B34200F0B6804E685D609C619E
:1026D0005E631A629C690D6944F008049C61996903
:1026E00021F0040199619A692A439A610023012229
:1026F00080F83D2080F83C30F0BC184670470368F5
:10270000D1F808C01D6A0F68594E25F480551D6226
:102710001A6A5D68DC6922F4005224F4E644B3428C
:1027200042EA0C3244EA07246FD006F58066B342D1
:102730006BD04E685D60DC611E641A62DC690D69F5
:1027400044F40064DC61D96921F48061D961DA69FB
:1027500042EA0522DA61C9E703688F681D6A0E68DC
:10276000DFF80CC125F010051D621A6A5D689C69CE
:1027700022F0200224F4E644634542EA071244EAC8
:10278000062465D03B4FBB4262D04E685D609C61C1
:102790009E631A629C690D6944F400649C619969A6
:1027A00021F4806199619A6942EA05229A619DE764
:1027B00003688F681D6A0E68DFF8B4C025F4807561
:1027C0001D621A6A5D68DC6922F4007224F07304E9
:1027D000634542EA072244EA06041CD0254FBB4267
:1027E00019D04E685D60DC61DE631A62DC690D69D8
:1027F00044F00804DC61D96921F00401D961DA6987
:102800002A43DA6172E7022070474E6925F4804559
:1028100045EA86158DE7CE6822F4006242EA062278
:10282000D1E9056725F4405C46EA070522F4806299
:102830004CEA0515D5E7CE6822F008023243D1E90B
:10284000056725F440753E4322F0040235433CE71A
:10285000CE6822F0800242EA0612D1E9056725F42B
:10286000406C46EA070522F040024CEA85058CE7F9
:102870000000014000040140704700BF704700BFE6
:10288000704700BF704700BF03681A69910710B511
:10289000044602D5DA6892075FD41A69500702D558
:1028A000DA68510746D41A69120702D5DA681007A8
:1028B0002ED41A69D20602D5DA68D00618D41A695D
:1028C000D10702D5DA68D2075DD41A69100602D59D
:1028D000DA6811065FD41A69520602D5DA68500622
:1028E00061D41A69910602D5DA68920643D410BD04
:1028F0006FF010021A61DB69082213F4407F22771F
:10290000204664D0FFF7BAFF002223682277D6E77B
:102910006FF008021A61DB690422990722772046CA
:1029200052D1FFF7A9FF2046FFF7AAFF0022236834
:102930002277BEE76FF004021A619B69022213F44A
:10294000407F227720463CD1FFF796FF2046FFF7D5
:1029500097FF002223682277A5E76FF002021A6131
:102960009B6901229B07027725D0FFF787FF002292
:102970002368227791E76FF0200220461A61BDE8B4
:10298000104000F077B86FF001021A61204603F0A2
:1029900051FB236899E76FF080021A61204600F02E
:1029A0006BF8236897E76FF040021A612046FFF743
:1029B00069FF236895E7FFF75FFF2046FFF760FF99
:1029C000D5E7FFF75BFFC4E7FFF758FFAEE7FFF778
:1029D00053FF2046FFF754FF96E700BF90F83C20D6
:1029E000012A1AD070B40222046880F83D20D1E98F
:1029F000006503466068A26820F0700122F0800242
:102A000031432A430126002561602846A26083F8ED
:102A10003D6083F83C5070BC70470220704700BF97
:102A200090F83C30012B21D030B4D1E90253D1E9E8
:102A3000002423F440732B4323F48063234323F4C3
:102A40000063D1E90454134323F480532B4323F44C
:102A50000053C9690268234323F480430B430021D8
:102A6000536430BC80F83C10084670470223184677
:102A7000704700BF704700BF704700BF002800F0DC
:102A800004812DE9F84390F83930044603F0FF0241
:102A9000002B00F0F58023682669242284F8392071
:102AA000D86820F40050D4E90225D8601969E0699B
:102AB00021F4405129431961D9686569324321F4F1
:102AC00016412A4321F00C0102430A43DA605A6995
:102AD000A16922F440720A43B0F5004F5A61AA4A34
:102AE00071D0934200F0D38002F58062934200F0EF
:102AF000CE80FFF757FAA54F636800EB800000EB2C
:102B000080009B00B0FBF3F3A7FB03235B091D01CF
:102B1000FFF748FA666800EB800000EB8000B60023
:102B2000B0FBF6F6FFF73EFA636800EB800000EBBF
:102B300080009B00B0FBF3F3A7FB03235B094FF07E
:102B4000640909FB13631B013233A7FB03235B09F1
:102B500003F0F006FFF726FA626800EB800000EB56
:102B600080009300B0FBF3F8FFF71CFAD4E90021D2
:102B700000EB80008B0000EB8000B0FBF3F3A7FBC1
:102B800003135B0909FB13831B013233A7FB0313F8
:102B9000C3F3431333432B449360136923F49043EB
:102BA0001361536923F02A035361D3680025202160
:102BB00043F40053D3602846E56384F8391084F861
:102BC0003A10BDE8F883934200F09F8002F58062DE
:102BD000934200F09A80FFF7E5F96C4F636800EBD1
:102BE000800000EB80005B00B0FBF3F3A7FB032346
:102BF0005B091E01FFF7D6F9656800EB800000EB6A
:102C000080006D00B0FBF5F5FFF7CCF9636800EBD1
:102C1000800000EB80005B00B0FBF3F3A7FB032315
:102C20005B094FF0640909FB1353DB003233A7FB48
:102C300003231B0903F4F875FFF7B4F9626800EB8E
:102C4000800000EB80005300B0FBF3F8FFF7AAF917
:102C5000D4E9002100EB80004B0000EB8000B0FBCA
:102C6000F3F3A7FB03135B0909FB1383DB00323388
:102C7000A7FB0313C3F3421333442B4493608CE745
:102C800080F8382004F01EFB05E701207047FFF7AD
:102C900099F93E4F636800EB800000EB80009B00D9
:102CA000B0FBF3F3A7FB03235B091D01FFF78AF9D0
:102CB000666800EB800000EB8000B600B0FBF6F623
:102CC000FFF780F9636800EB800000EB80009B0059
:102CD000B0FBF3F3A7FB03234FF064095B0909FB87
:102CE00013631B013233A7FB03235B0903F0F006D8
:102CF000FFF768F9626800EB8000930000EB80004A
:102D0000B0FBF3F8FFF75EF930E7FFF75BF91F4F11
:102D1000636800EB800000EB80005B00B0FBF3F326
:102D2000A7FB03235B091E01FFF74CF9656800EB65
:102D3000800000EB80006D00B0FBF5F5FFF742F975
:102D4000636800EB800000EB80005B00B0FBF3F3F6
:102D5000A7FB03234FF064095B0909FB1353DB0056
:102D60003233A7FB03231B0903F4F875FFF72AF995
:102D7000626800EB8000530000EB8000B0FBF3F8CA
:102D8000FFF720F964E700BF001001401F85EB51F9
:102D9000F0B50E4690F83910202983B02DD1002EC1
:102DA0002ED0019262B31F4690F83830012B0446B2
:102DB00023D00023C3630121212380F8381080F839
:102DC0003930FEF71BF9019AA284E2842268054695
:102DD000E38C9BB2002B39D0E08CA168013880B223
:102DE000B1F5805FE08419D0781C3BD110680106F2
:102DF000FCD5337853600136EAE7022003B0F0BD1A
:102E0000012003B0F0BD13681B060CD4002F33D093
:102E1000FEF7F4F8401B874222682DD3781CF2D1CC
:102E200010680106FCD533882169C3F30803536099
:102E30000029E0D10236CBE713685B060BD4DFB183
:102E4000FEF7DCF8401B8742226815D3781CF3D1CB
:102E500013685906FCD52023002084F8393084F803
:102E60003800CBE713681B06C3D42FB1FEF7C6F8B2
:102E7000401B87422268B7D2D36823F4D073D36053
:102E80005369202123F0010300250320536184F8B6
:102E9000391084F8385084F83A1003B0F0BD00BF00
:102EA00090F83A30202B20D109B302B390F8383093
:102EB000012B1AD030B400230468C2852225C363D5
:102EC00080F83A50E568828545F48075816280F823
:102ED0003830E560626942F001026261E26842F006
:102EE00020021846E26030BC704702207047012083
:102EF000704700BF704700BF10B584680169836ADE
:102F00000268B4F5805F20D05C1C52688462C9B945
:102F10001A70C38D013B9BB2C3858BB90268D1681F
:102F200021F02001D160D16821F48071D160516914
:102F3000202421F00101516180F83A4001F0A6FE01
:102F4000002010BD02F07F02E2E7526829B9C2F307
:102F5000080223F8022B8362DBE7D2B223F8012BAD
:102F60008362D6E7704700BF03681A6870B516071A
:102F7000DD685969044649D011F001014FD0D607E8
:102F800005D5E80503D5E06B40F00100E063560786
:102F900002F0020075D561B1E16B41F00201E1631D
:102FA00002F00806002871D11EB1E16B41F0080162
:102FB000E163E16B002931D0960601D5A80673D4F0
:102FC0005D69E16B090702D415F0400579D0DA6834
:102FD00022F49072DA605A69202122F001025A61CB
:102FE00084F83A105A6952065AD55A69606B22F031
:102FF00040025A61002853D03A4B0365FEF7E6FBC6
:1030000060B1606BBDE87040036D1847960609D546
:10301000A90607D590F83A30222B4ED070BD15F492
:10302000907FACD116060ED45106F7D56A06F5D5B9
:10303000DA68202122F04002DA60204684F8391054
:10304000FFF758FF70BD2806EED594F83920212AE5
:10305000E4D1A168226AB1F5805F37D0511C2162AA
:1030600012785A60E28C013A92B2E284002AD5D1F9
:10307000DA6822F08002DA60DA6842F04002DA6050
:1030800070BD40B1002994D002F00806E16B41F018
:103090000401E16388E710078BD5002985D188E713
:1030A0002046FFF75FFF70BD94F83A20222A87D1AF
:1030B0002046FFF721FF236882E7BDE87040FFF755
:1030C0001BBF2046FFF74EFFE56370BD11882069E6
:1030D000C1F30801596010B902322262C2E701321D
:1030E0002262BFE7E930000808B5836B0022DA8569
:1030F0001846DA84FFF736FF08BD00BF2DE9F04718
:103100004A4E4B4C4B4D4C4F82B04FF037088146E6
:10311000002230464021FEF7AFFC4FF0320C214632
:103120002A463846CDF80080012384F800C0FEF717
:1031300099FF01232A462146CDF80080384684F8BD
:103140000090FEF78FFF304601224021FEF794FCED
:103150000A20FDF759FF304600224021FEF78CFC83
:103160004FF034092A462146CDF800803846012325
:1031700084F80090FEF776FF4FF0800C01232A467A
:103180002146CDF80080384684F800C0FEF76AFF7B
:10319000304601224021FEF76FFC0A20FDF734FF84
:1031A000304600224021FEF767FC4FF0B50C2A465E
:1031B0002146CDF800803846012384F800C0FEF790
:1031C00051FF01232A462146CDF800803846FEF7FC
:1031D00049FF304601224021FEF74EFC30460022D6
:1031E000402195F800A0FEF747FC2A462146CDF87D
:1031F00000803846012384F80090FEF733FF012356
:103200002A462146CDF80080384600252570FEF775
:1032100029FF304601224021FEF72EFC0A20FDF74F
:10322000F3FE504602B0BDE8F08700BF0014024034
:103230004D0200204C020020840600202DE9F04FB2
:103240004A4C4B4F4B4E83B04FF0370883460D46E8
:10325000494800224021FEF70FFC4FF02A0A214680
:103260003A463046CDF8008001234FF0000984F83B
:1032700000A0FEF7F7FE01233A462146CDF8008074
:10328000304684F80090FEF7EDFE012240213A48D6
:10329000FEF7F2FB0220FDF7B7FE4A463648402112
:1032A000FEF7EAFB4FF0290C3A462146CDF80080A4
:1032B0003046012384F800C0FEF7D4FE01233A46CD
:1032C0002146CDF80080304684F800B0FEF7CAFEF3
:1032D000012240212848FEF7CFFB0220FDF794FE93
:1032E0004A4625484021FEF7C7FB4FF0640C3A469A
:1032F0002146CDF800803046012384F800C0FEF757
:10330000B1FE01233A462146CDF8008030462570B3
:10331000FEF7A8FE012240211748FEF7ADFB022070
:10332000FDF772FE4A4614484021FEF7A5FB3A46D7
:103330002146CDF800803046012384F800A0FEF736
:1033400091FE3A4621460123CDF800803046812681
:103350002670FEF787FE084801224021FEF78CFB0D
:103360000A2003B0BDE8F04FFDF74EBE4D0200202D
:103370004C02002084060020001402402DE9F04F8A
:10338000C94CCA4DCA4883B0372600224021FEF7F7
:1033900073FB6A2721462A4601230096C5482770F9
:1033A000FEF760FE302701232A4621460096C148D9
:1033B0002770FEF757FE01224021BD48FEF75CFB57
:1033C0000A20FDF721FE00224021B948FEF754FBF8
:1033D0004FF024072A46214601230096B54827705E
:1033E000FEF740FE0D2701232A4621460096B148EC
:1033F0002770FEF737FE01224021AD48FEF73CFB67
:103400000A20FDF701FE00224021A948FEF734FB07
:103410004FF028072A46214601230096A548277029
:10342000FEF720FE4FF00E0701232A4621460096A4
:10343000A0482770FEF716FE012240219C48FEF7A7
:103440001BFB0A20FDF7E0FD002240219848FEF713
:1034500013FB31272A462146012300969548277001
:10346000FEF700FE6FF0710701232A462146009601
:1034700090482770FEF7F6FD012240218C48FEF7A8
:10348000FBFA0A20FDF7C0FD002240218848FEF724
:10349000F3FA4FF02A0A2A4621460123009685486E
:1034A00084F800A04FF00008FEF7DCFD01232A4657
:1034B000214600967F4884F80080FEF7D3FD012264
:1034C00040217B48FEF7D8FA0220FDF79DFD4246D9
:1034D00040217748FEF7D0FA4FF029072A462146C7
:1034E0000123009673482770FEF7BCFD4FF00B07D1
:1034F00001232A46214600966E482770FEF7B2FD4A
:10350000012240216A48FEF7B7FA0220FDF77CFD50
:10351000424640216648FEF7AFFA4FF064072A465C
:1035200021460123009663482770FEF79BFD4FF06C
:10353000010701232A46214600965E482770FEF7C0
:1035400091FD012240215A48FEF796FA0220FDF72C
:103550005BFD424640215648FEF78EFA01232A467B
:1035600021460096534884F800A06FF07E07FEF7CE
:1035700079FD01232A46214600964E482770FEF722
:1035800071FD012240214A48FEF776FA0A20FDF734
:103590003BFD0A20FDF738FD424640214448FEF736
:1035A0006BFA4FF0320701232A4621460096414824
:1035B0002770FEF757FD01232A46214600963D4815
:1035C00084F80080FEF74EFD012240213848FEF7C6
:1035D00053FA0A20FDF718FD424640213448FEF711
:1035E0004BFA4FF0340901232A4621460096314810
:1035F00084F800906FF07F07FEF734FD01232A4620
:10360000214600962B482770FEF72CFD0122402111
:103610002748FEF731FA0A20FDF7F6FC4246402122
:103620002348FEF729FA6FF04A0701232A4621466C
:10363000009620482770FEF715FD01232A462146F3
:1036400000961C48FEF70EFD012240211848FEF7A7
:1036500013FA42464021164895F800B0FEF70CFADE
:1036600001232A4621460096124884F80090FEF76E
:10367000F9FC01232A46214600960E4884F8008072
:10368000FEF7F0FC012240210948FEF7F5F90A2077
:10369000FDF7BAFCBBF1100F0ED04FF00108404609
:1036A00003B0BDE8F08F00BF4D0200204C020020A7
:1036B000001402408406002042464021D448FEF710
:1036C000DBF901232A4621460096D24884F800A05F
:1036D000FEF7C8FC01232A4621460096CD4884F80F
:1036E0000080FEF7BFFC01224021C948FEF7C4F963
:1036F0000220FDF789FC42464021C548FEF7BCF98F
:103700004FF0290701232A4621460096C148277019
:10371000FEF7A8FC4FF00B0C01232A462146009629
:10372000BC4884F800C0FEF79DFC01224021B84847
:10373000FEF7A2F90220FDF767FC42464021B4489B
:10374000FEF79AF94FF0640C01232A4621460096B1
:10375000B04884F800C0FEF785FC4FF0010C01234F
:103760002A4621460096AB4884F800C0FEF77AFC52
:1037700001224021A648FEF77FF90220FDF744FC14
:1037800042464021A248FEF777F901232A46214606
:103790000096A04884F800A06FF07E0BFEF762FC54
:1037A00001232A46214600969A4884F800B0FEF785
:1037B00059FC012240219648FEF75EF90A20FDF7E8
:1037C00023FC0A20FDF720FC424640219048FEF7EA
:1037D00053F901232A46214600968E4884F800A01A
:1037E000FEF740FC01232A4621460096894884F8CA
:1037F0000080FEF737FC012240218548FEF73CF9A6
:103800000220FDF701FC424640218148FEF734F9D1
:1038100001232A46214600967E4827704FF00A0B66
:10382000FEF720FC01232A4621460096794884F8B9
:1038300000B0FEF717FC012240217548FEF71CF985
:103840000220FDF7E1FB424640217148FEF714F9E2
:103850004FF0640E01232A46214600966D4884F8F5
:1038600000E0FEF7FFFB01232A4621460096694847
:1038700084F80080FEF7F6FB012240216448FEF741
:10388000FBF80220FDF7C0FB424640216048FEF7EE
:10389000F3F801232A46214600965E4884F800A0EA
:1038A000FEF7E0FB6FF07E0C01232A4621460096CE
:1038B000584884F800C0FEF7D5FB01224021544847
:1038C000FEF7DAF85846FDF79FFB42464021504884
:1038D000FEF7D2F84FF0320701232A462146009620
:1038E0004C482770FEF7BEFB01232A46214600966E
:1038F000484884F800B0FEF7B5FB01224021444857
:10390000FEF7BAF85846FDF77FFB42464021404893
:10391000FEF7B2F801232A46214600963D4884F876
:1039200000906FF07F07FEF79DFB01232A4621469A
:10393000009638482770FEF795FB01224021344855
:10394000FEF79AF85846FDF75FFB424640213048A3
:10395000FEF792F86FF04A0701232A4621460096A7
:103960002C482770FEF77EFB01232A46214600964D
:103970002848FEF777FB012240212548FEF77CF816
:103980002B782348424640211F46FEF775F8012355
:103990002A46214600961F4884F80090FEF762FBF5
:1039A00001232A46214600961A4884F80080FEF733
:1039B00059FB174801224021FEF75EF85846FDF7F3
:1039C00023FB002F40F09E805846FDF71DFB3A4632
:1039D00040210F48FEF750F801232A462146009661
:1039E0000C4884F800A0FEF73DFB01232A4621463F
:1039F000009608482770FEF735FB01224021044855
:103A0000FEF73AF80220FDF7FFFA3A46402103E0BC
:103A100000140240840600204648FEF72DF84FF0BF
:103A2000290C01232A4621460096434884F800C009
:103A30004FF00B08FEF716FB01232A46214600969D
:103A40003D4884F80080FEF70DFB012240213948F3
:103A5000FEF712F80220FDF7D7FA3A464021354822
:103A6000FEF70AF84FF0640E01232A46214600961D
:103A7000314884F800E0FEF7F5FA01232A46214692
:103A800000962D482770FEF7EDFA012240212948C3
:103A9000FDF7F2FF0220FDF7B7FA3A46402125482C
:103AA000FDF7EAFF01232A4621460096224884F8C2
:103AB00000A0FEF7D7FA6FF07E0C01232A462146BC
:103AC00000961D4884F800C0FEF7CCFA0122402180
:103AD0001848FDF7D1FF5846FDF796FA0B20FFF77F
:103AE0000DFB8046A0B95846FDF78EFA24214120EF
:103AF000FFF7A4FB4120FFF701FB24280BD04FF078
:103B00000408CCE54FF00208404603B0BDE8F08F52
:103B10004FF00308C3E55846FDF776FAC02142206E
:103B2000FFF78CFB4220FFF7E9FAC02806D04FF0E0
:103B30000508B4E500140240840600205846FDF74D
:103B400063FA42464021B348FDF796FF2A462146D4
:103B500000960123B04884F800A0FEF783FA012301
:103B60002A4621460096AC4884F80080FEF77AFA8F
:103B700001224021A748FDF77FFF5846FDF744FA90
:103B800042464021A348FDF777FF2A46214600968A
:103B90000123A14884F80090FEF764FA01232A4625
:103BA000214600969C4884F80080FEF75BFA0122CB
:103BB00040219848FDF760FF5846FDF725FA424638
:103BC00040219448FDF758FF4FF028072A46214628
:103BD0000096012390482770FEF744FA4FF00E0735
:103BE00001232A46214600968B482770FEF73AFAB1
:103BF000012240218748FDF73FFF0220FDF704FA2C
:103C0000424640218348FDF737FF4FF029072A46F7
:103C100021460096012380482770FEF723FA0123EE
:103C20002A46214600967C4884F800B0FEF71AFA2E
:103C3000012240217748FDF71FFF0220FDF7E4F93C
:103C4000424640217348FDF717FF4FF064072A46AC
:103C500021460096012370482770FEF703FA4FF0C3
:103C6000010701232A46214600966B482770FEF77C
:103C7000F9F9012240216748FDF7FEFE0220FDF719
:103C8000C3F9424640216348FDF7F6FE4FF0250C8C
:103C90002A462146009601235F4884F800C06FF051
:103CA0007107FEF7DFF901232A46214600965A489C
:103CB0002770FEF7D7F9012240215648FDF7DCFEB8
:103CC0000220FDF7A1F9424640215248FDF7D4FEFB
:103CD0004FF0260C2A462146009601234E4884F8D0
:103CE00000C04FF0030BFEF7BDF901232A46214621
:103CF0000096494884F800B0FEF7B4F9012240214B
:103D00004448FDF7B9FE0220FDF77EF94246402106
:103D10004048FDF7B1FE2A462146009601233E4861
:103D200084F80090FEF79EF901232A46214600966A
:103D3000394884F800B0FEF795F901224021354852
:103D4000FDF79AFE0220FDF75FF942464021314817
:103D5000FDF792FE4FF0670C2A462146009601239C
:103D60002D4884F800C0FEF77DF901232A4621463C
:103D70000096294884F800B0FEF774F9012240212A
:103D80002448FDF779FE0220FDF73EF94246402126
:103D90002048FDF771FE2A462146009601231E4861
:103DA00084F800A06FF07E07FEF75CF901232A4635
:103DB0002146009618482770FEF754F90122402149
:103DC0001448FDF759FE0620FDF71EF94246402132
:103DD0001048FDF751FE2A4621460096272501236B
:103DE0000D482570FEF73EF98625012321460096F1
:103DF0000A4A09482570FEF735F901224021054895
:103E0000FDF73AFE0220FDF7FFF86420FDF7FCF80D
:103E100045E400BF00140240840600204C0200204C
:103E20002DE9F04F5B4EDFF88CA15B4FDFF8888106
:103E3000DFF888B1594D5A4C83B0304600224021FA
:103E4000FDF71AFE4FF03709BB2351465A468AF850
:103E5000003088F800303846CDF800900123FEF796
:103E600001F941462A460E23CDF800903846FEF768
:103E7000F9F8304601224021FDF7FEFD287A697AE3
:103E800095F80CC06B7B95F80AE0EA7A41EA0021CC
:103E9000608B43EA0C23091A95F800C06878E18129
:103EA00040EA0C20E97895F802C0208041EA0C2114
:103EB000687995F804C0618040EA0C20E97995F8AA
:103EC00006C0A58BA08042EA0E22E08B41EA0C21BD
:103ED000551B1B1AA181304625820022314D638279
:103EE0004021FDF7C9FD4FF0C90C5A465146CDF8A7
:103EF0000090384601238AF800C088F800C0FEF719
:103F0000B1F841462A460623CDF800903846FEF720
:103F1000A9F8304601224021FDF7AEFDB4F90C307E
:103F20002A68C4F8062005EE103AB4F90E3061682C
:103F30002068DFED1D4ADFED1D5A07EE103AB4F997
:103F4000103006EE903AB4F9123007EE903AAB8892
:103F50006381174BA268B8EEC55A1C46B3EE056ADA
:103F600007C4A5EE246AB8EEC77AF8EEE66AF8EE62
:103F7000E77A27EE257A66EEA56A67EEA57AC3EDA5
:103F8000056A83ED036A83ED047AC3ED067A03B014
:103F9000BDE8F08F00140240840600200C030020CE
:103FA000EC020020DC020020BF4A443BB59D8B3A66
:103FB000180200204D020020080000204C020020C2
:103FC0002DE9F04F85B04FF4FA764B4D4B4CDFF8AE
:103FD00044814B4F0396002240214046FDF74CFDA3
:103FE000484E4949494A4FF0BB0C4FF03709CDF8CC
:103FF0000090012381F800C086F800C03846FEF723
:1040000031F80E23CDF800903B4A31463846FEF792
:1040100029F8012240214046FDF72EFD95F802A027
:104020002B7A95F803C0697A95F8009095F801E02D
:104030002A79687995F80AB04CEA0A2C41EA0321FA
:1040400095F80CA06B7B4EEA092E43EA0A23B4F8DC
:104050001490B4F816A0CE44D444B4F81890B4F830
:104060001AA0A4F814E040EA0220EA7AB4F81CE0AE
:10407000A4F816C0B4F81EC0484442EA0B226344B8
:104080002083514472440520E3836183A283FCF7BB
:10409000BBFF039B013B03939DD1B4F91470B4F9AA
:1040A0001650B4F91800B4F91A10B4F91E201E46BF
:1040B000174BA68383FB076CFE17C6EB6C16A68214
:1040C00083FB0576ED17C5EB6615E58283FB00657E
:1040D000C017C0EB651083FB016583FB0263C91742
:1040E000D217C1EB6511C2EB631320836183E383B5
:1040F00005B0BDE8F08F00BF0C030020EC020020EB
:1041000084060020080000204D0200204C02002000
:10411000D34D6210001402402DE9F04FDFF868A182
:10412000524E534F8BB06420FCF76EFF00224021AB
:104130005046FDF7A1FC3724F52031463A4600945D
:10414000012330704B48FDF78DFF4A48009401234E
:104150003A4631468146FDF785FF0122402150460F
:10416000FDF78AFC444B3978197000230693434AC3
:1041700009936C234248059242498DF818306A220F
:104180002023B046CDF81A00CDF81E108DF822205D
:104190008DF8233005AC237894F801B00393002206
:1041A00040215046FDF768FC039B372503F07F0C48
:1041B0003A46012341460095484686F800C0FDF77F
:1041C00051FF01233A4641460095484686F800B023
:1041D000FDF748FF012240215046FDF74DFC01202C
:1041E000FCF712FF02340AABA342D4D100224021D3
:1041F0002548FDF741FC1B24009501231C4A1B495F
:104200001C483470FDF72EFF182401230095184A2E
:10421000164918483470FDF725FF012240211A483D
:10422000FDF72AFC002240211748FDF725FC1C243D
:10423000009501230E4A0D490E483470FDF712FF18
:104240001024012300950A4A08490A483470FDF7F2
:1042500009FF012240210C48FDF70EFCFFF78EF804
:10426000FFF7AEFE00200BB0BDE8F08F4D0200203E
:104270004C02002084060020E20200206B806B03C9
:104280001A041B181C101D020014024038B50D4BF7
:104290000D4A1A6007225A6000224FF480354FF40D
:1042A0000014012118469A61C3E904545977C3E9FF
:1042B00002221A77FCF7BAFE00B938BDBDE83840D3
:1042C00001F0B2BF4C0300200064004038B50D4B34
:1042D0000D4A1A6007225A6000224FF480354FF4CD
:1042E0000014012118469A61C3E904545977C3E9BF
:1042F00002221A77FCF79AFE00B938BDBDE83840B3
:1043000001F092BF240300200068004070B50268ED
:1043100048498AB000238A42CDE90533CDE9073305
:10432000099340D044498A4201D00AB070BD434A43
:104330000293116C424C41F080611164106C216851
:1043400000F080600131029001290298216065D05F
:1043500000243A4B04941A6B3A4842F002021A6362
:104360001B6B03F0020304934FF4405305A903228F
:10437000059302250923CDE90823049E0695FDF740
:1043800037FA224621464020FDF7C2F94020FDF7CA
:10439000F5F9224621464120FDF7BAF94120FDF703
:1043A000EDF90AB070BD26490A680132012A0A6097
:1043B00028D00024214B01941A6B234842F00802B4
:1043C0001A631B6B03F00803019305A90323092259
:1043D0000225059308930992019E0695FDF708FAB8
:1043E000224621461420FDF793F91420FDF7C6F963
:1043F000224621461520FDF78BF91520FDF7BEF961
:104400000AB070BD0D4A0093136C43F0007313643F
:10441000136C03F000730093009BCAE70393136CC3
:1044200043F000731364136C03F000730393039B56
:104430008EE700BF00640040006800400038024082
:104440005002002000040240000C024010B58AB067
:104450000024012369460A480494CDE90733CDE9D5
:104460000544CDE90044CDE902440994FCF760FE1F
:104470006946044809940594FCF75AFE0AB010BD39
:104480004C030020240300202DE9F04F00248FB0BE
:10449000CDE90944CDE90B44614B01940D941A6BAD
:1044A000DFF88CB1DFF88CA1DFF88C91DFF88C811C
:1044B0005C4F5D4E42F010021A631A6B02F010025C
:1044C0000192019A02941A6B42F040021A631A6B2D
:1044D00002F040020292029A03941A6B42F0010227
:1044E0001A631A6B02F001020392039A04941A6B86
:1044F00042F002021A631A6B02F002020492049A5A
:1045000005941A6B42F008021A631A6B02F0080253
:104510000592059A06941A6B42F480721A631A6B1C
:1045200002F480720692069A07941A6B42F0800297
:104530001A631A6B02F080020792079A08941A6BAA
:1045400042F020021A631B6B03F0200308932246FB
:1045500058460121089BFDF78FFA224650463C2120
:10456000FDF78AFA224648464FF4FF71FDF784FAB8
:104570002246404644F24001FDF77EFA2246384684
:104580004FF48051FDF778FA224630464FF400612F
:10459000FDF772FA0125584609A9CDE90B44CDE98A
:1045A0000955FDF725F9504609A93C230993CDE9A2
:1045B0000A540C94FDF71CF9484609A94FF4FF73FF
:1045C0000993CDE90A540C94FDF712F9404609A964
:1045D00044F240030993CDE90A540C94FDF708F91D
:1045E00009A9042311480993CDE90A44FDF700F90C
:1045F000384609A94FF480530993CDE90A540C9425
:10460000FDF7F6F84FF4006309A93046CDE90A54E6
:104610000C940993FDF7ECF80FB0BDE8F08F00BFE4
:1046200000380240000C024000100240000402402A
:1046300000200240001C024000180240001402400A
:104640002DE9F047DFF804C4DFF804E4C368D0F8CC
:104650001090DFF80084F14EF14F0268456944681C
:10466000D0F818A02DED108BCCF80030CEF80090CB
:10467000DFF8E4938368C8F800503260056A3C6054
:10468000E84AC9F80030C469E74BE848C2F800A01E
:104690001C60E74A0560E74BE74CE84D92ED00AA45
:1046A000DCED009A93ED005ADEED00AAD4ED001A7D
:1046B00098ED002A95ED000ADCED000AD3ED005AD2
:1046C000D8ED006AD4ED002A9EED003A95ED001A6F
:1046D000DEED004AD2ED003A98ED004A94ED006A12
:1046E000DCED007A95ED007A25EE2A5A65EEA65AA1
:1046F00026EE276AD8ED007AD2ED006ADEED00AA38
:1047000066EEAA6AA1EE246A84B08846E7EE276ABC
:10471000AAEE295AE0EE205AD3ED004ADCED007AE9
:1047200096ED007AE4EEE76AA1EE825AE2EEC35A11
:10473000A3EEC46AB5EE407AF6EE007AF1EE10FA16
:1047400025EE675A65EEA75A26EE276A66EEA76A37
:1047500007D1D7ED007AF5EE407AF1EE10FA00F0CD
:10476000138296ED003AD6ED003AD7ED007AD7EDF8
:10477000002A99ED004A99ED007AB149D6ED004A38
:10478000B04867EEA27AF6EE002AE3EE237AF7EE5F
:10479000080AE4EE077AB0EE604A17EE90CAA1EB81
:1047A0006C0C27EEA27A07EE90CA27EEC77AF1EEDC
:1047B000003AA7EE274AF2EE00CA64EE277A24EE0A
:1047C000A77A86ED007A97ED007A27EE277A87EDB3
:1047D000007A99ED007A67EE277AC9ED007AD5ED77
:1047E000001A92ED001A93ED002A94ED004A95ED1F
:1047F00000BA92ED000AD3ED009AD2ED007AD3ED23
:1048000000AACDED007A95ED008A95ED007A92ED43
:10481000009AD2ED007A93ED00AAD3ED008A94EDD0
:1048200000FA94ED003A96ED00EAD7ED004A96EDD5
:1048300000DAD2ED00BAD7ED00EA71EEA11A6AEE05
:10484000288A28EE078A99ED00AA93ED007A8DED6B
:1048500003AA29EE279AD6ED007AD7ED00DA99ED72
:1048600000AA94ED00CAD6ED00FA27EE237A67EE8F
:10487000A17A2CEE23CAE8EE077A94ED007A27EEAF
:10488000237A31EE011A27EE287A20EE230AA9EEC8
:104890000C7A69EEA39A2BEE23BA6BEEA33A61EE83
:1048A000644AAFEEC17AB0EE401A98EE231A6AEE6F
:1048B000ACAAF0EE413AEEEEE13A39EE281A77EE84
:1048C000E97A32EE022A2FEE03FAEBEE014AB0EE5D
:1048D000633AEAEE817AD7ED003AD0ED001A34EE71
:1048E000044AA3EEC27AEEEE024AEDEEC47A67EE17
:1048F000073A24EE4DDA9DED002A9DED034A3AEE8B
:104900000FAA34EE0F4A62EE2CCAE9EE8A7AE4EE80
:10491000A43AA0EE043AACEE81DAE7EEA73A33EE21
:104920000DDA90ED002A90ED003A90ED004AEDEEA0
:104930000D3A61EEA44A13EE900AA1EB600163EE1A
:10494000A22A03EE901A62EEA32A22EE0DDAE3EE1B
:10495000E20A63EE277A63EEE00A24EE077AA0EE1D
:10496000A45AE0EE8D5AA0EEA76AE0EE876A3449B9
:1049700095ED007ADFED347AA5EE277AB6EE005A8F
:1049800085ED007A92ED007AA5EEA77AF0EE475A0F
:10499000C2ED005AD3ED005AE6EE275A38EE496AC6
:1049A000C3ED005AD4ED005AE6EEA75A76EE686AD7
:1049B000C4ED005AD5ED002A95ED003AD2ED007A0B
:1049C00092ED002AD3ED003A93ED004AD4ED004A6F
:1049D00094ED006AD5ED005A67EE827A76EE8F6A22
:1049E000E2EE837A16EE900AE3EE847AB7EE087A66
:1049F000E4EE867A38EE098A17EE906AA1EB66013A
:104A000006EE901A27EE856A78EE688A66EEC67A18
:104A1000A7EEA67A67EE267A20E000BF54020020B7
:104A2000580200206C020020700200207402002056
:104A3000780200207C020020800200201C00002060
:104A4000DF59375F180000206F12833A60020020A0
:104A500064020020680200205C02002025EEA77A94
:104A600085ED007A92ED007A27EE277A82ED007AC2
:104A700093ED007A27EE277A83ED007A94ED007AA1
:104A800067EE277AC4ED007AD5ED00EA92ED00EAF0
:104A900095ED00DAD3ED00CAD5ED00BA94ED00BA79
:104AA000D2ED009A93ED00CA92ED00AAD4ED00DA9F
:104AB000D3ED00AAD4ED00FAFBF756FD6AEEAF7A0B
:104AC000CDE90001EEEE8E7A2AEE2DAA17EE900ABD
:104AD000FBF74AFD02460B46FBF7E8FB9DED001B8A
:104AE00041EC100B05F03CFA2DA3D3E9002351EC67
:104AF000100BFBF791FDFCF767F8ADEE6CAA80F0A8
:104B00000040C8F800001AEE100AFBF72DFD02461F
:104B10000B46FBF7CBFB41EC100B05F0C9F920A3CA
:104B2000D3E9002351EC100BFBF776FDFCF74CF8B2
:104B300069EE8C9A78EECF7AC8F80400EBEE8B9A87
:104B400017EE900AFBF710FDCDE9000119EE900A6F
:104B5000FBF70AFD02460B46FBF7A8FB9DED001B89
:104B600041EC100B05F0FCF90DA3D3E9002351EC47
:104B7000100BFBF751FDFCF727F8C8F8080004B04C
:104B8000BDEC108BBDE8F087D9ED007AF5EE407AE8
:104B9000F1EE10FA7FF4E5ADE9E600BFAFF3008077
:104BA000F8C1631ADCA54C40BFF34F8F0549064B93
:104BB000CA6802F4E0621343CB60BFF34F8F00BFBB
:104BC000FDE700BF00ED00E00400FA0500B583B08A
:104BD00002A9012301F8010D1A460348FEF7D8F88F
:104BE00003B05DF804FB00BF1C08002070B5002373
:104BF00094B0CDE90A33CDE90C33CDE90433CDE9E6
:104C00000633204901930393086C1F4A40F08050FB
:104C10000864096C01F080510191019902931368B5
:104C200043F440431360136803F4404302930122AA
:104C30004FF480334FF48000022406210892099338
:104C4000A82204230F9008A8029D0E941294CDE987
:104C500010121393FCF71CFF00B1FEE703460F266A
:104C60004FF4A0554FF4805203A8052104940593F6
:104C70000396CDE90652FDF7FBF800B1FEE714B04C
:104C800070BD00BF0038024000700040684B0168F2
:104C90001A68914200D070472DE9F047654C1846DC
:104CA00021461222FEF7FCF802216348FCF7E8FED9
:104CB0006779627C217CA078267994F801A0E3785A
:104CC00094F8009094F806C094F80E8041EA02210E
:104CD000FA01850902F4F06245EA83054FEA0A2EDB
:104CE000B30242EA5602E67940010EF4E06E03F4A4
:104CF000806349EA0E0E4CEA062C94F80990267A55
:104D000000F4FC601D4340EADA004C4B94F80BA021
:104D100046EA0926A0F5806094F80A905880AEF51E
:104D2000806EC7F30110C1F5806109B249EA0A2912
:104D3000A3F800E0987294F80CE0A3F810900FFA32
:104D400088F0A5F58065A2F58062002908F00108C9
:104D5000647BA3F814E0C0F34009C0F3800E2DB2C9
:104D600012B20FFA8CFC36B24FEA9717198183F80A
:104D70001880D882C0F3C008B8BF49429D80DA804D
:104D8000DF7283F81A90A3F80CC05C82DE8183F88E
:104D900019E0C0F3001E83F81B8083F81EE0C0F307
:104DA0004018C0F3801EB1F5257F4FEAE01083F86C
:104DB0001F8083F81CE0587738DC002DB8BF6D42A7
:104DC000B5F5257F32DC002AB8BF5242B2F5257F07
:104DD0002CDC1B4A0023022F136003D0012C06D0C9
:104DE000BDE8F0871749184A0B601360F8E71649C9
:104DF000144A08681368064440F2DC50A3EB0C0325
:104E00008642136007DD0860B3F5AF6F09DD4FF42C
:104E1000AF631360E4E70D488642B8BF06460E60F4
:104E2000F2E70B498B42B8BF1160D9E7FFF7BCFE30
:104E30005C080020D8050020001802407403002000
:104E4000F4030020F00300208404002024FAFFFF74
:104E500088FAFFFF00000000394AF8B512680368BD
:104E60009342044635D0374A12689A4200D0F8BDC2
:104E7000354E364D32462B4620460021FCF764FA6B
:104E800033686FF401721344022B1FD830486A78DC
:104E9000297850F8234002EB01232380AB78E8788F
:104EA00000EB032000B260802A796B7903EB0223C8
:104EB000A380AB79E380FBF745FB1FA3D3E9002375
:104EC000FBF7AAFBFBF780FEA060F8BD00231B8068
:104ED000FFDE1E4D1C4E2B4632460021FCF734FAF5
:104EE0003368AA78E8781B4E95F804C095F800E07E
:104EF00069786FF400773B4403EB43039B0000EBBE
:104F000002206A79AF79F51802EB0C2201EB0E2131
:104F100000B2F152AA80EF806880FBF713FB06A372
:104F2000D3E90023FBF778FBFBF74EFE2368A8606C
:104F300099E700BFAFF300803BC890BF4B93763F2B
:104F4000240300204C030020940500203805002095
:104F500020BE0008BC0300202DE9F04F9C4CB4F9A2
:104F6000040007EE900A2DED028BF8EEE77A87B089
:104F700017EE900AFBF7F8FA964B0022FBF74CFB72
:104F80000246B4F9100007EE900AF8EEE77A1646EA
:104F900017EE900A21F00047FBF7E6FA00228D4B4E
:104FA000FBF73AFB024621F0004330463946FBF757
:104FB0007DF90646B4F91C0007EE900AF8EEE77A90
:104FC0000F4617EE900AFBF7CFFA0022814BFBF752
:104FD00023FB024621F0004330463946FBF766F9D1
:104FE0000646B4F9280007EE900AF8EEE77A0F4675
:104FF00017EE900AFBF7B8FA0022764BFBF70CFB92
:10500000024621F0004330463946FBF74FF9FBF7E3
:10501000DBFD714BDA7AB3F90670B3F90480012A2B
:10502000054600F0E98093F91820012A00F0E48099
:10503000B3F90860694A6A496A4C002386EAE67057
:1050400013800B80A0EBE670FBF77CFA0022664B26
:10505000FBF72CF941EC100B04F084FF30468DED8A
:10506000000BFBF76FFA54A3D3E90023FBF7D4FA44
:105070009DED000B53EC102BFBF7CEFAFBF7A4FDD4
:1050800080F00040FBF770FA4DA3D3E90023FBF753
:10509000C3FAFBF799FDE06187EAE770A0EBE770E0
:1050A000FBF750FA0022504BFBF700F941EC100BD4
:1050B00004F058FF38468DED000BFBF743FA3EA392
:1050C000D3E90023FBF7A8FA9DED000B53EC102B5E
:1050D000FBF7A2FAFBF778FDFBF746FA0022434BF9
:1050E000FBF79AFAFBF770FD606188EAE870A0EBC5
:1050F000E870FBF727FA00223B4BFBF7D7F841ECAF
:10510000100B04F02FFF40468DED000BFBF71AFA51
:1051100029A3D3E90023FBF77FFA9DED000B53ECA5
:10512000102BFBF779FAFBF74FFD80F00040FBF7FF
:105130001BFA00222D4BFBF76FFAFBF745FDA06130
:105140002848234E2A4C01F071F82846FBF70CFA48
:105150001DA3D3E90023FBF7EFFC264D0DF110084A
:10516000002840F0118105F110094746B6F90230D8
:10517000B5EC017A07EE903AF8EEE77A204677EE42
:10518000677A0C36FDEEE77A2C34F8EEE77A44EDD8
:10519000017A01F0F5F9BDEEC00A4D4510EE103A66
:1051A00027F8023BE2D1404601F02AF907B0BDECF6
:1051B000028BBDE8F08F00BF2FDD24068195C33F31
:1051C0005D74D145175DD43F3333333333330F40F0
:1051D000BC0300200000543F74030020B0050020F1
:1051E00040050020440500200000F03F00000C4076
:1051F0008804002084050020DFF86493B9F800607B
:10520000642E00F2A180B3F90800CF4CFBF79AF9A5
:10521000C5A3D3E90023FBF747F8FBF7D5FC80F0E3
:105220000040FBF7A1F9C2A3D3E90023FBF7F4F98F
:10523000FBF7CAFCC54BE0614FF6FB721A801B8876
:105240000136B6B208EE103AB6F5487F88BF0023A3
:10525000B8EEC88AA9F8006088BFA9F8003007EE48
:10526000907AF8EEE77A17EE900AFBF77DF9B2A391
:10527000D3E90023FBF7D0F9FBF7A6FCFBF774F9A1
:10528000B34BD3ED007A78EE277A064617EE900AF4
:105290000F46FBF769F9AAA3D3E90023FBF7BCF992
:1052A00041EC100B41EC180B04F076FD07EE908AF0
:1052B000F8EEE77A8DED000BF1EE677A17EE900AC3
:1052C000FBF752F99CA3D3E90023FBF7A5F9FBF701
:1052D0007BFCFBF749F9B0EE480AF0EE680A82461B
:1052E0008B4604F09DFDDDE900233046394659EC3C
:1052F000108BFBF791F94246CDE902014B4650462F
:105300005946FBF789F902460B46DDE90201FAF737
:10531000CBFFFBF759FC42464B46606139463046AD
:10532000FBF77AF9524606460F465B46DDE9000177
:10533000FBF772F902460B4630463946FAF7B6FFDC
:10534000FBF742FCA061FBE6962E41D9C72E5BD845
:10535000B3F908007C4CFBF7F5F800227D4BFAF717
:10536000A3FFFBF731FC80F00040FBF7FDF870A3D2
:10537000D3E90023FBF750F9FBF726FC734BE06100
:105380004FF6FE721A805AE705F1100AC14600274F
:10539000B6F90230B5EC017A07EE903AF8EEE77A0A
:1053A000204677EE677A0C36FDEEE77A2C34F8EE7D
:1053B000E77A44ED017A01F0E3F8BDEEC00AAA45B0
:1053C00010EE103A29F8023BCDE90477E0D1EAE685
:1053D000B3F908005C4CFBF7B5F800225E4BFAF716
:1053E00063FFFBF7F1FB80F00040FBF7BDF850A333
:1053F000D3E90023FBF710F9FBF7E6FB534BE06121
:105400004FF6FC721A801AE7C82E1CD0FA2E36D836
:10541000B3F908004C4CFBF795F800224D4BFAF716
:1054200045FFFBF7D1FB80F00040FBF79DF840A360
:10543000D3E90023FBF7F0F8FBF7C6FB434BE06131
:1054400002221A80FBE6B3F908003F4C9FED438A25
:10545000FBF778F8FBF7B8FB80F00040FBF784F827
:1054600033A3D3E90023FBF7D7F8FBF7ADFB374BAA
:10547000E06101360022A9F800601A80EFE6B6F577
:10548000967F19D9B6F5FA7F31D940F22622964295
:1054900012D9B6F5167FBBD3D5D040F28A229642F8
:1054A0007FF656AFB6F52F7F92D9B6F5487F7FF6D7
:1054B000AAAE254C254BC2E6B3F90800224CFBF7F7
:1054C00041F80022244BFAF7F1FEFBF77DFB80F058
:1054D0000040FBF749F816A3D3E90023FBF79CF83B
:1054E000FBF772FB194BE06104221A80A7E6B3F9BF
:1054F0000800154CFBF726F80BA3D3E90023FAF7B5
:10550000D5FEFBF761FB80F00040FBF72DF808A308
:10551000D3E90023FBF780F8FBF756FB0B4BE06168
:1055200005221A808BE600BF0000000000E07040FA
:105530005D74D145175DD43F999999999999034024
:10554000399D52A246DF913F44050020B00500205E
:10555000940300200080564000806B400000000053
:10556000400500202DE9F047524CDFF854A1524D80
:10557000524F264640F6C41840F2DC59DAF80030A3
:10558000C3F83490C3F83890FEF74AFCB5F9003000
:10559000D5F810C06A69C4F80CC005EE103AB5F928
:1055A0000230226105EE903AB5F9043006EE103A69
:1055B000B5F9063006EE903AB5F9083007EE103A24
:1055C000B5F90A3007EE903AB8EEC55AF8EEE55A4A
:1055D000B8EEC66AF8EEE66AB8EEC77AF8EEE77A91
:1055E000AB6984ED005A39463046C4ED015A84ED6A
:1055F000026AC4ED066A84ED077AC4ED087A636135
:10560000FFF71EF80120FBF7FFFCB8F10108B5D148
:10561000DFF8A880274F4FF47A6640F2C449DAF8E1
:105620000030C3F83490C3F83890FEF7F9FBB5F9B1
:105630000030D5F810C06A69C4F80CC005EE103A05
:10564000B5F90230226105EE903AB5F9043006EE64
:10565000103AB5F9063006EE903AB5F9083007EE83
:10566000103AB5F90A3007EE903AB8EEC55AF8EE9E
:10567000E55AB8EEC66AF8EEE66AB8EEC77AF8EE12
:10568000E77AAB6984ED005A41463846C4ED015AC9
:1056900084ED026AC4ED066A84ED077AC4ED087AE7
:1056A0006361FEF7CDFF0120FBF7AEFC013EB6D1F2
:1056B000BDE8F0871806002018020020B003002083
:1056C000DC0600202DE9804887B0FBF771FCFFF76E
:1056D0008DFAFEF7D9FEFEF7D9FDFEF7F7FD01F0D2
:1056E00031F801F053F901F031FB01F049FC01F010
:1056F00077FD01F091FD01F0ABFD01F0C7FD01F078
:1057000039FA01F04BFB1222BB49BC48BC4DBD4FDE
:10571000DFF88CB3BC4EDFF88CA3FDF7C1FB002291
:105720004FF40061B948FCF7A7F901224FF480411A
:10573000B748FCF7A1F901220221B648FCF79CF911
:1057400001220421B348FCF797F901220821B1484E
:10575000FCF792F901221021AE48FCF78DF90122E5
:105760002021AC48FCF788F901224021A948FCF728
:1057700083F901228021A748FCF77EF901224FF42A
:105780008071A448FCF778F900224FF48051A248B8
:10579000FCF772F940F2DC54294600229F486C6005
:1057A000FCF760FF00219D48FCF732FF29460422E8
:1057B0009A486C60FCF756FF04219848FCF728FFD4
:1057C00040F63F042946082294486C60FCF74AFFE3
:1057D00008219248FCF71CFF0C2229468F486C6078
:1057E000FCF740FF0C218D488D4DFCF711FFFEF7B3
:1057F00093FCFEF7E5FB00218A48FCF709FF042132
:105800008848FCF705FFFFF7ADFE874A874B8849BC
:1058100091604FF0804111601960D9629965C3F8B9
:10582000841084495160844959601963D965C3F86B
:10583000881082488249D06099608248596319660D
:10584000C3F88C108049D86098635866C3F89000FC
:1058500019617E48D9639966C3F894107C499961AF
:1058600059641967C3F89C1058611864D866C3F866
:1058700098007848784B106191615361FEF7E6FD1E
:10588000764B7749774A19605A607749774899602B
:105890000022DA601A61FCF727FE754B1B680021B5
:1058A000986802F00FFB7348FBF7C8FC7248FBF7DF
:1058B000C5FC02216F48FBF7C7FD02216E48FBF7CC
:1058C000C3FD012204216D48FCF7D6F8012208210E
:1058D0006A48FCF7D1F8012210216848FCF7CCF89F
:1058E000012220216548FCF7C7F801224FF400612E
:1058F0004648FCF7C1F840F213110D2000F016FFE6
:105900005F48796801605F48BA6802605E483B683A
:105910005E495F4A036000230B600024136004218A
:105920005C48FCF7A3F801285CD09BF80A30022BF6
:1059300058D09BF91F30012B54D0B6F9040007EE64
:10594000900AF8EEE77A17EE900AFAF70DFE224673
:105950002B46FAF761FE8046B6F9280007EE900A5A
:10596000F8EEE77A894617EE900AFAF7FDFD22462F
:105970002B46FAF751FEB6F91C3007EE903AF8EED6
:10598000E77ACDE9040117EE900AFAF7EDFD224619
:105990002B46FAF741FEB6F9103007EE903AF8EED2
:1059A000E77ACDE9020117EE900AFAF7DDFD22460B
:1059B0002B46FAF731FE4B46CDE900014246364808
:1059C00002F004FA354802F075FA9AF80030092B13
:1059D0006AD8013304212F488AF80030FCF746F8D2
:1059E0000128A2D126497B680B602649BA680A6063
:1059F000254A3B681360A0E7D80500205C0800201A
:105A0000A8020020B0030020BC03002000100240C8
:105A10000014024000180240000C02409C070020C5
:105A20000000543FDC060020EC0500208804002024
:105A3000000048420000204100004040295C8F3DAA
:105A40000000A0410AD7233C00606A460000FA43E8
:105A50006666663F0060EA4600401C46440500203A
:105A60000000EF430000C5430080CF431C07002027
:105A7000280000204C03002024030020001C0240CA
:105A8000A8030020B4050020AC030020F003002090
:105A900084040020000402402CBE00085CBE000804
:105AA00074030020ED0300203F4B93ED000A00F04B
:105AB00025FE3E4B93ED000A00F026FE3C4BB3F969
:105AC000002000EE102AB8EEC00A00F023FE384B8A
:105AD0001B8803F14B0292B2142A3CD903F137021E
