:020000040800F2
:100000000000032089780008156C0008196C0008AE
:100010001D6C0008216C0008256C00080000000021
:10002000000000000000000000000000296C000833
:100030002D6C000800000000316C0008356C0008D1
:10004000D9780008D9780008D9780008D97800084C
:10005000D9780008D9780008D9780008D97800083C
:10006000D9780008D9780008D9780008D97800082C
:10007000D9780008D9780008D9780008D97800081C
:10008000D9780008D9780008D9780008D97800080C
:10009000396C0008456C0008D9780008D978000848
:1000A000D9780008D9780008D9780008D9780008EC
:1000B000D9780008D9780008D9780008D9780008DC
:1000C000D9780008D9780008D9780008D9780008CC
:1000D000D9780008516C0008D9780008D978000850
:1000E000D9780008D9780008D9780008D9780008AC
:1000F000D9780008D9780008D9780008D97800089C
:10010000D9780008D9780008D9780008D97800088B
:10011000D9780008D97800085D6C0008D978000803
:10012000D9780008696C0008D9780008D9780008E7
:10013000D9780008D9780008D9780008D97800085B
:10014000756C0008816C0008D9780008D97800081F
:10015000D9780008D9780008D97800088D6C000893
:10016000D9780008D9780008D9780008D97800082B
:10017000D9780008D9780008D97800080000000074
:10018000D9780008D9780008D9780008D97800080B
:10019000D9780008D9780008D9780008D9780008FB
:0C01A0000000000000000000D9780008FA
:1001B00010B5054C237833B9044B13B10448AFF3A1
:1001C00000800123237010BDFC010020000000000E
:1001D00034C2000808B5034B1BB103490348AFF311
:1001E000008008BD000000000002002034C20008AA
:1001F000034613F8012B002AFBD1181A0138704767
:1002000001F0FF01102A2BDB10F0070F08D010F8C7
:10021000013B013A8B422DD010F0070F42B3F6D1CB
:10022000F0B441EA012141EA014122F007047FF0E4
:1002300000070023F0E80256083C85EA010586EA3B
:10024000010685FA47F5A3FA87F586FA47F6A5FA77
:1002500087F68EB9EED1F0BC01F0FF0102F0070283
:1002600032B110F8013B013A83EA010313B1F8D12E
:100270000020704701387047002D06BF354603380F
:10028000073815F0010F07D1013015F4807F02BF48
:10029000013015F4C03F0130F0BC0138704700BF99
:1002A00081F0004102E000BF83F0004330B54FEA27
:1002B00041044FEA430594EA050F08BF90EA020F94
:1002C0001FBF54EA000C55EA020C7FEA645C7FEA27
:1002D000655C00F0E2804FEA5454D4EB5555B8BF4A
:1002E0006D420CDD2C4480EA020281EA030382EABB
:1002F000000083EA010180EA020281EA0303362D4D
:1003000088BF30BD11F0004F4FEA01314FF4801C1F
:100310004CEA113102D0404261EB410113F0004F31
:100320004FEA03334CEA133302D0524263EB4303E8
:1003300094EA050F00F0A780A4F10104D5F1200E86
:100340000DDB02FA0EFC22FA05F2801841F10001E1
:1003500003FA0EF2801843FA05F359410EE0A5F1B5
:1003600020050EF1200E012A03FA0EFC28BF4CF0E6
:10037000020C43FA05F3C01851EBE37101F000459C
:1003800007D54FF0000EDCF1000C7EEB00006EEBA9
:100390000101B1F5801F1BD3B1F5001F0CD3490833
:1003A0005FEA30004FEA3C0C04F101044FEA44528A
:1003B00012F5800F80F09A80BCF1004F08BF5FEA11
:1003C000500C50F1000041EB045141EA050130BDF1
:1003D0005FEA4C0C404141EB010111F4801FA4F194
:1003E0000104E9D191F0000F04BF01460020B1FAE9
:1003F00081F308BF2033A3F10B03B3F120020CDA21
:100400000C3208DD02F1140CC2F10C0201FA0CF0FE
:1004100021FA02F10CE002F11402D8BFC2F1200C63
:1004200001FA02F120FA0CFCDCBF41EA0C01904019
:10043000E41AA2BF01EB0451294330BD6FEA040462
:100440001F3C1CDA0C340EDC04F11404C4F120024D
:1004500020FA04F001FA02F340EA030021FA04F35F
:1004600045EA030130BDC4F10C04C4F1200220FAB6
:1004700002F001FA04F340EA0300294630BD21FAF4
:1004800004F0294630BD94F0000F83F4801306BFBA
:1004900081F480110134013D4EE77FEA645C18BFAE
:1004A0007FEA655C29D094EA050F08BF90EA020F45
:1004B00005D054EA000C04BF1946104630BD91EA3D
:1004C000030F1EBF0021002030BD5FEA545C05D140
:1004D0004000494128BF41F0004130BD14F580047F
:1004E0003CBF01F5801130BD01F0004545F0FE41F3
:1004F00041F470014FF0000030BD7FEA645C1ABF28
:10050000194610467FEA655C1CBF0B46024650EA5E
:10051000013406BF52EA033591EA030F41F400218A
:1005200030BD00BF90F0000F04BF0021704730B510
:100530004FF4806404F132044FF000054FF00001E5
:1005400050E700BF90F0000F04BF0021704730B5A6
:100550004FF4806404F1320410F0004548BF40427B
:100560004FF000013EE700BF42004FEAE2014FEAD0
:1005700031014FEA02701FBF12F07F4393F07F4FAB
:1005800081F06051704732F07F4208BF704793F0AE
:100590007F4F04BF41F40021704730B54FF46074C1
:1005A00001F0004521F000411CE700BF50EA0102C4
:1005B00008BF704730B54FF000050AE050EA01026D
:1005C00008BF704730B511F0004502D5404261EBDD
:1005D00041014FF4806404F132045FEA915C3FF41E
:1005E000D8AE4FF003025FEADC0C18BF03325FEABB
:1005F000DC0C18BF033202EBDC02C2F1200300FA6C
:1006000003FC20FA02F001FA03FE40EA0E0021FA90
:1006100002F11444BDE600BF70B54FF0FF0C4CF47E
:10062000E06C1CEA11541DBF1CEA135594EA0C0F30
:1006300095EA0C0F00F0DEF82C4481EA030621EA6B
:100640004C5123EA4C5350EA013518BF52EA0335A6
:1006500041F4801143F4801338D0A0FB02CE4FF058
:100660000005E1FB02E506F00042E0FB03E54FF088
:100670000006E1FB03569CF0000F18BF4EF0010E80
:10068000A4F1FF04B6F5007F64F5407404D25FEA7C
:100690004E0E6D4146EB060642EAC62141EA55512F
:1006A0004FEAC52040EA5E504FEACE2EB4F1FD0C71
:1006B00088BFBCF5E06F1ED8BEF1004F08BF5FEAEF
:1006C000500E50F1000041EB045170BD06F00046A1
:1006D00046EA010140EA020081EA0301B4EB5C044E
:1006E000C2BFD4EB0C0541EA045170BD41F4801146
:1006F0004FF0000E013C00F3AB8014F1360FDEBF6B
:10070000002001F0004170BDC4F10004203C35DA46
:100710000C341BDC04F11404C4F1200500FA05F3C9
:1007200020FA04F001FA05F240EA020001F000426A
:1007300021F0004110EBD37021FA04F642EB0601E0
:100740005EEA430E08BF20EAD37070BDC4F10C040A
:10075000C4F1200500FA04F320FA05F001FA04F2CE
:1007600040EA020001F0004110EBD37041F10001BA
:100770005EEA430E08BF20EAD37070BDC4F12005C5
:1007800000FA05F24EEA020E20FA04F301FA05F22D
:1007900043EA020321FA04F001F0004121FA04F2D5
:1007A00020EA020000EBD3705EEA430E08BF20EAA5
:1007B000D37070BD94F0000F0FD101F000464000DF
:1007C00041EB010111F4801F08BF013CF7D041EA61
:1007D000060195F0000F18BF704703F00046520065
:1007E00043EB030313F4801F08BF013DF7D043EA36
:1007F0000603704794EA0C0F0CEA135518BF95EAEC
:100800000C0F0CD050EA410618BF52EA4306D1D172
:1008100081EA030101F000414FF0000070BD50EA91
:10082000410606BF1046194652EA430619D094EA1B
:100830000C0F02D150EA013613D195EA0C0F05D105
:1008400052EA03361CBF104619460AD181EA030159
:1008500001F0004141F0FE4141F470014FF0000011
:1008600070BD41F0FE4141F4780170BD70B54FF0AC
:10087000FF0C4CF4E06C1CEA11541DBF1CEA13552C
:1008800094EA0C0F95EA0C0F00F0A7F8A4EB05040E
:1008900081EA030E52EA03354FEA013100F0888005
:1008A0004FEA03334FF0805545EA131343EA1263CE
:1008B0004FEA022245EA111545EA10654FEA002683
:1008C0000EF000419D4208BF964244F1FD0404F53C
:1008D000407402D25B084FEA3202B61A65EB030598
:1008E0005B084FEA32024FF480104FF4002CB6EB55
:1008F000020E75EB030E22BFB61A754640EA0C00D5
:100900005B084FEA3202B6EB020E75EB030E22BF14
:10091000B61A754640EA5C005B084FEA3202B6EB55
:10092000020E75EB030E22BFB61A754640EA9C0014
:100930005B084FEA3202B6EB020E75EB030E22BFE4
:10094000B61A754640EADC0055EA060E18D04FEAA2
:10095000051545EA16754FEA06164FEAC30343EA42
:1009600052734FEAC2025FEA1C1CC0D111F4801F0F
:100970000BD141EA00014FF000004FF0004CB6E708
:1009800011F4801F04BF01430020B4F1FD0C88BFA7
:10099000BCF5E06F3FF6AFAEB5EB030C04BFB6EBB2
:1009A000020C5FEA500C50F1000041EB045170BDA5
:1009B0000EF0004E4EEA113114EB5C04C2BFD4EBD2
:1009C0000C0541EA045170BD41F480114FF0000E56
:1009D000013C90E645EA060E8DE60CEA135594EAD2
:1009E0000C0F08BF95EA0C0F3FF43BAF94EA0C0FD5
:1009F0000AD150EA01347FF434AF95EA0C0F7FF44A
:100A000025AF104619462CE795EA0C0F06D152EA9D
:100A100003353FF4FDAE1046194622E750EA410681
:100A200018BF52EA43067FF4C5AE50EA41047FF492
:100A30000DAF52EA43057FF4EBAE12E74FF0FF3CF7
:100A400006E000BF4FF0010C02E000BF4FF0010CC8
:100A50004DF804CD4FEA410C7FEA6C5C4FEA430C41
:100A600018BF7FEA6C5C1BD001B050EA410C0CBF90
:100A700052EA430C91EA030F02BF90EA020F0020F2
:100A8000704710F1000F91EA030F58BF994208BF59
:100A900090422CBFD8176FEAE37040F00100704716
:100AA0004FEA410C7FEA6C5C02D150EA013C07D16D
:100AB0004FEA430C7FEA6C5CD6D152EA033CD3D0B8
:100AC0005DF8040B704700BF8446104662468C46B2
:100AD0001946634600E000BF01B5FFF7B7FF0028E5
:100AE00048BF10F1000F01BD4DF808EDFFF7F4FF0E
:100AF0000CBF012000205DF808FB00BF4DF808ED99
:100B0000FFF7EAFF34BF012000205DF808FB00BFBB
:100B10004DF808EDFFF7E0FF94BF012000205DF8DD
:100B200008FB00BF4DF808EDFFF7CEFF94BF012092
:100B300000205DF808FB00BF4DF808EDFFF7C4FF8B
:100B400034BF012000205DF808FB00BF4FEA410CD4
:100B50007FEA6C5C02D150EA013C0AD14FEA430CB7
:100B60007FEA6C5C02D152EA033C02D14FF00000F4
:100B700070474FF0010070474FEA410212F5001232
:100B800015D211D56FF47873B3EB625212D94FEAD4
:100B9000C12343F0004343EA505311F0004F23FABE
:100BA00002F018BF404270474FF00000704750EA13
:100BB000013005D111F0004008BF6FF000407047D0
:100BC0004FF00000704700BF4FEA4102B2F1E0432E
:100BD00024BFB3F5001CDCF1FE5C0DD901F0004C24
:100BE0004FEAC0024CEA5070B2F1004F40EB830074
:100BF00008BF20F00100704711F0804F21D113F1A0
:100C00003872BCBF01F00040704741F480114FEAD8
:100C10005252C2F11802C2F1200C10FA0CF320FA61
:100C200002F018BF40F001004FEAC1234FEAD3237E
:100C300003FA0CFC40EA0C0023FA02F34FEA4303E8
:100C4000CCE77FEA625307D150EA01331EBF4FF071
:100C5000FE4040F44000704701F0004040F0FE408C
:100C600040F40000704700BF53B94AB9002908BFDB
:100C700000281CBF4FF0FF314FF0FF3000F072B979
:100C8000ADF1080C6DE904CE00F006F8DDF804E0E3
:100C9000DDE9022304B070472DE9F047089E0446C1
:100CA0008846002B4BD18A42154667D9B2FA82F2A8
:100CB0004AB1C2F1200701FA02F320FA07F7954082
:100CC00047EA030894404FEA154E230CB8FBFEF7A1
:100CD0001FFA85FC0EFB178843EA084307FB0CF15B
:100CE000994209D9EB1807F1FF3080F01B81994236
:100CF00040F21881023F2B445B1AA4B2B3FBFEF012
:100D00000EFB103344EA034400FB0CFCA44509D954
:100D10002C1900F1FF3380F00781A44540F20481D3
:100D200002382C4440EA0740A4EB0C0400271EB113
:100D3000D4400023C6E900433946BDE8F0878B4222
:100D400009D9002E00F0EB800027C6E900013846E3
:100D50003946BDE8F087B3FA83F7002F47D18B42BD
:100D600002D3824200F2FA80841A61EB030301206D
:100D70009846002EE0D0C6E90048DDE702B9FFDE64
:100D8000B2FA82F2002A40F08F80491B4FEA154EDA
:100D90001FFA85F80127B1FBFEFC230C0EFB1C118A
:100DA00043EA014308FB0CF1994207D9EB180CF117
:100DB000FF3002D2994200F2CD808446591AA3B284
:100DC000B1FBFEF00EFB101443EA044408FB00F8EC
:100DD000A04507D92C1900F1FF3302D2A04500F23B
:100DE000B6801846A4EB080440EA0C409FE7C7F120
:100DF000200CBB4022FA0CFE4EEA030E01FA07F467
:100E000020FA0CF521FA0CF34FEA1E482543B3FBF8
:100E1000F8F92C0C08FB19331FFA8EFA44EA034345
:100E200009FB0AF49C4202FA07F200FA07F10BD917
:100E30001EEB030309F1FF3080F087809C4240F2F3
:100E40008480A9F1020973441B1BADB2B3FBF8F017
:100E500008FB103345EA034400FB0AFAA24508D90F
:100E60001EEB040400F1FF336BD2A24569D90238AE
:100E7000744440EA0940A0FB0289A4EB0A044C45F3
:100E8000C2464B4654D351D0002E69D0B1EB0A056F
:100E900064EB030404FA0CFCFD40FC404CEA05053D
:100EA000C6E90054002747E7C2F1200320FA03F700
:100EB000954001FA02F021FA03F34FEA154E384348
:100EC000010CB3FBFEF71FFA85F80EFB173341EA5E
:100ED000034107FB08F38B4204FA02F407D96918AF
:100EE00007F1FF3C2FD28B422DD9023F2944CB1A68
:100EF00081B2B3FBFEF00EFB103341EA034100FB6D
:100F000008F38B4207D9691800F1FF3C17D28B42D6
:100F100015D902382944C91A40EA07473BE7374642
:100F2000304609E70746E7E61846FBE64145ABD2FF
:100F3000B8EB020A69EB0E0201381346A4E76046DB
:100F4000E9E7184695E76746D1E781467CE702382E
:100F50002C4447E7ACF1020C2B442FE7384608E756
:100F60003746E9E6704700BF38B50E4A0E4B127897
:100F70001B6805464FF47A70B0FBF2F0B3FBF0F05B
:100F800000F00AFC08B90F2D01D9012038BD044634
:100F9000024629464FF0FF3000F0BAFB034B2046D3
:100FA0001D6038BD00000020240000200400002047
:100FB00008B50B4B1A6842F400721A601A6842F4C2
:100FC00080621A601A6842F480721A60032000F08E
:100FD0008DFB0020FFF7C8FF05F000FE002008BDD4
:100FE000003C0240034A044B11681B780B44136019
:100FF000704700BFD402002000000020014B186899
:10100000704700BFD402002038B50446FFF7F6FF52
:10101000631C054602D0044B1B781C44FFF7EEFF0F
:10102000401BA042FAD338BD0000002000287CD02D
:1010300038B590F820300446002B73D0226813682E
:1010400023F002031360FFF7D9FF054604E0FFF722
:10105000D5FF401B0A285CD823685A689107F6D44C
:101060001A6842F001021A60FFF7C8FF054604E063
:10107000FFF7C4FF401B0A284BD823685A68D207E1
:10108000F6D5227E012A1A680CBF42F0800222F0B7
:1010900080021A60627E012A1A680CBF42F0400288
:1010A00022F040021A60A27E012A1A680CBF42F0A8
:1010B000200222F020021A60E27E012A1A680CBF88
:1010C00022F0100242F010021A60227F012A1A68F0
:1010D0000CBF42F0080222F008021A60627F012A67
:1010E0001A680CBF42F0040222F004021A60D4E92C
:1010F0000221D4E904500A4361682A4302430139BA
:101100000A4301250021DA610846616284F8205013
:1011100038BD636A052243F400336362012084F81A
:10112000202038BD03F0ACF988E70120704700BFEC
:1011300090F82030013B012B05D9436A43F480230A
:101140004362012070473C4BD3F8002242F0010279
:10115000F0B4C3F80022D3F8002222F47C52C3F882
:101160000022D3F80022486A42EA0022C3F8002293
:101170004A69D3F81C52012402F01F0004FA00F05F
:10118000C4432540C3F81C52CD69002D3AD0012D2F
:1011900015D1D3F80C520543C3F80C52D2000F6896
:1011A0008D888E688B8902F1804202F5C84245EA3B
:1011B000074543EA0643C2F84052C2F844328B69FD
:1011C0001D4A9BBBD2F804322340C2F804320B699B
:1011D0002BBB194BD3F814221440C3F814420B6AEA
:1011E000012B05D1144AD2F81C321843C2F81C0254
:1011F000114AD2F8003223F001030020C2F8003275
:10120000F0BC7047D3F80C522540C3F80C52D20002
:1012100002F18042CF688D888E680B88C5E7064A48
:10122000D2F814320343C2F81432D8E7D2F80432A9
:101230000343C2F80432CAE70064004038B590F8AE
:101240002030012B05D0436A43F400234362012080
:1012500038BD0268022380F82030136823F00103B0
:1012600013600446FFF7CAFE054604E0FFF7C6FE1A
:10127000401B0A2807D823685B6813F00103F5D1E7
:101280006362184638BD636A052243F40033636223
:10129000012084F8202038BD70B490F82040056803
:1012A000013C012CAE6806D9436A43F480234362B3
:1012B000012070BC704716F0E05F2ED0C6F30166C7
:1012C000032E31D00120B04018608B6893BB0C68AE
:1012D000C86806F118031B0140EA4450E850087D35
:1012E00009693601AB190128C3F8841105D1D3F877
:1012F000841141F48071C3F8841135445168C5F8F4
:101300008C111268C5F88821D3F8802142F00102BF
:101310000020C3F8802170BC7047436A43F4001377
:10132000436270BC01207047436A43F40003436288
:101330000120BEE7C8684C68034306F118000001AD
:1013400043EAC4032B50CAE72DE9F04190F820404E
:10135000013C012C06D9436A43F4802343620120F7
:10136000BDE8F0810568002958D02C69A40758D041
:101370000C012E19D6F8B07107F004079760002F02
:101380005CD1D6F8B0717F0D1760D6F8B0E1D6F811
:10139000B4C1D6F8B471D6F8B46125440EF0020E8B
:1013A000D5F8B881C7F307270CF00F05360CC2E952
:1013B00003E5C2E9056783F8008002682244D2F899
:1013C000B821120A5A7002682244D2F8B821120CCD
:1013D0009A7002682244D2F8B821120EDA700268BC
:1013E0002244D2F8BC211A7102682244D2F8BC21EE
:1013F000120A5A7102682244D2F8BC21120C9A7166
:1014000002681444D4F8BC21120EDA71026879B96A
:10141000D36843F020030846D360A1E7EC68A60731
:10142000A6D1436A43F4001343620120BDE8F08172
:10143000136943F020031361002091E7D6F8B071DF
:10144000FF085760A1E700BF90F82030013B012B57
:1014500005D9436A43F48023436201207047026840
:101460005369194351610020704700BF704700BFA6
:10147000704700BF704700BF704700BF704700BF94
:10148000704700BF704700BF704700BF704700BF84
:10149000704700BF704700BF704700BF2DE9F84F8D
:1014A00003685C69D3F804809F68D3F80CB0D3F864
:1014B0001090D3F818A014F00106054625D017F0B7
:1014C000010640F09C804FF400524FF48041F80533
:1014D0000DD52B684FF480709860BB0500F1C78074
:1014E000780500F1D7803A0540F1E8800E46FB030D
:1014F0000BD52B684FF48032B8039A6000F1B380AB
:10150000790340F1C98046F40046230702D51BF059
:10151000100F6ED1670702D51BF0080F7FD1A0070F
:1015200004D52B68DB68990740F08E80620602D5EF
:1015300019F0100F57D1A30603D519F0080F40F08A
:101540008780E70604D52B681B69980740F08780E1
:10155000A10302D518F0100F68D1E20302D518F0EC
:10156000080F6AD1230435D518F0040F2B682FD04B
:10157000E70504D51AF0010F18BF46F00106A005D3
:1015800004D51AF0020F18BF46F00206610504D513
:101590001AF0040F18BF46F00406220518D51AF0F9
:1015A000700A15D0BAF1300F00F0968079D9BAF1EF
:1015B000500F00F08E80BAF1600F00F09080BAF109
:1015C000400F01D146F040069A6922F070029A61FC
:1015D00004225A602EB16B6A1E436E622846FFF7E2
:1015E0005BFFBDE8F88F2B68102246F480661A6115
:1015F000A1E72B68102246F40076DA608AE7012220
:101600009A60BB0737D47E073DD417F0080659D03F
:101610004FF440524FF4A0414FF4805657E72B68E7
:101620000822DA602846FFF72DFF78E72B681022A2
:101630005A602846FFF72CFF8FE72B6808225A6074
:101640002846FFF727FF8DE7284603F079FD6DE771
:101650002B6808221A612846FFF718FF71E7284611
:10166000FFF712FF74E72846FFF704FF4DE728460F
:10167000FFF7FEFE3BE7FFF7F9FE00264FF40052AE
:101680004FF4804123E74FF420524FF490414FF440
:1016900000661CE716462AE73A030BD546F4803667
:1016A00033E7BAF1100F1DD0BAF1200F8CD146F0FC
:1016B000100689E72846FFF7E3FE26E72846FFF7EE
:1016C000DDFE14E7FFF7D8FE4FF400524FF48041DF
:1016D000FDE646F0800677E746F0200674E746F41C
:1016E000807671E746F008066EE700BF074AD368C8
:1016F0004FF6FF010B40000243F0BF6300F4E060CF
:1017000043F400330343D360704700BF00ED00E0B3
:10171000184BDB68C3F3022330B4C3F10705042D73
:1017200003F1040428BF0425062C19D9033B4FF00C
:10173000FF349C4022EA04044FF0FF32AA4021EA21
:10174000020101FA03F2224312010028D2B20ADB9D
:1017500000F1604000F5614080F8002330BC704724
:1017600000242346E8E7044B00F00F0003441A76F8
:1017700030BC704700ED00E0FCEC00E0002807DB27
:1017800000F01F0101234009024A8B4042F820303B
:10179000704700BF00E100E00138B0F1807F0ED259
:1017A000084B10B4084C5860F02084F82300002245
:1017B000072110469A6019605DF8044B70470120BC
:1017C000704700BF10E000E000ED00E0F8B504460F
:1017D000FFF714FC002C54D00222236884F8352033
:1017E0001A68002122F0010284F8341005461A60BC
:1017F00005E0FFF703FC401B05283BD823681A6867
:10180000D107F6D4D4E90126D4E903513243606903
:101810001F682A43D4E906650A430243216A354812
:1018200032432A430A43616A3840042942EA0002EB
:1018300029D01A605A6922F007021143DAB22E4801
:101840005961103AA0FB021212092C4923F47F734C
:10185000895CE16523F00303032A88BF04333F2238
:101860008A4001250021A36508469A60616584F8D5
:101870003550F8BD032320226265184684F83530C0
:10188000F8BD0120F8BDD4E90B0101430A43A56A64
:101890001A605A6945F0040122F00702114300283A
:1018A000CCD07EB1B6F5005F16D0022D03D9032D42
:1018B000C4D1C201C2D5012340226265184684F812
:1018C0003530F8BD012D03D0F3D3022DB6D1F0E7AA
:1018D000B0F1C07FB2D1EEE7032DAFD801A252F82C
:1018E00025F000BFB7180008B3180008B7180008A3
:1018F000D11800083F8010F0ABAAAAAA50C2000875
:1019000090F83530022B03D08023436501207047C7
:101910000268052380F83530136823F00103136053
:1019200000207047F0B583B00023876D0193C36D2D
:101930003D68654908229A402A4204460E6803D051
:1019400001680868400759D401229A402A4203D00E
:1019500021684969080674D404229A402A4203D0B7
:1019600021680968890766D410229A402A4203D068
:101970002168086800074BD420229A402A4214D0DC
:1019800021680868C00610D5BA6094F83520052A89
:1019900063D00B6813F4802F0B687ED0190340F1DD
:1019A0008980E36B0BB120469847636D23B3636D69
:1019B000DA071AD50523226884F8353013684349BD
:1019C00023F00103A1FB06161360B60A02E01368B8
:1019D000DB0704D5019B0133B3420193F7D9002201
:1019E000012384F8342084F83530E36C23B1204699
:1019F00003B0BDE8F040184703B0F0BD086820F020
:101A000004000860BA60626D42F0010262659BE703
:101A1000BA600A6812F4802F0A6818D1D20503D47C
:101A20000A6822F008020A60226C002AA4D020462C
:101A30009047E36DA0E7BA60626D42F00402626510
:101A400092E7BA60626D42F00202626584E71103B8
:101A5000EAD5A26C002AEAD18EE70A68206C22F04F
:101A600016020A604A6922F080024A6138B30A68A5
:101A700022F008020A603F22216D02FA03F30020DF
:101A80000122BB6084F8340084F835200029B3D0EB
:101A9000204603B0BDE8F040084713F4807380D1BE
:101AA0000A68012022F010020A6084F8343084F8B9
:101AB000350076E7636C002B7FF475AF75E7A26C99
:101AC000002AD4D1D7E700BF24000020B5814E1BE7
:101AD0002DE9F04FD1F80080DFF828E283B0002430
:101AE00003E00134102C00F09B800123A34008EA9E
:101AF00003029342F5D1D1E9016526F010094FEABE
:101B0000440C032309F1FF3703FA0CF3012F6FEAAA
:101B1000030305FA0CF540F28680C7681F403D4379
:101B2000C560076806F003051F4005FA0CF33B4348
:101B30000360F300D5D56C4D002301936B6C43F427
:101B400080436B646D6C24F0030305F4804503F15E
:101B50008043019503F59C3304F003054FEA8509A2
:101B6000624D019FD3F808C00F2707FA09F7A84272
:101B70002CEA07072DD005F58065A84200F0848087
:101B80005B4DA84200F086805A4DA84200F0888044
:101B9000594DA84200F08A80584DA84200F092802A
:101BA000574DA84200F09480DFF85CC1604500F01A
:101BB0008380DFF858C1604500F09080DFF850C1A5
:101BC00060450CBF4FF0090C4FF00A0C0CFA09F5F8
:101BD0002F439F60DEF80030D543F70354BF2B40FE
:101BE0001343CEF80030DEF80430B70354BF2B4067
:101BF0001343CEF80430DEF80830F70254BF2B4010
:101C00001343CEF80830DEF80C30B60204F10104BC
:101C100054BF2B401343102CCEF80C307FF465AF2B
:101C200003B0BDE8F08F876807EA030ACF6807FAB8
:101C30000CF747EA0A078760D0F804A0C6F300173C
:101C40002AEA020AA74047EA0A074760C7681F4016
:101C50003D43B9F1020FC5607FF463AF4FEAD40989
:101C600000EB890904F00707D9F82050BF004FF0B6
:101C70000F0B0BFA07FB25EA0B0A0D69BD4045EA7D
:101C80000A05C9F820504CE74FF0010C0CFA09F591
:101C90002F439EE74FF0020C0CFA09F52F4398E70B
:101CA0004FF0030C0CFA09F52F4392E74FF0040CA8
:101CB0000CFA09F52F438CE74FF0070C0CFA09F5E5
:101CC0002F4386E74FF0050C0CFA09F52F4380E708
:101CD0004FF0060C0CFA09F52F437AE74FF0080C89
:101CE0000CFA09F52F4374E7003802400000024067
:101CF00000080240000C02400010024000140240A4
:101D000000180240003C0140001C0240002002403C
:101D1000002402400369194214BF012000207047CB
:101D200002B9090481617047436931EA030308BFBE
:101D300009048161704700BF002800F032812DE95D
:101D4000F0410368DD0782B004462FD5AC498A68AC
:101D500002F00C02042A00F0EA808A6802F00C0209
:101D6000082A00F0E0806368B3F5803F00F0E98066
:101D7000B3F5A02F00F07881A14D2A6822F48032BB
:101D80002A602A6822F480222A60002B40F0DE803C
:101D9000FFF734F9064605E0FFF730F9801B6428A9
:101DA00000F2F2802B689B03F6D423689F0775D45A
:101DB0001A0715D56369002B00F0A580914B904D53
:101DC00001221A60FFF71AF9064605E0FFF716F937
:101DD000801B022800F2D8806B6F9B07F6D5236822
:101DE00058073BD5864A136C13F0805340F0DB80D4
:101DF0000193136C43F080531364136C03F080530E
:101E00000193019B0126804D2A68D10540F1AC80E9
:101E1000A368012B00F0C980052B00F02F81784DBD
:101E20002A6F22F001022A672A6F22F004022A6731
:101E3000002B40F0BF80FFF7E1F841F28837804681
:101E400006E0FFF7DBF8A0EB0800B84200F29C8048
:101E50002B6F9807F5D4002E40F0DC80A069C8B144
:101E6000674DAA6802F00C02082A00F0D980674A80
:101E700000210228116000F00B81FFF7BFF82C460B
:101E8000054604E0FFF7BAF8401B02287CD8236817
:101E90009B01F7D4002002B0BDE8F081584A916858
:101EA00011F00C0F24D0916801F00C0108291CD00E
:101EB000E368002B00F09280554B514D01221A60CF
:101EC000FFF79CF8064604E0FFF798F8801B02280D
:101ED0005AD82B689807F7D52B68226923F0F803A6
:101EE00043EAC2032B60236862E752685602DFD4DC
:101EF000434A126895074BD5E268012A48D0012071
:101F000002B0BDE8F0813F4A3D4D1360FFF776F81F
:101F1000064604E0FFF772F8801B022834D86B6F86
:101F20009F07F7D45BE74A6850027FF51CAF344A3D
:101F3000126891037FF53AAF6268002A7FF436AFEA
:101F4000DDE72F4A136843F480331360FFF756F838
:101F50002B4D064604E0FFF751F8801B642813D888
:101F60002B689A03F7D520E72A6842F480722A602A
:101F7000FFF744F807462B68DA053FF549AFFFF74E
:101F80003DF8C01B0228F6D9032002B0BDE8F0815D
:101F90001B4920690A6822F0F80242EAC0020A607E
:101FA00006E70120704700262DE7154A136F43F01E
:101FB00001031367FFF722F8114D804641F288377D
:101FC00005E0FFF71BF8A0EB0800B842DCD82B6F48
:101FD0009B07F6D5002E3FF441AF1BE00C4A084D9D
:101FE0001360FFF70BF8064604E0FFF707F8801BC5
:101FF0000228C9D82B689907F7D42368D8E600BF10
:1020000000380240800E47420070004060004742A6
:1020100000004742354A136C23F0805313641DE7D8
:1020200001283FF46DAFAB68E26903F4800191428F
:102030007FF465AF226A03F03F0191427FF45FAF06
:1020400047F6C072616A1A408A427FF458AFA26AAA
:1020500003F4403191427FF452AFE06A03F07063C1
:10206000181A18BF01204BE7204B1A6842F480224F
:102070001A601A6842F480321A6067E71B4B1A6FC5
:1020800042F004021A671A6F42F001021A6791E7E0
:10209000FEF7B4FF064605E0FEF7B0FF801B0228FE
:1020A0003FF672AF2B689901F6D4D4E90736D4E92C
:1020B0000902E16A0D4C334343EA8013520843EAB4
:1020C0000163013A0A4943EA024301226B600A6054
:1020D000FEF794FF054605E0FEF790FF401B02283F
:1020E0003FF652AF23689A01F6D5D3E60038024096
:1020F00060004742174908B58B6803F00C03042BB6
:102100001BD0082B17D14A684B6813F4800302F0E8
:102110003F0214D149681048C1F38811A1FB0001A6
:10212000FEF7A2FD0B4B5B68C3F3014301335B0079
:10213000B0FBF3F008BD084808BD084808BD4B686F
:102140000648C3F38813A3FB00010023FEF78CFDB0
:10215000E8E700BF003802400024F400001BB7008D
:1021600060B1494A136803F00F038B4208D2CBB227
:102170001370136803F00F038B4201D001207047E6
:1021800003682DE9F0419D0714D55C0704D53F4C49
:10219000A26842F4E052A2601A0704D53B4CA26840
:1021A00042F46042A260394C8568A26822F0F002D5
:1021B0002A43A260DF0704460D4622D54268012A61
:1021C00057D0931E012B314B1B6859D9990725D540
:1021D0002E4EB36823F003031343B360FEF70EFFE4
:1021E00041F28837804605E0FEF708FFA0EB0800C3
:1021F000B84243D8B368626803F00C03B3EB820FB4
:10220000F2D1214A136803F00F03AB4209D9EBB2B4
:102210001370136803F00F03AB4202D00120BDE836
:10222000F08123685A0706D51849E0688A6822F4C5
:10223000E05202438A601B0712D4FFF75BFF134B87
:10224000134C9B681349144AC3F30313E35C20FA4D
:1022500003F308681360FEF787FE0020BDE8F081F5
:102260000A4A2169936823F4604343EAC1039360F7
:10227000E3E7064B1B689E03AAD4CFE70320EDE7F4
:102280009801A5D4CAE700BF003C024000380240D4
:10229000D4C400080400002024000020044B054A98
:1022A0009B680549C3F382230868D35CD840704714
:1022B00000380240E4C4000824000020044B054A12
:1022C0009B680549C3F342330868D35CD840704724
:1022D00000380240E4C400082400002000283BD05D
:1022E00090F85120002370B502F0FF01044683628C
:1022F00062B31846D4E90135D4E903212B431343D3
:102300006269E569266A0B431343A26921682B437E
:10231000022584F85150334302F400750E682B43B4
:10232000120C656A02F0040203432A4326F04006B9
:102330000E600B604A60CB69002223F40063012524
:10234000CB611046626584F8515070BD80F8501022
:1023500004F00CFCA06ACDE7012070472DE9F041A4
:1023600090F85040012C82B000F0AA801E46012354
:1023700080F85030044617460D46FEF73FFE804673
:1023800094F851006368C0B2012811D0B3F5827F80
:1023900009D002200122002384F8512084F8503013
:1023A00002B0BDE8F081A268002AF2D10428F0D181
:1023B000002D00F08980002F00F08680002E00F0B4
:1023C000838094F851202068A763042A1CBF05224B
:1023D00084F8512000226265E687E6860168A687B8
:1023E000C4E910224A062563A68603D4026842F097
:1023F00040020260E268B2F5006F00F09D80002BA1
:1024000000F00281012E00F0FF80089B01334FF0A5
:10241000010527D05AE023689A6892070FD5E28E0B
:1024200092B262B15DB1226B12781A73E28E216BA7
:102430002368013A92B20131E286216300259A684D
:10244000D7070DD5E28F92B252B1A26BDB68137041
:10245000E38FA26B013B9BB20132E387A2630125AC
:10246000FEF7CCFDE38E9BB2002BD4D1E38F9BB261
:10247000002BD0D1904B914A1B686168A2FB0323CB
:102480005B0D4FF47A7202FB03F3B1F5827F019387
:1024900007D1CEE0019B2268013B019393681B06A4
:1024A00002D5019B002BF5D1A068002840F0BF8029
:1024B00023680090DA6800929B680093009B69E7AC
:1024C000022002B0BDE8F081012063E7E38E9BB2F9
:1024D00023B9E38F9BB2002B00F0B08023689A6889
:1024E00096070FD5E28E92B262B15DB1226B12787F
:1024F0001A73E28E216B2368013A92B20131E286AF
:10250000216300259A68D0070DD5E28F92B252B1AF
:10251000A26BDB681370E38FA26B013B9BB20132AD
:10252000E387A2630125FEF769FD089BA0EB080085
:102530008342CBD803202DE7002B6FD0012E6DD026
:10254000089B01334FF0010524D02CE023689A68E2
:1025500097070DD5E28E92B252B14DB1216B31F891
:10256000022BDA60E28E2163013A92B2E286002504
:102570009A68D6070CD5E28F92B24AB1A26BDB689B
:1025800022F8023BE38FA263013B9BB2E387012564
:10259000FEF734FDE38E9BB2002BD7D1E38F9BB2C5
:1025A000002BD3D166E7E38E9BB21BB9E38F9BB2BE
:1025B000002B43D023689A6890070DD5E28E92B223
:1025C00052B14DB1216B31F8022BDA60E28E2163FA
:1025D000013A92B2E28600259A68D1070CD5E28FC3
:1025E00092B24AB1A26BDB6822F8023BE38FA2638E
:1025F000013B9BB2E3870125FEF700FD089BA0EBA2
:1026000008008342CFD895E72B780373E38E226BC3
:10261000013B9BB20132E3862263F6E635F8023BCA
:10262000C360E38E2563013B9BB2E38688E700200D
:10263000B0E6226893681906FCD435E71E4B1F4AA2
:102640001B686168A2FB03235B0D4FF47A7202FBE7
:1026500003F3B1F5827F01937FF423AF089B06E07B
:10266000FEF7CCFC089BA0EB0800834206D901339F
:102670002268DFD093681A06F2D415E7D4E9003156
:102680005A68B1F5827F22F0E0025A6018D0A26A3F
:10269000B2F5005F07D11A6822F400521A601A6876
:1026A00042F400521A60012084F85100636D202228
:1026B0001343636562656DE624000020819F5E160A
:1026C000A268B2F5004F02D0B2F5806FDFD11A6870
:1026D00022F040021A60DAE700285CD0F8B590F8E2
:1026E0003D30044603F0FF02BBB322683A4EA569B1
:1026F000E0686168022384F83D30B24213684CD030
:10270000B2F1804F58D0A6F57C46B2422AD006F5E9
:102710008066B24226D006F58066B24222D006F527
:102720007846B2421ED006F57056B24213D006F576
:102730008066B2420FD006F58066B2420BD0A6F595
:102740009836B24207D006F58066B24203D006F54D
:102750008066B24238D1266933E080F83C2004F02C
:1027600015FFC2E7A6681D4F23F0700333432669A7
:1027700023F44073334323F080032B43BA421360A6
:10278000D062916201D16369136301235361002018
:1027900084F83D30F8BD01207047A768266923F012
:1027A00070033B4323F44073334323F080032B43F4
:1027B0001360D0629162E6E7A768266923F0700390
:1027C0003B4323F44073334323F080032B431360D4
:1027D000D0629162D9E700BF0000014000040140CF
:1027E0000368DA6842F00102DA609A6802F00702D0
:1027F000062A03D01A6842F001021A6000207047CE
:1028000000285CD0F8B590F83D30044603F0FF0294
:10281000BBB322683A4EA569E0686168022384F878
:102820003D30B24213684CD0B2F1804F58D0A6F57B
:102830007C46B2422AD006F58066B24226D006F522
:102840008066B24222D006F57846B2421ED006F526
:102850007056B24213D006F58066B2420FD006F52C
:102860008066B2420BD0A6F59836B24207D006F584
:102870008066B24203D006F58066B24238D126693E
:1028800033E080F83C2004F031FEC2E7A6681D4F1B
:1028900023F070033343266923F44073334323F05A
:1028A00080032B43BA421360D062916201D1636905
:1028B000136301235361002084F83D30F8BD0120EB
:1028C0007047A768266923F070033B4323F44073E5
:1028D000334323F080032B431360D0629162E6E719
:1028E000A768266923F070033B4323F44073334306
:1028F00023F080032B431360D0629162D9E700BFBD
:10290000000001400004014003680122186A01F040
:102910001F0102FA01F120EA010010B418621A6ADC
:102920000C4C1143A34219620FD00B4A93420CD0B6
:102930009A6802F00702062A03D01A6842F00102E0
:102940001A6000205DF8044B70475A6C42F4004254
:102950005A64EDE7000001400004014090F83C306B
:10296000012B00F0CC80F0B40223012480F83C401D
:1029700080F83D300C2A35D8DFE802F007343434D3
:102980006A343434963434343D000368D1F808C0D6
:102990001D6A0F68744E25F001051D621A6A5D6894
:1029A0009C6922F0020224F07304B34242EA0C0252
:1029B00044EA070400F0BB8006F58066B34200F0ED
:1029C000B6804E685D609C615E631A629C690D69A9
:1029D00044F008049C61996921F0040199619A69A5
:1029E0002A439A610023012280F83D2080F83C3080
:1029F000F0BC184670470368D1F808C01D6A0F681C
:102A0000594E25F480551D621A6A5D68DC6922F40E
:102A1000005224F4E644B34242EA0C3244EA07246A
:102A20006FD006F58066B3426BD04E685D60DC61A6
:102A30001E641A62DC690D6944F40064DC61D969C2
:102A400021F48061D961DA6942EA0522DA61C9E7D5
:102A500003688F681D6A0E68DFF80CC125F0100549
:102A60001D621A6A5D689C6922F0200224F4E64423
:102A7000634542EA071244EA062465D03B4FBB4255
:102A800062D04E685D609C619E631A629C690D69AC
:102A900044F400649C61996921F4806199619A69A8
:102AA00042EA05229A619DE703688F681D6A0E68F5
:102AB000DFF8B4C025F480751D621A6A5D68DC69B0
:102AC00022F4007224F07304634542EA072244EAC8
:102AD00006041CD0254FBB4219D04E685D60DC61F6
:102AE000DE631A62DC690D6944F00804DC61D969AF
:102AF00021F00401D961DA692A43DA6172E7022020
:102B000070474E6925F4804545EA86158DE7CE6805
:102B100022F4006242EA0622D1E9056725F4405C0E
:102B200046EA070522F480624CEA0515D5E7CE682F
:102B300022F008023243D1E9056725F440753E438F
:102B400022F0040235433CE7CE6822F0800242EADC
:102B50000612D1E9056725F4406C46EA070522F024
:102B600040024CEA85058CE700000140000401406A
:102B7000704700BF704700BF704700BF704700BF7D
:102B800003681A69910710B5044602D5DA689207FE
:102B90005FD41A69500702D5DA68510746D41A691A
:102BA000120702D5DA6810072ED41A69D20602D5A8
:102BB000DA68D00618D41A69D10702D5DA68D207C4
:102BC0005DD41A69100602D5DA6811065FD41A6955
:102BD000520602D5DA68500661D41A69910602D508
:102BE000DA68920643D410BD6FF010021A61DB69F7
:102BF000082213F4407F2277204664D0FFF7BAFF03
:102C0000002223682277D6E76FF008021A61DB6999
:102C1000042299072277204652D1FFF7A9FF2046C8
:102C2000FFF7AAFF002223682277BEE76FF00402B5
:102C30001A619B69022213F4407F227720463CD11F
:102C4000FFF796FF2046FFF797FF002223682277C1
:102C5000A5E76FF002021A619B6901229B070277C8
:102C600025D0FFF787FF00222368227791E76FF0D6
:102C7000200220461A61BDE8104000F09BB86FF0BA
:102C800001021A61204603F0C5FB236899E76FF043
:102C900080021A61204600F08FF8236897E76FF0F2
:102CA00040021A612046FFF769FF236895E7FFF7A6
:102CB0005FFF2046FFF760FFD5E7FFF75BFFC4E744
:102CC000FFF758FFAEE7FFF753FF2046FFF754FF2B
:102CD00096E700BF90F83C30012B3AD003680222FF
:102CE00070B480F83D205A680E681B4D9C6822F035
:102CF00070023243AB424FF0010680F83C605A60EC
:102D000019D0B3F1804F16D0144A934213D002F574
:102D1000806293420FD002F5806293420BD002F59D
:102D20007842934207D002F57052934203D0A2F545
:102D30009432934204D14A6824F0800414439C6086
:102D40000023012280F83D2080F83C3070BC1846FA
:102D500070470220704700BF00000140000400409F
:102D600090F83C30012B21D030B4D1E90253D1E9A5
:102D7000002423F440732B4323F48063234323F480
:102D80000063D1E90454134323F480532B4323F409
:102D90000053C9690268234323F480430B43002195
:102DA000536430BC80F83C10084670470223184634
:102DB000704700BF704700BF704700BF002800F099
:102DC000938090F8393070B503F0FF020446002B71
:102DD00000F0858023682669242284F83920D86889
:102DE00020F40050D4E90225D8601969E06921F483
:102DF000405129431961D9686569324321F416416C
:102E00002A4321F00C0102430A43DA605A69A1699E
:102E100022F440720A43B0F5004F5A61364A34D06A
:102E2000934263D002F5806293425FD0FFF736FA97
:102E30006368324D1922A0FB02019A009B0FFDF737
:102E400013FFA5FB00214909642202FB11021201B4
:102E500032322368A5FB0202090101EB52129A608B
:102E60001A6922F490421A615A6922F02A025A61C0
:102E7000DA680025202142F40052DA602846E56332
:102E800084F8391084F83A1070BD934231D002F5BD
:102E9000806293422DD0FFF701FA626800269218F3
:102EA0004FF0190146EB0603A0FB0101FDF7DCFE24
:102EB000124E2368A6FB00214D09642202FB150275
:102EC000D2003232A6FB0212520902F00701520070
:102ED00001EB051102F4F8720A449A60C0E780F829
:102EE000382004F0E5FB75E701207047FFF7E6F9AD
:102EF0009EE7FFF7E3F9D0E7001001401F85EB5193
:102F00002DE9F0410E4690F83910202982B032D1D7
:102F1000002E34D00192002A31D01F4690F838306C
:102F2000012B044627D04FF0000801212123C0F8CF
:102F30003C8080F8381080F83930FEF75FF8019A4D
:102F4000A284E284226884F838800546E38C9BB230
:102F5000002B3BD0E08CA168013880B2B1F5805FD6
:102F6000E0841BD0781C3BD110680106FCD5337877
:102F700053600136EAE7022002B0BDE8F08101208B
:102F800002B0BDE8F08113681B060CD4002F31D0CD
:102F9000FEF734F8401B874222682BD3781CF2D10D
:102FA00010680106FCD533882169C3F30803536018
:102FB0000029DED10236C9E713685B060BD4CFB116
:102FC000FEF71CF8401B8742226813D3781CF3D10C
:102FD00013685906FCD5202384F839300020CBE74C
:102FE00013681B06C3D42FB1FEF708F8401B8742B5
:102FF0002268B7D2D36823F4D073D36053692021F9
:1030000023F0010300250320536184F8391084F86C
:10301000385084F83A1002B0BDE8F08190F83A30A8
:10302000202B20D109B302B390F83830012B1AD0ED
:1030300030B400230468C2852225C36380F83A5067
:10304000E568828545F48075816280F83830E560F6
:10305000626942F001026261E26842F020021846B1
:10306000E26030BC7047022070470120704700BF0B
:10307000704700BF10B584680169836A0268B4F5BF
:10308000805F20D05C1C52688462C9B91A70C38DFD
:10309000013B9BB2C3858BB90268D16821F0200146
:1030A000D160D16821F48071D1605169202421F070
:1030B0000101516180F83A4001F0BCFE002010BDD2
:1030C00002F07F02E2E7526829B9C2F3080223F84E
:1030D000022B8362DBE7D2B223F8012B8362D6E7AF
:1030E000704700BF03681A6870B51607DD68596934
:1030F000044646D011F001014CD0D00705D5EE05AD
:1031000003D5E06B40F00100E063500774D529B1AE
:10311000E06B960740F00200E06371D4160703D518
:10312000A80672D4002970D1E16B002931D096062F
:1031300001D5A80672D45D69E16B090702D415F0C8
:10314000400578D0DA6822F49072DA605A6920215A
:1031500022F001025A6184F83A105A69520659D590
:103160005A69606B22F040025A61002852D03A4BF3
:103170000365FEF7C5FB60B1606BBDE87040036D91
:103180001847910609D5AE0607D590F83A30222B9C
:103190004DD070BD15F4907FAFD116060ED45106F8
:1031A000F7D56A06F5D5DA68202122F04002DA6008
:1031B000204684F83910FFF75BFF70BD2806EED576
:1031C00094F83920212AE4D1A168226AB1F5805F00
:1031D00036D0511C216212785A60E28C013A92B2C8
:1031E000E284002AD5D1DA6822F08002DA60DA6857
:1031F00042F04002DA6070BD90078FD500298DD073
:10320000E06B40F00400E06388E7E16B41F0080107
:10321000E16389E72046FFF763FF70BD94F83A2029
:10322000222A88D12046FFF725FF236883E7BDE8DF
:103230007040FFF71FBF2046FFF752FFE56370BDE8
:1032400011882069C1F30801596010B90232226265
:10325000C3E701322262C0E75D32000808B5836B24
:103260000022DA851846DA84FFF73AFF08BD00BF6E
:103270002DE9F0474A4E4B4C4B4D4C4F82B04FF02E
:1032800037088146002230464021FEF749FD4FF0C5
:10329000320C21462A463846CDF80080012384F8B6
:1032A00000C0FFF75BF801232A462146CDF80080D5
:1032B000384684F80090FFF751F83046012240214B
:1032C000FEF72EFD0A20FDF79FFE3046002240212A
:1032D000FEF726FD4FF034092A462146CDF800803E
:1032E0003846012384F80090FFF738F84FF0800C3F
:1032F00001232A462146CDF80080384684F800C0D4
:10330000FFF72CF8304601224021FEF709FD0A2084
:10331000FDF77AFE304600224021FEF701FD4FF016
:10332000B50C2A462146CDF800803846012384F8A2
:1033300000C0FFF713F801232A462146CDF800808C
:103340003846FFF70BF8304601224021FEF7E8FC33
:1033500030460022402195F800A0FEF7E1FC2A4605
:103360002146CDF800803846012384F80090FEF70E
:10337000F5FF01232A462146CDF800803846002576
:103380002570FEF7EBFF304601224021FEF7C8FC16
:103390000A20FDF739FE504602B0BDE8F08700BFB5
:1033A000001402404D0200204C020020B006002014
:1033B0002DE9F04F4A4C4B4F4B4E83B04FF037083E
:1033C00083460D46494800224021FEF7A9FC4FF0F4
:1033D0002A0A21463A463046CDF8008001234FF0B4
:1033E000000984F800A0FEF7B9FF01233A46214600
:1033F000CDF80080304684F80090FEF7AFFF012240
:1034000040213A48FEF78CFC0220FDF7FDFD4A46BC
:1034100036484021FEF784FC4FF0290C3A462146FD
:10342000CDF800803046012384F800C0FEF796FFF7
:1034300001233A462146CDF80080304684F800B09A
:10344000FEF78CFF012240212848FEF769FC02208C
:10345000FDF7DAFD4A4625484021FEF761FC4FF0B2
:10346000640C3A462146CDF800803046012384F8AA
:1034700000C0FEF773FF01233A462146CDF80080D5
:1034800030462570FEF76AFF012240211748FEF7FB
:1034900047FC0220FDF7B8FD4A4614484021FEF7DC
:1034A0003FFC3A462146CDF800803046012384F89F
:1034B00000A0FEF753FF3A4621460123CDF80080D5
:1034C000304681262670FEF749FF08480122402138
:1034D000FEF726FC0A2003B0BDE8F04FFDF794BDCF
:1034E0004D0200204C020020B006002000140240D3
:1034F0002DE9F04FC94CCA4DCA4883B03726002287
:103500004021FEF70DFC6A2721462A46012300963A
:10351000C5482770FEF722FF302701232A4621469F
:103520000096C1482770FEF719FF01224021BD48CF
:10353000FEF7F6FB0A20FDF767FD00224021B9489F
:10354000FEF7EEFB4FF024072A46214601230096A2
:10355000B5482770FEF702FF0D2701232A462146B2
:103560000096B1482770FEF7F9FE01224021AD48D0
:10357000FEF7D6FB0A20FDF747FD00224021A948AF
:10358000FEF7CEFB4FF028072A462146012300967E
:10359000A5482770FEF7E2FE4FF00E0701232A46EA
:1035A00021460096A0482770FEF7D8FE0122402150
:1035B0009C48FEF7B5FB0A20FDF726FD00224021BE
:1035C0009848FEF7ADFB31272A4621460123009695
:1035D00095482770FEF7C2FE6FF0710701232A4657
:1035E0002146009690482770FEF7B8FE0122402140
:1035F0008C48FEF795FB0A20FDF706FD00224021CE
:103600008848FEF78DFB4FF02A0A2A4621460123FF
:103610000096854884F800A04FF00008FEF79EFE53
:1036200001232A46214600967F4884F80080FEF751
:1036300095FE012240217B48FEF772FB0220FDF738
:10364000E3FC424640217748FEF76AFB4FF029072A
:103650002A4621460123009673482770FEF77EFE16
:103660004FF00B0701232A46214600966E4827702B
:10367000FEF774FE012240216A48FEF751FB02204A
:10368000FDF7C2FC424640216648FEF749FB4FF079
:1036900064072A4621460123009663482770FEF7F7
:1036A0005DFE4FF0010701232A46214600965E4841
:1036B0002770FEF753FE012240215A48FEF730FBE7
:1036C0000220FDF7A1FC424640215648FEF728FBA8
:1036D00001232A4621460096534884F800A06FF043
:1036E0007E07FEF73BFE01232A46214600964E4800
:1036F0002770FEF733FE012240214A48FEF710FBF7
:103700000A20FDF781FC0A20FDF77EFC424640219D
:103710004448FEF705FB4FF0320701232A462146B5
:10372000009641482770FEF719FE01232A462146DC
:1037300000963D4884F80080FEF710FE01224021EB
:103740003848FEF7EDFA0A20FDF75EFC42464021BC
:103750003448FEF7E5FA4FF0340901232A462146A2
:103760000096314884F800906FF07F07FEF7F6FD71
:1037700001232A46214600962B482770FEF7EEFDCE
:10378000012240212748FEF7CBFA0A20FDF73CFC36
:10379000424640212348FEF7C3FA6FF04A0701234F
:1037A0002A462146009620482770FEF7D7FD0123C0
:1037B0002A46214600961C48FEF7D0FD01224021F2
:1037C0001848FEF7ADFA42464021164895F800B079
:1037D000FEF7A6FA01232A4621460096124884F8ED
:1037E0000090FEF7BBFD01232A46214600960E48B5
:1037F00084F80080FEF7B2FD012240210948FEF75F
:103800008FFA0A20FDF700FCBBF1100F0ED04FF02D
:103810000108404603B0BDE8F08F00BF4D02002014
:103820004C02002000140240B00600204246402115
:10383000D448FEF775FA01232A4621460096D2485D
:1038400084F800A0FEF78AFD01232A46214600964F
:10385000CD4884F80080FEF781FD01224021C9484F
:10386000FEF75EFA0220FDF7CFFB42464021C54835
:10387000FEF756FA4FF0290701232A462146009603
:10388000C1482770FEF76AFD4FF00B0C01232A4652
:1038900021460096BC4884F800C0FEF75FFD012277
:1038A0004021B848FEF73CFA0220FDF7ADFB424646
:1038B0004021B448FEF734FA4FF0640C01232A4645
:1038C00021460096B04884F800C0FEF747FD4FF04F
:1038D000010C01232A4621460096AB4884F800C01B
:1038E000FEF73CFD01224021A648FEF719FA02200E
:1038F000FDF78AFB42464021A248FEF711FA012358
:103900002A4621460096A04884F800A06FF07E0B5E
:10391000FEF724FD01232A46214600969A4884F8A2
:1039200000B0FEF71BFD012240219648FEF7F8F992
:103930000A20FDF769FB0A20FDF766FB424640219D
:103940009048FEF7EDF901232A46214600968E485D
:1039500084F800A0FEF702FD01232A4621460096C6
:10396000894884F80080FEF7F9FC0122402185484F
:10397000FEF7D6F90220FDF747FB42464021814879
:10398000FEF7CEF901232A46214600967E4827708D
:103990004FF00A0BFEF7E2FC01232A46214600966F
:1039A000794884F800B0FEF7D9FC0122402175481F
:1039B000FEF7B6F90220FDF727FB42464021714889
:1039C000FEF7AEF94FF0640E01232A462146009619
:1039D0006D4884F800E0FEF7C1FC01232A46214629
:1039E0000096694884F80080FEF7B8FC0122402167
:1039F0006448FEF795F90220FDF706FB4246402198
:103A00006048FEF78DF901232A46214600965E485C
:103A100084F800A0FEF7A2FC6FF07E0C01232A467A
:103A200021460096584884F800C0FEF797FC012212
:103A300040215448FEF774F95846FDF7E5FA42462E
:103A400040215048FEF76CF94FF0320701232A4617
:103A5000214600964C482770FEF780FC01232A4639
:103A600021460096484884F800B0FEF777FC012212
:103A700040214448FEF754F95846FDF7C5FA42463E
:103A800040214048FEF74CF901232A462146009682
:103A90003D4884F800906FF07F07FEF75FFC01233C
:103AA0002A462146009638482770FEF757FC012227
:103AB00040213448FEF734F95846FDF7A5FA42464E
:103AC00040213048FEF72CF96FF04A0701232A46BF
:103AD000214600962C482770FEF740FC01232A4619
:103AE000214600962848FEF739FC0122402125484E
:103AF000FEF716F92B782348424640211F46FEF771
:103B00000FF901232A46214600961F4884F80090A9
:103B1000FEF724FC01232A46214600961A4884F821
:103B20000080FEF71BFC174801224021FEF7F8F841
:103B30005846FDF769FA002F40F09E805846FDF781
:103B400063FA3A4640210F48FEF7EAF801232A4675
:103B5000214600960C4884F800A0FEF7FFFB0123E5
:103B60002A462146009608482770FEF7F7FB0122F7
:103B700040210448FEF7D4F80220FDF745FA3A4602
:103B8000402103E000140240B00600204648FEF742
:103B9000C7F84FF0290C01232A46214600964348D6
:103BA00084F800C04FF00B08FEF7D8FB01232A462B
:103BB000214600963D4884F80080FEF7CFFB0122A5
:103BC00040213948FEF7ACF80220FDF71DFA3A46CD
:103BD00040213548FEF7A4F84FF0640E01232A4631
:103BE00021460096314884F800E0FEF7B7FB012338
:103BF0002A46214600962D482770FEF7AFFB01228A
:103C000040212948FEF78CF80220FDF7FDF93A46DD
:103C100040212548FEF784F801232A4621460096D4
:103C2000224884F800A0FEF799FB6FF07E0C012378
:103C30002A46214600961D4884F800C0FEF78EFBF8
:103C4000012240211848FEF76BF85846FDF7DCF9D1
:103C50000B20FFF70DFB8046A0B95846FDF7D4F9BD
:103C600024214120FFF7A4FB4120FFF701FB24287A
:103C70000BD04FF00408CCE54FF00208404603B0EB
:103C8000BDE8F08F4FF00308C3E55846FDF7BCF9D7
:103C9000C0214220FFF78CFB4220FFF7E9FAC02841
:103CA00006D04FF00508B4E500140240B00600202D
:103CB0005846FDF7A9F942464021B348FEF730F8CF
:103CC0002A46214600960123B04884F800A0FEF75A
:103CD00045FB01232A4621460096AC4884F8008023
:103CE000FEF73CFB01224021A748FEF719F8584691
:103CF000FDF78AF942464021A348FEF711F82A460B
:103D0000214600960123A14884F80090FEF726FB87
:103D100001232A46214600969C4884F80080FEF73D
:103D20001DFB012240219848FDF7FAFF5846FDF798
:103D30006BF9424640219448FDF7F2FF4FF0280707
:103D40002A4621460096012390482770FEF706FB7D
:103D50004FF00E0701232A46214600968B48277014
:103D6000FEF7FCFA012240218748FDF7D9FF022027
:103D7000FDF74AF9424640218348FDF7D1FF4FF055
:103D800029072A4621460096012380482770FEF71E
:103D9000E5FA01232A46214600967C4884F800B0C3
:103DA000FEF7DCFA012240217748FDF7B9FF022037
:103DB000FDF72AF9424640217348FDF7B1FF4FF065
:103DC00064072A4621460096012370482770FEF7B3
:103DD000C5FA4FF0010701232A46214600966B4899
:103DE0002770FEF7BBFA012240216748FDF798FFD4
:103DF0000220FDF709F9424640216348FDF790FF94
:103E00004FF0250C2A462146009601235F4884F88E
:103E100000C06FF07107FEF7A1FA01232A46214680
:103E200000965A482770FEF799FA01224021564819
:103E3000FDF776FF0220FDF7E7F8424640215248A1
:103E4000FDF76EFF4FF0260C2A462146009601230F
:103E50004E4884F800C04FF0030BFEF77FFA0123B1
:103E60002A4621460096494884F800B0FEF776FAC3
:103E7000012240214448FDF753FF0220FDF7C4F81A
:103E8000424640214048FDF74BFF2A462146009616
:103E900001233E4884F80090FEF760FA01232A4689
:103EA00021460096394884F800B0FEF757FA0122FF
:103EB00040213548FDF734FF0220FDF7A5F84246C2
:103EC00040213148FDF72CFF4FF0670C2A46214670
:103ED000009601232D4884F800C0FEF73FFA012325
:103EE0002A4621460096294884F800B0FEF736FAA3
:103EF000012240212448FDF713FF0220FDF784F83A
:103F0000424640212048FDF70BFF2A4621460096F5
:103F100001231E4884F800A06FF07E07FEF71EFA0A
:103F200001232A462146009618482770FEF716FA04
:103F3000012240211448FDF7F3FE0620FDF764F846
:103F4000424640211048FDF7EBFE2A4621460096E6
:103F5000272501230D482570FEF700FA8625012349
:103F6000214600960A4A09482570FEF7F7F9012212
:103F700040210548FDF7D4FE0220FDF745F86420F6
:103F8000FDF742F845E400BF00140240B0060020EF
:103F90004C0200202DE9F04F5B4EDFF88CA15B4F07
:103FA000DFF88881DFF888B1594D5A4C83B030462C
:103FB00000224021FDF7B4FE4FF03709BB235146E4
:103FC0005A468AF8003088F800303846CDF800901C
:103FD0000123FEF7C3F941462A460E23CDF800908F
:103FE0003846FEF7BBF9304601224021FDF798FE26
:103FF000287A697A95F80CC06B7B95F80AE0EA7A22
:1040000041EA0021608B43EA0C23091A95F800C0AD
:104010006878E18140EA0C20E97895F802C02080B8
:1040200041EA0C21687995F804C0618040EA0C20CF
:10403000E97995F806C0A58BA08042EA0E22E08BB4
:1040400041EA0C21551B1B1AA18130462582002212
:10405000314D63824021FDF763FE4FF0C90C5A4693
:104060005146CDF80090384601238AF800C088F800
:1040700000C0FEF773F941462A460623CDF80090AA
:104080003846FEF76BF9304601224021FDF748FE25
:10409000B4F90C302A68C4F8062005EE103AB4F9D9
:1040A0000E3061682068DFED1D4ADFED1D5A07EE16
:1040B000103AB4F9103006EE903AB4F9123007EE27
:1040C000903AAB886381174BA268B8EEC55A1C467C
:1040D000B3EE056A07C4A5EE246AB8EEC77AF8EE17
:1040E000E66AF8EEE77A27EE257A66EEA56A67EECD
:1040F000A57AC3ED056A83ED036A83ED047AC3ED07
:10410000067A03B0BDE8F08F00140240B00600202C
:104110000C030020EC020020DC020020BF4A443BDC
:10412000B59D8B3A180200204D02002008000020A7
:104130004C0200202DE9F04F85B04FF4FA764B4D3C
:104140004B4CDFF844814B4F039600224021404600
:10415000FDF7E6FD484E4949494A4FF0BB0C4FF088
:104160003709CDF80090012381F800C086F800C01F
:104170003846FEF7F3F80E23CDF800903B4A31465F
:104180003846FEF7EBF8012240214046FDF7C8FD16
:1041900095F802A02B7A95F803C0697A95F80090FB
:1041A00095F801E02A79687995F80AB04CEA0A2C6A
:1041B00041EA032195F80CA06B7B4EEA092E43EAF5
:1041C0000A23B4F81490B4F816A0CE44D444B4F83A
:1041D0001890B4F81AA0A4F814E040EA0220EA7A91
:1041E000B4F81CE0A4F816C0B4F81EC0484442EA73
:1041F0000B2263442083514472440520E38361838E
:10420000A283FCF701FF039B013B03939DD1B4F90B
:104210001470B4F91650B4F91800B4F91A10B4F9BE
:104220001E201E46174BA68383FB076CFE17C6EBAA
:104230006C16A68283FB0576ED17C5EB6615E58245
:1042400083FB0065C017C0EB651083FB016583FB32
:104250000263C917D217C1EB6511C2EB6313208348
:104260006183E38305B0BDE8F08F00BF0C0300203D
:10427000EC020020B0060020080000204D020020C3
:104280004C020020D34D6210001402402DE9F04F83
:10429000DFF868A1524E534F8BB06420FCF7B4FE98
:1042A000002240215046FDF73BFD3724F5203146E2
:1042B0003A460094012330704B48FEF74FF84A48C5
:1042C000009401233A4631468146FEF747F8012221
:1042D00040215046FDF724FD444B397819700023E6
:1042E0000693434A09936C234248059242498DF84C
:1042F00018306A222023B046CDF81A00CDF81E10DF
:104300008DF822208DF8233005AC237894F801B085
:104310000393002240215046FDF702FD039B372501
:1043200003F07F0C3A46012341460095484686F843
:1043300000C0FEF713F801233A464146009548466F
:1043400086F800B0FEF70AF8012240215046FDF73A
:10435000E7FC0120FCF758FE02340AABA342D4D19B
:10436000002240212548FDF7DBFC1B24009501239A
:104370001C4A1B491C483470FDF7F0FF1824012328
:104380000095184A164918483470FDF7E7FF0122D6
:1043900040211A48FDF7C4FC002240211748FDF7D0
:1043A000BFFC1C24009501230E4A0D490E483470B1
:1043B000FDF7D4FF1024012300950A4A08490A4852
:1043C0003470FDF7CBFF012240210C48FDF7A8FC1B
:1043D000FFF78EF8FFF7AEFE00200BB0BDE8F08FC0
:1043E0004D0200204C020020B0060020E202002016
:1043F0006B806B031A041B181C101D020014024072
:1044000038B50D4B0D4A1A6007225A6000224FF44E
:1044100080354FF40014012118469A61C3E9045411
:104420005977C3E902221A77FCF700FE00B938BDBC
:10443000BDE8384002F0E8B84C03002000640040BA
:1044400038B50D4B0D4A1A6007225A6000224FF40E
:1044500080354FF40014012118469A61C3E90454D1
:104460005977C3E902221A77FCF7E0FD00B938BD9D
:10447000BDE8384002F0C8B82403002000680040BE
:1044800070B5026848498AB000238A42CDE90533F5
:10449000CDE90733099340D044498A4201D00AB09C
:1044A00070BD434A0293116C424C41F0806111642B
:1044B000106C216800F0806001310290012902989F
:1044C000216065D000243A4B04941A6B3A4842F0BC
:1044D00002021A631B6B03F0020304934FF4405370
:1044E00005A90322059302250923CDE90823049E8B
:1044F0000695FDF7EDFA224621464020FDF708F922
:104500004020FDF73BF9224621464120FDF700F906
:104510004120FDF733F90AB070BD26490A6801321F
:10452000012A0A6028D00024214B01941A6B2348E9
:1045300042F008021A631B6B03F00803019305A9FC
:10454000032309220225059308930992019E0695EB
:10455000FDF7BEFA224621461420FDF7D9F81420B3
:10456000FDF70CF9224621461520FDF7D1F815205C
:10457000FDF704F90AB070BD0D4A0093136C43F0C7
:1045800000731364136C03F000730093009BCAE77D
:104590000393136C43F000731364136C03F0007304
:1045A0000393039B8EE700BF006400400068004057
:1045B000003802405002002000040240000C02407B
:1045C00010B58AB00024012369460A480494CDE955
:1045D0000733CDE90544CDE90044CDE9024409940F
:1045E000FCF7A6FD6946044809940594FCF7A0FD74
:1045F0000AB010BD4C0300202403002000B583B096
:1046000000220A4B0192196B41F4800119631B6B64
:1046100003F48003019311463920019BFDF778F8DC
:10462000392003B05DF804EBFDF7A8B8003802406C
:104630002DE9F04F00248FB0CDE90944CDE90B44BA
:10464000614B01940D941A6BDFF88CB1DFF88CA1EB
:10465000DFF88C91DFF88C815C4F5D4E42F01002E8
:104660001A631A6B02F010020192019A02941A6BFB
:1046700042F040021A631A6B02F040020292029A60
:1046800003941A6B42F001021A631A6B02F00102E2
:104690000392039A04941A6B42F002021A631A6B93
:1046A00002F002020492049A05941A6B42F0080286
:1046B0001A631A6B02F008020592059A06941A6BA7
:1046C00042F480721A631A6B02F480720692069AA0
:1046D00007941A6B42F080021A631A6B02F0800290
:1046E0000792079A08941A6B42F020021A631B6B18
:1046F00003F020030893224658460121089BFDF74A
:104700000FFB224650463C21FDF70AFB2246484655
:104710004FF4FF71FDF704FB2246404644F240018E
:10472000FDF7FEFA224638464FF48051FDF7F8FABD
:10473000224630464FF40061FDF7F2FA0125584653
:1047400009A9CDE90B44CDE90955FDF7C1F950465A
:1047500009A93C230993CDE90A540C94FDF7B8F953
:10476000484609A94FF4FF730993CDE90A540C9404
:10477000FDF7AEF9404609A944F240030993CDE99B
:104780000A540C94FDF7A4F909A9042311480993CC
:10479000CDE90A44FDF79CF9384609A94FF4805346
:1047A0000993CDE90A540C94FDF792F94FF4006394
:1047B00009A93046CDE90A540C940993FDF788F90C
:1047C0000FB0BDE8F08F00BF00380240000C02407F
:1047D000001002400004024000200240001C024081
:1047E00000180240001402402DE9F047DFF804C42D
:1047F000DFF804E4C368D0F81090DFF80084F14ECD
:10480000F14F026845694468D0F818A02DED108B6F
:10481000CCF80030CEF80090DFF8E4938368C8F855
:1048200000503260056A3C60E84AC9F80030C4694B
:10483000E74BE848C2F800A01C60E74A0560E74B78
:10484000E74CE84D92ED00AADCED009A93ED005A9A
:10485000DEED00AAD4ED001A98ED002A95ED000ACD
:10486000DCED000AD3ED005AD8ED006AD4ED002A41
:104870009EED003A95ED001ADEED004AD2ED003AC9
:1048800098ED004A94ED006ADCED007A95ED007A2F
:1048900025EE2A5A65EEA65A26EE276AD8ED007A4A
:1048A000D2ED006ADEED00AA66EEAA6AA1EE246AE5
:1048B00084B08846E7EE276AAAEE295AE0EE205A2D
:1048C000D3ED004ADCED007A96ED007AE4EEE76A7B
:1048D000A1EE825AE2EEC35AA3EEC46AB5EE407A64
:1048E000F6EE007AF1EE10FA25EE675A65EEA75A59
:1048F00026EE276A66EEA76A07D1D7ED007AF5EEB5
:10490000407AF1EE10FA00F0138296ED003AD6EDFF
:10491000003AD7ED007AD7ED002A99ED004A99EDDB
:10492000007AB149D6ED004AB04867EEA27AF6EEB9
:10493000002AE3EE237AF7EE080AE4EE077AB0EEF7
:10494000604A17EE90CAA1EB6C0C27EEA27A07EE34
:1049500090CA27EEC77AF1EE003AA7EE274AF2EEA8
:1049600000CA64EE277A24EEA77A86ED007A97EDE6
:10497000007A27EE277A87ED007A99ED007A67EEC4
:10498000277AC9ED007AD5ED001A92ED001A93ED61
:10499000002A94ED004A95ED00BA92ED000AD3ED9D
:1049A000009AD2ED007AD3ED00AACDED007A95ED14
:1049B000008A95ED007A92ED009AD2ED007A93ED9F
:1049C00000AAD3ED008A94ED00FA94ED003A96ED3A
:1049D00000EAD7ED004A96ED00DAD2ED00BAD7ED45
:1049E00000EA71EEA11A6AEE288A28EE078A99ED8C
:1049F00000AA93ED007A8DED03AA29EE279AD6ED51
:104A0000007AD7ED00DA99ED00AA94ED00CAD6ED50
:104A100000FA27EE237A67EEA17A2CEE23CAE8EE9D
:104A2000077A94ED007A27EE237A31EE011A27EE09
:104A3000287A20EE230AA9EE0C7A69EEA39A2BEECF
:104A400023BA6BEEA33A61EE644AAFEEC17AB0EEE0
:104A5000401A98EE231A6AEEACAAF0EE413AEEEE56
:104A6000E13A39EE281A77EEE97A32EE022A2FEE91
:104A700003FAEBEE014AB0EE633AEAEE817AD7ED43
:104A8000003AD0ED001A34EE044AA3EEC27AEEEEFC
:104A9000024AEDEEC47A67EE073A24EE4DDA9DED58
:104AA000002A9DED034A3AEE0FAA34EE0F4A62EE59
:104AB0002CCAE9EE8A7AE4EEA43AA0EE043AACEE0F
:104AC00081DAE7EEA73A33EE0DDA90ED002A90EDA9
:104AD000003A90ED004AEDEE0D3A61EEA44A13EE75
:104AE000900AA1EB600163EEA22A03EE901A62EE37
:104AF000A32A22EE0DDAE3EEE20A63EE277A63EEF2
:104B0000E00A24EE077AA0EEA45AE0EE8D5AA0EE59
:104B1000A76AE0EE876A344995ED007ADFED347AD2
:104B2000A5EE277AB6EE005A85ED007A92ED007A6E
:104B3000A5EEA77AF0EE475AC2ED005AD3ED005A1F
:104B4000E6EE275A38EE496AC3ED005AD4ED005A12
:104B5000E6EEA75A76EE686AC4ED005AD5ED002A53
:104B600095ED003AD2ED007A92ED002AD3ED003AAD
:104B700093ED004AD4ED004A94ED006AD5ED005A59
:104B800067EE827A76EE8F6AE2EE837A16EE900A0C
:104B9000E3EE847AB7EE087AE4EE867A38EE098A94
:104BA00017EE906AA1EB660106EE901A27EE856A71
:104BB00078EE688A66EEC67AA7EEA67A67EE267A5F
:104BC00020E000BF54020020580200206C020020A8
:104BD0007002002074020020780200207C02002075
:104BE000800200201C000020DF59375F18000020E1
:104BF0006F12833A600200206402002068020020E5
:104C00005C02002025EEA77A85ED007A92ED007A0D
:104C100027EE277A82ED007A93ED007A27EE277A45
:104C200083ED007A94ED007A67EE277AC4ED007A7E
:104C3000D5ED00EA92ED00EA95ED00DAD3ED00CA79
:104C4000D5ED00BA94ED00BAD2ED009A93ED00CA0A
:104C500092ED00AAD4ED00DAD3ED00AAD4ED00FA6B
:104C6000FBF782FC6AEEAF7ACDE90001EEEE8E7AB8
:104C70002AEE2DAA17EE900AFBF776FC02460B46A9
:104C8000FBF714FB9DED001B41EC100B05F080FBC6
:104C90002DA3D3E9002351EC100BFBF7BDFCFBF770
:104CA00093FFADEE6CAA80F00040C8F800001AEE49
:104CB000100AFBF759FC02460B46FBF7F7FA41ECEA
:104CC000100B05F00DFB20A3D3E9002351EC100BD2
:104CD000FBF7A2FCFBF778FF69EE8C9A78EECF7AAF
:104CE000C8F80400EBEE8B9A17EE900AFBF73CFC39
:104CF000CDE9000119EE900AFBF736FC02460B469F
:104D0000FBF7D4FA9DED001B41EC100B05F040FBC6
:104D10000DA3D3E9002351EC100BFBF77DFCFBF74F
:104D200053FFC8F8080004B0BDEC108BBDE8F08755
:104D3000D9ED007AF5EE407AF1EE10FA7FF4E5ADA8
:104D4000E9E600BFAFF30080F8C1631ADCA54C4070
:104D5000BFF34F8F0549064BCA6802F4E062134364
:104D6000CB60BFF34F8F00BFFDE700BF00ED00E059
:104D70000400FA0500B583B002A9012301F8010D72
:104D80001A460348FEF7BCF803B05DF804FB00BF09
:104D9000A808002070B5002394B0CDE90A33CDE90E
:104DA0000C33CDE90433CDE9063320490193039355
:104DB000086C1F4A40F080500864096C01F0805173
:104DC000019101990293136843F4404313601368FF
:104DD00003F44043029301224FF480334FF48000E8
:104DE0000224062108920993A82204230F9008A800
:104DF000029D0E941294CDE910121393FCF79CFFC0
:104E000000B1FEE703460F264FF4A0554FF4805241
:104E100003A80521049405930396CDE90652FDF7F6
:104E20009FF900B1FEE714B070BD00BF003802402A
:104E3000007000402DE9F84F0546B2482B68026823
:104E400093425DD0B04A12689A4206D00722AF4919
:104E5000AD48BDE8F84FFEF7E1B8AC4B1978FD2935
:104E600000F013815A78FD2A00F01E819A78FD2AFD
:104E700000F01D81DA78FD2A00F013811A79FD2AED
:104E800000F018815A79FD2A00F03081A04C0622EA
:104E900021701146581810F8050C6070901C0528F8
:104EA000D5BF98185818C07810F8040CA070D01C02
:104EB0000528D5BF98185818007910F8030CE07031
:104EC000101D0528D5BF98185818407910F8020C05
:104ED0002071002A00F0BE800B448E4E13F8013C76
:104EE000327863719A4200F0BC808B498B48012371
:104EF0000B701A460421FCF713FF65793570A5E79E
:104F0000874C12222146FEF789F802218348FCF7DC
:104F10000BFF6779627C267CA07894F804C094F833
:104F200001B0E37894F800A094F806E094F80E80BD
:104F300046EA0226FA01810902F4F06241EA83019D
:104F40004FEA0B294FEA8C2342EA5C0294F807C02F
:104F500009F4E0694AEA090A4EEA0C2E94F809902D
:104F600094F808C0400103F4806300F4FC60194326
:104F700040EADB006B4B94F80BB04CEA092C94F838
:104F80000A90A0F5806049EA0B295880C6F5806632
:104F9000C7F3011036B29872A3F810900FFA88F098
:104FA00094F80C90A3F8149008F00108A1F5806122
:104FB000A2F58062C0F34009002E647B83F818805C
:104FC00009B2C0F3800812B2AAF5806A0FFA8EFE09
:104FD0000FFA8CFC4FEA97171E81D88283F81A903B
:104FE000B8BF7642C0F3C0099980DA80A3F800A068
:104FF000DF72A3F80CE05C82A3F80EC083F819807E
:10500000C0F3001883F81B9083F81E80C0F340198A
:10501000C0F38018B6F5257F4FEAD01083F81F90B3
:1050200083F81C8058776ADC0029B8BF4942B1F583
:10503000257F64DC002AB8BF5242B2F5257F5EDCD2
:10504000394B0022022F1A6018D0B8B9012C34D085
:105050002B68F7E62F4E9B79327863719A427FF482
:1050600044AF00252C4B2D481D702A460421FCF727
:1050700057FE2560257165713570E7E62B482C4990
:105080002B68002202600A60DCE6002211469818B4
:105090001F4C45782570551C052D3FF7FBAE8078D9
:1050A000FBE603210A46F2E701210A46EFE7022167
:1050B0000A46ECE704210A46E9E71D491B4A08684D
:1050C0001368844440F2DC50A3EB0E038445136064
:1050D00003DC18486045B8BF6046B3F5AF6F0860A1
:1050E00007DD4FF4AF612B681160ABE605210A467E
:1050F000CDE711498B422B68B8BF1160A2E6FFF7DC
:1051000027FE00BFE8080020680900204C050020A9
:1051100034060020E0050020F205002000180240BF
:10512000F405002074030020F8030020F40300209D
:105130008C04002024FAFFFF88FAFFFF0000000023
:10514000394AF8B5126803689342044635D0374AA5
:1051500012689A4200D0F8BD354E364D32462B4685
:1051600020460021FCF7F0F833686FF40172134415
:10517000022B1FD830486A78297850F8234002EB78
:1051800001232380AB78E87800EB032000B2608035
:105190002A796B7903EB0223A380AB79E380FBF7D9
:1051A000D1F91FA3D3E90023FBF736FAFBF70CFD77
:1051B000A060F8BD00231B80FFDE1E4D1C4E2B4659
:1051C00032460021FCF7C0F83368AA78E8781B4E15
:1051D00095F804C095F800E069786FF400773B44D7
:1051E00003EB43039B0000EB02206A79AF79F518CB
:1051F00002EB0C2201EB0E2100B2F152AA80EF80EB
:105200006880FBF79FF906A3D3E90023FBF704FAB4
:10521000FBF7DAFC2368A86099E700BFAFF30080D2
:105220003BC890BF4B93763F240300204C030020E3
:10523000A40500204005002058C20008C00300203B
:105240002DE9F0479C4CB4F9040007EE900A2DEDCF
:10525000048BF8EEE77A86B017EE900AFBF784F934
:10526000964B0022FBF7D8F90246B4F9100007EE7E
:10527000900AF8EEE77A164617EE900A21F00047FA
:10528000FBF772F900228D4BFBF7C6F9024621F0BD
:10529000004330463946FBF709F80646B4F91C00CE
:1052A00007EE900AF8EEE77A0F4617EE900AFBF742
:1052B0005BF90022814BFBF7AFF9024621F0004376
:1052C00030463946FAF7F2FF0646B4F9280007EEF1
:1052D000900AF8EEE77A0F4617EE900AFBF744F9CA
:1052E0000022764BFBF798F9024621F00043304646
:1052F0003946FAF7DBFFFBF767FC714BDA7AB3F953
:105300000660B3F90450012A08EE900A00F0E88024
:1053100093F91820012A00F0E380B3F90840694AA4
:105320006949DFF8B0A1002384EAE47013800B80A0
:10533000A0EBE470FBF706F90022644BFAF7B6FF26
:1053400041EC100B05F026F820468DED000BFBF725
:10535000F9F855A3D3E90023FBF75EF99DED000BA7
:1053600053EC102BFBF758F9FBF72EFC80F00040B4
:10537000FBF7FAF84EA3D3E90023FBF74DF9FBF74F
:1053800023FCCAF81C0086EAE670A0EBE670FBF787
:10539000D9F800224D4BFAF789FF41EC100B04F0CD
:1053A000F9FF30468DED000BFBF7CCF83EA3D3E9B7
:1053B0000023FBF731F99DED000B53EC102BFBF7AD
:1053C0002BF9FBF701FCFBF7CFF80022404BFBF772
:1053D00023F9FBF7F9FBCAF8140085EAE570A0EBA6
:1053E000E570FBF7AFF80022384BFAF75FFF41ECAE
:1053F000100B04F0CFFF28468DED000BFBF7A2F851
:1054000029A3D3E90023FBF707F99DED000B53EC2B
:10541000102BFBF701F9FBF7D7FB80F00040FBF7FF
:10542000A3F800222A4BFBF7F7F8FBF7CDFBCAF8ED
:1054300018002848284D204E284C01F0E7F8F1EEDE
:10544000027AF4EEE78AF1EE10FA0DF1100800F39B
:10545000FB8005F110094746B6F90230B5EC017A38
:1054600007EE903AF8EEE77A204677EE677A0C3648
:10547000FDEEE77A2C34F8EEE77A44ED017A01F09C
:105480006FFABDEEC00A4D4510EE103A27F8023B08
:10549000E2D1404601F0A4F906B0BDEC048BBDE8B2
:1054A000F08700BFAFF300802FDD24068195C33F56
:1054B0005D74D145175DD43FC00300200000543F08
:1054C00074030020C0050020480500200000F03FC4
:1054D00000000C405405002094050020900400209A
:1054E000A94F3C88642C00F2A280B3F90800DFF8D1
:1054F000B0A2FBF727F89CA3D3E90023FAF7D4FE68
:10550000FBF762FB80F00040FBF72EF898A3D3E98D
:105510000023FBF781F8FBF757FB9C4BCAF81C00F4
:1055200000221A801B880134A4B208EE103AB4F5A8
:105530007A7F88BF0023B8EEC88A3C8088BF3B8052
:1055400007EE906AF8EEE77A17EE900AFBF70CF890
:1055500089A3D3E90023FBF75FF8FBF735FBFBF7E3
:1055600003F88B4BD3ED007A78EE277A064617EED8
:10557000900A0F46FAF7F8FF81A3D3E90023FBF75F
:105580004BF841EC100B41EC190B04F01DFE07EE3B
:10559000905AF8EEE77A59EC108BF1EE677A17EE35
:1055A000900AFAF7E1FF74A3D3E90023FBF734F87C
:1055B000FBF70AFBFAF7D8FFB0EE490AF0EE690AEA
:1055C00004460D4604F044FE42464B4630463946FA
:1055D0008DED000BFBF720F8DDE90023CDE902019A
:1055E00020462946FBF718F802460B46DDE9020182
:1055F000FAF75AFEFBF7E8FADDE90023CAF81400CF
:1056000039463046FBF708F8224606460F462B4639
:1056100040464946FBF700F802460B4630463946FD
:10562000FAF744FEFBF7D0FACAF8180001E7C82CD5
:105630002ED9F92C35D8B3F90800DFF864A1FAF7B0
:1056400081FF0022534B59E705F1100AC14600279C
:10565000B6F90230B5EC017A07EE903AF8EEE77A47
:10566000204677EE677A0C36FDEEE77A2C34F8EEBA
:10567000E77A44ED017A01F073F9BDEEC00AAA455C
:1056800010EE103A29F8023BCDE90477E0D100E7AB
:10569000B3F90800DFF808A1FAF754FF00223E4BE7
:1056A0002CE7FA2C0DD0B4F5967F27D8B3F9080073
:1056B000DFF8ECA0FAF746FF0022364BFAF7F6FDCA
:1056C0001EE7B3F90800DFF8D8A09FED348AFAF797
:1056D00039FFFBF779FA80F00040FAF745FF24A381
:1056E000D3E90023FAF798FFFBF76EFA274BCAF8C5
:1056F0001C00013400223C801A8021E7B4F5C87FE9
:105700001BD9B4F5167F23D9B4F52F7F15D940F2F4
:10571000ED229442CAD940F2EE229442D1D0B4F59F
:10572000487F88D9B4F5617FB2D9B4F57A7F7FF626
:10573000DCAEDFF86CA0154BF4E6B3F90800DFF837
:1057400060A0FAF7FFFE0022134BFAF7AFFDD7E691
:10575000B3F90800DFF848A0FAF7F4FE02A3D3E992
:105760000023FAF7A3FDCBE6000000000020724002
:105770005D74D145175DD43F9999999999990340E2
:10578000399D52A246DF913F48050020C005002008
:1057900094030020000059400040704000000000C9
:1057A000540500202DE9F047524CDFF854A1524D2A
:1057B000524F4FF4FA682646C146DAF80030C3F873
:1057C0003490C3F83890FEF7E5FBB5F90030D5F812
:1057D00010C06A69C4F80CC005EE103AB5F9023081
:1057E000226105EE903AB5F9043006EE103AB5F9AB
:1057F000063006EE903AB5F9083007EE103AB5F9E2
:105800000A3007EE903AB8EEC55AF8EEE55AB8EE0F
:10581000C66AF8EEE66AB8EEC77AF8EEE77AAB69E0
:1058200084ED005A39463046C4ED015A84ED026ACF
:10583000C4ED066A84ED077AC4ED087A6361FEF769
:10584000D3FF0120FBF7E0FBB8F10108B5D1DFF889
:10585000AC80284F40F6FC0640F2DC59DAF8003004
:10586000C3F83490C3F83890FEF794FBB5F90030D4
:10587000D5F810C06A69C4F80CC005EE103AB5F945
:105880000230226105EE903AB5F9043006EE103A86
:10589000B5F9063006EE903AB5F9083007EE103A41
:1058A000B5F90A3007EE903AB8EEC55AF8EEE55A67
:1058B000B8EEC66AF8EEE66AB8EEC77AF8EEE77AAE
:1058C000AB6984ED005A41463846C4ED015A84ED77
:1058D000026AC4ED066A84ED077AC4ED087A636152
:1058E000FEF782FF0120FBF78FFB013EB6D1BDE83A
:1058F000F08700BF3C06002018020020B003002003
:10590000080700202DE9804887B0FBF751FBFFF71F
:1059100041FAFEF78DFEFEF771FEFEF771FDFEF710
:105920008FFD01F0FFF801F027FA01F005FC01F00E
:105930001DFD01F04BFE01F065FE01F07FFE01F060
:105940009BFE01F00DFB01F01FFC122291499248D1
:105950009FED928A924DDFF8E0B2DFF8E0A2DFF827
:10596000E092DFF8E0828F4F8F4CFDF757FB072264
:105970008E498F48FDF752FB00224FF400618D489D
:10598000FCF7CEF901224FF480418B48FCF7C8F9AF
:10599000012204218948FCF7C3F901220821874824
:1059A000FCF7BEF9012210218448FCF7B9F9012265
:1059B00020218248FCF7B4F94FF47A70FBF724FBFE
:1059C000012202217E48FCF7ABF9012204217C4828
:1059D000FCF7A6F9012208217948FCF7A1F9012278
:1059E00010217748FCF79CF9012220217448FCF72C
:1059F00097F9012240217248FCF792F90122802197
:105A00006F48FCF78DF901224FF480716C48FCF768
:105A100087F900224FF480516A48FCF781F96A49FE
:105A20006A4840F2DC5300220E464B600593FCF7B7
:105A300095FF00216548FCF767FF059B634873608D
:105A400031460422FCF78AFF04216048FCF75CFF22
:105A500040F2FC73314608225C4873600593FCF702
:105A60007DFF08215948FCF74FFF059B574873609D
:105A70000C223146FCF772FF0C215448FCF744FF1E
:105A8000FEF704FCFEF756FB00215148FCF73CFFF3
:105A900004214F48FCF738FFFFF784FE4D4A4E4B78
:105AA0004E4890604FF080414D481160D0601960C1
:105AB0004C48D9629965C3F884104B4951605860CD
:105AC0004A491863D865C3F8880049489860586304
:105AD0001866C3F88C0019614648D9639966C3F803
