:020000040800F2
:10000000000003200D850008817B00088F7B00081D
:10001000957B00089B7B0008A17B00080000000086
:10002000000000000000000000000000A77B0008A6
:10003000B57B000800000000C37B0008D17B0008EE
:100040005D8500085D8500085D8500085D85000808
:100050005D8500085D8500085D8500085D850008F8
:100060005D8500085D8500085D8500085D850008E8
:100070005D8500085D8500085D8500085D850008D8
:100080005D8500085D8500085D8500085D850008C8
:10009000DD7B0008F17B00085D8500085D850008B8
:1000A0005D8500085D8500085D8500085D850008A8
:1000B0005D8500085D8500085D8500085D85000898
:1000C0005D8500085D8500085D8500085D85000888
:1000D0005D850008057C00085D8500085D850008D9
:1000E0005D8500085D8500085D8500085D85000868
:1000F0005D8500085D8500085D8500085D85000858
:100100005D8500085D8500085D8500085D85000847
:100110005D8500085D850008197C00085D85000884
:100120005D8500085D8500085D8500085D85000827
:100130005D8500085D8500085D8500085D85000817
:100140002D7C0008417C00085D8500085D85000865
:100150005D8500085D8500085D850008557C000808
:100160005D8500085D8500085D8500085D850008E7
:100170005D8500085D8500085D85000800000000C1
:100180005D8500085D8500085D850008697C0008C4
:100190005D8500085D8500085D8500085D850008B7
:0C01A00000000000000000005D85000869
:1001B00010B5054C237833B9044B13B10448AFF3A1
:1001C00000800123237010BDF40100200000000016
:1001D00058BA000808B5034B1BB103490348AFF3F5
:1001E000008008BD00000000F801002058BA000897
:1001F000034613F8012B002AFBD1181A0138704767
:1002000001F0FF01102A2BDB10F0070F08D010F8C7
:10021000013B013A8B422DD010F0070F42B3F6D1CB
:10022000F0B441EA012141EA014122F007047FF0E4
:1002300000070023F0E80256083C85EA010586EA3B
:10024000010685FA47F5A3FA87F586FA47F6A5FA77
:1002500087F68EB9EED1F0BC01F0FF0102F0070283
:1002600032B110F8013B013A83EA010313B1F8D12E
:100270000020704701387047002D06BF354603380F
:10028000073815F0010F07D1013015F4807F02BF48
:10029000013015F4C03F0130F0BC0138704700BF99
:1002A00081F0004102E000BF83F0004330B54FEA27
:1002B00041044FEA430594EA050F08BF90EA020F94
:1002C0001FBF54EA000C55EA020C7FEA645C7FEA27
:1002D000655C00F0E2804FEA5454D4EB5555B8BF4A
:1002E0006D420CDD2C4480EA020281EA030382EABB
:1002F000000083EA010180EA020281EA0303362D4D
:1003000088BF30BD11F0004F4FEA01314FF4801C1F
:100310004CEA113102D0404261EB410113F0004F31
:100320004FEA03334CEA133302D0524263EB4303E8
:1003300094EA050F00F0A780A4F10104D5F1200E86
:100340000DDB02FA0EFC22FA05F2801841F10001E1
:1003500003FA0EF2801843FA05F359410EE0A5F1B5
:1003600020050EF1200E012A03FA0EFC28BF4CF0E6
:10037000020C43FA05F3C01851EBE37101F000459C
:1003800007D54FF0000EDCF1000C7EEB00006EEBA9
:100390000101B1F5801F1BD3B1F5001F0CD3490833
:1003A0005FEA30004FEA3C0C04F101044FEA44528A
:1003B00012F5800F80F09A80BCF1004F08BF5FEA11
:1003C000500C50F1000041EB045141EA050130BDF1
:1003D0005FEA4C0C404141EB010111F4801FA4F194
:1003E0000104E9D191F0000F04BF01460020B1FAE9
:1003F00081F308BF2033A3F10B03B3F120020CDA21
:100400000C3208DD02F1140CC2F10C0201FA0CF0FE
:1004100021FA02F10CE002F11402D8BFC2F1200C63
:1004200001FA02F120FA0CFCDCBF41EA0C01904019
:10043000E41AA2BF01EB0451294330BD6FEA040462
:100440001F3C1CDA0C340EDC04F11404C4F120024D
:1004500020FA04F001FA02F340EA030021FA04F35F
:1004600045EA030130BDC4F10C04C4F1200220FAB6
:1004700002F001FA04F340EA0300294630BD21FAF4
:1004800004F0294630BD94F0000F83F4801306BFBA
:1004900081F480110134013D4EE77FEA645C18BFAE
:1004A0007FEA655C29D094EA050F08BF90EA020F45
:1004B00005D054EA000C04BF1946104630BD91EA3D
:1004C000030F1EBF0021002030BD5FEA545C05D140
:1004D0004000494128BF41F0004130BD14F580047F
:1004E0003CBF01F5801130BD01F0004545F0FE41F3
:1004F00041F470014FF0000030BD7FEA645C1ABF28
:10050000194610467FEA655C1CBF0B46024650EA5E
:10051000013406BF52EA033591EA030F41F400218A
:1005200030BD00BF90F0000F04BF0021704730B510
:100530004FF4806404F132044FF000054FF00001E5
:1005400050E700BF90F0000F04BF0021704730B5A6
:100550004FF4806404F1320410F0004548BF40427B
:100560004FF000013EE700BF42004FEAE2014FEAD0
:1005700031014FEA02701FBF12F07F4393F07F4FAB
:1005800081F06051704732F07F4208BF704793F0AE
:100590007F4F04BF41F40021704730B54FF46074C1
:1005A00001F0004521F000411CE700BF50EA0102C4
:1005B00008BF704730B54FF000050AE050EA01026D
:1005C00008BF704730B511F0004502D5404261EBDD
:1005D00041014FF4806404F132045FEA915C3FF41E
:1005E000D8AE4FF003025FEADC0C18BF03325FEABB
:1005F000DC0C18BF033202EBDC02C2F1200300FA6C
:1006000003FC20FA02F001FA03FE40EA0E0021FA90
:1006100002F11444BDE600BF70B54FF0FF0C4CF47E
:10062000E06C1CEA11541DBF1CEA135594EA0C0F30
:1006300095EA0C0F00F0DEF82C4481EA030621EA6B
:100640004C5123EA4C5350EA013518BF52EA0335A6
:1006500041F4801143F4801338D0A0FB02CE4FF058
:100660000005E1FB02E506F00042E0FB03E54FF088
:100670000006E1FB03569CF0000F18BF4EF0010E80
:10068000A4F1FF04B6F5007F64F5407404D25FEA7C
:100690004E0E6D4146EB060642EAC62141EA55512F
:1006A0004FEAC52040EA5E504FEACE2EB4F1FD0C71
:1006B00088BFBCF5E06F1ED8BEF1004F08BF5FEAEF
:1006C000500E50F1000041EB045170BD06F00046A1
:1006D00046EA010140EA020081EA0301B4EB5C044E
:1006E000C2BFD4EB0C0541EA045170BD41F4801146
:1006F0004FF0000E013C00F3AB8014F1360FDEBF6B
:10070000002001F0004170BDC4F10004203C35DA46
:100710000C341BDC04F11404C4F1200500FA05F3C9
:1007200020FA04F001FA05F240EA020001F000426A
:1007300021F0004110EBD37021FA04F642EB0601E0
:100740005EEA430E08BF20EAD37070BDC4F10C040A
:10075000C4F1200500FA04F320FA05F001FA04F2CE
:1007600040EA020001F0004110EBD37041F10001BA
:100770005EEA430E08BF20EAD37070BDC4F12005C5
:1007800000FA05F24EEA020E20FA04F301FA05F22D
:1007900043EA020321FA04F001F0004121FA04F2D5
:1007A00020EA020000EBD3705EEA430E08BF20EAA5
:1007B000D37070BD94F0000F0FD101F000464000DF
:1007C00041EB010111F4801F08BF013CF7D041EA61
:1007D000060195F0000F18BF704703F00046520065
:1007E00043EB030313F4801F08BF013DF7D043EA36
:1007F0000603704794EA0C0F0CEA135518BF95EAEC
:100800000C0F0CD050EA410618BF52EA4306D1D172
:1008100081EA030101F000414FF0000070BD50EA91
:10082000410606BF1046194652EA430619D094EA1B
:100830000C0F02D150EA013613D195EA0C0F05D105
:1008400052EA03361CBF104619460AD181EA030159
:1008500001F0004141F0FE4141F470014FF0000011
:1008600070BD41F0FE4141F4780170BD70B54FF0AC
:10087000FF0C4CF4E06C1CEA11541DBF1CEA13552C
:1008800094EA0C0F95EA0C0F00F0A7F8A4EB05040E
:1008900081EA030E52EA03354FEA013100F0888005
:1008A0004FEA03334FF0805545EA131343EA1263CE
:1008B0004FEA022245EA111545EA10654FEA002683
:1008C0000EF000419D4208BF964244F1FD0404F53C
:1008D000407402D25B084FEA3202B61A65EB030598
:1008E0005B084FEA32024FF480104FF4002CB6EB55
:1008F000020E75EB030E22BFB61A754640EA0C00D5
:100900005B084FEA3202B6EB020E75EB030E22BF14
:10091000B61A754640EA5C005B084FEA3202B6EB55
:10092000020E75EB030E22BFB61A754640EA9C0014
:100930005B084FEA3202B6EB020E75EB030E22BFE4
:10094000B61A754640EADC0055EA060E18D04FEAA2
:10095000051545EA16754FEA06164FEAC30343EA42
:1009600052734FEAC2025FEA1C1CC0D111F4801F0F
:100970000BD141EA00014FF000004FF0004CB6E708
:1009800011F4801F04BF01430020B4F1FD0C88BFA7
:10099000BCF5E06F3FF6AFAEB5EB030C04BFB6EBB2
:1009A000020C5FEA500C50F1000041EB045170BDA5
:1009B0000EF0004E4EEA113114EB5C04C2BFD4EBD2
:1009C0000C0541EA045170BD41F480114FF0000E56
:1009D000013C90E645EA060E8DE60CEA135594EAD2
:1009E0000C0F08BF95EA0C0F3FF43BAF94EA0C0FD5
:1009F0000AD150EA01347FF434AF95EA0C0F7FF44A
:100A000025AF104619462CE795EA0C0F06D152EA9D
:100A100003353FF4FDAE1046194622E750EA410681
:100A200018BF52EA43067FF4C5AE50EA41047FF492
:100A30000DAF52EA43057FF4EBAE12E74FF0FF3CF7
:100A400006E000BF4FF0010C02E000BF4FF0010CC8
:100A50004DF804CD4FEA410C7FEA6C5C4FEA430C41
:100A600018BF7FEA6C5C1BD001B050EA410C0CBF90
:100A700052EA430C91EA030F02BF90EA020F0020F2
:100A8000704710F1000F91EA030F58BF994208BF59
:100A900090422CBFD8176FEAE37040F00100704716
:100AA0004FEA410C7FEA6C5C02D150EA013C07D16D
:100AB0004FEA430C7FEA6C5CD6D152EA033CD3D0B8
:100AC0005DF8040B704700BF8446104662468C46B2
:100AD0001946634600E000BF01B5FFF7B7FF0028E5
:100AE00048BF10F1000F01BD4DF808EDFFF7F4FF0E
:100AF0000CBF012000205DF808FB00BF4DF808ED99
:100B0000FFF7EAFF34BF012000205DF808FB00BFBB
:100B10004DF808EDFFF7E0FF94BF012000205DF8DD
:100B200008FB00BF4DF808EDFFF7CEFF94BF012092
:100B300000205DF808FB00BF4DF808EDFFF7C4FF8B
:100B400034BF012000205DF808FB00BF4FEA410CD4
:100B50007FEA6C5C02D150EA013C0AD14FEA430CB7
:100B60007FEA6C5C02D152EA033C02D14FF00000F4
:100B700070474FF0010070474FEA410212F5001232
:100B800015D211D56FF47873B3EB625212D94FEAD4
:100B9000C12343F0004343EA505311F0004F23FABE
:100BA00002F018BF404270474FF00000704750EA13
:100BB000013005D111F0004008BF6FF000407047D0
:100BC0004FF00000704700BF4FEA4102B2F1E0432E
:100BD00024BFB3F5001CDCF1FE5C0DD901F0004C24
:100BE0004FEAC0024CEA5070B2F1004F40EB830074
:100BF00008BF20F00100704711F0804F21D113F1A0
:100C00003872BCBF01F00040704741F480114FEAD8
:100C10005252C2F11802C2F1200C10FA0CF320FA61
:100C200002F018BF40F001004FEAC1234FEAD3237E
:100C300003FA0CFC40EA0C0023FA02F34FEA4303E8
:100C4000CCE77FEA625307D150EA01331EBF4FF071
:100C5000FE4040F44000704701F0004040F0FE408C
:100C600040F40000704700BF53B94AB9002908BFDB
:100C700000281CBF4FF0FF314FF0FF3000F072B979
:100C8000ADF1080C6DE904CE00F006F8DDF804E0E3
:100C9000DDE9022304B070472DE9F047089E0446C1
:100CA0008846002B4BD18A42154667D9B2FA82F2A8
:100CB0004AB1C2F1200701FA02F320FA07F7954082
:100CC00047EA030894404FEA154E230CB8FBFEF7A1
:100CD0001FFA85FC0EFB178843EA084307FB0CF15B
:100CE000994209D9EB1807F1FF3080F01B81994236
:100CF00040F21881023F2B445B1AA4B2B3FBFEF012
:100D00000EFB103344EA034400FB0CFCA44509D954
:100D10002C1900F1FF3380F00781A44540F20481D3
:100D200002382C4440EA0740A4EB0C0400271EB113
:100D3000D4400023C6E900433946BDE8F0878B4222
:100D400009D9002E00F0EB800027C6E900013846E3
:100D50003946BDE8F087B3FA83F7002F47D18B42BD
:100D600002D3824200F2FA80841A61EB030301206D
:100D70009846002EE0D0C6E90048DDE702B9FFDE64
:100D8000B2FA82F2002A40F08F80491B4FEA154EDA
:100D90001FFA85F80127B1FBFEFC230C0EFB1C118A
:100DA00043EA014308FB0CF1994207D9EB180CF117
:100DB000FF3002D2994200F2CD808446591AA3B284
:100DC000B1FBFEF00EFB101443EA044408FB00F8EC
:100DD000A04507D92C1900F1FF3302D2A04500F23B
:100DE000B6801846A4EB080440EA0C409FE7C7F120
:100DF000200CBB4022FA0CFE4EEA030E01FA07F467
:100E000020FA0CF521FA0CF34FEA1E482543B3FBF8
:100E1000F8F92C0C08FB19331FFA8EFA44EA034345
:100E200009FB0AF49C4202FA07F200FA07F10BD917
:100E30001EEB030309F1FF3080F087809C4240F2F3
:100E40008480A9F1020973441B1BADB2B3FBF8F017
:100E500008FB103345EA034400FB0AFAA24508D90F
:100E60001EEB040400F1FF336BD2A24569D90238AE
:100E7000744440EA0940A0FB0289A4EB0A044C45F3
:100E8000C2464B4654D351D0002E69D0B1EB0A056F
:100E900064EB030404FA0CFCFD40FC404CEA05053D
:100EA000C6E90054002747E7C2F1200320FA03F700
:100EB000954001FA02F021FA03F34FEA154E384348
:100EC000010CB3FBFEF71FFA85F80EFB173341EA5E
:100ED000034107FB08F38B4204FA02F407D96918AF
:100EE00007F1FF3C2FD28B422DD9023F2944CB1A68
:100EF00081B2B3FBFEF00EFB103341EA034100FB6D
:100F000008F38B4207D9691800F1FF3C17D28B42D6
:100F100015D902382944C91A40EA07473BE7374642
:100F2000304609E70746E7E61846FBE64145ABD2FF
:100F3000B8EB020A69EB0E0201381346A4E76046DB
:100F4000E9E7184695E76746D1E781467CE702382E
:100F50002C4447E7ACF1020C2B442FE7384608E756
:100F60003746E9E6704700BF80B500AF0E4B1B68FF
:100F70000D4A43F4007313600B4B1B680A4A43F499
:100F800080631360084B1B68074A43F48073136047
:100F9000032000F0ABFF002000F008F806F0C8FDC9
:100FA0000023184680BD00BF003C024080B582B0DF
:100FB00000AF7860124B1A68124B1B7819464FF439
:100FC0007A73B3FBF1F3B2FBF3F3184600F0C3FFFF
:100FD0000346002B01D001230EE07B680F2B0AD8BB
:100FE000002279684FF0FF3000F08BFF064A7B68E3
:100FF0001360002300E0012318460837BD4680BD7A
:101000001C000020040000200000002080B400AF7D
:10101000064B1B781A46064B1B681344044A1360A0
:1010200000BFBD465DF8047B704700BF0400002090
:10103000A002002080B400AF034B1B681846BD46D9
:101040005DF8047B704700BFA002002080B584B02B
:1010500000AF7860FFF7EEFFB8607B68FB60FB686D
:10106000B3F1FF3F05D0094B1B781A46FB681344C8
:10107000FB6000BFFFF7DEFF0246BB68D31AFA68C9
:101080009A42F7D800BF1037BD4680BD040000204B
:1010900080B584B000AF78607B68002B01D101235C
:1010A000EDE07B6893F82030DBB2002B02D178684A
:1010B00004F04CFF7B681B681A687B681B6822F091
:1010C00002021A60FFF7B6FFF86012E0FFF7B2FF06
:1010D0000246FB68D31A0A2B0BD97B685B6A43F480
:1010E00000327B685A627B68052283F82020012346
:1010F000C5E07B681B685B6803F00203002BE5D149
:101100007B681B681A687B681B6842F001021A60E2
:10111000FFF790FFF86012E0FFF78CFF0246FB68D4
:10112000D31A0A2B0BD97B685B6A43F400327B68C5
:101130005A627B68052283F8202001239FE07B68A8
:101140001B685B6803F00103002BE5D07B681B7E06
:10115000012B08D17B681B681A687B681B6842F00A
:1011600080021A6007E07B681B681A687B681B684E
:1011700022F080021A607B685B7E012B08D17B68BD
:101180001B681A687B681B6842F040021A6007E01F
:101190007B681B681A687B681B6822F040021A6033
:1011A0007B689B7E012B08D17B681B681A687B6873
:1011B0001B6842F020021A6007E07B681B681A680F
:1011C0007B681B6822F020021A607B68DB7E012BA3
:1011D00008D17B681B681A687B681B6822F01002C4
:1011E0001A6007E07B681B681A687B681B6842F01E
:1011F00010021A607B681B7F012B08D17B681B687B
:101200001A687B681B6842F008021A6007E07B6876
:101210001B681A687B681B6822F008021A607B68EA
:101220005B7F012B08D17B681B681A687B681B6891
:1012300042F004021A6007E07B681B681A687B684A
:101240001B6822F004021A607B689A687B68DB687E
:101250001A437B681B691A437B685B6942EA030196
:101260007B685B685A1E7B681B680A43DA617B688F
:1012700000225A627B68012283F82020002318464E
:101280001037BD4680BD000080B487B000AF7860E5
:1012900039607B681B687B617B6893F82030FB7446
:1012A000FB7C012B03D0FB7C022B40F0BE80654B06
:1012B0007B617B69D3F8003243F001027B69C3F89C
:1012C00000227B69D3F8003223F47C527B69C3F897
:1012D00000227B69D3F800223B685B6A1B021A4339
:1012E0007B69C3F800223B685B6903F01F0301229E
:1012F00002FA03F3FB607B69D3F81C22FB68DB4333
:101300001A407B69C3F81C223B68DB69002B23D1A0
:101310007B69D3F80C22FB68DB431A407B69C3F876
:101320000C223B68DB6819043B685B689BB23A6837
:10133000526919437B69483243F832103B689B6815
:1013400019043B681B689AB23B685B690A43796978
:101350004833DB000B445A603B68DB69012B22D128
:101360007B69D3F80C22FB681A437B69C3F80C2213
:101370003B681B6819043B685B689BB23A6852691A
:1013800019437B69483243F832103B689B68190463
:101390003B68DB689AB23B685B690A43796948330A
:1013A000DB000B445A603B689B69002B09D17B69C9
:1013B000D3F80422FB68DB431A407B69C3F804229C
:1013C00007E07B69D3F80422FB681A437B69C3F802
:1013D00004223B681B69002B09D17B69D3F81422D6
:1013E000FB68DB431A407B69C3F8142207E07B6982
:1013F000D3F81422FB681A437B69C3F814223B68B4
:101400001B6A012B07D17B69D3F81C22FB681A43A6
:101410007B69C3F81C227B69D3F8003223F00102F8
:101420007B69C3F80022002306E07B685B6A43F413
:1014300080227B685A62012318461C37BD465DF83E
:10144000047B70470064004080B584B000AF7860D2
:101450007B6893F82030DBB2012B2ED17B6802220F
:1014600083F820207B681B681A687B681B6822F061
:1014700001021A60FFF7DEFDF86012E0FFF7DAFD07
:101480000246FB68D31A0A2B0BD97B685B6A43F4CC
:1014900000327B685A627B68052283F82020012392
:1014A00012E07B681B685B6803F00103002BE5D149
:1014B0007B6800225A62002306E07B685B6A43F483
:1014C00000227B685A62012318461037BD4680BD52
:1014D00080B489B000AFF860B9607A603B60FB68A7
:1014E00093F82030FB77FB681B689B68BB61FB7F30
:1014F000012B03D0FB7F022B40F0B880BB6903F0C7
:101500008063002B0AD1BB6903F00063002B05D177
:10151000BB6903F08053002B00F0A080BB691B0E59
:1015200003F003037B617B69022B07D9FB685B6ACD
:1015300043F40002FB685A6201239EE001227B69AA
:101540009A403B681A60BB689B68002B0DD1BB6852
:101550001B685A05BB68DB68F96809681A437B6930
:1015600018331B010B441A600FE0BB685B68DA009C
:10157000BB689B681A43BB68DB68F96809681A4353
:101580007B6918331B010B441A60FB681968BB6840
:101590001A697B6918331B010B4404331A60BB685A
:1015A0001B7D012B11D1FB681A687B6918331B0165
:1015B000134404331B68FA68116843F480727B6932
:1015C00018331B010B4404331A607B6807331B7804
:1015D0001A067B6806331B781B041A437B680533A5
:1015E0001B781B0213437A68043212781046FA689B
:1015F000116843EA00027B691B010B4403F5C673C3
:101600001A607B6803331B781A067B6802331B78E9
:101610001B041A437B6801331B781B0213437A684F
:1016200012781046FA68116843EA00027B691B01D0
:101630000B4403F5C4731A60FB681A687B6918339E
:101640001B0113441B68FA68116843F001027B69AF
:1016500018331B010B441A6000230EE0FB685B6A21
:1016600043F40012FB685A62012306E0FB685B6AE0
:1016700043F48022FB685A62012318462437BD4692
:101680005DF8047B704780B487B000AFF860B96044
:101690007A603B60FB6893F82030FB75FB7D012B83
:1016A00003D0FB7D022B40F0F480BB68002B0ED1F1
:1016B000FB681B68DB6803F00303002B16D1FB6893
:1016C0005B6A43F40012FB685A620123E8E0FB689E
:1016D0001B681B6903F00303002B07D1FB685B6ADF
:1016E00043F40012FB685A620123D9E0FB681A68D0
:1016F000BB681B331B0113441B6803F004027B68A7
:101700009A607B689B68002B0CD1FB681A68BB68E9
:101710001B331B0113441B685B0DC3F30A027B6878
:101720001A600BE0FB681A68BB681B331B0113448B
:101730001B68DB0823F060427B685A60FB681A680C
:10174000BB681B331B0113441B685B0803F00102D9
:101750007B68DA60FB681A68BB681B331B011344A3
:1017600004331B6803F00F027B681A61FB681A6878
:10177000BB681B331B01134404331B681B0ADAB21A
:101780007B689A61FB681A68BB681B331B011344B2
:1017900004331B681B0C9AB27B685A61FB681A6899
:1017A000BB681B01134403F5DC731B68DAB23B68AA
:1017B0001A70FB681A68BB681B01134403F5DC73DD
:1017C0001B681A0A3B680133D2B21A70FB681A68A8
:1017D000BB681B01134403F5DC731B681A0C3B68E0
:1017E0000233D2B21A70FB681A68BB681B0113443B
:1017F00003F5DC731B681A0E3B680333D2B21A7010
:10180000FB681A68BB681B01134403F5DE731A6892
:101810003B680433D2B21A70FB681A68BB681B01BC
:10182000134403F5DE731B681A0A3B680533D2B212
:101830001A70FB681A68BB681B01134403F5DE735A
:101840001B681A0C3B680633D2B21A70FB681A6820
:10185000BB681B01134403F5DE731B681A0E3B685B
:101860000733D2B21A70BB68002B08D1FB681B6823
:10187000DA68FB681B6842F02002DA6007E0FB6868
:101880001B681A69FB681B6842F020021A6100237A
:1018900006E0FB685B6A43F48022FB685A6201231E
:1018A00018461C37BD465DF8047B704780B485B090
:1018B00000AF786039607B6893F82030FB73FB7B66
:1018C000012B02D0FB7B022B09D17B681B68596975
:1018D0007B681B683A680A435A61002306E07B680C
:1018E0005B6A43F480227B685A62012318461437EE
:1018F000BD465DF8047B704780B58AB000AF786064
:1019000000237B627B681B685B693B627B681B68AA
:101910005B68FB617B681B689B68BB617B681B68BD
:10192000DB687B617B681B681B693B617B681B68AC
:101930009B69FB603B6A03F00103002B7CD0BB6911
:1019400003F00103002B23D07B681B6801229A60FF
:10195000BB6903F00203002B03D0786800F07DF927
:1019600016E0BB6903F00403002B04D07B6A43F448
:1019700000637B620CE0BB6903F00803002B04D01A
:101980007B6A43F480537B6202E0786800F083F95D
:10199000BB6903F48073002B24D07B681B684FF471
:1019A00080729A60BB6903F40073002B03D07868DF
:1019B00000F05DF916E0BB6903F48063002B04D0EE
:1019C0007B6A43F400537B620CE0BB6903F4006361
:1019D000002B04D07B6A43F480437B6202E078688A
:1019E00000F063F9BB6903F48033002B24D07B68DB
:1019F0001B684FF480329A60BB6903F40033002BFC
:101A000003D0786800F03DF916E0BB6903F4802349
:101A1000002B04D07B6A43F400437B620CE0BB697B
:101A200003F40023002B04D07B6A43F480337B62F1
:101A300002E0786800F043F93B6A03F00803002BEA
:101A40000CD07B6903F01003002B07D07B6A43F4B2
:101A500000737B627B681B681022DA603B6A03F0CC
:101A60000403002B0BD07B6903F00803002B06D086
:101A70007B681B680822DA60786800F02AF93B6A04
:101A800003F00203002B09D07B681B68DB6803F0BE
:101A90000303002B02D0786805F012F83B6A03F0CC
:101AA0004003002B0CD03B6903F01003002B07D040
:101AB0007B6A43F480637B627B681B6810221A6137
:101AC0003B6A03F02003002B0BD03B6903F00803B3
:101AD000002B06D07B681B6808221A61786800F02A
:101AE0000CF93B6A03F01003002B09D07B681B68DC
:101AF0001B6903F00303002B02D0786800F0F3F8B1
:101B00003B6A03F40033002B0BD0FB6903F0100396
:101B1000002B06D07B681B6810225A60786800F0A2
:101B2000F6F83B6A03F48033002B0BD0FB6903F01B
:101B30000803002B06D07B681B6808225A6078686F
:101B400000F0EFF83B6A03F40043002B75D0FB690B
:101B500003F00403002B6CD03B6A03F48073002B6A
:101B600008D0FB6803F00103002B03D07B6A43F02D
:101B700001037B623B6A03F40073002B08D0FB680F
:101B800003F00203002B03D07B6A43F002037B6265
:101B90003B6A03F48063002B08D0FB6803F0040366
:101BA000002B03D07B6A43F004037B623B6A03F49F
:101BB0000063002B3DD0FB6803F07003002B38D08E
:101BC000FB6803F07003302B17D0302B04D8102B98
:101BD00009D0202B0CD024E0502B18D0602B1BD028
:101BE000402B0FD01DE07B6A43F008037B6218E0B6
:101BF0007B6A43F010037B6213E07B6A43F02003AF
:101C00007B620EE07B6A43F040037B6209E07B6A03
:101C100043F080037B6204E07B6A43F480737B6261
:101C200000BF7B681B689A697B681B6822F07002A2
:101C30009A617B681B6804225A607B6A002B08D07B
:101C40007B685A6A7B6A1A437B685A62786800F03C
:101C500072F800BF2837BD4680BD80B483B000AFA6
:101C6000786000BF0C37BD465DF8047B704780B4D8
:101C700083B000AF786000BF0C37BD465DF8047BD1
:101C8000704780B483B000AF786000BF0C37BD46AA
:101C90005DF8047B704780B483B000AF786000BF0C
:101CA0000C37BD465DF8047B704780B483B000AF4D
:101CB000786000BF0C37BD465DF8047B704780B488
:101CC00083B000AF786000BF0C37BD465DF8047B81
:101CD000704780B483B000AF786000BF0C37BD465A
:101CE0005DF8047B704780B483B000AF786000BFBC
:101CF0000C37BD465DF8047B704780B483B000AFFD
:101D0000786000BF0C37BD465DF8047B704780B437
:101D100083B000AF786000BF0C37BD465DF8047B30
:101D2000704780B483B000AF786000BF0C37BD4609
:101D30005DF8047B704780B483B000AF786000BF6B
:101D40000C37BD465DF8047B7047000080B485B059
:101D500000AF78607B6803F00703FB600C4BDB6827
:101D6000BB60BA684FF6FF031340BB60FB681A0202
:101D7000BB68134343F0BF6343F40033BB60044AC2
:101D8000BB68D36000BF1437BD465DF8047B704765
:101D900000ED00E080B400AF044BDB681B0A03F0E9
:101DA00007031846BD465DF8047B704700ED00E070
:101DB00080B483B000AF0346FB7197F90730002B66
:101DC0000BDBFB7903F01F02074997F907305B092A
:101DD000012000FA02F241F8232000BF0C37BD4673
:101DE0005DF8047B704700BF00E100E080B483B081
:101DF00000AF03463960FB7197F90730002B0ADB0F
:101E00003B68DAB20C4997F907301201D2B20B44A1
:101E100083F800230AE03B68DAB20849FB7903F053
:101E20000F03043B1201D2B20B441A7600BF0C37E9
:101E3000BD465DF8047B704700E100E000ED00E086
:101E400080B489B000AFF860B9607A60FB6803F0D5
:101E50000703FB61FB69C3F10703042B28BF0423BD
:101E6000BB61FB690433062B02D9FB69033B00E02D
:101E700000237B614FF0FF32BB6902FA03F3DA43C0
:101E8000BB681A407B699A404FF0FF317B6901FAC9
:101E900003F3D9437B680B40134318462437BD46F0
:101EA0005DF8047B7047000080B582B000AF7860B9
:101EB0007B68013BB3F1807F01D301230FE00A4A25
:101EC0007B68013B53600F214FF0FF30FFF78EFF1F
:101ED000054B00229A60044B07221A600023184623
:101EE0000837BD4680BD00BF10E000E080B582B07D
:101EF00000AF78607868FFF729FF00BF0837BD465C
:101F000080BD80B586B000AF0346B9607A60FB73D0
:101F100000237B61FFF73EFF78617A68B9687869D2
:101F2000FFF78EFF024697F90F3011461846FFF76C
:101F30005DFF00BF1837BD4680BD80B582B000AFE1
:101F40000346FB7197F907301846FFF731FF00BFD2
:101F50000837BD4680BD80B582B000AF7860786834
:101F6000FFF7A2FF034618460837BD4680BD80B480
:101F700083B000AF78607B6893F83530DBB2022B1A
:101F800004D07B6880225A6501230CE07B6805221F
:101F900083F835207B681B681A687B681B6822F011
:101FA00001021A60002318460C37BD465DF8047B19
:101FB0007047000080B489B000AF786039600023BA
:101FC0007B6100233B610023BB610023FB6177E160
:101FD0000122FB6902FA03F37B613B681B687A69A3
:101FE00013403B613A697B699A4240F066813B68E5
:101FF0005B68022B03D03B685B68122B23D1FB6923
:10200000DA087B68083253F82230BB61FB6903F0C1
:1020100007039B000F2202FA03F3DB43BA69134064
:10202000BB613B681A69FB6903F007039B0002FA76
:1020300003F3BA691343BB61FB69DA087B680832B2
:10204000B96943F822107B681B68BB61FB695B00C0
:10205000032202FA03F3DB43BA691340BB613B6816
:102060005B6803F00302FB695B0002FA03F3BA69E1
:102070001343BB617B68BA691A603B685B68012BDC
:102080000BD03B685B68022B07D03B685B68112B69
:1020900003D03B685B68122B30D17B689B68BB61C7
:1020A000FB695B00032202FA03F3DB43BA691340C6
:1020B000BB613B68DA68FB695B0002FA03F3BA694B
:1020C0001343BB617B68BA699A607B685B68BB61DC
:1020D0000122FB6902FA03F3DB43BA691340BB61D7
:1020E0003B685B681B0903F00102FB6902FA03F31A
:1020F000BA691343BB617B68BA695A607B68DB6865
:10210000BB61FB695B00032202FA03F3DB43BA699C
:102110001340BB613B689A68FB695B0002FA03F3FA
:10212000BA691343BB617B68BA69DA603B685B6874
:1021300003F08053002B00F0C0800023FB60654B50
:102140005B6C644A43F480435364624B5B6C03F4FE
:102150008043FB60FB68604AFB699B08023352F8CE
:102160002330BB61FB6903F003039B000F2202FADB
:1021700003F3DB43BA691340BB617B68574A934260
:1021800037D07B68564A934231D07B68554A934298
:102190002BD07B68544A934225D07B68534A9342A4
:1021A0001FD07B68524A934219D07B68514A9342B0
:1021B00013D07B68504A93420DD07B684F4A9342BC
:1021C00007D07B684E4A934201D1092312E00A23CB
:1021D00010E008230EE007230CE006230AE00523A5
:1021E00008E0042306E0032304E0022302E00123C5
:1021F00000E00023FA6902F0030292009340BA69FA
:102200001343BB613449FB699B080233BA6941F847
:1022100023203C4B1B68BB613B69DB43BA6913401D
:10222000BB613B685B6803F48033002B03D0BA6961
:102230003B691343BB61334ABB691360314B5B6835
:10224000BB613B69DB43BA691340BB613B685B68B8
:1022500003F40033002B03D0BA693B691343BB611D
:10226000284ABB695360274B9B68BB613B69DB43D2
:10227000BA691340BB613B685B6803F48013002BB1
:1022800003D0BA693B691343BB611E4ABB699360C3
:102290001C4BDB68BB613B69DB43BA691340BB6124
:1022A0003B685B6803F40013002B03D0BA693B69F9
:1022B0001343BB61134ABB69D360FB690133FB6104
:1022C000FB690F2B7FF684AE00BF2437BD465DF857
:1022D000047B704700380240003801400000024093
:1022E0000004024000080240000C024000100240BE
:1022F0000014024000180240001C0240002002406E
:1023000000240240003C014080B485B000AF7860FA
:102310000B467B807B681A697B881340002B02D0B8
:102320000123FB7301E00023FB73FB7B184614378A
:10233000BD465DF8047B704780B483B000AF786021
:102340000B467B8013467B707B78002B03D07A880A
:102350007B689A6103E07B881A047B689A6100BFFE
:102360000C37BD465DF8047B704780B483B000AF86
:1023700078600B467B807B685A697B881A407B8833
:102380009A4204D17B881A047B689A6102E07A88B9
:102390007B689A6100BF0C37BD465DF8047B7047CF
:1023A00080B586B000AF78607B68002B01D1012337
:1023B0002DE27B681B6803F00103002B75D0A34B53
:1023C0009B6803F00C03042B0CD0A04B9B6803F01C
:1023D0000C03082B12D19D4B5B6803F48003B3F50B
:1023E000800F0BD1994B1B6803F40033002B5BD09B
:1023F0007B685B68002B57D1012308E27B685B6830
:10240000B3F5803F06D1914B1B68904A43F480336B
:1024100013601DE07B685B68B3F5A02F0CD18B4B7C
:102420001B688A4A43F480231360884B1B68874AE1
:1024300043F4803313600BE0844B1B68834A23F41E
:1024400080331360814B1B68804A23F48023136020
:102450007B685B68002B13D0FEF7ECFD386108E069
:10246000FEF7E8FD02463B69D31A642B01D903232A
:10247000CDE1764B1B6803F40033002BF0D014E061
:10248000FEF7D8FD386108E0FEF7D4FD02463B694F
:10249000D31A642B01D90323B9E16C4B1B6803F4F5
:1024A0000033002BF0D100E000BF7B681B6803F015
:1024B0000203002B63D0654B9B6803F00C03002BD9
:1024C0000BD0624B9B6803F00C03082B1CD15F4BB5
:1024D0005B6803F48003002B16D15C4B1B6803F090
:1024E0000203002B05D07B68DB68012B01D00123A0
:1024F0008DE1564B1B6823F0F8027B681B69DB00FB
:10250000524913430B603AE07B68DB68002B20D014
:102510004F4B01221A60FEF78DFD386108E0FEF78F
:1025200089FD02463B69D31A022B01D903236EE1D0
:10253000464B1B6803F00203002BF0D0434B1B6893
:1025400023F0F8027B681B69DB00404913430B60F2
:1025500015E03F4B00221A60FEF76CFD386108E081
:10256000FEF768FD02463B69D31A022B01D903230B
:102570004DE1364B1B6803F00203002BF0D17B6862
:102580001B6803F00803002B30D07B685B69002BCD
:1025900016D0304B01221A60FEF74CFD386108E07E
:1025A000FEF748FD02463B69D31A022B01D90323EB
:1025B0002DE1264B5B6F03F00203002BF0D015E0FA
:1025C000244B00221A60FEF735FD386108E0FEF763
:1025D00031FD02463B69D31A022B01D9032316E1D0
:1025E0001A4B5B6F03F00203002BF0D17B681B6872
:1025F00003F00403002B00F0A0800023FB75134BB5
:102600001B6C03F08053002B0FD10023FB600F4B9A
:102610001B6C0E4A43F0805313640C4B1B6C03F08D
:102620008053FB60FB680123FB750B4B1B6803F4B5
:102630008073002B21D1084B1B68074A43F4807339
:102640001360FEF7F7FC386111E000BF003802406C
:1026500000004742800E474200700040FEF7EAFC4F
:1026600002463B69D31A022B01D90323CFE06A4B00
:102670001B6803F48073002BF0D07B689B68012BF0
:1026800006D1664B1B6F654A43F0010313671CE0DC
:102690007B689B68052B0CD1604B1B6F5F4A43F036
:1026A000040313675D4B1B6F5C4A43F00103136720
:1026B0000BE05A4B1B6F594A23F001031367574B2A
:1026C0001B6F564A23F0040313677B689B68002B3B
:1026D00015D0FEF7AFFC38610AE0FEF7ABFC02460E
:1026E0003B69D31A41F28832934201D903238EE029
:1026F0004A4B1B6F03F00203002BEED014E0FEF7F1
:1027000099FC38610AE0FEF795FC02463B69D31A52
:1027100041F28832934201D9032378E03F4B1B6F8B
:1027200003F00203002BEED1FB7D012B05D13B4BC7
:102730001B6C3A4A23F0805313647B689B69002B1F
:1027400064D0364B9B6803F00C03082B5CD07B688D
:102750009B69022B41D1324B00221A60FEF76AFCC2
:10276000386108E0FEF766FC02463B69D31A022B8B
:1027700001D903234BE0294B1B6803F00073002BA6
:10278000F0D17B68DA697B681B6A1A437B685B6AF5
:102790009B011A437B689B6A5B08013B1B041A433D
:1027A0007B68DB6A1B061D4913434B601C4B0122EF
:1027B0001A60FEF73FFC386108E0FEF73BFC02467A
:1027C0003B69D31A022B01D9032320E0134B1B686A
:1027D00003F00073002BF0D018E0114B00221A60B8
:1027E000FEF728FC386108E0FEF724FC02463B694E
:1027F000D31A022B01D9032309E0084B1B6803F00D
:102800000073002BF0D101E0012300E00023184603
:102810001837BD4680BD00BF007000400038024040
:102820006000474280B584B000AF786039607B6853
:10283000002B01D10123CAE0674B1B6803F00F0393
:102840003A689A420CD9644B3A68D2B21A70624B19
:102850001B6803F00F033A689A4201D00123B6E0E7
:102860007B681B6803F00203002B20D07B681B6889
:1028700003F00403002B05D0584B9B68574A43F4E0
:10288000E05393607B681B6803F00803002B05D0BE
:10289000524B9B68514A43F4604393604F4B9B6893
:1028A00023F0F0027B689B684C4913438B607B6884
:1028B0001B6803F00103002B44D07B685B68012B8D
:1028C00007D1464B1B6803F40033002B19D10123B9
:1028D0007DE07B685B68022B03D07B685B68032B21
:1028E00007D13E4B1B6803F00073002B09D1012375
:1028F0006DE03A4B1B6803F00203002B01D101236A
:1029000065E0364B9B6823F003027B685B683349C4
:1029100013438B60FEF78EFBF8600AE0FEF78AFB3C
:102920000246FB68D31A41F28832934201D903234D
:102930004DE02A4B9B6803F00C027B685B689B00B0
:102940009A42EBD1244B1B6803F00F033A689A427A
:102950000CD2214B3A68D2B21A701F4B1B6803F09D
:102960000F033A689A4201D0012330E07B681B686C
:1029700003F00403002B08D0184B9B6823F4E052AB
:102980007B68DB68154913438B607B681B6803F029
:102990000803002B09D0114B9B6823F460427B682D
:1029A0001B69DB000D4913438B6000F01DF80146E5
:1029B0000A4B9B681B0903F00F03094AD35C21FAF9
:1029C00003F3084A13600020FEF7F0FA00231846CC
:1029D0001037BD4680BD00BF003C024000380240B9
:1029E000BCBA00081C000020F0B585B000AF002381
:1029F0007B600023FB6000233B600023BB60504BE7
:102A00009B6803F00C03042B07D0082B08D0002B85
:102A100040F08D804B4BBB608CE04B4BBB6089E042
:102A2000474B5B6803F03F037B60454B5B6803F4F7
:102A30008003002B23D0424B5B689B094FF00004BE
:102A400040F2FF114FF0000203EA010504EA02061A
:102A50003D4A02FB06F1002202FB05F20A443A4914
:102A6000A5FB0101531819467B684FF000041A4674
:102A70002346FEF7F9F803460C46FB6049E0304B6D
:102A80005B689B094FF0000440F2FF114FF0000219
:102A900003EA010504EA0206294632464FF0000324
:102AA0004FF00004540144EAD1644B011946224618
:102AB000491B62EB06024FF000034FF00004940143
:102AC00044EA91648B015B1A64EB02044FF000014D
:102AD0004FF00002E20042EA5372D9000B4614465E
:102AE0005B1944EB06044FF000014FF00002A20214
:102AF00042EA935299020B461446184621467B68D7
:102B00004FF000041A462346FEF7AEF803460C4683
:102B1000FB600B4B5B681B0C03F0030301335B0092
:102B20003B60FA683B68B2FBF3F3BB6002E0054B25
:102B3000BB6000BFBB6818461437BD46F0BD00BF80
:102B4000003802400024F400001BB70080B400AF3E
:102B5000034B1B681846BD465DF8047B704700BFF9
:102B60001C00002080B500AFFFF7F0FF0146054BC9
:102B70009B689B0A03F00703034AD35C21FA03F323
:102B8000184680BD00380240CCBA000880B500AFBE
:102B9000FFF7DCFF0146054B9B685B0B03F0070367
:102BA000034AD35C21FA03F3184680BD0038024083
:102BB000CCBA000880B582B000AF78607B68002B8B
:102BC00001D1012356E07B6800229A627B6893F86A
:102BD0005130DBB2002B06D17B68002283F85020F5
:102BE000786804F05DFF7B68022283F851207B68DF
:102BF0001B681A687B681B6822F040021A607B68B9
:102C00005A687B689B681A437B68DB681A437B6859
:102C10001B691A437B685B691A437B689B6903F4F1
:102C200000731A437B68DB691A437B681B6A42EABC
:102C300003017B689A6A7B681B680A431A607B6899
:102C40009B691B0C03F004017B685A6A7B681B6854
:102C50000A435A607B681B68DA697B681B6822F448
:102C60000062DA617B6800225A657B68012283F882
:102C70005120002318460837BD4680BD80B58CB072
:102C800000AFF860B9607A607B800123FB620023AB
:102C900087F82B30FB6893F85030012B01D10223C9
:102CA0008AE1FB68012283F85020FEF7C3F97862BD
:102CB000FB6893F8513087F82330FB685B68FB6151
:102CC0007B887B8397F82330012B0FD0FB69B3F50A
:102CD000827F07D1FB689B68002B03D197F82330D4
:102CE000042B03D0022387F82B305BE1BB68002B59
:102CF00005D07B68002B02D07B88002B03D10123F9
:102D000087F82B304EE1FB6893F85130DBB2042B8F
:102D100003D0FB68052283F85120FB6800225A6526
:102D2000FB687A689A63FB687A88DA87FB687A8836
:102D30009A87FB68BA681A63FB687A88DA86FB6848
:102D40007A889A86FB6800221A64FB6800225A641B
:102D5000FB681B681B6803F04003402B07D0FB682F
:102D60001B681A68FB681B6842F040021A60FB6827
:102D7000DB68B3F5006F78D1FB685B68002B02D08D
:102D80007B8B012B66D1FB681B6B1A88FB681B6869
:102D9000DA60FB681B6B9A1CFB681A63FB68DB8EAE
:102DA0009BB2013B9AB2FB68DA8653E0FB681B6872
:102DB0009B6803F00203022B1BD1FB68DB8E9BB2E6
:102DC000002B16D0FB6A012B13D1FB681B6B1A88F2
:102DD000FB681B68DA60FB681B6B9A1CFB681A6354
:102DE000FB68DB8E9BB2013B9AB2FB68DA8600235C
:102DF000FB62FB681B689B6803F00103012B19D180
:102E0000FB68DB8F9BB2002B14D0FB681B68DA6871
:102E1000FB689B6B92B21A80FB689B6B9A1CFB68E9
:102E20009A63FB68DB8F9BB2013B9AB2FB68DA873F
:102E30000123FB62FEF7FEF802467B6AD31ABA6BE7
:102E40009A4207D8BB6BB3F1FF3F03D0032387F847
:102E50002B30A7E0FB68DB8E9BB2002BA6D1FB6872
:102E6000DB8F9BB2002BA1D17CE0FB685B68002B61
:102E700002D07B8B012B6BD1FB681A6BFB681B6844
:102E80000C3312781A70FB681B6B5A1CFB681A63B0
:102E9000FB68DB8E9BB2013B9AB2FB68DA8657E097
:102EA000FB681B689B6803F00203022B1CD1FB68C4
:102EB000DB8E9BB2002B17D0FB6A012B14D1FB6871
:102EC0001A6BFB681B680C3312781A70FB681B6B5B
:102ED0005A1CFB681A63FB68DB8E9BB2013B9AB2FB
:102EE000FB68DA860023FB62FB681B689B6803F0C3
:102EF0000103012B19D1FB68DB8F9BB2002B14D08F
:102F0000FB681B68DA68FB689B6BD2B21A70FB68BF
:102F10009B6B5A1CFB689A63FB68DB8F9BB2013B7F
:102F20009AB2FB68DA870123FB62FEF783F8024658
:102F30007B6AD31ABA6B9A4203D8BB6BB3F1FF3FDB
:102F400002D1BB6B002B03D1032387F82B3029E080
:102F5000FB68DB8E9BB2002BA2D1FB68DB8F9BB2A0
:102F6000002B9DD17A6AB96BF86800F093F803469C
:102F7000002B06D0012387F82B30FB6820225A65EE
:102F800010E0FB689B68002B0BD100237B61FB6882
:102F90001B68DB687B61FB681B689B687B617B69E6
:102FA00000E000BFFB68012283F85120FB6800228B
:102FB00083F8502097F82B3018463037BD4680BD37
:102FC00080B584B000AFF860B9603B601346FB7118
:102FD0004CE03B68B3F1FF3F48D0FEF72BF80246C8
:102FE000BB69D31A3A689A4202D93B68002B3DD19B
:102FF000FB681B685A68FB681B6822F0E0025A6095
:10300000FB685B68B3F5827F11D1FB689B68B3F501
:10301000004F04D0FB689B68B3F5806F07D1FB6855
:103020001B681A68FB681B6822F040021A60FB6884
:103030009B6AB3F5005F0FD1FB681B681A68FB68D9
:103040001B6822F400521A60FB681B681A68FB6850
:103050001B6842F400521A60FB68012283F8512079
:10306000FB68002283F8502003230FE0FB681B68F5
:103070009A68BB681340BA689A420CBF01230023C8
:10308000DBB21A46FB799A42A3D1002318461037C7
:10309000BD4680BD80B588B002AFF860B9607A6087
:1030A0001B4B1B681B4AA2FB03235B0D4FF47A7278
:1030B00002FB03F37B61FB685B68B3F5827F12D18F
:1030C0007B680093BB6800228021F868FFF778FFD7
:1030D0000346002B16D0FB685B6D43F02002FB68B3
:1030E0005A6503230FE07B69002B0AD07B69013B03
:1030F0007B61FB681B689B6803F08003802BF2D028
:1031000000E000BF002318461837BD4680BD00BF51
:103110001C000020819F5E1680B582B000AF7860F1
:103120007B68002B01D101231DE07B6893F83D30C3
:10313000DBB2002B06D17B68002283F83C20786844
:1031400004F08EFF7B68022283F83D207B681A68BA
:103150007B6804331946104600F08CFA7B68012224
:1031600083F83D20002318460837BD4680BD80B453
:1031700085B000AF78607B681B68DA687B681B6885
:1031800042F00102DA607B681B689B6803F007036A
:10319000FB60FB68062B07D07B681B681A687B689E
:1031A0001B6842F001021A60002318461437BD461E
:1031B0005DF8047B704780B582B000AF78607B68B3
:1031C000002B01D101231DE07B6893F83D30DBB279
:1031D000002B06D17B68002283F83C20786804F03D
:1031E00007FF7B68022283F83D207B681A687B68B2
:1031F00004331946104600F03DFA7B68012283F83B
:103200003D20002318460837BD4680BD80B584B0F8
:1032100000AF786039607B681B6801223968184606
:1032200000F078FC7B681B68154A934204D07B68E9
:103230001B68144A934201D1012300E00023002BB4
:1032400007D07B681B685A6C7B681B6842F400429D
:103250005A647B681B689B6803F00703FB60FB688C
:10326000062B07D07B681B681A687B681B6842F0D6
:1032700001021A60002318461037BD4680BD00BF0A
:10328000000001400004014080B582B000AF7860CA
:103290007B681B681B6903F00203022B22D17B6849
:1032A0001B68DB6803F00203022B1BD17B681B68E1
:1032B0006FF002021A617B6801221A777B681B6833
:1032C0009B6903F00303002B03D0786800F0B4F986
:1032D00005E0786800F0A6F9786800F0B7F97B6837
:1032E00000221A777B681B681B6903F00403042B18
:1032F00022D17B681B68DB6803F00403042B1BD11D
:103300007B681B686FF004021A617B6802221A77DF
:103310007B681B689B6903F44073002B03D07868BB
:1033200000F08AF905E0786800F07CF9786800F030
:103330008DF97B6800221A777B681B681B6903F094
:103340000803082B22D17B681B68DB6803F00803A5
:10335000082B1BD17B681B686FF008021A617B6821
:1033600004221A777B681B68DB6903F00303002BD8
:1033700003D0786800F060F905E0786800F052F951
:10338000786800F063F97B6800221A777B681B6815
:103390001B6903F01003102B22D17B681B68DB68CC
:1033A00003F01003102B1BD17B681B686FF0100219
:1033B0001A617B6808221A777B681B68DB6903F453
:1033C0004073002B03D0786800F036F905E0786888
:1033D00000F028F9786800F039F97B6800221A7744
:1033E0007B681B681B6903F00103012B0ED17B680E
:1033F0001B68DB6803F00103012B07D17B681B68A6
:103400006FF001021A61786803F08AF97B681B6823
:103410001B6903F08003802B0ED17B681B68DB687F
:1034200003F08003802B07D17B681B686FF080025C
:103430001A61786800F034FC7B681B681B6903F034
:103440004003402B0ED17B681B68DB6803F0400310
:10345000402B07D17B681B686FF040021A617868C7
:1034600000F0FEF87B681B681B6903F02003202B2B
:103470000ED17B681B68DB6803F02003202B07D18B
:103480007B681B686FF020021A61786800F0FEFB11
:1034900000BF0837BD4680BD80B584B000AFF8607E
:1034A000B9607A60FB6893F83C30012B01D10223AC
:1034B000B4E0FB68012283F83C20FB68022283F819
:1034C0003D207B680C2B00F29F8001A252F823F074
:1034D00005350008093600080936000809360008D5
:1034E0004535000809360008093600080936000885
:1034F0008735000809360008093600080936000833
:10350000C7350008FB681B68B968184600F052F917
:10351000FB681B689A69FB681B6842F008029A61A5
:10352000FB681B689A69FB681B6822F004029A61B9
:10353000FB681B689969BB681A69FB681B680A43CA
:103540009A6162E0FB681B68B968184600F0A2F94E
:10355000FB681B689A69FB681B6842F400629A6109
:10356000FB681B689A69FB681B6822F480629A6199
:10357000FB681B689969BB681B691A02FB681B68BA
:103580000A439A6141E0FB681B68B968184600F07D
:10359000F7F9FB681B68DA69FB681B6842F00802F0
:1035A000DA61FB681B68DA69FB681B6822F00402B9
:1035B000DA61FB681B68D969BB681A69FB681B681C
:1035C0000A43DA6121E0FB681B68B968184600F01D
:1035D0004BFAFB681B68DA69FB681B6842F40062FF
:1035E000DA61FB681B68DA69FB681B6822F4806299
:1035F000DA61FB681B68D969BB681B691A02FB6842
:103600001B680A43DA6100E000BFFB68012283F80F
:103610003D20FB68002283F83C2000231846103729
:10362000BD4680BD80B483B000AF786000BF0C376A
:10363000BD465DF8047B704780B483B000AF78600E
:1036400000BF0C37BD465DF8047B704780B483B083
:1036500000AF786000BF0C37BD465DF8047B704753
:1036600080B483B000AF786000BF0C37BD465DF812
:10367000047B704780B485B000AF786039607B68A8
:103680001B68FB607B68404A934213D07B68B3F1B0
:10369000804F0FD07B683D4A93420BD07B683C4AF9
:1036A000934207D07B683B4A934203D07B683A4AF7
:1036B000934208D1FB6823F07003FB603B685B68B2
:1036C000FA681343FB607B682F4A93422BD07B68D8
:1036D000B3F1804F27D07B682C4A934223D07B687C
:1036E0002B4A93421FD07B682A4A93421BD07B68A7
:1036F000294A934217D07B68284A934213D07B68AB
:10370000274A93420FD07B68264A93420BD07B68AE
:10371000254A934207D07B68244A934203D07B68B2
:10372000234A934208D1FB6823F44073FB603B6853
:10373000DB68FA681343FB60FB6823F080023B6898
:103740005B691343FB607B68FA681A603B689A68A0
:103750007B68DA623B681A687B689A627B680A4A0F
:10376000934203D07B680C4A934203D13B681A69A9
:103770007B681A637B6801225A6100BF1437BD461B
:103780005DF8047B704700BF00000140000400406A
:1037900000080040000C00400004014000400140CF
:1037A000004401400048014000180040001C004057
:1037B0000020004080B487B000AF786039607B683B
:1037C0001B6A23F001027B681A627B681B6A7B61BB
:1037D0007B685B683B617B689B69FB60FB6823F0EF
:1037E0007003FB60FB6823F00303FB603B681B680E
:1037F000FA681343FB607B6923F002037B613B683B
:103800009B687A6913437B617B68204A934203D0AB
:103810007B681F4A93420CD17B6923F008037B61CC
:103820003B68DB687A6913437B617B6923F004039F
:103830007B617B68154A934203D07B68144A9342AC
:1038400011D13B6923F480733B613B6923F400731E
:103850003B613B685B693A6913433B613B689B6929
:103860003A6913433B617B683A695A607B68FA683E
:103870009A613B685A687B685A637B687A691A6206
:1038800000BF1C37BD465DF8047B70470000014057
:103890000004014080B487B000AF786039607B6875
:1038A0001B6A23F010027B681A627B681B6A7B61CB
:1038B0007B685B683B617B689B69FB60FB6823F40A
:1038C000E043FB60FB6823F44073FB603B681B68CC
:1038D0001B02FA681343FB607B6923F020037B61C2
:1038E0003B689B681B017A6913437B617B68224AB2
:1038F000934203D07B68214A93420DD17B6923F028
:1039000080037B613B68DB681B017A6913437B6141
:103910007B6923F040037B617B68174A934203D0A5
:103920007B68164A934213D13B6923F480633B6161
:103930003B6923F400633B613B685B699B003A6928
:1039400013433B613B689B699B003A6913433B61AE
:103950007B683A695A607B68FA689A613B685A6882
:103960007B689A637B687A691A6200BF1C37BD4620
:103970005DF8047B704700BF000001400004014077
:1039800080B487B000AF786039607B681B6A23F42D
:1039900080727B681A627B681B6A7B617B685B68EC
:1039A0003B617B68DB69FB60FB6823F07003FB60B5
:1039B000FB6823F00303FB603B681B68FA68134352
:1039C000FB607B6923F400737B613B689B681B028F
:1039D0007A6913437B617B68214A934203D07B68F9
:1039E000204A93420DD17B6923F400637B613B68DD
:1039F000DB681B027A6913437B617B6923F4806374
:103A00007B617B68164A934203D07B68154A9342D8
:103A100013D13B6923F480533B613B6923F400538A
:103A20003B613B685B691B013A6913433B613B683F
:103A30009B691B013A6913433B617B683A695A6091
:103A40007B68FA68DA613B685A687B68DA637B688E
:103A50007A691A6200BF1C37BD465DF8047B704767
:103A6000000001400004014080B487B000AF7860DE
:103A700039607B681B6A23F480527B681A627B681A
:103A80001B6A3B617B685B687B617B68DB69FB6011
:103A9000FB6823F4E043FB60FB6823F44073FB60A6
:103AA0003B681B681B02FA681343FB603B6923F405
:103AB00000533B613B689B681B033A6913433B61BE
:103AC0007B68124A934203D07B68114A934209D122
:103AD0007B6923F480437B613B685B699B017A6966
:103AE00013437B617B687A695A607B68FA68DA61A4
:103AF0003B685A687B681A647B683A691A6200BF3F
:103B00001C37BD465DF8047B704700BF00000140D4
:103B10000004014080B487B000AFF860B9607A60FB
:103B2000BB6803F01F03012202FA03F37B61FB6809
:103B30001A6A7B69DB431A40FB681A62FB681A6ADF
:103B4000BB6803F01F03796801FA03F31A43FB68AB
:103B50001A6200BF1C37BD465DF8047B704780B415
:103B600085B000AF786039607B6893F83C30012BFA
:103B700001D1022332E07B68012283F83C207B687C
:103B8000022283F83D207B681B685B68FB607B68D2
:103B90001B689B68BB60FB6823F07003FB603B689D
:103BA0001B68FA681343FB60BB6823F08003BB60AB
:103BB0003B685B68BA681343BB607B681B68FA6844
:103BC0005A607B681B68BA689A607B68012283F838
:103BD0003D207B68002283F83C20002318461437E0
:103BE000BD465DF8047B704780B485B000AF786057
:103BF00039600023FB607B6893F83C30012B01D1D6
:103C000002233DE07B68012283F83C20FB6823F01F
:103C1000FF023B68DB681343FB60FB6823F44072E0
:103C20003B689B681343FB60FB6823F480623B683E
:103C30005B681343FB60FB6823F400623B681B680E
:103C40001343FB60FB6823F480523B681B691343FA
:103C5000FB60FB6823F400523B685B691343FB6025
:103C6000FB6823F480423B68DB691343FB607B689D
:103C70001B68FA685A647B68002283F83C200023A2
:103C800018461437BD465DF8047B704780B483B096
:103C900000AF786000BF0C37BD465DF8047B70470D
:103CA00080B483B000AF786000BF0C37BD465DF8CC
:103CB000047B704780B582B000AF78607B68002BD2
:103CC00001D101233FE07B6893F83930DBB2002B50
:103CD00006D17B68002283F83820786804F014FB52
:103CE0007B68242283F839207B681B68DA687B684C
:103CF0001B6822F40052DA60786800F093FB7B685E
:103D00001B681A697B681B6822F490421A617B6801
:103D10001B685A697B681B6822F02A025A617B681B
:103D20001B68DA687B681B6842F40052DA607B68C3
:103D30000022DA637B68202283F839207B68202206
:103D400083F83A20002318460837BD4680BD80B569
:103D500088B002AFF860B9603B601346FB80002377
:103D60007B61FB6893F83930DBB2202B40F0838015
:103D7000BB68002B02D0FB88002B01D101237BE024
:103D8000FB6893F83830012B01D1022374E0FB6803
:103D9000012283F83820FB680022DA63FB682122C5
:103DA00083F83920FDF746F97861FB68FA889A8430
:103DB000FB68FA88DA8442E0FB68DB8C9BB2013B4B
:103DC0009AB2FB68DA84FB689B68B3F5805F22D106
:103DD0003B6800937B6900228021F86800F0B6F907
:103DE0000346002B01D0032346E0BB683B613B69DF
:103DF0001B881A46FB681B68C2F308025A60FB68FE
:103E00001B69002B03D1BB680233BB6017E0BB68A2
:103E10000133BB6013E03B6800937B690022802183
:103E2000F86800F093F90346002B01D0032323E048
:103E3000BB685A1CBA601A78FB681B685A60FB683A
:103E4000DB8C9BB2002BB7D13B6800937B690022CF
:103E50004021F86800F07AF90346002B01D00323D3
:103E60000AE0FB68202283F83920FB68002283F8EF
:103E70003820002300E0022318461837BD4680BDD5
:103E800080B485B000AFF860B9601346FB80FB6872
:103E900093F83A30DBB2202B40D1BB68002B02D024
:103EA000FB88002B01D1012339E0FB6893F83830FF
:103EB000012B01D1022332E0FB68012283F8382074
:103EC000FB68BA689A62FB68FA889A85FB68FA8888
:103ED000DA85FB680022DA63FB68222283F83A2045
:103EE000FB68002283F83820FB681B68DA68FB68EF
:103EF0001B6842F48072DA60FB681B685A69FB68D1
:103F00001B6842F001025A61FB681B68DA68FB68B3
:103F10001B6842F02002DA60002300E0022318460A
:103F20001437BD465DF8047B7047000080B588B04B
:103F300000AF78607B681B681B68FB617B681B684F
:103F4000DB68BB617B681B685B697B6100233B614D
:103F50000023FB60FB6903F00F033B613B69002B0F
:103F60000DD1FB6903F02003002B08D0BB6903F0DF
:103F70002003002B03D0786800F0D2F9CCE03B6935
:103F8000002B00F0AB807B6903F00103002B05D10F
:103F9000BB6903F49073002B00F0A080FB6903F071
:103FA0000103002B0AD0BB6903F48073002B05D0FA
:103FB0007B68DB6B43F001027B68DA63FB6903F02B
:103FC0000403002B0AD07B6903F00103002B05D00A
:103FD0007B68DB6B43F002027B68DA63FB6903F00A
:103FE0000203002B0AD07B6903F00103002B05D0EC
:103FF0007B68DB6B43F004027B68DA63FB6903F0E8
:104000000803002B0AD07B6903F00103002B05D0C5
:104010007B68DB6B43F008027B68DA637B68DB6BF1
:10402000002B78D0FB6903F02003002B07D0BB697D
:1040300003F02003002B02D0786800F071F97B6850
:104040001B685B6903F04003402B0CBF0123002376
:10405000DBB2FB607B68DB6B03F00803002B02D153
:10406000FB68002B31D0786800F0BAF87B681B68D9
:104070005B6903F04003402B23D17B681B685A69BE
:104080007B681B6822F040025A617B685B6B002BE7
:1040900013D07B685B6B224A1A657B685B6B1846A2
:1040A000FDF765FF0346002B16D07B685B6B1B6D2D
:1040B0007A68526B104698470EE0786800F03CF83A
:1040C0000AE0786800F038F806E0786800F034F824
:1040D0007B680022DA631EE000BF1CE0FB6903F08E
:1040E0008003002B08D0BB6903F08003002B03D0B2
:1040F000786800F0A7F80FE0FB6903F04003002B9D
:104100000AD0BB6903F04003002B05D0786800F0AB
:10411000EFF800BF00E000BF2037BD4680BD00BF04
:104120001D42000880B483B000AF786000BF0C3738
:10413000BD465DF8047B704780B483B000AF786003
:1041400000BF0C37BD465DF8047B704780B584B076
:1041500000AFF860B9603B601346FB712CE0BB69AF
:10416000B3F1FF3F28D0BB69002B07D0FCF762FFFB
:1041700002463B68D31ABA699A421DD2FB681B6893
:10418000DA68FB681B6822F4D072DA60FB681B688F
:104190005A69FB681B6822F001025A61FB68202201
:1041A00083F83920FB68202283F83A20FB6800223C
:1041B00083F8382003230FE0FB681B681A68BB688C
:1041C0001340BA689A420CBF01230023DBB21A469F
:1041D000FB799A42C3D0002318461037BD4680BDF4
:1041E00080B483B000AF78607B681B68DA687B6856
:1041F0001B6822F49072DA607B681B685A697B68DE
:104200001B6822F001025A617B68202283F83A2061
:1042100000BF0C37BD465DF8047B704780B584B0A5
:1042200000AF78607B689B6BFB60FB680022DA85DF
:10423000FB680022DA84F868FFF77EFF00BF1037C2
:10424000BD4680BD80B485B000AF78607B6893F8D0
:104250003930DBB2212B44D17B689B68B3F5805F9A
:104260001AD17B681B6AFB60FB681B881A467B6857
:104270001B68C2F308025A607B681B69002B05D1DA
:104280007B681B6A9A1C7B681A620EE07B681B6A5B
:104290005A1C7B681A6208E07B681B6A591C7A68A2
:1042A00011621A787B681B685A607B68DB8C9BB252
:1042B000013B9BB27A681946D184002B0FD17B68F1
:1042C0001B68DA687B681B6822F08002DA607B6812
:1042D0001B68DA687B681B6842F04002DA600023E2
:1042E00000E0022318461437BD465DF8047B704792
:1042F00080B582B000AF78607B681B68DA687B6845
:104300001B6822F04002DA607B68202283F83920A3
:104310007868FFF707FF002318460837BD4680BDC1
:1043200080B584B000AF78607B6893F83A30DBB238
:10433000222B71D17B689B68B3F5805F23D17B68AA
:104340009B6AFB607B681B69002B0ED17B681B6836
:104350005B689BB2C3F308039AB2FB681A807B6860
:104360009B6A9A1C7B689A6229E07B681B685B6881
:104370009BB2DBB29AB2FB681A807B689B6A5A1CBC
:104380007B689A621BE07B681B69002B0AD17B6803
:104390001B6858687B689B6A591C7A689162C2B234
:1043A0001A700CE07B681B685B68DAB27B689B6AFA
:1043B000581C7968886202F07F02D2B21A707B685A
:1043C000DB8D9BB2013B9BB27A681946D185002BED
:1043D00020D17B681B68DA687B681B6822F02002AA
:1043E000DA607B681B68DA687B681B6822F480727D
:1043F000DA607B681B685A697B681B6822F00102DF
:104400005A617B68202283F83A20786802F0B8F974
:10441000002302E0002300E0022318461037BD46C7
:1044200080BD0000B0B584B000AF78607B681B68C9
:104430001B6923F440517B68DA687B681B680A4378
:104440001A617B689A687B681B691A437B685B69A1
:104450001A437B68DB691343FB607B681B68DB687E
:1044600023F4164323F00C037A681268F9680B43AF
:10447000D3607B681B685B6923F440717B689A6931
:104480007B681B680A435A617B68DB69B3F5004FA0
:1044900040F0E4807B681B68AB4A934204D07B68A1
:1044A0001B68AA4A93426CD1FEF770FB0246134682
:1044B0009B0013449A001A447B685B685B00B2FB64
:1044C000F3F3A34AA2FB03235B091C01FEF75EFB87
:1044D000024613469B0013449A001A447B685B68AB
:1044E0005B00B2FBF3F5FEF751FB024613469B005F
:1044F00013449A001A447B685B685B00B2FBF3F3D9
:10450000934AA2FB03235B09642202FB03F3EB1A29
:10451000DB0032338E4AA2FB03235B095B0003F40A
:10452000F8731C44FEF732FB024613469B0013440B
:104530009A001A447B685B685B00B2FBF3F5FEF7F8
:1045400025FB024613469B0013449A001A447B68DD
:104550005B685B00B2FBF3F37D4AA2FB03235B09BC
:10456000642202FB03F3EB1ADB003233784AA2FB2E
:1045700003235B0903F007027B681B6822449A60EF
:1045800054E1FEF7EFFA024613469B0013449A00EB
:104590001A447B685B685B00B2FBF3F36C4AA2FBD6
:1045A00003235B091C01FEF7DDFA024613469B005C
:1045B00013449A001A447B685B685B00B2FBF3F516
:1045C000FEF7D0FA024613469B0013449A001A44A1
:1045D0007B685B685B00B2FBF3F35D4AA2FB0323DD
:1045E0005B09642202FB03F3EB1ADB003233584A07
:1045F000A2FB03235B095B0003F4F8731C44FEF782
:10460000B1FA024613469B0013449A001A447B6891
:104610005B685B00B2FBF3F5FEF7A4FA02461346B3
:104620009B0013449A001A447B685B685B00B2FBF2
:10463000F3F3474AA2FB03235B09642202FB03F363
:10464000EB1ADB003233424AA2FB03235B0903F07F
:1046500007027B681B6822449A60E7E07B681B685E
:10466000394A934204D07B681B68384A934271D11F
:10467000FEF78CFA024613469B0013449A001A4434
:104680007B685B689B00B2FBF3F3314AA2FB032318
:104690005B091C01FEF77AFA024613469B0013449D
:1046A0009A001A447B685B689B00B2FBF3F5FEF747
:1046B0006DFA024613469B0013449A001A447B6825
:1046C0005B689B00B2FBF3F3214AA2FB03235B0967
:1046D000642202FB03F3EB1A1B0132331C4AA2FBD8
:1046E00003235B0903F0F0031C44FEF74FFA024674
:1046F00013469B0013449A001A447B685B689B0036
:10470000B2FBF3F5FEF742FA024613469B00134450
:104710009A001A447B685B689B00B2FBF3F30C4A77
:10472000A2FB03235B09642202FB03F3EB1A1B01C8
:104730003233074AA2FB03235B0903F00F027B68B5
:104740001B6822449A6071E000100140001401408F
:104750001F85EB51FEF706FA024613469B001344F1
:104760009A001A447B685B689B00B2FBF3F3314A02
:10477000A2FB03235B091C01FEF7F4F90246134672
:104780009B0013449A001A447B685B689B00B2FB51
:10479000F3F5FEF7E7F9024613469B0013449A002F
:1047A0001A447B685B689B00B2FBF3F3214AA2FBCF
:1047B00003235B09642202FB03F3EB1A1B01323370
:1047C0001C4AA2FB03235B0903F0F0031C44FEF721
:1047D000C9F9024613469B0013449A001A447B68A9
:1047E0005B689B00B2FBF3F5FEF7BCF9024613468B
:1047F0009B0013449A001A447B685B689B00B2FBE1
:10480000F3F30C4AA2FB03235B09642202FB03F3CC
:10481000EB1A1B013233074AA2FB03235B0903F0A7
:104820000F027B681B6822449A60FFE700BF1037C5
:10483000BD46B0BD1F85EB5180B487B000AF87ED9A
:10484000010AD7ED017AB6EE007A67EE877AC7EDF6
:10485000057A7B683B6107F110031B68FB60FB680E
:104860005A10124B9B1AFB6007F10C031B683B614B
:1048700097ED047AD7ED057A27EE277AD7ED047AFB
:1048800067EE277AB7EE087A37EE677AD7ED047AC3
:1048900067EE277AC7ED047A3B6907EE903AB0EEEF
:1048A000670A1C37BD465DF8047B7047DF59375FE8
:1048B00080B584B002AF03460A46FB711346BB7154
:1048C000002240211248FDF737FDFB7903F07F03FA
:1048D000DAB2104B1A703723009301230E4A0D49A8
:1048E0000E48FEF7CBF90B4ABB79137037230093C0
:1048F0000123094A07490948FEF7C0F9012240216E
:104900000348FDF719FD002318460837BD4680BD52
:10491000001402404002002041020020CC0500208B
:1049200080B584B002AF0346FB71002240211248DB
:10493000FDF702FDFB7963F07F03DAB20F4B1A70CB
:104940003723009301230E4A0C490E48FEF796F9CF
:104950003723009301230A4A08490A48FEF78EF9D3
:10496000012240210448FDF7E7FC054B1B7818465F
:104970000837BD4680BD00BF001402404002002041
:1049800041020020CC05002080B584B002AF034670
:104990003960FB711346BB71002240211448FDF7BA
:1049A000CBFCFB7963F07F03DAB2124B1A70114B28
:1049B0001A78114B1A703723009301230F4A0D49BF
:1049C0000F48FEF75BF9BB799AB237230093134681
:1049D0003A6809490A48FEF751F901224021044882
:1049E000FDF7AAFC002318460837BD4680BD00BF6E
:1049F00000140240400200200C0000204102002070
:104A0000CC05002080B582B000AF03460A46FB719A
:104A10001346BB7100212A20FFF74AFF0220FCF752
:104A200015FBFB7919462920FFF742FF0220FCF70E
:104A30000DFBBB7919466420FFF73AFF0220FCF713
:104A400005FB81212A20FFF733FF0A20FCF7FEFA3D
:104A500000BF0837BD4680BD80B584B000AF0346B7
:104A6000FB71FB7919463220FFF722FF0A20FCF781
:104A7000EDFA80213420FFF71BFF0A20FCF7E6FA4D
:104A80003520FFF74DFF0346FB7300213420FFF76D
:104A90000FFF0A20FCF7DAFAFB7B18461037BD46F9
:104AA00080BD80B582B000AF0346FB710B46BB7181
:104AB00013467B71FB7919462820FFF7F9FE022087
:104AC000FCF7C4FA0A212920FFF7F2FE0220FCF7C6
:104AD000BDFA01216420FFF7EBFE0220FCF7B6FAD5
:104AE000FB7963F07F03DBB219462520FFF7E0FE78
:104AF0000220FCF7ABFABB7919462620FFF7D8FE57
:104B00000220FCF7A3FA03213420FFF7D1FE022094
:104B1000FCF79CFA03216720FFF7CAFE0220FCF78E
:104B200095FA81212A20FFF7C3FE0620FCF78EFAB2
:104B30007B7963F07F03DBB219462720FFF7B8FECD
:104B40000220FCF783FA00BF0837BD4680BD80B560
:104B500000AF30216A20FFF7ABFE0A20FCF776FA9F
:104B60000D212420FFF7A4FE0A20FCF76FFA0E2186
:104B70002820FFF79DFE0A20FCF768FA8E213120DD
:104B8000FFF796FE0A20FCF761FA01210B20FFF7E0
:104B900039FF0A20FCF75AFA0020FFF75DFF0346B1
:104BA000102B01D0012359E001210B20FFF72AFF30
:104BB0000A20FCF74BFA00210A20FFF723FF0A2006
:104BC000FFF74AFF0346002B01D0022346E00A20EC
:104BD000FCF73CFA00210B20FFF714FF0B20FFF736
:104BE0003BFF0346002B01D0032337E00A20FCF7EC
:104BF0002DFA24214120FFF705FF4120FFF72CFF6C
:104C00000346242B01D0042328E00A20FCF71EFAD7
:104C1000C0214220FFF7F6FE4220FFF71DFF0346AA
:104C2000C02B01D0052319E00A20FCF70FFA002160
:104C30002A20FFF73DFE0A20FCF708FA0021342065
:104C4000FFF736FE0A20FCF701FA062203210E20A8
:104C5000FFF727FF6420FCF7F9F90023184680BD11
:104C600080B582B000AF7860062279684920FFF7EE
:104C70008BFE00BF0837BD4680BD000080B500AF89
:104C80000E2261493B20FFF77FFE5F4B1B781B0222
:104C90001AB25D4B5B781BB213431AB25B4B1A809E
:104CA000594B9B781B021AB2574BDB781BB213434C
:104CB0001AB2564B5A80544B1B791B021AB2524BF4
:104CC0005B791BB213431AB2504B9A804E4B9B79BF
:104CD0001B021AB24C4BDB791BB213431AB24B4B7B
:104CE0009A81494B1B7A1B021AB2474B5B7A1BB263
:104CF00013431BB29AB2454BB3F91A309BB2D31A85
:104D00009BB21AB2414BDA813F4B9B7A1B021AB21B
:104D10003D4BDB7A1BB213431BB29AB23B4BB3F948
:104D20001C309BB2D31A9BB21AB2384B1A82364B44
:104D30001B7B1B021AB2344B5B7B1BB213431BB2AF
:104D40009AB2324BB3F91E309BB2D31A9BB21AB24D
:104D50002E4B5A822E48FFF783FF2C4B2C4A0633EA
:104D60001168196092889A800C222849294803F01A
:104D700021FC264BB3F90C3007EE903AB8EEE77AF7
:104D8000DFED256AC7EE267AB3EE057A77EE877AED
:104D9000204BC3ED037A1D4BB3F90E3007EE903A6A
:104DA000F8EEE77ADFED1D6A87EEA67ADFED1C6A82
:104DB000C7EE267A174BC3ED047A144BB3F91030C3
:104DC00007EE903AF8EEE77ADFED146A87EEA67AFE
:104DD000DFED136AC7EE267A0E4BC3ED057A0B4B57
:104DE000B3F9123007EE903AF8EEE77ADFED0B6A8E
:104DF00087EEA67ADFED0A6AC7EE267A054BC3ED89
:104E0000067A00BF80BD00BFD8020020B802002093
:104E1000A8020020440200205CEFA6436F128341E9
:104E20003333654280B582B000AF0346FB71FB7936
:104E3000DB00DBB219461B20FFF73AFD034618469C
:104E40000837BD4680BD80B582B000AF0346FB7118
:104E5000FB79DB00DBB219461C20FFF729FD034676
:104E600018460837BD4680BD80B586B000AF6420C7
:104E7000FCF7ECF87520FFF753FD03461A462B4B61
:104E80001A700023FB753B4600221A605A609A6034
:104E9000DA601A616B233B7080237B706B23BB70DD
:104EA0000323FB706C233B711A23BB710423FB713A
:104EB0001B233B7218237B721C23BB721023FB72D3
:104EC0001D233B7302237B736A23BB732023FB7375
:104ED0000023FB7517E0FB7D5B0007F1180213440C
:104EE00013F8182CFB7D5B0007F118010B4413F835
:104EF000173C19461046FFF7DBFC0120FCF7A6F82B
:104F0000FB7D0133FB75FB7D092BE4D90320FFF703
:104F100089FF0220FFF797FFFFF719FE00F008F85E
:104F2000002318461837BD4680BD00BFAE020020E2
:104F300080B582B000AF00237B607CE00E22664922
:104F40003B20FFF721FD654BB3F914309AB2624B59
:104F50001B781B0219B2604B5B781BB20B431BB270
:104F60009BB213449BB21AB25C4B9A825B4BB3F96F
:104F700016309AB2584B9B781B0219B2564BDB780D
:104F80001BB20B431BB29BB213449BB21AB2534BDE
:104F9000DA82524BB3F918309AB24F4B1B791B028D
:104FA00019B24D4B5B791BB20B431BB29BB213443E
:104FB0009BB21AB2494B1A83484BB3F91A309AB2D2
:104FC000454B1B7A1B0219B2434B5B7A1BB20B4356
:104FD0001BB29BB213449BB21AB2404B5A833F4B55
:104FE000B3F91C309AB23C4B9B7A1B0219B23A4B74
:104FF000DB7A1BB20B431BB29BB213449BB21AB2B7
:10500000364B9A83354BB3F91E309AB2324B1B7B29
:105010001B0219B2304B5B7B1BB20B431BB29BB222
:1050200013449BB21AB22D4BDA830520FCF70EF81D
:105030007B6801337B607B68B3F5967FFFF67EAFBC
:10504000264BB3F91430264A82FB03125211DB17A8
:10505000D31A1AB2214B9A82204BB3F91630204A48
:1050600082FB03125211DB17D31A1AB21B4BDA82DE
:105070001A4BB3F918301A4A82FB03125211DB178C
:10508000D31A1AB2154B1A83144BB3F91A30144AB7
:1050900082FB03125211DB17D31A1AB20F4B5A8339
:1050A0000E4BB3F91A300E4A82FB03125211DB1772
:1050B000D31A1AB2094B9A83084BB3F91E30084A27
:1050C00082FB03125211DB17D31A1AB2034BDA8395
:1050D00000BF0837BD4680BDD8020020B8020020BE
:1050E000B5814E1B2DE9B04F84B000AF794BDB8802
:1050F000FB81784B1B89BB81B7F90E30002B36DA68
:10510000B7F90C30002B32DAB7F90E20B7F90C30B2
:1051100092FBF3F31846FBF715FA03460C463B6087
:1051200024F000437B604FF000026B4BD7E9000195
:10513000FBF7F8FC0346002B0CD0684B684A1A605A
:10514000684B694A1A60694B694A1A60694B6A4A36
:105150001A60BAE0614B694A1A60624B684A1A6089
:10516000624B684A1A60634B674A1A60ADE0B7F950
:105170000E30002B35DAB7F90C30002B31DDB7F9E2
:105180000E20B7F90C3092FBF3F31846FBF7DAF96F
:1051900003460C469A4624F0004B4FF000024E4B5B
:1051A00050465946FBF7BEFC0346002B0CD04B4B38
:1051B000564A1A604B4B4C4A1A604C4B544A1A6080
:1051C0004C4B544A1A6080E0444B504A1A60454B9D
:1051D000514A1A60454B514A1A60464B504A1A6070
:1051E00073E0B7F90E30002B35DDB7F90C30002B2A
:1051F00031DDB7F90E20B7F90C3092FBF3F3184606
:10520000FBF7A0F903460C46984624F000494FF0FE
:105210000002314B40464946FBF784FC0346002B15
:105220000CD02E4B3F4A1A602E4B394A1A602F4B36
:105230002D4A1A602F4B2A4A1A6046E0274B3A4AF9
:105240001A60284B354A1A60284B334A1A60294B9A
:10525000354A1A6039E0B7F90E30002B35DDB7F961
:105260000C30002B31DAB7F90E20B7F90C3092FB75
:10527000F3F31846FBF766F902460B46144623F093
:1052800000454FF00002144B20462946FBF74AFC2C
:105290000346002B0CD0114B244A1A60114B244AB0
:1052A0001A60124B104A1A60124B224A1A600CE024
:1052B0000A4B1E4A1A600B4B124A1A600B4B1E4ACD
:1052C0001A600C4B1D4A1A60FFE700BF1037BD463D
:1052D000BDE8B08F440200200000F03F080000202D
:1052E0000AD7A3BB10020020A8C64BBE14020020A0
:1052F000BE9F7A3F180200204ED111BC6F1203BC32
:105300007B140EBFE17A543F6F1203BB0AD7A33B55
:10531000355E7ABFA69B443C68910DBFE17A54BFCD
:1053200099BB16BB52499D3A99BB163B0AD7233B02
:10533000355E7A3F6F12033C295C0FBFBC74933B10
:1053400090B59FB000AFD34B93ED007AD14BD3ED26
:10535000007A67EE277AC7ED1D7ACE4B93ED007A7F
:10536000CD4BD3ED007A67EE277AC7ED1C7AC94B97
:1053700093ED007AC94BD3ED007A67EE277AC7ED3B
:105380001B7AC44B93ED007AC54BD3ED007A67EEE0
:10539000277AC7ED1A7AC04B93ED007ABE4BD3ED56
:1053A000007A67EE277AC7ED197ABB4B93ED007A46
:1053B000BA4BD3ED007A67EE277AC7ED187AB64B71
:1053C00093ED007AB64BD3ED007A67EE277AC7EDFE
:1053D000177AB24B93ED007AB04BD3ED007A67EEBB
:1053E000277AC7ED167AAD4B93ED007AAC4BD3ED2F
:1053F000007A67EE277AC7ED157AA94B93ED007A0C
:10540000A74BD3ED007A67EE277AC7ED147AA54B48
:105410001B69A54A1360A34B5B69A44A1360A14BA7
:105420009B69A34A13609F4BB3F9003007EE903A93
:10543000F8EEE77A9F4BC3ED007A9A4BB3F902304E
:1054400007EE903AF8EEE77A9B4BC3ED007A954B66
:10545000B3F9043007EE903AF8EEE77A974BC3EDD4
:10546000007A904BB3F9063007EE903AF8EEE77AFF
:10547000934BC3ED007A8B4BB3F9083007EE903AAB
:10548000F8EEE77A8F4BC3ED007A864BB3F90A301A
:1054900007EE903AF8EEE77A8B4BC3ED007AFBF714
:1054A000C9FD0246894B1A60884B1A68884B1B68F5
:1054B000D31A07EE903AB8EE677ADFED866AC7EE48
:1054C000267AC7ED137A814B1B68814A1360794BAA
:1054D00093ED007A774BD3ED007A27EE277A764B5F
:1054E000D3ED006A744BD3ED007A66EEA77A37EEFF
:1054F000277A724BD3ED006A704BD3ED007A66EEDB
:10550000A77A77EE277AB0EE670AFFF795F987ED6D
:10551000120A684B93ED007AD7ED127A67EE277A7C
:10552000644BC3ED007A644B93ED007AD7ED127AA9
:1055300067EE277A604BC3ED007A604B93ED007AFB
:10554000D7ED127A67EE277A5C4BC3ED007A5C4B9D
:1055500093ED007A5A4BD3ED007A27EE277A594B18
:10556000D3ED006A574BD3ED007A66EEA77A37EE9B
:10557000277A554BD3ED006A534BD3ED007A66EE94
:10558000A77A77EE277AB0EE670AFFF755F987ED2D
:10559000120A4B4B93ED007AD7ED127A67EE277A19
:1055A000474BC3ED007A474B93ED007AD7ED127A63
:1055B00067EE277A434BC3ED007A434B93ED007AB5
:1055C000D7ED127A67EE277A3F4BC3ED007A3C4B5A
:1055D000D3ED007A37EEA77AF6EE006AD7ED167AA9
:1055E00076EEE76AD7ED147A76EEE77A27EE277A39
:1055F000344BD3ED007A77EEA76A97ED186AD7EDB2
:105600001A7A76EE677A66EEA77A37EE277A2E4B0D
:10561000D3ED007A77EEA76A97ED176AD7ED1B7A7C
:1056200076EE277A66EEA77A77EE277AC7ED117ABB
:10563000234BD3ED007A37EEA77AD7ED186AD7ED72
:105640001A7A76EEA77A27EE277A1E4BD3ED007AE8
:1056500077EEA76AB6EE006AD7ED197A36EE676A7A
:10566000D7ED147A76EE677A66EEA77A37EE277A68
:10567000154BD3ED007A77EEA76A97ED156AD7ED53
:105680001C7A76EE677A66EEA77A77EE277AC7ED10
:10569000107A21E0080000201002002014020020EF
:1056A00018020020440200201C02002020020020DA
:1056B00024020020280200202C02002030020020BA
:1056C00034020020380200203C020020B0020020FA
:1056D000EC0200200000FA44E84BD3ED007A37EEEC
:1056E000A77AD7ED176AD7ED1B7A76EEE77A27EE21
:1056F000277AE34BD3ED007A77EEA76A97ED156A28
:10570000D7ED1C7A76EE277A66EEA77A37EE277AFF
:10571000DC4BD3ED007A77EEA76AB6EE006AD7EDE0
:10572000197A36EE676AD7ED167A76EE677A66EE04
:10573000A77A77EE277AC7ED0F7A97ED117AD7ED32
:10574000117A27EE277AD7ED106AD7ED107A66EE38
:10575000A77A77EE277A17EE900AFAF705FF034645
:105760000C4644EC103B05F0C9FB54EC103B1846CA
:105770002146FBF729FA0346BB63FB6B7B6397ED7E
:10578000177AD7ED1B7A77EE677A77EEA77AC7EDAF
:105790000C7A97ED1C7AD7ED157A77EE277A77EEAB
:1057A000A77AC7ED0B7A97ED1D7AD7ED197A37EE08
:1057B000677AD7ED167A77EE677A97ED147A77EEF7
:1057C000277AC7ED0A7AD7ED0E7A37EEA77AF6EE8A
:1057D000006AD7ED167A76EEE76AD7ED147A76EEA0
:1057E000E77A27EE277AD7ED0D7A77EEA76A97ED5D
:1057F000176AD7ED1B7A76EE677A66EEA77A77EEB0
:10580000277AC7ED097AD7ED0E7A37EEA77AD7ED6A
:10581000186AD7ED1A7A76EEE77A27EE277AD7ED6F
:105820000D7A77EEA76A97ED1C6AD7ED157A76EEBA
:10583000277A66EEA77A77EE277AC7ED087AD7ED52
:105840000E7A37EEA77AD7ED1B6AD7ED177A76EE88
:10585000A77A27EE277AD7ED0D7A77EEA76AB6EE0C
:10586000006AD7ED197A36EE676AD7ED167A76EECA
:10587000677A66EEA77A77EE277AC7ED077A824BCA
:1058800093ED007AD7ED0A7A27EE277A7F4BD3ED96
:10589000006AD7ED0B7A66EEA77A37EE677A784B17
:1058A000D3ED006AD7ED077A66EEA76A754B93EDE4
:1058B000006AD7ED087A66EE277A76EEE77A77EE19
:1058C000277AC7ED067A714B93ED007AD7ED0C7A03
:1058D00027EE277A6E4BD3ED006AD7ED0A7A66EE93
:1058E000A77A37EE677A674BD3ED006AD7ED097A6E
:1058F00066EEA76A614B93ED006AD7ED077A66EE14
:10590000277A76EEE77A77EE277AC7ED057A604B4D
:1059100093ED007AD7ED0B7A27EE277A5A4BD3ED29
:10592000006AD7ED0C7A66EEA77A37EE677A534BAA
:10593000D3ED006AD7ED087A66EEA76A504B93ED77
:10594000006AD7ED097A66EE277A76EEE77A77EE87
:10595000277AC7ED047AD7ED067AF5EE407AF1EEB4
:1059600010FA76D0D7ED057AF5EE407AF1EE10FA1E
:105970006FD0D7ED047AF5EE407AF1EE10FA68D0E8
:10598000D7ED067A9FED437A27EE877AD7ED137A23
:1059900027EE277A404BD3ED007A77EE277A3E4BFD
:1059A000C3ED007AD7ED057A9FED3A7A27EE877A34
:1059B000D7ED137A27EE277A384BD3ED007A77EEBE
:1059C000277A364BC3ED007AD7ED047A9FED317A12
:1059D00027EE877AD7ED137A27EE277A304BD3ED6F
:1059E000007A77EE277A2E4BC3ED007AD7ED067A50
:1059F00037EEA77A2B4BD3ED007A37EE277A264B7A
:105A0000D3ED007A77EE277A264BC3ED007AD7EDF7
:105A1000057A37EEA77A244BD3ED007A37EE277A52
:105A20001E4BD3ED007A77EE277A1F4BC3ED007A39
:105A3000D7ED047A37EEA77A1C4BD3ED007A37EE18
:105A4000277A174BD3ED007A77EE277A174BC3ED01
:105A5000007A174BD3ED007AB1EE677A114BD3ED94
:105A6000007A27EE277A134BD3ED006A0E4BD3ED65
:105A7000007A66EEA77A37EE677A1DE034020020DE
:105A8000380200203C0200202C02002030020020BE
:105A9000280200200AD7233CA4020020B4020020E0
:105AA000E80200201C020020200200202402002026
:105AB00010020020140200206A4BD3ED006A6A4BEA
:105AC000D3ED007A66EEA77A37EE677AD7ED137AD0
:105AD00027EE277A654BD3ED007A77EE277AC7ED6C
