:020000040800F2
:100000000000032039450008F13E0008F33E0008D7
:10001000F53E0008F73E0008F93E00080000000029
:10002000000000000000000000000000FB3E00088F
:10003000FD3E000800000000FF3E0008013F0008F0
:100040008945000889450008894500088945000858
:100050008945000889450008894500088945000848
:100060008945000889450008894500088945000838
:100070008945000889450008894500088945000828
:100080008945000889450008894500088945000818
:100090000D3F00081D3F00088945000889450008FC
:1000A00089450008894500088945000889450008F8
:1000B00089450008894500088945000889450008E8
:1000C00089450008894500088945000889450008D8
:1000D000894500082D3F000889450008894500082A
:1000E00089450008894500088945000889450008B8
:1000F00089450008894500088945000889450008A8
:100100008945000889450008894500088945000897
:1001100089450008894500083D3F000889450008D9
:100120008945000889450008894500088945000877
:100130008945000889450008894500088945000867
:100140004D3F00085D3F00088945000889450008CB
:100150008945000889450008894500086D3F000869
:100160008945000889450008894500088945000837
:1001700089450008894500088945000800000000FD
:100180008945000889450008894500087D3F000829
:100190008945000889450008894500088945000807
:0C01A0000000000000000000894500087D
:1001B00010B5054C237833B9044B13B10448AFF3A1
:1001C00000800123237010BDDC010020000000002E
:1001D000746E000808B5034B1BB103490348AFF325
:1001E000008008BD00000000E0010020746E0008DF
:1001F000034613F8012B002AFBD1181A0138704767
:1002000001F0FF01102A2BDB10F0070F08D010F8C7
:10021000013B013A8B422DD010F0070F42B3F6D1CB
:10022000F0B441EA012141EA014122F007047FF0E4
:1002300000070023F0E80256083C85EA010586EA3B
:10024000010685FA47F5A3FA87F586FA47F6A5FA77
:1002500087F68EB9EED1F0BC01F0FF0102F0070283
:1002600032B110F8013B013A83EA010313B1F8D12E
:100270000020704701387047002D06BF354603380F
:10028000073815F0010F07D1013015F4807F02BF48
:10029000013015F4C03F0130F0BC0138704700BF99
:1002A00081F0004102E000BF83F0004330B54FEA27
:1002B00041044FEA430594EA050F08BF90EA020F94
:1002C0001FBF54EA000C55EA020C7FEA645C7FEA27
:1002D000655C00F0E2804FEA5454D4EB5555B8BF4A
:1002E0006D420CDD2C4480EA020281EA030382EABB
:1002F000000083EA010180EA020281EA0303362D4D
:1003000088BF30BD11F0004F4FEA01314FF4801C1F
:100310004CEA113102D0404261EB410113F0004F31
:100320004FEA03334CEA133302D0524263EB4303E8
:1003300094EA050F00F0A780A4F10104D5F1200E86
:100340000DDB02FA0EFC22FA05F2801841F10001E1
:1003500003FA0EF2801843FA05F359410EE0A5F1B5
:1003600020050EF1200E012A03FA0EFC28BF4CF0E6
:10037000020C43FA05F3C01851EBE37101F000459C
:1003800007D54FF0000EDCF1000C7EEB00006EEBA9
:100390000101B1F5801F1BD3B1F5001F0CD3490833
:1003A0005FEA30004FEA3C0C04F101044FEA44528A
:1003B00012F5800F80F09A80BCF1004F08BF5FEA11
:1003C000500C50F1000041EB045141EA050130BDF1
:1003D0005FEA4C0C404141EB010111F4801FA4F194
:1003E0000104E9D191F0000F04BF01460020B1FAE9
:1003F00081F308BF2033A3F10B03B3F120020CDA21
:100400000C3208DD02F1140CC2F10C0201FA0CF0FE
:1004100021FA02F10CE002F11402D8BFC2F1200C63
:1004200001FA02F120FA0CFCDCBF41EA0C01904019
:10043000E41AA2BF01EB0451294330BD6FEA040462
:100440001F3C1CDA0C340EDC04F11404C4F120024D
:1004500020FA04F001FA02F340EA030021FA04F35F
:1004600045EA030130BDC4F10C04C4F1200220FAB6
:1004700002F001FA04F340EA0300294630BD21FAF4
:1004800004F0294630BD94F0000F83F4801306BFBA
:1004900081F480110134013D4EE77FEA645C18BFAE
:1004A0007FEA655C29D094EA050F08BF90EA020F45
:1004B00005D054EA000C04BF1946104630BD91EA3D
:1004C000030F1EBF0021002030BD5FEA545C05D140
:1004D0004000494128BF41F0004130BD14F580047F
:1004E0003CBF01F5801130BD01F0004545F0FE41F3
:1004F00041F470014FF0000030BD7FEA645C1ABF28
:10050000194610467FEA655C1CBF0B46024650EA5E
:10051000013406BF52EA033591EA030F41F400218A
:1005200030BD00BF90F0000F04BF0021704730B510
:100530004FF4806404F132044FF000054FF00001E5
:1005400050E700BF90F0000F04BF0021704730B5A6
:100550004FF4806404F1320410F0004548BF40427B
:100560004FF000013EE700BF42004FEAE2014FEAD0
:1005700031014FEA02701FBF12F07F4393F07F4FAB
:1005800081F06051704732F07F4208BF704793F0AE
:100590007F4F04BF41F40021704730B54FF46074C1
:1005A00001F0004521F000411CE700BF50EA0102C4
:1005B00008BF704730B54FF000050AE050EA01026D
:1005C00008BF704730B511F0004502D5404261EBDD
:1005D00041014FF4806404F132045FEA915C3FF41E
:1005E000D8AE4FF003025FEADC0C18BF03325FEABB
:1005F000DC0C18BF033202EBDC02C2F1200300FA6C
:1006000003FC20FA02F001FA03FE40EA0E0021FA90
:1006100002F11444BDE600BF70B54FF0FF0C4CF47E
:10062000E06C1CEA11541DBF1CEA135594EA0C0F30
:1006300095EA0C0F00F0DEF82C4481EA030621EA6B
:100640004C5123EA4C5350EA013518BF52EA0335A6
:1006500041F4801143F4801338D0A0FB02CE4FF058
:100660000005E1FB02E506F00042E0FB03E54FF088
:100670000006E1FB03569CF0000F18BF4EF0010E80
:10068000A4F1FF04B6F5007F64F5407404D25FEA7C
:100690004E0E6D4146EB060642EAC62141EA55512F
:1006A0004FEAC52040EA5E504FEACE2EB4F1FD0C71
:1006B00088BFBCF5E06F1ED8BEF1004F08BF5FEAEF
:1006C000500E50F1000041EB045170BD06F00046A1
:1006D00046EA010140EA020081EA0301B4EB5C044E
:1006E000C2BFD4EB0C0541EA045170BD41F4801146
:1006F0004FF0000E013C00F3AB8014F1360FDEBF6B
:10070000002001F0004170BDC4F10004203C35DA46
:100710000C341BDC04F11404C4F1200500FA05F3C9
:1007200020FA04F001FA05F240EA020001F000426A
:1007300021F0004110EBD37021FA04F642EB0601E0
:100740005EEA430E08BF20EAD37070BDC4F10C040A
:10075000C4F1200500FA04F320FA05F001FA04F2CE
:1007600040EA020001F0004110EBD37041F10001BA
:100770005EEA430E08BF20EAD37070BDC4F12005C5
:1007800000FA05F24EEA020E20FA04F301FA05F22D
:1007900043EA020321FA04F001F0004121FA04F2D5
:1007A00020EA020000EBD3705EEA430E08BF20EAA5
:1007B000D37070BD94F0000F0FD101F000464000DF
:1007C00041EB010111F4801F08BF013CF7D041EA61
:1007D000060195F0000F18BF704703F00046520065
:1007E00043EB030313F4801F08BF013DF7D043EA36
:1007F0000603704794EA0C0F0CEA135518BF95EAEC
:100800000C0F0CD050EA410618BF52EA4306D1D172
:1008100081EA030101F000414FF0000070BD50EA91
:10082000410606BF1046194652EA430619D094EA1B
:100830000C0F02D150EA013613D195EA0C0F05D105
:1008400052EA03361CBF104619460AD181EA030159
:1008500001F0004141F0FE4141F470014FF0000011
:1008600070BD41F0FE4141F4780170BD70B54FF0AC
:10087000FF0C4CF4E06C1CEA11541DBF1CEA13552C
:1008800094EA0C0F95EA0C0F00F0A7F8A4EB05040E
:1008900081EA030E52EA03354FEA013100F0888005
:1008A0004FEA03334FF0805545EA131343EA1263CE
:1008B0004FEA022245EA111545EA10654FEA002683
:1008C0000EF000419D4208BF964244F1FD0404F53C
:1008D000407402D25B084FEA3202B61A65EB030598
:1008E0005B084FEA32024FF480104FF4002CB6EB55
:1008F000020E75EB030E22BFB61A754640EA0C00D5
:100900005B084FEA3202B6EB020E75EB030E22BF14
:10091000B61A754640EA5C005B084FEA3202B6EB55
:10092000020E75EB030E22BFB61A754640EA9C0014
:100930005B084FEA3202B6EB020E75EB030E22BFE4
:10094000B61A754640EADC0055EA060E18D04FEAA2
:10095000051545EA16754FEA06164FEAC30343EA42
:1009600052734FEAC2025FEA1C1CC0D111F4801F0F
:100970000BD141EA00014FF000004FF0004CB6E708
:1009800011F4801F04BF01430020B4F1FD0C88BFA7
:10099000BCF5E06F3FF6AFAEB5EB030C04BFB6EBB2
:1009A000020C5FEA500C50F1000041EB045170BDA5
:1009B0000EF0004E4EEA113114EB5C04C2BFD4EBD2
:1009C0000C0541EA045170BD41F480114FF0000E56
:1009D000013C90E645EA060E8DE60CEA135594EAD2
:1009E0000C0F08BF95EA0C0F3FF43BAF94EA0C0FD5
:1009F0000AD150EA01347FF434AF95EA0C0F7FF44A
:100A000025AF104619462CE795EA0C0F06D152EA9D
:100A100003353FF4FDAE1046194622E750EA410681
:100A200018BF52EA43067FF4C5AE50EA41047FF492
:100A30000DAF52EA43057FF4EBAE12E74FF0FF3CF7
:100A400006E000BF4FF0010C02E000BF4FF0010CC8
:100A50004DF804CD4FEA410C7FEA6C5C4FEA430C41
:100A600018BF7FEA6C5C1BD001B050EA410C0CBF90
:100A700052EA430C91EA030F02BF90EA020F0020F2
:100A8000704710F1000F91EA030F58BF994208BF59
:100A900090422CBFD8176FEAE37040F00100704716
:100AA0004FEA410C7FEA6C5C02D150EA013C07D16D
:100AB0004FEA430C7FEA6C5CD6D152EA033CD3D0B8
:100AC0005DF8040B704700BF8446104662468C46B2
:100AD0001946634600E000BF01B5FFF7B7FF0028E5
:100AE00048BF10F1000F01BD4DF808EDFFF7F4FF0E
:100AF0000CBF012000205DF808FB00BF4DF808ED99
:100B0000FFF7EAFF34BF012000205DF808FB00BFBB
:100B10004DF808EDFFF7E0FF94BF012000205DF8DD
:100B200008FB00BF4DF808EDFFF7CEFF94BF012092
:100B300000205DF808FB00BF4DF808EDFFF7C4FF8B
:100B400034BF012000205DF808FB00BF4FEA410CD4
:100B50007FEA6C5C02D150EA013C0AD14FEA430CB7
:100B60007FEA6C5C02D152EA033C02D14FF00000F4
:100B700070474FF0010070474FEA410212F5001232
:100B800015D211D56FF47873B3EB625212D94FEAD4
:100B9000C12343F0004343EA505311F0004F23FABE
:100BA00002F018BF404270474FF00000704750EA13
:100BB000013005D111F0004008BF6FF000407047D0
:100BC0004FF00000704700BF4FEA4102B2F1E0432E
:100BD00024BFB3F5001CDCF1FE5C0DD901F0004C24
:100BE0004FEAC0024CEA5070B2F1004F40EB830074
:100BF00008BF20F00100704711F0804F21D113F1A0
:100C00003872BCBF01F00040704741F480114FEAD8
:100C10005252C2F11802C2F1200C10FA0CF320FA61
:100C200002F018BF40F001004FEAC1234FEAD3237E
:100C300003FA0CFC40EA0C0023FA02F34FEA4303E8
:100C4000CCE77FEA625307D150EA01331EBF4FF071
:100C5000FE4040F44000704701F0004040F0FE408C
:100C600040F40000704700BF53B94AB9002908BFDB
:100C700000281CBF4FF0FF314FF0FF3000F072B979
:100C8000ADF1080C6DE904CE00F006F8DDF804E0E3
:100C9000DDE9022304B070472DE9F047089E0446C1
:100CA0008846002B4BD18A42154667D9B2FA82F2A8
:100CB0004AB1C2F1200701FA02F320FA07F7954082
:100CC00047EA030894404FEA154E230CB8FBFEF7A1
:100CD0001FFA85FC0EFB178843EA084307FB0CF15B
:100CE000994209D9EB1807F1FF3080F01B81994236
:100CF00040F21881023F2B445B1AA4B2B3FBFEF012
:100D00000EFB103344EA034400FB0CFCA44509D954
:100D10002C1900F1FF3380F00781A44540F20481D3
:100D200002382C4440EA0740A4EB0C0400271EB113
:100D3000D4400023C6E900433946BDE8F0878B4222
:100D400009D9002E00F0EB800027C6E900013846E3
:100D50003946BDE8F087B3FA83F7002F47D18B42BD
:100D600002D3824200F2FA80841A61EB030301206D
:100D70009846002EE0D0C6E90048DDE702B9FFDE64
:100D8000B2FA82F2002A40F08F80491B4FEA154EDA
:100D90001FFA85F80127B1FBFEFC230C0EFB1C118A
:100DA00043EA014308FB0CF1994207D9EB180CF117
:100DB000FF3002D2994200F2CD808446591AA3B284
:100DC000B1FBFEF00EFB101443EA044408FB00F8EC
:100DD000A04507D92C1900F1FF3302D2A04500F23B
:100DE000B6801846A4EB080440EA0C409FE7C7F120
:100DF000200CBB4022FA0CFE4EEA030E01FA07F467
:100E000020FA0CF521FA0CF34FEA1E482543B3FBF8
:100E1000F8F92C0C08FB19331FFA8EFA44EA034345
:100E200009FB0AF49C4202FA07F200FA07F10BD917
:100E30001EEB030309F1FF3080F087809C4240F2F3
:100E40008480A9F1020973441B1BADB2B3FBF8F017
:100E500008FB103345EA034400FB0AFAA24508D90F
:100E60001EEB040400F1FF336BD2A24569D90238AE
:100E7000744440EA0940A0FB0289A4EB0A044C45F3
:100E8000C2464B4654D351D0002E69D0B1EB0A056F
:100E900064EB030404FA0CFCFD40FC404CEA05053D
:100EA000C6E90054002747E7C2F1200320FA03F700
:100EB000954001FA02F021FA03F34FEA154E384348
:100EC000010CB3FBFEF71FFA85F80EFB173341EA5E
:100ED000034107FB08F38B4204FA02F407D96918AF
:100EE00007F1FF3C2FD28B422DD9023F2944CB1A68
:100EF00081B2B3FBFEF00EFB103341EA034100FB6D
:100F000008F38B4207D9691800F1FF3C17D28B42D6
:100F100015D902382944C91A40EA07473BE7374642
:100F2000304609E70746E7E61846FBE64145ABD2FF
:100F3000B8EB020A69EB0E0201381346A4E76046DB
:100F4000E9E7184695E76746D1E781467CE702382E
:100F50002C4447E7ACF1020C2B442FE7384608E756
:100F60003746E9E6704700BF10B504460E4B1878C7
:100F70004FF47A73B3FBF0F30C4A1068B0FBF3F054
:100F800000F07CFC68B90F2C01D901200AE0002296
:100F900021464FF0FF3000F031FC034B5C60002035
:100FA00000E0012010BD00BF00000020080000206C
:100FB00008B50B4B1A6842F400721A601A6842F4C2
:100FC00080621A601A6842F480721A60032000F08E
:100FD00003FC0020FFF7C8FF02F040FF002008BD1F
:100FE000003C0240034A1168034B1B780B4413601A
:100FF000704700BF1002002000000020014B18685D
:10100000704700BF1002002038B50446FFF7F6FF16
:101010000546B4F1FF3F02D0044B1B781C44FFF798
:10102000EDFF401BA042FAD338BD00BF00000020F6
:10103000002800F0A18038B5044690F82030D3B1E4
:101040002268136823F002031360FFF7D7FF0546F9
:1010500023685A6812F0020F10D0FFF7CFFF401B31
:101060000A28F5D9636A43F400336362052384F8E0
:101070002030012038BD01F087FFE1E71A6842F017
:1010800001021A60FFF7BAFF054623685A6812F09A
:10109000010F0DD1FFF7B2FF401B0A28F5D9636A93
:1010A00043F400336362052384F820300120E1E734
:1010B000227E012A3DD01A6822F080021A60637EE7
:1010C000012B3BD02268136823F040031360A37EFA
:1010D000012B39D02268136823F020031360E37ECC
:1010E000012B37D02268136843F010031360237F6D
:1010F000012B35D02268136823F008031360637F47
:10110000012B33D02268136823F004031360A36813
:10111000E268134322691343626913436268013A28
:1011200021681343CB6100206062012384F82030E2
:10113000A0E71A6842F080021A60C0E722681368CC
:1011400043F040031360C2E72268136843F02003B2
:101150001360C4E72268136823F010031360C6E726
:101160002268136843F008031360C8E72268136815
:1011700043F004031360CAE70120704790F8203061
:10118000DBB2012B0AD090F82030DBB2022B05D065
:10119000436A43F4802343620120704770B4424B9A
:1011A000D3F8002242F00102C3F80022D3F8002253
:1011B00022F47C52C3F80022D3F80022486A42EAA3
:1011C0000022C3F800224A69012000FA02F2D3F893
:1011D0001C42D0430440C3F81C42CB69B3B9324B24
:1011E000D3F80C420440C3F80C42CE688D884C6999
:1011F00045EA0645483443F834508E680C884D69FA
:1012000044EA0644483503EBC5035C60CB69012B17
:101210001DD08B69002B32D1234CD4F8043203400B
:10122000C4F804320B698BBB1F4BD3F81442204027
:10123000C3F814020B6A012B2FD01B4AD2F80032DC
:1012400023F00103C2F80032002070BC7047164B37
:10125000D3F80C421443C3F80C420E688D884C69D5
:1012600045EA0645483443F834508E688C894D6908
:1012700044EA0644483503EBC5035C60C9E70A4C01
:10128000D4F804321343C4F80432CBE70648D0F84C
:1012900014321343C0F81432CCE70349D1F81C329E
:1012A0001A43C1F81C22C8E70064004038B590F822
:1012B0002030DBB2012B05D0436A43F400234362A4
:1012C000012038BD0446022380F8203002681368EC
:1012D00023F001031360FFF791FE054623685B6866
:1012E00013F0010F0DD0FFF789FE401B0A28F5D936
:1012F000636A43F400336362052384F820300120DD
:10130000DFE700206062DCE770B490F82040E4B2D0
:10131000012C0AD090F82040E4B2022C05D0436A98
:1013200043F48023436201204DE00468A56815F072
:10133000806F07D1A56815F0006F03D1A56815F07F
:10134000805F55D0A468C4F301640125A5401D60E9
:101350008B68002B39D10E68CB68056843EA465686
:1013600004F118031B01EE5003680D6904F118061F
:1013700003EB06135D600B7D012B31D0D17993799E
:101380001B0443EA0163517943EA0123157901689B
:101390002B4325012944C1F88C31D17893781B0463
:1013A00043EA0163517843EA0123117802680B4351
:1013B0002A44C2F88831026818342401135943F0D2
:1013C00001031351002070BC70474D6843EAC50308
:1013D000CD6806682B4304F118052D017351C3E74E
:1013E000036803EB0613596841F480715960C5E73F
:1013F000436A43F4001343620120E4E730B490F8F9
:101400002040E4B2012C0BD090F82040E4B2022C32
:1014100006D0436A43F480234362012030BC704706
:1014200051B90468E46814F0030F07D1436A43F428
:10143000001343620120F1E701295DD0056801F145
:101440001B0424012C5904F004049460002C5ED188
:10145000056801F11B0424012C59640D1460056812
:1014600001F11B0424012D59C5F34005D560056821
:1014700025446D6805F00F051561056825446D6804
:10148000C5F30725956105682C446468240C5461F4
:1014900004680A011444D4F8B8411C700468144468
:1014A000D4F8B841240A5C7004681444D4F8B841F4
:1014B000240C9C7004681444D4F8B841240EDC70E9
:1014C00004681444D4F8BC411C7104681444D4F872
:1014D000BC41240A5C7104681444D4F8BC41240C57
:1014E0009C7104682244D2F8BC21120EDA71B1B1A9
:1014F00001291BD0002091E70468246914F0030F30
:101500009CD1436A43F400134362012086E70568D7
:1015100001F11B0424012C59E40854609FE7026880
:10152000D36843F02003D360002077E70268136993
:1015300043F020031361002070E790F82030DBB205
:10154000012B0AD090F82030DBB2022B05D0436A81
:1015500043F48023436201207047026853691943B2
:10156000516100207047704770477047704770475F
:1015700070477047704770477047704770472DE954
:10158000F84F054603685C695F689E68D3F80C9065
:10159000D3F81080D3F818A014F0010F5AD016F029
:1015A000010F17D001229A6016F0020F08D116F031
:1015B000040F30D116F0080F07D04FF4805B0BE01A
:1015C000FFF7D1FF4FF0000B06E0FFF7CFFF4FF022
:1015D000000B01E04FF0000B16F4807F0BD02B685E
:1015E0004FF480729A6016F4007F17D116F4806F62
:1015F00018D04BF4005B16F4803F2DD02B684FF4CD
:1016000080329A6016F4003F16D116F4802F17D05E
:101610004BF4004B20E04FF4006BDDE72846FFF76A
:10162000A3FFE8E716F4006F02D04BF4804BE2E72B
:101630002846FFF79CFFDEE72846FFF796FF0BE002
:1016400016F4002F02D04BF4803B05E02846FFF74C
:101650008FFF01E04FF0000B14F0080F07D019F0D6
:10166000100F04D04BF4007B2B681022DA6014F0CA
:10167000040F02D019F0080F60D114F0020F04D04B
:101680002B68DB6813F0030F5FD114F0400F07D015
:1016900018F0100F04D04BF4806B2B6810221A61E5
:1016A00014F0200F02D018F0080F52D114F0100FD0
:1016B00004D02B681B6913F0030F51D114F4003FC1
:1016C00002D017F0100F4FD114F4803F02D017F062
:1016D000080F50D114F4004F67D017F0040F61D0F9
:1016E00014F4807F04D01AF0010F01D04BF0010BED
:1016F00014F4007F04D01AF0020F01D04BF0020B5B
:1017000014F4806F04D01AF0040F01D04BF0040BD6
:1017100014F4006F46D01AF0700A43D0BAF1300FBB
:1017200048D02FD9BAF1500F47D0BAF1600F47D047
:10173000BAF1400F31D14BF0400B2EE02B6808225C
:10174000DA602846FFF715FF97E7284601F0E0FD2D
:101750009BE72B6808221A612846FFF70CFFA5E7D4
:101760002846FFF707FFA9E72B6810225A60284692
:10177000FFF702FFA8E72B6808225A602846FFF708
:10178000FCFEA7E7BAF1100F05D0BAF1200F04D183
:101790004BF0100B01E04BF0080B2A68936923F023
:1017A000700393612B6804225A60BBF1000F0AD1C9
:1017B000BDE8F88F4BF0200BEFE74BF0800BECE728
:1017C0004BF4807BE9E76B6A43EA0B036B622846C4
:1017D000FFF7D4FEECE70000074AD36823F4E06388
:1017E0001B041B0C000200F4E060184340F0BF60D3
:1017F00040F40030D060704700ED00E030B4174B8B
:10180000DB68C3F30223C3F10704042C28BF0424BC
:101810001D1D062D18D9033B4FF0FF3505FA04F4C2
:1018200021EA0401994005FA03F322EA030319436C
:1018300000280BDB0901C9B200F1604000F56140EE
:1018400080F8001330BC70470023E5E700F00F007C
:101850000901C9B2024B1954F4E700BF00ED00E0E2
:1018600014ED00E000F01F02400901239340024AFA
:1018700042F82030704700BF00E100E00138B0F1CD
:10188000807F0AD2064B5860064AF02182F8231066
:101890000020986007221A6070470120704700BF3F
:1018A00010E000E000ED00E0042805D0054A1368D0
:1018B00023F0040313607047024A136843F00403E3
:1018C0001360704710E000E0704708B5FFF7FCFFB9
:1018D00008BD90F83530DBB2022B03D0802343657E
:1018E00001207047052380F835300268136823F023
:1018F000010313600020704700230F2B00F2E380E8
:10190000F0B482B039E0092200E00022B2403A434C
:1019100002346D4E46F824206C4A1468EA4302EA09
:1019200004064F6817F4803F01D045EA0406674C6F
:101930002660646802EA04064F6817F4003F01D08D
:1019400045EA0406614C6660A46802EA04064F6832
:1019500017F4801F01D045EA04065C4CA660E468D9
:1019600022404E6816F4001F01D045EA0402574C8D
:10197000E26001330F2B00F2A38001229A400C6831
:1019800004EA0205AA42F4D14C68022C01D0122CC0
:1019900010D1DE08083650F826C003F00704A7006F
:1019A0000F24BC402CEA040C0C69BC4044EA0C0433
:1019B00040F8264004685F000326BE40F64306EA6E
:1019C000040C4C6804F00304BC4044EA0C040460BA
:1019D0004C6804F1FF3CBCF1010F03D9112C01D07C
:1019E000122C10D1846806EA040CCC68BC4044EA8E
:1019F0000C048460446824EA02024C68C4F30014B6
:101A00009C4014434460C26816408A68BA4032431E
:101A1000C2604A6812F0805FABD0002201922C4A6B
:101A2000546C44F480445464526C02F48042019239
:101A3000019A9C08A61C244A52F8267003F003025F
:101A400096000F22B24027EA0207224A90423FF452
:101A50005CAF02F58062904222D002F58062904233
:101A600020D002F5806290421ED002F58062904242
:101A70001CD002F5806290421AD002F5806290423A
:101A800018D002F58062904216D002F58062904232
:101A900014D002F5806290423FF435AF0A2235E758
:101AA000012233E7022231E703222FE704222DE748
:101AB00005222BE7062229E7072227E7082225E748
:101AC00002B0F0BC7047704700380140003C014054
:101AD000003802400000024012B9090481617047D9
:101AE000816170474369594041617047002800F0A7
:101AF000BB8170B582B00446036813F0010F3BD080
:101B0000A74B9B6803F00C03042B2CD0A44B9B68C1
:101B100003F00C03082B21D06368B3F5803F4FD04E
:101B2000B3F5A02F52D09E4B1A6822F480321A606F
:101B30001A6822F480221A606368002B50D0FFF7E5
:101B40005DFA0546964B1B6813F4003F14D1FFF76E
:101B500055FA401B6428F5D903208AE1904B5B6855
:101B600013F4800FD8D08E4B1B6813F4003F03D0C2
:101B70006368002B00F07A81236813F0020F55D0C0
:101B8000874B9B6813F00C0F3ED0854B9B6803F08E
:101B90000C03082B33D0E368002B68D0814B012263
:101BA0001A60FFF72BFA05467D4B1B6813F0020FF6
:101BB00054D1FFF723FA401B0228F5D9032058E13E
:101BC000774A136843F480331360B5E7744B1A689F
:101BD00042F480221A601A6842F480321A60ABE73D
:101BE000FFF70CFA05466E4B1B6813F4003FC3D099
:101BF000FFF704FA401B6428F5D9032039E1684B4C
:101C00005B6813F4800FC6D1654B1B6813F0020F9D
:101C100004D0E368012B01D001202AE1604A136857
:101C200023F0F803216943EAC1031360236813F02A
:101C3000080F40D0636963B35B4B01221A60FFF762
:101C4000DDF90546564B5B6F13F0020F33D1FFF7FA
:101C5000D5F9401B0228F5D903200AE1504A136840
:101C600023F0F803216943EAC1031360DEE74D4B1B
:101C700000221A60FFF7C2F90546494B1B6813F0B2
:101C8000020FD3D0FFF7BAF9401B0228F5D9032081
:101C9000EFE0454B00221A60FFF7B0F90546404BD4
:101CA0005B6F13F0020F06D0FFF7A8F9401B022864
:101CB000F5D90320DDE0236813F0040F79D0384B09
:101CC0001B6C13F0805F33D100230193344B1A6CEB
:101CD00042F080521A641B6C03F080530193019B05
:101CE0000125324B1B6813F4807F23D0A368012B9E
:101CF00034D0052B38D02A4B1A6F22F001021A6714
:101D00001A6F22F004021A67A368002B36D0FFF77F
:101D100075F90646224B1B6F13F0020F48D1FFF7EF
:101D20006DF9801B41F288339842F3D90320A0E07B
:101D30000025D6E71D4A136843F480731360FFF74C
:101D40005DF90646194B1B6813F4807FCED1FFF76F
:101D500055F9801B0228F5D903208AE0104A136F39
:101D600043F001031367CFE70D4B1A6F42F00402F3
:101D70001A671A6F42F001021A67C5E7FFF73EF9CA
:101D80000646074B1B6F13F0020F11D0FFF736F911
:101D9000801B41F288339842F3D9032069E000BFE9
:101DA0000038024000004742800E47420070004069
:101DB000E5B9A369002B5BD0304A926802F00C02AF
:101DC000082A58D0022B17D02D4B00221A60FFF79B
:101DD00015F90446294B1B6813F0007F42D0FFF72A
:101DE0000DF9001B0228F5D9032042E0234A136CA9
:101DF00023F080531364DCE7214B00221A60FFF7C5
:101E0000FDF805461D4B1B6813F0007F06D0FFF759
:101E1000F5F8401B0228F5D903202AE0E369226A7D
:101E20001343626A43EA8213A26A5208013A43EA00
:101E30000243E26A43EA0263104A5360104B0122F4
:101E40001A60FFF7DBF804460C4B1B6813F0007FA9
:101E500006D1FFF7D3F8001B0228F5D9032008E0CC
:101E6000002006E0002004E001207047012000E08F
:101E7000002002B070BD0120FBE700BF0038024027
:101E800060004742264B9B6803F00C03042B44D0B0
:101E9000082B01D0234870472DE9F04B204B5A689E
:101EA00002F03F025B6813F4800F13D01C4B59689B
:101EB000C1F3881100231C48A1FB0001FEF7D4FEEA
:101EC000174B5B68C3F3014301335B00B0FBF3F0D6
:101ED000BDE8F08B124B5B68C3F388131E460027E6
:101EE0005C010025E41A65EB0705A90141EA94614C
:101EF000A001001B61EB0501CB0043EA5073C40055
:101F0000A01943EB07018B0243EA90538402204659
:101F100019460023FEF7A8FED2E70348704700BF2A
:101F2000003802400024F400001BB700002800F035
:101F30009D8070B504464F4B1B6803F00F038B4226
:101F400009D2CBB24B4A1370136803F00F038B42D4
:101F500001D0012070BD236813F0020F17D013F0D9
:101F6000040F04D0444A936843F4E0539360236819
:101F700013F0080F04D0404A936843F46043936021
:101F80003D4A936823F0F003A068034393600D4635
:101F9000236813F0010F32D06368012B21D09A1E01
:101FA000012A25D9344A126812F0020F60D0324952
:101FB0008A6822F0030213438B60FFF71FF806467E
:101FC0002D4B9B6803F00C036268B3EB820F16D0B5
:101FD000FFF714F8801B41F288339842F0D90320B0
:101FE000B8E7254A126812F4003FE0D10120B1E7BA
:101FF000214A126812F0007FD9D10120AAE71D4BB7
:102000001B6803F00F03AB4209D9EAB2194B1A70EF
:102010001B6803F00F03AB4201D001209AE723684D
:1020200013F0040F06D0144A936823F4E053E168D8
:102030000B439360236813F0080F07D00E4A936890
:1020400023F46043216943EAC1039360FFF71AFF59
:10205000094B9B68C3F30313084AD35CD840084B71
:1020600018600020FEF780FF002073E70120704712
:1020700001206FE7003C024000380240906E0008EB
:1020800008000020014B1868704700BF08000020BE
:1020900008B5FFF7F7FF044B9B68C3F38223034A9D
:1020A000D35CD84008BD00BF00380240A06E0008D5
:1020B00008B5FFF7E7FF044B9B68C3F34233034ABD
:1020C000D35CD84008BD00BF00380240A06E0008B5
:1020D00000283BD010B504460023836290F85130AD
:1020E000002B2ED0022384F851302268136823F08D
:1020F000400313606368A2681343E26813432269D4
:10210000134362691343A26902F400721343E26944
:102110001343226A1343A16A22680B431360638B43
:1021200003F00403616A22680B4353602268D36999
:1021300023F40063D36100206065012384F85130EB
:1021400010BD80F8503001F05FFECBE701207047F2
:1021500070B4036A23F001030362036A426884696E
:1021600024F073040D6845EA040623F002048B682A
:1021700023430C4DA84202D00B4CA0420BD123F0BC
:102180000803CD682B4323F0040322F440724D6909
:1021900015438A692A43426086614A684263036242
:1021A00070BC7047000001400004014030B4036A75
:1021B00023F480730362036A4268C46924F07304E1
:1021C0000D682C4323F400738D6843EA05230E4DFC
:1021D000A84203D005F58065A8420ED123F4006320
:1021E000CD6843EA052323F4806322F440524D690D
:1021F00042EA05128D6942EA05124260C4614A68EA
:10220000C263036230BC70470000014030B4036A0F
:1022100023F480530362036A4468C26922F4E642ED
:102220000D6842EA052223F400538D6843EA053322
:10223000094DA84203D005F58065A84204D124F4D5
:1022400080444D6944EA85144460C2614A6802646E
:10225000036230BC704700BF000001400268D368D1
:1022600043F00103D3600268136843F00103136075
:1022700000207047704770477047704710B504469C
:1022800003681A6912F0020F11D0DA6812F0020F17
:102290000DD06FF002021A610123037603689B6977
:1022A00013F0030F70D0FFF7E6FF002323762368B7
:1022B0001A6912F0040F12D0DA6812F0040F0ED06F
:1022C0006FF004021A610223237623689B6913F4DA
:1022D000407F5FD02046FFF7CEFF002323762368A0
:1022E0001A6912F0080F12D0DA6812F0080F0ED037
:1022F0006FF008021A61042323762368DB6913F068
:10230000030F4ED02046FFF7B6FF00232376236845
:102310001A6912F0100F12D0DA6812F0100F0ED0F6
:102320006FF010021A61082323762368DB6913F427
:10233000407F3DD02046FFF79EFF00232376236891
:102340001A6912F0010F03D0DA6812F0010F36D1CA
:1023500023681A6912F0800F03D0DA6812F0800F38
:1023600034D123681A6912F0400F03D0DA6812F0F2
:10237000400F32D123681A6912F0200F03D0DA68B7
:1023800012F0200F30D110BDFFF774FF2046FFF789
:1023900073FF8AE72046FFF76DFF2046FFF76CFFCB
:1023A0009BE72046FFF766FF2046FFF765FFACE797
:1023B0002046FFF75FFF2046FFF75EFFBDE76FF0A7
:1023C00001021A61204601F01FFAC1E76FF0800296
:1023D0001A61204600F0C4F9C3E76FF040021A61A9
:1023E0002046FFF74AFFC5E76FF020021A6120463A
:1023F00000F0B5F9C7E7000003682E4A904212D0FA
:10240000B0F1804F0FD0A2F57C4290420BD002F584
:102410008062904207D002F58062904203D002F5BC
:102420007842904203D123F070034A681343214A53
:1024300090422AD0B0F1804F27D0A2F57C42904242
:1024400023D002F5806290421FD002F58062904254
:102450001BD002F57842904217D002F5705290429C
:1024600013D002F5806290420FD002F58062904254
:102470000BD0A2F59832904207D002F580629042CC
:1024800003D002F58062904203D123F44073CA68FE
:10249000134303608B68C3620B688362054B9842E9
:1024A00003D003F58063984201D10B6903630123D4
:1024B0004361704700000140A8B110B5044690F890
:1024C00039305BB1022384F83930211D2068FFF7D1
:1024D00093FF012384F83930002010BD80F8383094
:1024E00001F014FEEEE701207047A8B110B50446D4
:1024F00090F839305BB1022384F83930211D20680F
:10250000FFF77AFF012384F83930002010BD80F8EE
:10251000383001F0D1FDEEE70120704730B4036A96
:1025200023F010030362036A4468826922F4E642DE
:102530000D6842EA052223F020038D6843EA051363
:102540000E4DA84203D005F58065A8420ED123F0B8
:102550008003CD6843EA051323F0400324F440646C
:102560004D6944EA85048D6944EA850444608261CA
:102570004A688263036230BC704700BF00000140BC
:1025800038B590F83830012B66D00D46044601234B
:1025900080F83830022380F839300C2A1AD8DFE866
:1025A00002F00719191920191919341919194700B6
:1025B0000068FFF7CDFD2268936943F0080393613B
:1025C0002268936923F0040393612268936929695F
:1025D0000B439361012384F83930002084F83800DC
:1025E00038BD0068FFF79AFF2268936943F40063DF
:1025F00093612268936923F48063936122689369ED
:10260000296943EA01239361E4E70068FFF7CEFDFF
:102610002268D36943F00803D3612268D36923F0A9
:102620000403D3612268D36929690B43D361D1E7DD
:102630000068FFF7EBFD2268D36943F40063D361C0
:102640002268D36923F48063D3612268D36929693E
:1026500043EA0123D361BDE70220C1E710B401239F
:1026600003FA01F4036A23EA04030362036A8A405B
:10267000134303625DF8044B7047000010B5044635
:1026800001220068FFF7EAFF2368094A934203D05A
:1026900002F58062934203D15A6C42F400425A64BC
:1026A0002268136843F001031360002010BD00BFCF
:1026B0000000014090F83830012B22D030B40122C4
:1026C00080F83820022380F839300468636823F0EA
:1026D00070036360046863680D682B43636004687B
:1026E000A36823F08003A3600468A36849680B43D0
:1026F000A36080F83920002380F83830184630BCB9
:1027000070470220704790F83830012B25D0012304
:1027100080F83830CB6823F440738A68134323F47D
:1027200080634A68134323F400630A68134323F465
:1027300080530A69134323F400534A69134323F473
:1027400080438A69134323F40043134302685364AC
:10275000002380F8383018467047022070477047D1
:1027600070470268D36823F49073D360026853699A
:1027700023F001035361202380F83A30704790F82A
:102780003930DBB2212B2AD18368B3F5805F16D0B4
:10279000036A5A1C02621A7803685A60C38C013BB0
:1027A0009BB2C384EBB90268D36823F08003D36083
:1027B0000268D36843F04003D36000207047036A87
:1027C0001B880268C3F30803536003691BB9036ADB
:1027D00002330362E2E7036A01330362DEE70220A9
:1027E00070470020704700002DE9F8430446016857
:1027F0000A6922F44052C36813430B610168CA6836
:1028000022F4164222F00C028368006903436069D7
:102810000343E06903431343CB6021684A6922F410
:102820004072A36913434B61E369B3F5004F60D075
:102830002368B84A934200F0148102F58062934203
:1028400000F00F81FFF724FC00EB800000EB80001C
:102850006568AD00B0FBF5F5AF4FA7FB05356D0919
:102860002E01FFF715FC00EB800000EB800065688F
:10287000AD00B0FBF5F9FFF70BFC00EB800000EBBF
:1028800080006568AD00B0FBF5F5A7FB05356D0967
:102890004FF0640808FB15952D013235A7FB05356F
:1028A0006D0905F0F0053544FFF7F2FB00EB800001
:1028B00000EB80006668B600B0FBF6F6FFF7E8FBB9
:1028C00000EB800000EB800063689B00B0FBF3F03E
:1028D000A7FB0030400908FB10684FEA081808F110
:1028E0003208A7FB0837C7F3431723682F449F60BC
:1028F0000DE12368874A93425BD002F580629342E0
:1029000057D0FFF7C5FB00EB800000EB8000656847
:102910006D00B0FBF5F5804FA7FB05356D092E0165
:10292000FFF7B6FB00EB800000EB800065686D00F0
:10293000B0FBF5F9FFF7ACFB00EB800000EB80008B
:1029400065686D00B0FBF5F5A7FB05356D094FF027
:10295000640808FB1595ED003235A7FB05356D09B8
:102960006D0005F4F8753544FFF792FB00EB80002D
:1029700000EB800066687600B0FBF6F6FFF788FB98
:1029800000EB800000EB800063685B00B0FBF3F3BA
:10299000A7FB03235B0908FB13684FEAC80808F18B
:1029A0003208A7FB0837C7F3421723682F449F60FC
:1029B000ADE0FFF77DFB00EB800000EB8000656879
:1029C0006D00B0FBF5F5544FA7FB05356D092E01E1
:1029D000FFF76EFB00EB800000EB800065686D0088
:1029E000B0FBF5F9FFF764FB00EB800000EB800023
:1029F00065686D00B0FBF5F5A7FB05356D094FF077
:102A0000640808FB1595ED003235A7FB05356D0907
:102A10006D0005F4F8753544FFF74AFB00EB8000C4
:102A200000EB800066687600B0FBF6F6FFF740FB2F
:102A300000EB800000EB800063685B00B0FBF3F309
:102A4000A7FB03235B0908FB13684FEAC80808F1DA
:102A50003208A7FB0837C7F3421723682F449F604B
:102A600055E0FFF725FB00EB800000EB8000656878
:102A7000AD00B0FBF5F5284FA7FB05356D092E011C
:102A8000FFF716FB00EB800000EB80006568AD00EF
:102A9000B0FBF5F9FFF70CFB00EB800000EB8000CA
:102AA0006568AD00B0FBF5F5A7FB05356D094FF086
:102AB000640808FB15952D013235A7FB05356D0916
:102AC00005F0F0053544FFF7F3FA00EB800000EB6A
:102AD00080006668B600B0FBF6F6FFF7E9FA00EB97
:102AE000800000EB800063689B00B0FBF3F0A7FB65
:102AF0000030400908FB10684FEA081808F1320856
:102B0000A7FB0837C7F3431723682F449F60BDE82E
:102B1000F88300BF001001401F85EB512DE9F04103
:102B200005460F4616469846069C2B681B6837EAF2
:102B300003030CBF01230023B3421DD1B4F1FF3FB7
:102B4000F3D02CB1FEF75AFAA0EB0800A042ECD962
:102B50002A68D36823F4D073D3602A68536923F0BA
:102B600001035361202385F8393085F83A3000237A
:102B700085F83830032000E00020BDE8F08158B32C
:102B800010B5044690F839300BB3242384F839305B
:102B90002268D36823F40053D3602046FFF724FE55
:102BA0002268136923F4904313612268536923F068
:102BB0002A0353612268D36843F40053D360002092
:102BC000E063202384F8393084F83A3010BD80F86F
:102BD000383001F00BFCD8E7012070472DE9F041B7
:102BE00082B01E4690F83930DBB2202B55D1044616
:102BF0000D469046002955D0002A55D090F838301F
:102C0000012B53D0012380F838300023C3632123E4
:102C100080F83930FEF7F2F90746A4F82480A4F8CA
:102C2000268010E000963B46002280212046FFF7D8
:102C300075FF00283CD12B882268C3F3080353603A
:102C40002369C3B90235E38C9BB2B3B1E38C013B7A
:102C50009BB2E384A368B3F5805FE3D000963B4664
:102C6000002280212046FFF759FF18BB2A782368ED
:102C70005A600135E7E70135E5E700963B4600225B
:102C800040212046FFF74AFF0346A8B9202284F8D6
:102C90003920002284F8382000E00223184602B0D0
:102CA000BDE8F0810123F9E70123F7E70223F5E707
:102CB0000323F3E70323F1E70323EFE790F83A3028
:102CC000DBB2202B1BD1E1B1EAB190F83830012BF7
:102CD0001BD081628285C2850023C363222280F8D3
:102CE0003A2080F8383001684A6942F001024A61AE
:102CF0000168CA6842F49072CA60184670470220A0
:102D000070470120704701207047022070477047CC
:102D100008B50168CB6823F04003CB60202380F81E
:102D20003930FFF7F4FF002008BD08B590F83A30BD
:102D3000DBB2222B40D18368B3F5805F0ED00369EC
:102D400003BB03685A68836A591C81621A70C38D79
:102D5000013B9BB2C385F3B100202EE0826A036978
:102D600043B903685B68C3F308031380836A0233C3
:102D70008362ECE703685B68DBB21380836A01332C
:102D80008362E4E703685B68826A511C816203F036
:102D90007F031370DBE70268D36823F49073D3607A
:102DA0000268536923F001035361202380F83A300D
:102DB00000F038FA002000E0022008BD7047000053
:102DC00010B5044602681368D168526913F00F0009
:102DD00005D113F0200F02D011F0200F53D100289D
:102DE00067D012F0010202D111F4907F61D013F08C
:102DF000010F06D011F4807F03D0E06B40F001009A
:102E0000E06313F0040F04D01AB1E06B40F002004D
:102E1000E06313F0020F04D01AB1E06B40F004003D
:102E2000E06313F0080F04D01AB1E26B42F008021D
:102E3000E263E26B002A48D013F0200F02D011F0B9
:102E4000200F24D123685B6903F04003E26B12F08A
:102E5000080F00D13BB32046FFF783FC23685A6973
:102E600012F0400F1BD05A6922F040025A61636B86
:102E70008BB11A4A1A65606BFEF72BFD28B3606BA5
:102E8000036D984721E02046FFF74FFF1DE02046E5
:102E9000FFF74BFFD6E72046FFF790FF15E02046EF
:102EA000FFF78CFF11E02046FFF788FF0023E36364
:102EB0000BE013F0800F02D011F0800F06D113F059
:102EC000400F02D011F0400F04D110BD2046FFF793
:102ED00056FCFAE72046FFF71BFFF6E7E12E000855
:102EE00008B5806B0023C385C384FFF767FF08BD67
:102EF00008B50F480F4B036007234360002383602E
:102F0000C3604FF4803202614FF4001242610376D5
:102F100043768376C376037701234377FEF788F8F9
:102F200000B908BD4621044800F088FCF9E700BF5D
:102F30003C02002000640040A86E000808B50F485D
:102F40000F4B03600723436000238360C3604FF48B
:102F5000803202614FF40012426103764376837639
:102F6000C376037701234377FEF762F800B908BD03
:102F70005C21044800F062FCF9E700BF1402002065
:102F800000680040A86E000810B588B003683C4A8D
:102F9000934204D03B4A934232D008B010BD3A4A23
:102FA000136801331360012B1DD003230393022206
:102FB00004920024059406930923079303A9334838
:102FC000FEF79AFC224621461420FEF717FC142037
:102FD000FEF748FC224621461520FEF70FFC15207F
:102FE000FEF740FCD9E700230093294B1A6C42F00E
:102FF00000721A641B6C03F000730093009BD4E70B
:1030000000230193224B1A6C42F080621A641B6CFD
:1030100003F080630193019B1B4A13680133136023
:10302000012B1FD04FF44053039302230493002439
:103030000594032306930923079303A91548FEF774
:103040005BFC224621464020FEF7D8FB4020FEF7DD
:1030500009FC224621464120FEF7D0FB4120FEF725
:1030600001FC9AE700230293094B1A6C42F00072AC
:103070001A641B6C03F000730293029BD2E700BF3B
:103080000064004000680040F8010020000C02408D
:10309000003802400004024010B58AB000240594B4
:1030A00006940123079300940194029403940494DA
:1030B0000893099469460548FEF760F80994059459
:1030C00069460348FEF75AF80AB010BD3C020020DA
:1030D000140200202DE9F0418CB0002400943E4BF6
:1030E0001A6B42F010021A631A6B02F0100200927F
:1030F000009A01941A6B42F040021A631A6B02F0B4
:1031000040020192019A02941A6B42F001021A6382
:103110001A6B02F001020292029A03941A6B42F0B7
:1031200002021A631A6B02F002020392039A0494D9
:103130001A6B42F008021A631A6B02F0080204923A
:10314000049A05941A6B42F080021A631A6B02F01B
:1031500080020592059A06941A6B42F020021A63C7
:103160001B6B03F020030693069BDFF87880224652
:103170003C214046FEF7B0FC184F012244F24001CA
:103180003846FEF7A9FC164E01224FF40061304686
:10319000FEF7A2FC3C2307930125089509940A94A5
:1031A00007A94046FEF7A8FB44F2400307930895A1
:1031B00009940A9407A93846FEF79EFB4FF4006372
:1031C0000793089509940A9407A93046FEF794FBE3
:1031D0000CB0BDE8F08100BF00380240001402408E
:1031E00000100240001C024000B583B002A901F8A3
:1031F000010D01231A460348FFF7F0FC03B05DF808
:1032000004FB00BFD805002010B4401A019CE41A4A
:1032100004FB00F0521A90FBF2F018445DF8044BE6
:103220007047000038B50268354B1B689A4200D0E1
:1032300038BD344C122221463148FFF73FFD6078FB
:10324000020202F4E06223781A432F4BA2F5806257
:103250001A80A578690101F4FC6141EAD001A1F569
:10326000806159802079820202F48062E17842EA2A
:10327000810242EA9512A2F580629A806179CA01C0
:1032800002F4F06242EA5002A2F58062DA80607CC9
:10329000227C42EA0022C2F580621A81C1F3011247
:1032A0009A728909D972A279E17942EA01229A8156
:1032B000227A617A42EA0122DA81A27AE17A42EA4A
:1032C00001221A82227B5A82627B9A82A27BDA8254
:1032D00002F001011976C2F340019976C2F3800130
:1032E0005976C2F3C001D976C2F300119977C2F3BF
:1032F0004011D977C2F380111977D2095A7797E72D
:10330000180600208804002064020020000000004D
:103310002DE9F04104460268434B1B689A4206D0EF
:103320002268424B1B689A4237D0BDE8F081404D7D
:10333000404E2B4632460021FEF760F83768A7F270
:1033400001282B78697801EB03213B4E4FEA4807AF
:1033500007EB08039A00B318B152AA78E87800EB9B
:10336000022000B2588029796A7902EB01229A8002
:10337000AA79DA80FDF7E6F827A3D3E90023FDF761
:103380004BF927A3D3E90023FDF770FAFDF71CFCE6
:103390004744BB001E44B060C2E7264D244B2A467A
:1033A00000212046FEF72AF82B6840F206229342BD
:1033B0002BD040F20722934229D040F205229342BB
:1033C00027D000241A4B19785A7802EB0122228068
:1033D0009A78D87800EB022000B2608019795A7987
:1033E00002EB0122A2809B79E380FDF7ABF80AA3F0
:1033F000D3E90023FDF710F909A3D3E90023FDF772
:1034000035FAFDF7E1FBA0608FE70C4CDAE70C4CD6
:10341000D8E70C4CD6E700BFEA2E4454FB211940F4
:103420000000000000D09140140200203C02002067
:10343000F8030020500400209002002078040020AF
:103440006C0400208402002030B583B0314BB3F906
:10345000062007EE902AF8EEE77ADFED2F6A87EE76
:10346000A67A9FED2E6A27EE067A2D4880ED057A22
:10347000B3F9042007EE902AF8EEE77AF1EE677AC6
:1034800087EEA67A67EE067AC0ED067AB3F90030C9
:1034900007EE903AF8EEE77AF1EE677A87EEA67AD1
:1034A000DFED207A67EE277AC0ED077A00F0C4FAE4
:1034B000002428E004F11002194B03EB820393ED82
:1034C000007A65002B199A00174B1344B3F90230A8
:1034D00007EE903AF8EEE77A77EE677AFDEEE77A54
:1034E000124B2C2000FB0430F8EEE77AC0ED0A7A8C
:1034F00000F0FEFBBDEEC00A02AB1D4410EE103A18
:1035000025F8083C0134032CD4DD684600F07EFB2E
:1035100003B030BD640200200000254400404E4549
:103520000004002000009643900200204803002081
:10353000002213E00B492C2303FB02134FF08041C0
:10354000196009495960094999600021D960084901
:10355000196108495961084999610132032AE9DD75
:10356000704700BF480300200000D04000004842E0
:1035700000606A460000FA436666663F054B064AED
:103580001A60064A5A60064A9A600022DA601A6196
:10359000704700BF000400200000EF430000C54357
:1035A0000080CF4310B5104C236840F2DC525A63C0
:1035B0001A6440F6B830FDF727FD236840F2C44492
:1035C0005C631C6441F28830FDF71EFD07E0064B8A
:1035D0001B685C631C641E20FDF716FD0134B4F506
:1035E000AF6FF4DB10BD00BF60050020084B4FF04B
:1035F00080421A60074A5A60074A9A60074ADA60AE
:10360000074A1A61074A5A61074A9A61704700BF20
:103610009C0400200000204100004842295C8F3DAE
:103620000060EA4600401C466666663F00000000F7
:1036300030B52DED028B85B05D4BDB7A012B00F0B0
:10364000AF80DFED5C7AF8EEE77A9FED5B7A27EEEC
:10365000877A5A4BB3F9023007EE903AF8EEE77AE0
:1036600077EE677A5648C0ED0A7A564CC4ED017A77
:1036700000F03EFBBDEEC00A10EE103A1BB2ADF8F2
:103680000C3007EE903AB8EEE70A84ED030A484D95
:10369000B5F9003007EE103AB8EEC77A9FED4A8AC6
:1036A000C7EE087A9FED497A67EE877AFDEEE77AF2
:1036B00017EE903A1CB2464B1C80464BB3F9000003
:1036C000FCF740FF0022444BFCF7EEFD36A3D3E9A4
:1036D0000023FDF7CBF80022404BFCF79DFFFDF7E0
:1036E00073FA07EE900AFDEEE77A17EE903A18B2F9
:1036F0003B4B188047F2305300933A4BB4226FF0A3
:10370000B301201AFFF780FDADF80800B5F90230CB
:1037100007EE103AB8EEC77AC7EE087ABBEE0E7A1B
:1037200067EE877AFDEEE77A17EE903A1CB22E4BE1
:103730001C802E4BB3F90000FCF704FF0022264B3F
:10374000FCF7B2FD18A3D3E90023FDF78FF80022A0
:10375000224BFCF761FFFDF737FAF3EE087A07EE2C
:10376000100A77EE277AFDEEE77A17EE903A18B254
:103770001F4B188043F6982300931E4B14226FF0C2
:103780001D01201AFFF740FDADF80A000023ADF837
:103790000E3002A800F072FA05B0BDEC028B30BD0D
:1037A000DFED157A4FE700BF0000000000FFBF40CB
:1037B0006402002000000000000061C46C040020CE
:1037C0009C040020C80200200000254400008C4218
:1037D00084040020840200200000B0400080764075
:1037E0009A040020D08AFFFFC00200207804002045
:1037F000C804002068C5FFFF0100000008B5FFF7FE
:1038000023FEFFF715FF08BD08B5094A1368013309
:1038100013600268074B1B689A4200D008BDFFF78F
:10382000EDFF4FF480410448FEF75CF9F6E700BF76
:10383000FC0100202405002000140240FEE70000E7
:1038400000B595B0002101912B4B1A6C42F08052CB
:103850001A641B6C03F080530193019B0291274B68
:103860001A6842F440421A601B6803F44043029312
:10387000029B012308934FF48033099302230E9394
:103880004FF480020F9206221092A82211921293F6
:103890000423139308A8FEF729F920BB0F230393F1
:1038A00002230493002305934FF4A05306934FF48F
:1038B00080530793052103A8FEF738FBB8B9FEF73C
:1038C000E1FB0F4BA3FB00308009FDF7D7FF04207D
:1038D000FDF7EAFF002211464FF0FF30FDF78EFFA3
:1038E00015B05DF804FBCE210648FFF7A7FFDC21E9
:1038F0000448FFF7A3FF00BF0038024000700040FB
:10390000D34D6210B86E000800B583B0FDF750FBD0
:10391000FFF796FFFFF7DEFB00F0A4FB00F04EFA86
:10392000FFF70CFBFFF7E4FA00F0B4FC00F04CFCEE
:1039300000F01EFD00F0E0FC00F0FCFC00F038FDA3
:10394000314D00224FF400612846FEF7C5F82F4C98
:1039500000212046FEF792FE0C212046FEF78EFE47
:10396000FFF720FEFFF7E4FDFFF740FEFFF794FBB3
:10397000FFF704FE122226492648FFF79FF9264842
:10398000FEF76CFC254B1B680021986801F008FBD2
:10399000234E3046FDF78AFC224C2046FDF786FC7C
:1039A00002213046FDF7C9FD02212046FDF7C5FD85
:1039B0001D4C012204212046FEF78EF80122082129
:1039C0002046FEF789F8012210212046FEF784F8F0
:1039D000012220212046FEF77FF801224FF40061EA
:1039E0002846FEF779F81148B0F90210B0F90E2018
:1039F000B0F91A30B0F9260000900D4801F054FAE1
:103A00000C4801F0C5FAEEE7001002406005002006
:103A10008804002018060020240500200C00002047
:103A20003C02002014020020001C024090020020F2
:103A3000C86E0008E06E000870B485B00446D0ED92
:103A4000027A90ED017A77EE877AB6EE007A67EE29
:103A5000877A90ED037A37EEC76AD0ED046A76EE86
:103A6000265A9FED615A85EE853A36EE666AC6EEB5
:103A7000053A77EE877A37EEE67A87EE054A76EEF4
:103A8000A76AC6EE854AD0ED007A9FED587A67EEB8
:103A9000877A9FED577AC7EE276AD0ED057A9FEDBA
:103AA000557AF4EEC77AF1EE10FA4BD884ED057A28
:103AB000D4ED067A9FED4F7AF4EEC77AF1EE10FA64
:103AC0004AD884ED067AD4ED077A9FED4B7AF4EE6E
:103AD000C77AF1EE10FA49D884ED077A94ED055AC9
:103AE000B1EE457AD4ED067A37EE677AD4ED075A0F
:103AF00023EE256A37EE467A26EE877A8DED007A38
:103B000035EE676A23EEA57A36EE476A26EE866AB8
:103B10008DED016A35EE277A24EE256A37EE467A76
:103B200026EE877A8DED027A77EEC57A64EEA55A95
:103B300077EEE57A66EEA77ACDED037A00239FED66
:103B40002F7A1FE09FED2E7AF4EEC77AF1EE10FA8D
:103B5000AEDB84ED057AABE79FED297AF4EEC77A08
:103B6000F1EE10FAAFDB84ED067AACE79FED257A33
:103B7000F4EEC77AF1EE10FAB0DB84ED077AADE728
:103B80000133DBB2032B0ED804AA02EB830252ED01
:103B9000047AF0EEE77AF4EEC77AF1EE10FAEFDD90
:103BA000B0EE677AECE7DFED187AB4EEE77AF1EE83
:103BB00010FA10DDC7EE876A00230AE004AA02EBC0
:103BC000830252ED047A67EEA67A42ED047A01335D
:103BD000DBB2032BF2D96D460FCD20646164A26481
:103BE000E36405B070BC7047333365423694573D8B
:103BF0000000704200404EC5000096C30000000067
:103C000000404E450000964300D0044630B58BB0CE
:103C10000023029303934FF40072049207930693D8
:103C20000822089212E012F5F05F02DA4EF2012249
:103C30004252415E5A000AAC14440D1204F8205C52
:103C400001320AAC224402F8201C0133032B0ADCA7
:103C5000590030F91320B2F5F05FE4DD41F6FF5270
:103C600020F81320E5E701AB02AA04A90248FDF7FA
:103C70004BFB0BB030BD00BF1402002030B58BB041
:103C800000230293039340F2FF12049207930693DA
:103C90000822089213E012F5F05F02DA4EF20122D8
:103CA00042525A0030F913100AAC14440D1204F8B1
:103CB000205C01320AAC224402F8201C0133032BA1
:103CC0000CDC022BEDD1590030F91320B2F5F05F76
:103CD000E1DD41F6FF5220F81320E2E701AB02AA32
:103CE00004A90248FDF710FB0BB030BD3C020020D8
:103CF000D0ED027AD0ED0A6A67EEA67A90ED006AFE
:103D0000DFED2D5A86EE257A67EE877A90ED077AF9
:103D100077EE877AC0ED077A90ED057AF4EEC77AF0
:103D2000F1EE10FA3ADD80ED077AD0ED097A90EDE8
:103D3000065A67EE857A90ED037AD0ED085A76EE52
:103D4000E55A27EE257ADFED1C4AC4EE865A27EEA7
:103D5000257AB7EE006A36EE456A27EE067A77EEE8
:103D6000877AC0ED097A90ED017A26EE877A90ED98
:103D7000076A37EE067A77EE877A90ED040AB4EE9A
:103D8000E70AF1EE10FA06D4B1EE400AB4EEE70A03
:103D9000F1EE10FA0CDDC0ED086A7047B1EE477A1B
:103DA000F4EEC77AF1EE10FABFD580ED077ABCE7E2
:103DB000B0EE670AEFE700BF00007A4408B50F488D
:103DC0000F4B03604FF48273436000238360C36032
:103DD000036143614FF4007282613022C261036269
:103DE000436283620A23C362FEF772F900B908BD19
:103DF00045210448FFF722FDF9E700BFCC0400206D
:103E000000500140E46E00080268124B9A4200D054
:103E1000704700B587B00021009103F568435A6CE4
:103E200042F480125A645B6C03F480130093009B8D
:103E30004FF46073019302230293039103230493CD
:103E40000523059301A90448FDF756FD07B05DF869
:103E500004FB00BF005001400014024010B582B0C6
:103E600000240094214B5A6C42F480425A645A6CEC
:103E700002F480420092009A01941A6C42F080523F
:103E80001A641B6C03F080530193019B0320FDF720
:103E9000A3FC224621466FF00B00FDF7AFFC224643
:103EA00021466FF00A00FDF7A9FC224621466FF07B
:103EB0000900FDF7A3FC224621466FF00400FDF740
:103EC0009DFC224621466FF00300FDF797FC224639
:103ED00021466FF00100FDF791FC224621464FF08C
:103EE000FF30FDF78BFC02B010BD00BF0038024070
:103EF0007047FEE7FEE7FEE7FEE770477047704752
:103F000008B5FDF76FF8FDF7E0FC08BD08B50248FD
:103F1000FDF735FB08BD00BF3C02002008B5024894
:103F2000FDF72DFB08BD00BF3C02002008B502488C
:103F3000FEF746FF08BD00BF1806002008B502487E
:103F4000FEF79CF908BD00BF2405002008B5024813
:103F5000FDF715FB08BD00BF1402002008B502489C
:103F6000FDF70DFB08BD00BF1402002008B5024894
:103F7000FEF726FF08BD00BF9806002008B50248DE
:103F8000FEF71EFF08BD00BF5806002070B50D46A5
:103F90001646002404E0AFF3008028700134013598
:103FA000B442F8DB304670BD70B51646002405E01B
:103FB0004D1C0878FFF718F901342946B442F7DBA5
:103FC000304670BD08B503460B4A126842B10A4A32
:103FD000106803446A46934206D8074A136008BD36
:103FE000054A06491160F2E700F0D0FA0C2303609D
:103FF0004FF0FF30F3E700BF00020020E006002092
:104000004FF0FF3070474FF400534B600020704773
:1040100001207047002070470F49D1F8883043F4E1
:104020007003C1F888300D4B1A6842F001021A6023
:10403000002098601A6822F0847222F480321A609C
:10404000074A5A601A6822F480221A60D8604FF03A
:1040500000638B60704700BF00ED00E00038024055
:104060001030002400B583B01048114B03600923C1
:1040700043600023836044F2A013C360FEF71CFA80
:1040800050B900230093019369460848FEF712FBDC
:1040900038B903B05DF804FB77210648FFF7CEFB83
:1040A000EFE77E210348FFF7C9FBF2E72405002074
:1040B00000100040F46E000882B00368104A93427A
:1040C00004D0104A93420ED002B0704700230093F0
:1040D0000D4B5A6C42F001025A645B6C03F0010311
:1040E0000093009BF0E700230193074B1A6C42F00A
:1040F00040021A641B6C03F040030193019BE3E749
:1041000000000140001800400038024002680E4BD9
:104110009A4200D0704700B583B00022019203F5A7
:104120000A33196C41F0100119641B6C03F0100381
:104130000193019B01213620FDF760FB3620FDF73E
:1041400091FB03B05DF804FB0010004070B586B031
:104150000368184A934204D0174A93421BD006B012
:1041600070BD4FF4807301930226029600240394DD
:1041700004940125059501A91048FDF7BDFB4FF4F6
:1041800080430193029603940494059501A90C4879
:10419000FDF7B2FBE3E740230193022302930023E0
:1041A000039304930923059301A90648FDF7A4FB93
:1041B000D5E700BF000001400018004000000240A9
:1041C00000100240001C024000B591B02E482F4B59
:1041D0000360A72343600023836044F61F62C2602C
:1041E00003614361FEF781F9002833D100230E9368
:1041F0000F930EA92448FEF75DFA00282FD1602303
:1042000007934FF47A730893002209920A920B9253
:104210000C920D9207A91C48FEF7B2F920BB0C22A4
:1042200007A91948FEF7ACF918BB002300930193C6
:104230000293039304934FF4005205920693694648
:104240001148FEF760FAC8B90F48FFF77FFF11B0B9
:104250005DF804FB42210E48FFF7F0FAC6E749215A
:104260000B48FFF7EBFACAE755210948FFF7E6FAD2
:10427000D5E75A210648FFF7E1FAD6E76621044858
:10428000FFF7DCFAE0E700BF600500200000014016
:10429000F46E000800B589B01448154B0360532331
:1042A00043600023836044F61F62C2600361FEF72F
:1042B0001CF980B9602301930022029203920592B7
:1042C00001A90A48FEF75CF950B90848FFF73EFF1C
:1042D00009B05DF804FB8E210648FFF7AFFAE9E765
:1042E00097210448FFF7AAFAEFE700BF9C050020DA
:1042F00000180040F46E000808B50B480B4B036033
:104300004FF4E133436000238360C36003610C22F8
:1043100042618361C361FEF732FC00B908BD4421EC
:104320000348FFF78BFAF9E7D80500200078004032
:10433000046F000808B50B480B4B03604FF4E133E2
:10434000436000238360C36003610C224261836188
:10435000C361FEF714FC00B908BD56210348FFF7FE
:104360006DFAF9E758060020007C0040046F000851
:1043700008B50B480B4B03600B4B43600023836075
:10438000C36003610C2242618361C361FEF7F7FBE6
:1043900000B908BD69210548FFF750FAF9E700BFE9
:1043A0001806002000100140A0860100046F0008DC
:1043B00008B50B480B4B03604FF4E1334360002317
:1043C0008360C36003610C2242618361C361FEF7B5
:1043D000D6FB00B908BD7C210348FFF72FFAF9E7A7
:1043E0009806002000140140046F000810B58AB040
:1043F0000368494A93420AD0484A934223D0484A24
:10440000934242D0474A934262D00AB010BD002383
:104410000193454B1A6C42F080421A641B6C03F006
:1044200080430193019B4FF4C073059302230693CD
:1044300001230793032308930823099305A93B4805
:10444000FDF75AFAE1E700240294374B1A6C42F068
:1044500000421A641B6C03F000430293029B032387
:1044600005930222069201220792089308230993DA
:1044700005A92E48FDF740FA224621465320FDF7B4
:10448000BDF95320FDF7EEF9BFE700240394264B56
:104490005A6C42F010025A645B6C03F010030393F1
:1044A000039BC02305930223069301230793032351
:1044B00008930723099305A91D48FDF71DFA224615
:1044C00021462520FDF79AF92520FDF7CBF99CE739
:1044D00000240494144B5A6C42F020025A645B6C22
:1044E00003F020030493049B4FF4844305930223B9
:1044F000069301230793032308930823099305A92F
:104500000C48FDF7F9F9224621464720FDF776F9D8
:104510004720FDF7A7F978E700780040007C0040CD
:104520000010014000140140003802400010024019
:104530000004024000180240DFF834D0002103E0FC
:104540000C4B5B58435004310B480C4B42189A42B9
:10455000F6D30B4A02E0002342F8043B094B9A428F
:10456000F9D3FFF759FD00F017F8FFF7CDF97047C1
:1045700000000320E871000800000020DC0100209A
:10458000DC010020DC060020FEE70000014B18687B
:10459000704700BF0C00002070B50D4E0D4CA41BE1
:1045A000A4100025A54209D10B4E0C4C02F062FC70
:1045B000A41BA4100025A54205D170BD56F82530D6
:1045C00098470135EEE756F8253098470135F2E770
:1045D000E0710008E0710008E0710008E471000873
:1045E00002440346934200D1704703F8011BF9E7E8
:1045F0002DE9FF4755EC104B0D9FDDF830A0002D45
:104600000E4691461946B8BF22462B4627F0200792
:10461000BBBF05F100431D4600232D23B8BF144640
:10462000462F0B7004D0452F00D10136022100E047
:10463000032103AB019302AB00933246534645EC92
:10464000104B00F0B1FE472F804602D119F0010F48
:1046500026D0462F08EB060911D198F80030302BF0
:104660000AD10022002320462946FCF73DFA18B95A
:10467000C6F10106CAF80060DAF800309944002259
:10468000002320462946FCF72FFA38B93022039B35
:104690004B4505D2591C03911A70F8E7CDF80C90E0
:1046A000039B0E9AA3EB08034046136004B0BDE8D9
:1046B000F087F7B500290446BABF49422D232B23C2
:1046C000092904F8022B437020DD0DF107031F4672
:1046D0000A2691FBF6F506FB15113031092D03F87A
:1046E000011C03F1FF32294609DC3031023B02F89C
:1046F000011CBB42224604D3101A03B0F0BD13467E
:10470000E7E713F8012B04F8012BF2E730231944F3
:104710008370021DC170EFE72DE9F04F8DB00C469C
:10472000DDF8588016461F46054601F06FFD036808
:1047300004931846FBF75CFD00230A93D8F8003079
:104740000590073323F0070303F1080294F818A03B
:10475000D4F800B0C8F80020D3E90023C4E912233C
:10476000D4E9128929F000430793CDF818804FF05F
:10477000FF32A74BDDE90601FCF7E8F970BB4FF00B
:10478000FF32A34BDDE90601FCF7C2F930BB002282
:10479000002340464946FCF7B1F910B12D2384F8B7
:1047A00043309C4A9C4BBAF1470F8CBF90469846C9
:1047B00003232BF00402236122604FF000090097CD
:1047C00033460BAA2146284600F0E6F9013040F0B6
:1047D0008D804FF0FF300DB0BDE8F08F42464B4664
:1047E00040464946FCF7B2F910B18C4A8C4BDAE7E7
:1047F00061684B1C4BF480620AA83ED106236360BB
:104800000023CDE9020309AB009349EC108B0DF1B5
:1048100023032260CDF804A061682846FFF7E8FE74
:104820000AF0DF03472B804609D1099BD81C02DB25
:104830006268934247DDAAF1020A5FFA8AFABAF186
:10484000650F099924D80139524604F150000991A5
:10485000FFF72FFF0A9A1318012A8146236102DC11
:104860002268D10701D5013323619DF82330002B45
:10487000A5D02D2384F84330A1E7BAF1670F00F0EB
:104880007781BAF1470FBBD10029B9D10123B6E72F
:10489000BAF1660F19D1002963680CDD216113B9E3
:1048A0002268D20702D501330B442361099BA3651B
:1048B0004FF00009D9E713B92268D00701D50233B8
:1048C000F3E70123F1E74FF0670ADDE9093293428C
:1048D00005DB22682361D107E8D50133E5E7002B2A
:1048E000D4BFC3F1020301231344DEE723685A0552
:1048F00007D42369424631462846B84701302BD1B8
:1049000067E7BAF1650F40F2DC8000220023D4E9AA
:104910001201FCF7E9F8002833D00123414A31465F
:104920002846B84701303FF454AFDDE909239A42E5
:1049300002DB2368D8070FD5DDE90423314628467A
:10494000B84701303FF445AF4FF0000804F11A09B1
:104950000A9B013B434509DC23689B0700F1038167
:10496000E0680B9B9842B8BF184634E701234A46DB
:1049700031462846B84701303FF42BAF08F1010813
:10498000E6E7099B002B2BDC0123264A314628460B
:10499000B84701303FF41DAF099B23B90A9B13B9F7
:1049A0002368D907D8D5DDE9042331462846B8471E
:1049B00001303FF40EAF4FF0000904F11A0A099BD1
:1049C0005B424B4501DC0A9B94E70123524631468A
:1049D0002846B84701303FF4FCAE09F10109EEE783
:1049E0000A9AA36D9A42A8BF1A46002A914607DD8B
:1049F0001346314642462846B84701303FF4E9AEF7
:104A000004F11A034FF0000B29EAE979069315E047
:104A1000FFFFEF7F1C6F0008186F0008246F00086D
:104A2000206F0008286F00080123069A31462846A7
:104A3000B84701303FF4CDAE0BF1010BD4F858A0CC
:104A4000AAEB09035B45EFDCDDE909239A42D04478
:104A500015DB2368DA0712D40A9B0999A3EB0A0233
:104A6000A3EB010A9245A8BF9246BAF1000F0EDCF3
:104A70004FF000082AEAEA7A04F11A0919E0DDE9A0
:104A8000042331462846B8470130E5D1A1E6534614
:104A9000424631462846B8470130E9D199E601231C
:104AA0004A4631462846B84701303FF492AE08F1F5
:104AB0000108DDE909239B1AA3EB0A034345EEDC59
:104AC0004AE70A9A012A01DCDB073AD5012342466C
:104AD00031462846B84701303FF47BAEDDE9042378
:104AE00031462846B847013008F101083FF471AE5D
:104AF0000A9B002203F1FF3AD4E912010023FBF7DD
:104B0000F3FFC8B95346424631462846B8470130FC
:104B10000ED15EE60123524631462846B8470130A1
:104B20003FF457AE08F101080A9B013B4345F1DC15
:104B30004B4604F15002DEE64FF0000804F11A0A79
:104B4000F2E70123DFE701234A4631462846B8470A
:104B500001303FF43EAE08F10108E3680B9A9B1A5E
:104B60004345F0DCFCE64FF0000804F11909F4E7D6
:104B700000293FF48BAE0023CDE9020309AB00937B
:104B800049EC108B2260CDF804A00DF123032846D8
:104B9000FFF72EFD804648E62DE9F04791461F4677
:104BA0008A680B69DDF820809342B8BF1346C9F8C4
:104BB000003091F8432006460C4612B10133C9F883
:104BC00000302368990642BFD9F800300233C9F893
:104BD0000030256815F0060507D104F1190AE368CD
:104BE000D9F800209B1AAB4228DC94F843302268A5
:104BF000003318BF012392062DD404F14302394635
:104C00003046C047013020D02368E568D9F800203D
:104C100003F00603042B08BFAD1AA36822690CBF7A
:104C200025EAE57500259342C4BF9B1AED184FF0A5
:104C300000091A344D451AD1002008E001235246DC
:104C400039463046C047013003D14FF0FF30BDE850
:104C5000F0870135C3E7E1185A1C302081F8430082
:104C6000224494F8451082F843100233C5E701232B
:104C7000224639463046C0470130E6D009F10109E5
:104C8000D8E700002DE9F04301F1430C0C46097E02
:104C900085B06E291746064698460C9A00F0B380F8
:104CA00022D8632936D00AD8002900F0B9805829C3
:104CB00000F0838004F1420584F8421032E0642958
:104CC00001D06929F6D120681368050603F10401B3
:104CD0002AD51B681160002B03DA2D225B4284F871
:104CE00043206F480A2239E0732900F09D8008D8DC
:104CF0006F2920D07029DDD1236843F02003236081
:104D000003E0752917D07829D4D1782384F8453069
:104D1000644855E01368191D1B68116004F14205D1
:104D200084F8423001238CE01B68116010F0400FC2
:104D300018BF1BB2CFE713682568181D106028063E
:104D400001D51B6802E06806FBD51B8854486F2913
:104D500014BF0A220822002184F843106568A56068
:104D6000002DC0F29580216821F004012160002B04
:104D70003DD1002D40F08E806546082A0BD1236876
:104D8000DB0708D5236962689A42DEBF302305F845
:104D9000013C05F1FF35ACEB05032361CDF8008044
:104DA0003B4603AA21463046FFF7F6FE01304DD1BF
:104DB0004FF0FF3005B0BDE8F083394884F8451066
:104DC000136821681D1D1B6815600A060BD5CA07EC
:104DD00044BF41F0200121601BB9226822F020026B
:104DE00022601022B7E74D0648BF9BB2EFE7654649
:104DF000B3FBF2F102FB1133C35C05F8013D0B4636
:104E00000029F5D1B9E7136825686169181D10609C
:104E100028061B6801D5196002E06A06FBD51980D7
:104E2000002323616546B9E71368191D11601D68E9
:104E3000626800212846FBF7E3F908B1401B606077
:104E400063682361002384F84330A7E723692A4677
:104E500039463046C0470130AAD023689B0713D497
:104E6000E068039B9842B8BF1846A3E701234A466F
:104E700039463046C04701309AD00135E368039A7D
:104E80009B1AAB42F2DCEBE7002504F11909F5E7C8
:104E9000002BACD1037884F8423004F142056CE772
:104EA0002A6F00083B6F00080FB40A4B13B51C684B
:104EB00024B1A36913B9204601F01EF905AB049A89
:104EC000A1680193204601F0E1FD02B0BDE8104069
:104ED00004B070470C00002070B50E46054618B1AE
:104EE00083690BB901F008F9AB69AC6813B92846BE
:104EF00001F002F9234B9C4217D16C68A3891B0770
:104F00001DD52369DBB1013EA36816F8011F013BE3
:104F1000A360E9B9002B2EDA22460A21284600F0C8
:104F2000F5F8013011D00A2011E0174B9C4201D155
:104F3000AC68E3E7154B9C4208BFEC68DEE721460E
:104F4000284600F035F90028DDD04FF0FF3070BD65
:104F5000002B04DAA2699A4206DC0A2904D02368ED
:104F60005A1C22601970CFE72246284600F0CEF87E
:104F70000130C9D1E9E723680A205A1C2260187061
:104F8000E5E700BF7C6F00089C6F00085C6F0008BD
:104F9000024B01461868FFF79FBF00BF0C000020BE
:104FA00000294FF480630CBF0222002200F000B8F9
:104FB0002DE9F7431D46514B1E6804460F469046A7
:104FC00026B1B36913B9304601F096F84C4B9C42B8
:104FD00052D17468B8F1020F06D0B8F1010F00F297
:104FE0008980002DC0F286802146304601F01AF8F3
:104FF000616B41B104F14403994202D0304601F0A3
:1050000073FC002363630023A3616360A3891B0611
:1050100003D52169304601F067FCA38923F44A6374
:1050200023F00303B8F1020FA3815DD001AB6A4600
:105030002146304601F0F8F8A3891843A0812DBB22
:10504000009D284601F054F9074600284ED1DDF8AE
:105050000090A9453CD14FF0FF30A38943F00203F3
:10506000A3810023A36004F147032360236101238C
:10507000636103B0BDE8F083224B9C4201D1B46868
:10508000A8E7214B9C4208BFF468A3E7002FD8D0C3
:10509000B36913B9304601F02FF8B8F1010F08BF1A
:1050A000A389276004BF43F00103A381A38913F000
:1050B0000800C4E904751BD013F0010018BF6D424D
:1050C0004FF000031DBFA360A5611846A560D0E79F
:1050D000484601F00DF907460028BCD0A38943F0EB
:1050E0008003A3814D46D3E70020B6E7A946F5E744
:1050F000A060BEE74FF0FF30BBE700BF0C00002010
:105100007C6F00089C6F00085C6F0008F8B50E46C5
:105110001446054618B183690BB900F0EDFF214B29
:105120009C422AD16C68A369A360A3891A072ED573
:10513000236963B323692068C01A6369F6B28342A6
:10514000374604DC2146284600F06CFF28BBA368E4
:10515000013BA36023685A1C22601E706369013002
:10516000834204D0A389DB0719D50A2E17D1214623
:10517000284600F057FF90B10FE00B4B9C4201D145
:10518000AC68D0E7094B9C4208BFEC68CBE72146EE
:10519000284600F00DF80028CCD04FF0FF373846F5
:1051A000F8BD00BF7C6F00089C6F00085C6F0008B2
:1051B000324B70B51D6806460C4625B1AB6913B974
:1051C000284600F099FF2E4B9C420FD16C68B4F931
:1051D0000C309AB215072CD4D00611D409223260B3
:1051E00043F04003A3814FF0FF303EE0254B9C424B
:1051F00001D1AC68EBE7244B9C4208BFEC68E6E7C2
:10520000510712D5616B41B104F14403994202D0B8
:10521000304601F069FB00236363A38923F0240374
:10522000A3810023636023692360A38943F00803FB
:10523000A38123694BB9A38903F42073B3F5007FDD
:1052400003D02146304601F013F8A28912F0010381
:105250000CD00023A36063695B42A361236953B947
:10526000B4F90C3013F08000BAD170BD920758BF6A
:105270006369A360F2E70020F7E700BF0C0000209D
:105280007C6F00089C6F00085C6F00082DE9F74FE9
:1052900003690C69A3428046C0F28280013C01F19F
:1052A00014074FEA840C00F1140657F8245056F8FE
:1052B000240006EB0C03013507EB0C090193B0FB4E
:1052C000F5F595B34FF0000A3846B646D34650F888
:1052D000042B93B205FB03A34FEA134A9BB2ABEB3B
:1052E0000303120CDEF800B005FB02A213FA8BF3E5
:1052F0004FEA124A1FFA82FBDEF80020CBEB124283
:1053000002EB23429BB243EA024381454FEA224B20
:105310004EF8043BDBD256F80C3033B9019B043B0A
:105320009E421A4630D3C8F81040404601F008FAB1
:10533000002825DB013530464FF0000C57F8042BD0
:10534000D0F800E093B2ACEB0303120C13FA8EF327
:10535000C2EB1E4202EB23429BB243EA0243B94531
:105360004FEA224C40F8043BE8D256F8242006EBE2
:1053700084032AB9043B9E421A460BD3C8F8104056
:10538000284603B0BDE8F08F1268043B002ACAD15A
:10539000013CC5E71268043B002AEFD1013CEAE773
:1053A0000020EEE7000000002DE9F04F57EC106BF5
:1053B00097B0456A069104460B921293DDF88080FF
:1053C000CDE900673DB9102000F092FF6062C0E9AE
:1053D00001550560C560636A196851B15A684A6031
:1053E000012393408B60204600F0C9FF636A0022CE
:1053F0001A603B1EBBBF23F0004301930023012230
:10540000ACBFC8F80030C8F80020AF4BDDF804800E
:1054100033EA080314D1129A42F20F731360009B0F
:1054200023B9C8F31300002800F04285219BDFF860
:10543000ACB2002B00F044850BF1030300F03EBD3D
:10544000DDE900670022002330463946FBF74CFBBC
:10545000814668B1129A01231360219B002B00F052
:1054600024859A4B219A03F1FF3B136000F028BD7D
:1054700014AA15A947EC106B204601F0D8F9C8F31F
:105480000A550490002D7CD0C7F3130343F07F5BD3
:10549000B2464BF4401BA5F2FF35CDF84C900022EC
:1054A0008B4B50465946FAF7FFFE81A3D3E9002300
:1054B000FBF7B2F880A3D3E90023FAF7F7FE06461C
:1054C00028460F46FBF73EF87DA3D3E90023FBF700
:1054D000A3F802460B4630463946FAF7E7FE064681
:1054E0000F46FBF749FB002282460023304639462F
:1054F000FBF704FB48B15046FBF724F832463B4625
:10550000FBF7F2FA08B90AF1FF3ABAF1160F59D8C7
:10551000704901EBCA01DDE90023D1E90001FBF785
:105520000BFB002850D00AF1FF3A00230F93149B85
:105530005D1BB5F1010849BFC5F1010300230593C7
:105540004FF0000858BF0593BAF1000F3EDB00236F
:10555000D044CDF838A00793069B092B00F2908029
:10556000052BC4BF043B0693069BA3F10203CCBFEB
:1055700000250125032B00F28F80DFE803F07D7FFB
:105580003171DDE914531D4405F23240202813DD4A
:10559000C0F14000009B08FA00F805F2124023FA1F
:1055A00000F048EA0000FAF7BDFF01238246A1F1AE
:1055B000F87B013D139372E7009BC0F1200003FAD2
:1055C00000F0F0E70123B1E70F90B0E7059BA3EBF4
:1055D0000A030593CAF10003079300230E93BBE768
:1055E00001230A930B9B002B59DD02939946666AAF
:1055F00000227260042202F114009842716853D9AB
:10560000204600F088FE636A3060B9F10E0FD3F8CF
:1056100000B000F2E680002D00F0E3809DED007BFD
:10562000BAF1000F8DED107B74DD2A4A0AF00F03EA
:1056300002EBC30393ED007B4FEA2A16F0068DEDD3
:10564000087B65D5244BDDE91001D3E90823FBF77E
:105650000DF9CDE9000106F00F0603251E4F4CE0C1
:1056600001230A930B9B534403F1010902934B4618
:10567000012BB8BF0123BAE70023B2E70023F0E70C
:105680000125002306930A954FF0FF3302939946B4
:10569000002212230B92AAE701230A93F4E70123C5
:1056A000029399461A46F5E7013171605200A2E76C
:1056B00061436F63A787D23FB3C8608B288AC63F18
:1056C000FB799F501344D33F0000F07F296F0008FF
:1056D0000000F83FE86F0008C06F0008556F000831
:1056E000F10708D5DDE90801D7E90023FAF794FFAF
:1056F000CDE90801013576100837002EF0D1DDE93B
:105700000823DDE90001FBF7B1F8CDE900011AE05B
:105710000225A3E700F0A080CAF100069F4BA04F2E
:1057200006F00F0203EBC203D3E90023DDE9100109
:10573000FAF772FFCDE90001361100230225002E91
:105740007FD1002BE1D10F9B002B00F08780DDE99A
:1057500000670022934B30463946FBF7CFF900280B
:105760007CD0B9F1000F79D0029B002B35DD0AF116
:10577000FF330893394600228B4B3046FAF74CFF33
:10578000CDE90001029F01352846FAF7DBFEDDE98D
:105790000023FAF741FF0022844BFAF787FD054604
:1057A000A1F15076002F5DD10022814BDDE900018F
:1057B000FAF77AFD2A463346CDE90001FBF7BCF93A
:1057C000002840F088822A4606F10043DDE9000106
:1057D000FBF794F9002840F07C82DDE91023CDE945
:1057E0000023159B002BC0F25081BAF10E0F00F37D
:1057F0004C816A4B03EBCA0393ED007B0B9B002BA0
:105800008DED027B80F2D880B9F1000F00F3D480D7
:1058100040F05E820022664B51EC170BFAF7FCFE5B
:10582000DDE90023FBF77EF94F464E46002840F0A5
:10583000348231230BF101058BF800300AF1010AA3
:105840002FE2F20705D5D7E90023FAF7E5FE013587
:1058500001237610083772E7022574E7CDF820A0FF
:105860004F4691E74D4B03EBC70353E902010A9BF7
:10587000002B47D002460B4600204E49FAF7F6FFB0
:105880002A463346FAF710FDCDE90C015D46DDE905
:105890000001FBF771F90646FAF754FE02460B4683
:1058A000DDE90001FAF700FD303605F8016BDDE9AE
:1058B0000C23CDE90001FBF721F9002863D1DDE9D4
:1058C000002300203749FAF7EFFCDDE90C23FBF752
:1058D00015F9002840F0B780A5EB0B039F427FF736
:1058E0007CAF0022304BDDE90C01FAF795FE002277
:1058F000CDE90C012C4BDDE90001FAF78DFECDE975
:105900000001C4E72A463346FAF786FECDE90C01CA
:105910000BEB07055E46DDE90001FBF72DF90746B5
:10592000FAF710FE303702460B46DDE90001FAF7C0
:10593000BBFC06F8017BAE42CDE900014FF000024E
:1059400026D11C4BDDE90C01FAF7B0FC02460B46F0
:10595000DDE90001FBF7F0F8002874D1DDE90C2344
:1059600000201449FAF7A0FC02460B46DDE90001CD
:10597000FBF7C4F800283FF430AF15F8013C302B9A
:1059800005F1FF3202D0DDF820A04AE01546F4E729
:10599000054BFAF741FECDE90001BCE7E86F0008CE
:1059A000C06F00080000F03F0000244000001C40D1
:1059B000000014400000E03FDDE900675D46DDE9DE
:1059C000022330463946FAF751FFFBF7D5F88046F7
:1059D000FAF7B8FDDDE90223FAF71EFE02460B4690
:1059E0003046394608F13006FAF75EFC05F8016BDF
:1059F000A5EB0B06B14502460B4639D1FAF756FC2A
:105A0000DDE9022306460F46FBF796F8C8B9DDE943
:105A1000022330463946FBF767F810B118F0010F42
:105A20000FD10499204600F0AAFC0023129A2B7093
:105A30000AF101031360219B002B00F041821D60DD
:105A40003EE2CDF820A015F8012C392A05F1FF33EC
:105A500008D19B450AD1089B0133089330238BF86A
:105A600000305B461A7801321A708CE71D46EAE76F
:105A700000229B4BFAF7D0FD0022002306460F467A
:105A8000FBF732F800289AD0CBE70A9A002A00F0F8
:105A90008B80069A012A6EDC139A002A67D003F2E3
:105AA0003343079F059D059A01211A44204605921C
:105AB000984400F004FD0646002D0CDDB8F1000FFF
:105AC00009DD4545059A2B46A8BF4346D21A0592E3
:105AD000ED1AA8EB0308079BEBB10A9B002B67D0DC
